:020000040800F2
:10000000781200209D0100087D5200081D2600087E
:10001000F1450008AB130008C77B00080000000092
:100020000000000000000000000000006166000801
:1000300001230008000000004D5300082968000853
:10004000B7010008B7010008B7010008B7010008B0
:10005000B7010008B701000891240008B7010008A3
:10006000B7010008B7010008B7010008B701000890
:10007000B7010008B7010008B7010008B701000880
:10008000611F0008B7010008B7010008B7010008A8
:10009000B1130008B7010008B7010008B701000854
:1000A000B7010008B7010008B7010008B701000850
:1000B00021690008B7010008B7010008B70100086E
:1000C000B7010008B7010008B7010008B701000830
:1000D000B7010008CD71000869740008B175000807
:1000E000A3240008B7010008B7010008B701000801
:1000F000B7010008B7010008B7010008B701000800
:10010000B7010008B7010008B7010008B7010008EF
:10011000296E0008956F0008396900088569000894
:10012000B7010008B7010008991F0008B7010008CF
:10013000B7010008B7010008B7010008B7010008BF
:10014000E1130008B7010008B7010008B701000873
:10015000B7010008B7010008E91F0008D9770008B7
:10016000B7010008B7010008B7010008B70100088F
:10017000B7010008B7010008B7010008B70100087F
:10018000B7010008B7010008DFF80CD000F01CFC34
:100190000048004795AB00087812002006488047C9
:1001A00006480047FEE7FEE7FEE7FEE7FEE7FEE75C
:1001B000FEE7FEE7FEE7FEE7B968000889010008F0
:1001C0002DE9F0410024061B254671F1000605DAF1
:1001D00001240027D0EB070067EB0101161E73F125
:1001E000000605DA0027D2EB0702012567EB0303BF
:1001F00000F08AFA86460E4617469C46AC4204D06A
:100200000025D0EB050E65EB010624B10020D2EBF2
:10021000000760EB030C704631463A466346BDE882
:10022000F081D2B201E000F8012B491EFBD27047E9
:100230000022F6E710B513460A4604461946FFF7B2
:10024000F0FF204610BD30B504460020034600E014
:100250005B1C934203D2E05CCD5C401BF8D030BD08
:100260002DE9FE4F804681EA0300C00F0C46009046
:1002700021F0004123F00045B8EB0200A94105D26E
:100280004046214690461C460B46024623F000405D
:10029000104347D0270DC7F30A00C3F30A51029059
:1002A000401A019040286BDAC3F3130040F4801B1E
:1002B0000098924620B10023D2EB030A63EB0B0BAC
:1002C00001985946C0F14002504600F04EFA0646E9
:1002D0000D4650465946019A00F066FA10EB0800A8
:1002E0006141002487EA115284EAE7731A4340D03F
:1002F000009A62B3019A012A4FEA075215DC001BEB
:1003000061EB02014FF0004202EA0752CDE90042E0
:10031000001C41F5801132462B4600F09DFA03B0D7
:10032000BDE8F08F40462146F9E7001B61EB020172
:10033000001C41F5801300185B412018A2F500173E
:1003400047EB030140EAD570B6196D4111E06D0825
:100350004FEA360645EAC0754FEA0752001B61EBCB
:100360000201001C41F5801149084FEA30000019D4
:10037000514132462B4603B0BDE8F04F00F05DBA64
:100380000098012240000023D0EB020263EBE073EF
:10039000009821464FEAE074B8EB000061EB0401DD
:1003A000E9E783F000435BE781F0004158E72DE97E
:1003B000FE4F81EA030404F0004421F00041009460
:1003C0004FF0000B23F0004350EA01045ED052EAE4
:1003D00003045BD0C3F30A54C1F30A552C44A4F2BE
:1003E000F3340194A0FB0254C1F3130141F48011D2
:1003F000C3F3130343F4801301FB024400FB034ED9
:10040000840A970A44EA815447EA8357A4FB0768A1
:1004100002958D0A05FB07854FEA932C04FB0C54CB
:100420002705029D4FEA065847EA1637B5EB08053F
:100430006EEB070C870E920E47EA811742EA831291
:10044000A7FB0201B6EB0B0164EB00042B0D43EAA2
:100450000C335E1844EB1C50DA465146E7FB0201B0
:10046000C5F313044FEA0B3343EA14534FEA043243
:10047000019C43EA0603A4F10C040294009CCDE91C
:1004800000B400F0E9F903B0BDE8F08F00200146A8
:10049000F9E72DE9F04D81EA030404F0004B21F067
:1004A000004514464FF0000A23F0004150EA0502CF
:1004B00020D054EA01021DD0C5F30A570246C5F305
:1004C0001303C1F31300C1F30A5640F4801543F43B
:1004D0008013A7EB0608101BD64608F2FD3873EB15
:1004E000050002D308F1010801E092185B41B8F160
:1004F000000F03DA00200146BDE8F08D00204FF424
:100500008011064684460EE0171B73EB050705D3E2
:10051000121B63EB050306434CEA010C49084FEA42
:10052000300092185B4150EA0107EDD152EA030016
:1005300012D082EA040083EA0501084305D0101BAB
:10054000AB4106D20122002306E000224FF0004317
:1005500002E06FF0010253101AEB06004CEB085159
:1005600010EB0A0041EB0B01BDE8F04D00F065B95E
:100570000EB5C10F80EAE0700844CA07002140F2BE
:1005800033438DE80E000A460B4600F065F903B0D0
:1005900000BD0EB540F2334102910021CDE90011BA
:1005A0000A460B4600F058F903B000BD70B5C1F320
:1005B0000A5201F000450024C1F3130140F2FF3359
:1005C00041F480119A4201DA002070BD40F23343B9
:1005D0009A42A2F2334203DC524200F0D5F800E026
:1005E00090402C43F1D0404270BDC1F30A5210B587
:1005F000C1F3130140F2FF3341F480119A4201DA52
:10060000002010BD40F233439A42A2F2334203DC91
:10061000524200F0B9F810BD904010BD00F0004209
:1006200030F000400AD0C10D01F56071C0F3160032
:1006300042EA0151C20840071143704700200146B9
:100640007047000030B5041E71F1000404DB4FF068
:100650000044404264EB0101141E73F1000405DB09
:100660001C464FF00043524263EB04038B4208BF29
:10067000824230BD30B5041E71F1000404DB4FF03E
:100680000044404264EB0101141E73F1000405DBD9
:100690001C464FF00043524263EB0403994208BFEB
:1006A000904230BD01F0004330B421F0004150EAE7
:1006B000010206D00A0DA2F56072C1F31301002AEF
:1006C00002DC30BC00207047440F44EAC104C10082
:1006D000E01830BC00EBC25000F078B830B50B46E3
:1006E000014600202022012409E021FA02F59D4262
:1006F00005D303FA02F5491B04FA02F52844151E36
:10070000A2F10102F1DC30BD2DE9F05F05460020C9
:1007100092469B4688460646814640241BE0284672
:1007200041464746224600F02FF853465A46C01A23
:10073000914110D311461846224600F016F82D1AA2
:1007400067EB01084F4622460120002100F00DF81A
:1007500017EB00094E41201EA4F10104DFDC4846DE
:1007600031462A464346BDE8F09F202A04DB203A62
:1007700000FA02F1002070479140C2F1200320FAF4
:1007800003F3194390407047202A04DB203A21FAF2
:1007900002F00021704721FA02F3D040C2F120029A
:1007A0009140084319467047202A06DBCB17203AB0
:1007B00041FA02F043EAE07306E041FA02F3D04066
:1007C000C2F1200291400843194670470029A8BF92
:1007D0007047401C490008BF20F00100704710B46A
:1007E000B0FA80FC00FA0CF050EA010404BF10BC1F
:1007F000704749B1CCF1200421FA04F411FA0CF14C
:1008000018BF012121430843A3EB0C01CB1D4FEA84
:1008100000614FEA102042BF002010BC704700EB7F
:10082000C35010440029A4BF10BC7047401C4900AD
:1008300008BF20F0010010BC704710B5141E73F102
:10084000000408DA401C41F1000192185B411A4390
:1008500001D120F0010010BD2DE9F04D92469B46DC
:1008600011B1B1FA81F202E0B0FA80F22032904682
:10087000FFF77BFF04460F4640EA0A0041EA0B01FE
:1008800053465A46084313D0114653EA010019D083
:10089000C8F140025046FFF777FF05460E46504626
:1008A00059464246FFF761FF084305D0012004E0A6
:1008B00020463946BDE8F08D0020054346EAE07643
:1008C0002C4337430A986305E40AA0EB0800002292
:1008D000FD0A44EA47540A3002D500200146E9E700
:1008E000010510196941DDE9084500196941BDE8B4
:1008F000F04DA2E72DE9F04D00231A461B1A8A415C
:1009000003DB00200146BDE8F08DC1F30A52C1F3BC
:10091000130141F480154FF0000BD10702D10018EC
:100920006D41521E0027044640F2FF11384601EB8C
:10093000620A3E468046024600204FF48011FFF7CF
:1009400023FFC2197141BB1846EB0100B4EB030C45
:1009500075EB000C04D3E41A65EB000517460E4650
:10096000241908F101006D4180463428E3DDF919AE
:1009700046EB0600091BA84103D24FF0FF32134695
:1009800001E0002213461BEB070046EB0A51BDE8CD
:10099000F04DFFF752BFC1F30A52C1F3130140F209
:1009A000FF3341F480119A4202DA00200146704779
:1009B00040F233439A42A2F2334202DC5242FFF742
:1009C000E3BEFFF7D2BE0000064C074D06E0E0682C
:1009D00040F0010394E8070098471034AC42F6D386
:1009E000FFF7D6FB04D3000824D3000821B18268A6
:1009F00042F00102826003E0826822F0010282601C
:100A0000704700000021084A1168084A1140D0E9E7
:100A100000231A4383681A43C3681A431143044AE4
:100A2000C2F804137047000004230140E030FCFFCB
:100A30000020014021B1826842F48072826003E0AC
:100A4000826822F480728260704721B1826842F429
:100A50000072826003E0826822F400728260704754
:100A600030B50246002000235068104C20400D791C
:100A70000C6844EA05242043506090680C4C2040E8
:100A8000D1E903542C438D682C434D7944EA450445
:100A900020439060D06A20F470000C7D641EE4B2A4
:100AA000234340EA0350D06230BD0000FFFEFFFC4C
:100AB000FDF7FFC0F0B504460D4600200021092DCA
:100AC00011DDE068A5F10A0606EB4607072606FADF
:100AD00007F18843A5F10A0606EB460603FA06F17C
:100AE0000843E0600CE0206905EB4507072606FA9D
:100AF00007F1884305EB450603FA06F10843206138
:100B0000072A0FDA606B561E06EB86071F2606FAC9
:100B100007F18843561E06EB860605FA06F10843E0
:100B2000606322E00D2A0FDA206BD61F06EB8607E2
:100B30001F2606FA07F18843D61F06EB860605FA3C
:100B400006F10843206310E0E06AA2F10D0606EB0F
:100B500086071F2606FA07F18843A2F10D0606EB69
:100B6000860605FA06F10843E062F0BD816841F0AF
:100B7000804181607047000038B10849096841F43C
:100B80000001074AC2F8041306E00449096821F489
:100B90000001034AC2F80413704700000423014017
:100BA0000020014010B52DED108B8AB0F0EE408A88
:100BB000B0EE60BAB0EE418A9FEDF80AF0EE40DA8E
:100BC0009FEDF70AB0EE40EA9FEDF50AF0EE40EA3D
:100BD0009FEDF20AB0EE409A9FEDF00AF0EE409AD7
:100BE0009FEDEE0AB0EE40AA9FEDEC0AF0EE40AAAF
:100BF0009FEDEA0AF0EE40BA9FEDE80AB0EE40CA77
:100C00009FEDE60AF0EE40CA9FEDE40AB0EE40DA4E
:100C1000B0EE680A08EE6E0AB0EE40FAB0EE4B0A8B
:100C200008EE0E0A8DED090A6FEE0F0A9DED090A16
:100C300040EE000A10EE901A0846FFF7EFFCCDE9EF
:100C400000019DED000B08F021F88DED020B9DEDEC
:100C5000020B51EC100BFFF725FD0BEE900AB0EEE6
:100C6000680A08EE6E0AF0EE40FAB0EE4B0A08EEA3
:100C70004E0A8DED080A6FEEAF0A9DED080A40EEB0
:100C8000000A10EE901A0846FFF7C8FCCDE90001F3
:100C90009DED000B07F0FAFF8DED020B9DED020BB1
:100CA00051EC100BFFF7FEFC0CEE100AB0EE680AD8
:100CB00008EE2E0A8DED070AB0EE4B0A08EE4E0A3A
:100CC0008DED060A9DED070A60EE000A9DED060A0D
:100CD00040EE000A10EE901A0846FFF79FFCCDE99F
:100CE00000019DED000B07F0D1FF8DED020B9DED96
:100CF000020B51EC100BFFF7D5FC0CEE900AB0EE96
:100D0000680A08EE2E0A8DED050AB0EE4B0A08EED1
:100D10000E0A8DED040A9DED050A60EE000A9DEDB8
:100D2000040A40EE000A10EE901A0846FFF776FC1F
:100D3000CDE900019DED000B07F0A8FF8DED020B42
:100D40009DED020B51EC100BFFF7ACFC0DEE100A01
:100D50000220944981F8410018EE900AFFF75EFCEA
:100D6000CDE900019DED000B07F086FF8DED020B34
:100D70009FED8D0B53EC102B9DED020B51EC100BE6
:100D8000FFF778FC7ED28FEE2B0A10EE104A204639
:100D9000FFF744FCCDE900019DED000B07F020F9C1
:100DA0008DED020B9DED020B51EC100BFFF77AFC61
:100DB00009EE100A8FEE8C0A10EE104A2046FFF75B
:100DC0002DFCCDE900019DED000B07F009F98DED3B
:100DD000020B9DED020B51EC100BFFF763FC09EECB
:100DE000900A9DED070AC0EE2C0A10EE904A2046AC
:100DF000FFF714FCCDE900019DED000B07F0F0F8C2
:100E00008DED020B9DED020B51EC100BFFF74AFC30
:100E10000AEE100A9DED050AC0EE0D0A10EE904A8A
:100E20002046FFF7FBFBCDE900019DED000B07F02D
:100E3000D7F88DED020B9DED020B51EC100BFFF777
:100E400031FC0AEE900A9FED5A0AB4EEC09AF1EE18
:100E500010FA05DD9FED570A30EE490AB0EE409AD0
:100E60009FED530AF4EEC09AF1EE10FA05DD9FED06
:100E7000510A30EE690AF0EE409A9FED4D0AB4EE49
:100E8000C0AA00E098E0F1EE10FA05DD9FED490AF6
:100E900030EE4A0AB0EE40AA9FED450AF4EEC0AA31
:100EA000F1EE10FA05DD9FED430A30EE6A0AF0EE2E
:100EB00040AAF5EEC08AF1EE10FA0DDBB5EEC08A5D
:100EC000F1EE10FA08DBB1EE690AF0EE409AB1EEED
:100ED0004A0AB0EE40AA6AE1F5EEC08AF1EE10FAD5
:100EE0000DDBB5EEC08AF1EE10FA08D2B1EE490A78
:100EF000B0EE409AB1EE6A0AF0EE40AA57E1F5EE84
:100F0000C08AF1EE10FA21D2B5EEC08AF1EE10FAE5
:100F10001CD8B1EE490AB0EE409AB1EE6A0AF0EE82
:100F200040AAF0EE6BDAB1EE4D0AF0EE40BAB1EE47
:100F30006D0AB0EE40DAF0EE4CDAB1EE6C0AB0EECB
:100F400040CAB1EE6D0AF0EE40CA30E1F5EEC08A5B
:100F5000F1EE10FABFD2B5EEC08AF1EE10FABADDAA
:100F6000B1EE690AF0EE409AB1EE4A0AB0EE40AA3C
:100F7000F0EE6BDAB1EE4D0AF0EE40BAB1EE6D0A6A
:100F8000B0EE40DAF0EE4CDAB1EE6C0AB0EE40CAE8
:100F9000B1EE6D0AF0EE40CA09E100000000000069
:100FA000CDCCCC3E780200207B14AE47E17A843F62
:100FB000DA0FC93FDA0F494018EE900AFFF72EFB0F
:100FC000CDE900019DED000B07F056FE8DED020B03
:100FD0001FED0B0B53EC102B9DED020B51EC100B86
:100FE000FFF730FB7ED218EE100AFFF717FBCDE9B2
:100FF00000019DED000B07F03FFE8DED020B1FED94
:10100000160B53EC102B9DED020B51EC100BFFF760
:1010100031FB67D28FEE2B0A10EE104A2046FFF705
:10102000FDFACDE900019DED000B06F0D9FF8DED35
:10103000020B9DED020B51EC100BFFF733FB09EE99
:10104000100A8FEE8C0A10EE104A2046FFF7E6FADF
:10105000CDE900019DED000B06F0C2FF8DED020B06
:101060009DED020B51EC100BFFF71CFB09EE900AF3
:101070009DED070AC0EE2C0A10EE904A2046FFF7BD
:10108000CDFACDE900019DED000B06F0A9FF8DED35
:10109000020B9DED020B51EC100BFFF703FB0AEE68
:1010A000100A9DED050AC0EE0D0A10EE904A20468A
:1010B000FFF7B4FACDE900019DED000B06F090FFBB
:1010C0008DED020B9DED020B51EC100BFFF7EAFAD0
:1010D0000AEE900A1FED4A0AB4EEC09AF1EE10FA39
:1010E00007DD00E043E01FED4D0A30EE490AB0EEA7
:1010F000409A1FED510AF4EEC09AF1EE10FA05DDA8
:101100001FED540A30EE690AF0EE409A1FED580ABE
:10111000B4EEC0AAF1EE10FA05DD1FED5A0A30EE6A
:101120004A0AB0EE40AA1FED5E0AF4EEC0AAF1EE44
:1011300010FA05DD1FED610A30EE6A0AF0EE40AAF2
:10114000B5EEC08AF1EE10FA08DDB1EE690AF0EEF4
:10115000409AB1EE4A0AB0EE40AA28E0B1EE490A40
:10116000B0EE409AB1EE6A0AF0EE40AA1FE01FED21
:10117000750AB0EE409A1FED770AF0EE409A1FED27
:10118000790AB0EE40AA1FED7B0AF0EE40AA1FEDEF
:101190007D0AF0EE40BA1FED7F0AB0EE40CA1FEDA7
:1011A000810AF0EE40CA1FED830AB0EE40DA9FEDEF
:1011B000740A29EE000AB0EE409A9FED710A29EEFA
:1011C000800AF0EE409A9FED6E0A2AEE000AB0EE19
:1011D00040AA9FED6B0A2AEE800AF0EE40AA9FED2E
:1011E000690AB4EEC09AF1EE10FA04DD9FED650ACB
:1011F000B0EE409A0AE09FED640AB4EEC09AF1EEB8
:1012000010FA03D29FED600AB0EE409A9FED5D0A9E
:10121000F4EEC09AF1EE10FA04DD9FED5A0AF0EEFA
:10122000409A0AE09FED580AF4EEC09AF1EE10FAE7
:1012300003D29FED550AF0EE409A9FED520AB4EEAC
:10124000C0AAF1EE10FA04DD9FED4E0AB0EE40AAFE
:101250000AE09FED4D0AB4EEC0AAF1EE10FA03D2F7
:101260009FED490AB0EE40AA9FED460AF4EEC0AAEF
:10127000F1EE10FA04DD9FED430AF0EE40AA0AE019
:101280009FED410AF4EEC0AAF1EE10FA03D29FEDF1
:101290003E0AF0EE40AA9FED3D0A29EE000AF7EE65
:1012A000000A80EE201ABDEEC10A10EE100A38497D
:1012B00008619FED360A29EE800AF7EE000A80EEFB
:1012C000201ABDEEC10A10EE100A48619FED2F0AE8
:1012D0002AEE000AF7EE000A80EE201ABDEEC10ADF
:1012E00010EE100A88619FED290A2AEE800AF7EEB7
:1012F000000A80EE201ABDEEC10A10EE100AC86185
:101300009FED240A2BEEC00AF7EE000A80EE201AA9
:10131000BDEEC10A10EE100A00B248809FED1D0A12
:101320002CEE400AF7EE000A80EE201ABDEEC10A4C
:1013300010EE100A01B2164881809FED160A2CEEBD
:10134000800AF7EE000A80EE201ABDEEC10A10EE08
:10135000100A01B20E48C1809FED0E0A2DEE000A60
:10136000F7EE000A80EE201ABDEEC10A10EE100A58
:1013700001B2074801810AB0BDEC108B10BD00001E
:101380003333654200007042000070C20000C84262
:1013900078020020160D8C4210B504460B2246F24E
:1013A000F701204602F054FC10BD00BFFEE700002C
:1013B00010B50221074800F06FF9012809D1064A4B
:1013C0000021044800F0FAFA01F012FE012003495E
:1013D000087010BD0064004054010020430000204C
:1013E00010B50221064800F057F9012807D1054A37
:1013F0000021034800F0E2FA01200349087010BD03
:1014000000680040680100204500002070B50446D7
:101410000D46204600F0DAF82946204600F060FA32
:10142000204600F0A5F8204600F09EFA70BD0000AE
:1014300010B504460B48844209D10121480603F047
:10144000A7FF00214FF0007003F0A2FF08E0012188
:10145000880603F09DFF00214FF0806003F098FFA5
:1014600010BD00000064004010B50021837A012205
:1014700002FA03F13D4A126842F001023B4B1A6046
:101480003A4A1C3212688A43384B1C331A60027B7A
:10149000CAB9364A0C3212688A43344B0C331A608C
:1014A0004288C38842EA0343304A4032847A42F891
:1014B00034300288838842EA03432C4A4032847ADB
:1014C00002EBC4025360027B012A19D1274A0C3275
:1014D00012680A43254B0C331A604288038842EA9B
:1014E0000343224A4032847A42F83430C2888388E7
:1014F00042EA03431D4A4032847A02EBC40253603D
:10150000C27A3AB9194A121D12688A43174B1B1D39
:101510001A6006E0154A121D12680A43134B1B1D80
:101520001A60028932B9114A143212688A430F4B89
:1015300014331A600289012A06D10C4A1432126847
:101540000A430A4B14331A60427B012A06D1074A28
:101550001C3212680A43054B1C331A60034A126896
:1015600022F00102014B1A6010BD0000006600402D
:101570001FB504461448844203D100208DF80A00A8
:1015800002E00E208DF80A0000208DF80B000120EB
:101590008DF80C000020ADF8000042F60440ADF8D4
:1015A00002000020ADF80400ADF80600ADF8080018
:1015B00001208DF80D006846FFF756FF0122022139
:1015C000204600F0F9F81FBD006400401CB5044639
:1015D0002E4884422BD10121480603F0C9FE012187
:1015E000082003F0B5FE09220021294800F0E2FF9F
:1015F00009220121264800F0DDFF022000908DF82D
:1016000004008DF8050000208DF8060001208DF8FB
:10161000070069461E4800F085FF01200090022067
:101620008DF8040069461A4800F07CFF2DE0012186
:10163000880603F09DFE0121022003F089FE0922A5
:101640000C21144800F0B6FF09220D21114800F0CA
:10165000B1FF4FF40050009002208DF804008DF887
:10166000050000208DF8060001208DF8070069466E
:10167000084800F057FF4FF48050009002208DF88A
:1016800004006946034800F04DFF1CBD00640040A3
:10169000000C02400004024070B504460D460026CE
:1016A00060692840002871D0B5F5807F5CD010DCDF
:1016B000082D35D006DC012D20D0022D24D0042D9C
:1016C00072D127E0102D31D0202D35D0402D6BD197
:1016D00038E0B5F5004F60D009DCB5F5007F49D0A2
:1016E000B5F5806F4CD0B5F5006F5DD14FE0B5F525
:1016F000803F2DD0B5F5003F56D12FE0A0682D4991
:1017000000F024FC064651E0E068032100F01EFCD6
:1017100006464BE0E068082100F018FC064645E06C
:10172000E068102100F012FC06463FE0206903212A
:1017300000F00CFC064639E02069082100F006FCA8
:10174000064633E02069102100F000FC06462DE03B
:101750006068082100F0FAFB064627E06068102167
:1017600000F0F4FB064621E0A069012100F0EEFB49
:1017700006461BE0A069022100F0E8FB064615E0E2
:10178000A069042100F0E2FB06460FE00FE0A0692B
:10179000702100F0DBFB064608E06068042100F0E1
:1017A000D5FB064602E0FFE7002600BF00E000266A
:1017B000304670BD010101001AB143690B4343611A
:1017C00002E043698B434361704730B50246002015
:1017D0000023146824F002041460146844F0010427
:1017E000146000E05B1C546804F001041CB94FF65F
:1017F000FF74A342F6D1546804F001040CB9002030
:101800006CE08C79012C04D1146844F080041460DD
:1018100003E0146824F080041460CC79012C04D116
:10182000146844F04004146003E0146824F0400499
:1018300014600C7A012C04D1146844F02004146064
:1018400003E0146824F0200414604C7A012C04D1C5
:10185000146844F01004146003E0146824F01004C9
:1018600014608C7A012C04D1146844F008041460CC
:1018700003E0146824F008041460CC7A012C04D12D
:10188000146844F00404146003E0146824F00404B1
:1018900014608C78A407CD7844EA05640D7944EA95
:1018A00005444D7944EA05540D886D1E2C43D461DE
:1018B000146824F001041460002300E05B1C5468E9
:1018C00004F001041CB14FF6FF74A342F6D1546832
:1018D00004F001040CB1002000E0012030BD000044
:1018E0003EB505460C461F48854204D101214806F5
:1018F00003F03EFD04E001214FF0C06003F038FD2D
:101900002846FFF795FD684600F0D0F800208DF8D6
:10191000060001208DF807008DF8080000208DF8E2
:1019200009008DF80A008DF80B008DF802000120E7
:101930008DF8030003208DF8040001208DF80500C8
:10194000B4F5FA7F03D10C20ADF8000005E0B4F542
:101950007A7F02D10620ADF8000069462846FFF7DD
:1019600034FF3EBD0064004038B504464FF4C0600B
:1019700003F0C2FC104884420ED114208DF8000000
:1019800000208DF801008DF8020001208DF8030081
:10199000684603F075FC0DE040208DF80000002043
:1019A0008DF8010001208DF802008DF803006846D3
:1019B00003F066FC38BD00000064004010B500F57F
:1019C000D87303EB01131B6803F004031372137A3B
:1019D00053B900F5D87303EB01131B6840F2FF7491
:1019E00004EA5353136009E000F5D87303EB0113C5
:1019F0001B686FF0604404EAD303536000F5D873AA
:101A000003EB01131B6803F00203537200F5D87354
:101A100003EB01135B6803F00F03937200F5D873B7
:101A200003EB01135B681B0AD37400F5D87303EB57
:101A300001139B68D37200F5D87303EB01139B6805
:101A40001C0A147300F5D87303EB01139B681C0C7C
:101A5000547300F5D87303EB01139B681B0E93734B
:101A600000F5D87303EB0113DB68D37300F5D8736B
:101A700003EB0113DB681C0A147400F5D87303EB45
:101A80000113DB681C0C547400F5D87303EB0113CD
:101A9000DB681B0E937421B9C36843F02003C36055
:101AA00003E0036943F02003036110BD002181714D
:101AB000C171017241728172C1728170C170032162
:101AC00001710221417101210180704710B5024668
:101AD0000020936803F08063B3F1806F00D110E0C1
:101AE000936803F00063B3F1006F01D1012008E0B7
:101AF000936803F08053B3F1805F01D1022000E0CE
:101B00000420042874D002F5C07303EB00131B6893
:101B100003F0010402F5C07303EB00131C600B7AA1
:101B20007BB94B7A0C8843EA445302F5C07404EB4A
:101B300000142468234302F5C07404EB00142360EE
:101B400010E00B7A4C6843EAC4034C7A234302F555
:101B5000C07404EB00142468234302F5C07404EB42
:101B6000001423608B7A03F00F038B7202F5C073AD
:101B700003EB00135B6823F00F0402F5C07303EB63
:101B800000135C6002F5C07303EB00135B688C7A92
:101B9000234302F5C07404EB001463608B7B1C06C6
:101BA0004B7B44EA03440B7B44EA0323CC7A234374
:101BB00002F5C07404EB0014A3608B7C1C064B7C04
:101BC00044EA03440B7C44EA0323CC7B234302F521
:101BD000C07404EB0014E36002F5C07303EB001360
:101BE0001B6843F0010402F5C07303EB00131C6093
:101BF00010BD000010B52DED068B35488168006CD6
:101C0000084400EE100AB8EEC00ADFED320A80EE9A
:101C1000201AF0EE418A2E48D0F8B010806F0844A8
:101C200000EE100AB8EEC00ADFED2A0A80EE201A94
:101C3000B0EE418A9FED280A28EE000AB0EE408AF5
:101C40009FED250A28EE800AF0EE408A38EE280A39
:101C5000F0EE000A80EE201A204880ED001A9FED79
:101C6000200A204880ED000A1F4890F84C0028B355
:101C70001D4890ED080A1D4880ED000A90ED000A0D
:101C800010EE100AFEF7CAFC41EC1A0BB0EE4A0A3D
:101C9000F0EE6A0A06F0F0FFB0EE409AF0EE609ABD
:101CA0009FED130B53EC102B51EC190BFEF7CAFCF4
:101CB00004D29FED0B0A0D4880ED000A0B4890ED11
:101CC000000A0D4880ED000ABDEC068B10BD000037
:101CD000BC0200200000FA44C0922B3C7C00002093
:101CE00000000000800000209C03002088000020ED
:101CF0007B14AE47E17A743F8400002010B52DEDCF
:101D0000028B0446012004F0B3FB01280CD03548B7
:101D10000068142808D834480068142818D93348B3
:101D200090F82000012813D10020314981F82800C3
:101D300081F84000086100212D4841618161C16145
:101D400000202B494880002129488180C1800181E1
:101D5000012C06D0022C13D0032C20D0042C3CD113
:101D60002CE02349B1F90200FEF702FC41EC180B0C
:101D7000B0EE480AF0EE680A012002F01BF82DE0F0
:101D80001B49B1F90800FEF7F3FB41EC180BB0EE6C
:101D9000480AF0EE680A042002F00CF81EE014492C
:101DA000B1F90600FEF7E4FB41EC180BB0EE480A6F
:101DB000F0EE680A032001F0FDFF0FE00C49B1F9D5
:101DC0000400FEF7D5FB41EC180BB0EE480AF0EE2C
:101DD000680A022001F0EEFF00E000BF00BFBDEC8A
:101DE000028B10BD24000020280000207C01002070
:101DF0007802002010B502F0FDFB03F06DFB10B17E
:101E0000002002490860FFF7F5FE10BD2400002005
:101E1000F0B587B00024002600270025AE22214619
:101E2000641C0DF80120EA222146641C0DF80120F3
:101E300001222146641C0DF80120A7222146641CC2
:101E40000DF801203C4890ED000ADFED3C0A20EE41
:101E5000200AF7EE000A80EE201ABDEEC10A10EE4D
:101E6000100A05B2C5F307222146641C0DF80120B3
:101E7000EAB22146641C0DF80120314890ED000AB9
:101E8000DFED2E0A20EE200AF7EE000A80EE201A7F
:101E9000BDEEC10A10EE100A05B2C5F307222146B5
:101EA000641C0DF80120EAB22046611CCCB20DF88A
:101EB0000020244890ED000ADFED200A20EE200AE1
:101EC000F7EE000A80EE201ABDEEC10A10EE100AED
:101ED00005B2C5F307222046611CCCB20DF80020E4
:101EE000EAB22046611CCCB20DF80020601EC0B2E0
:101EF0008DF80200022604E01DF806000744701C5D
:101F0000C6B2A642F8DBFAB22046611CCCB20DF88C
:101F10000020EF222046611CCCB20DF80020FE22EA
:101F20002046611CCCB20DF80020224669460648C6
:101F300005F084F807B0F0BD7C00002000007A4472
:101F40008000002084000020001001400246002094
:101F500002EA01030BB1012000E0002070470000FD
:101F600010B50A490A4800F04FF970B1074908480E
:101F700000F06EF819200649091D08600121044887
:101F800000F080F801200349087010BD008800208F
:101F9000886002404000002010B50F490F4800F053
:101FA00033F9B8B100210D4800F06CF80A490B482C
:101FB00000F04EF840210A4805F008FD28200749A6
:101FC000091D08600121054800F05CF84021054822
:101FD00000F020FB10BD0000008020104064024093
:101FE000001001400014024010B54021084800F0E4
:101FF00011FB0849084800F007F938B100210648EC
:1020000000F040F80349044800F008F810BD000053
:102010000014024000800028B86402400246094BC8
:102020009A4201D2084801E00648103801F00053F6
:102030001BB1064B0B40C36002E0044B0B408360B6
:102040007047000010640240006002407D0F7D0F69
:102050000246094B9A4201D2084801E0064810386E
:1020600001F000531BB1064B0B40C36002E0044B70
:102070000B40836070470000106402400060024023
:102080007D0F7D0F21B1026842F00102026003E082
:10209000026822F00102026070470000016821F02E
:1020A000010101600021016041608160C160016146
:1020B000212141614A49884204D13D21484A103AD0
:1020C00091608CE046491831884205D14FF4746123
:1020D000434A103A916082E041493031884205D14B
:1020E0004FF474113E4A103A916078E03C4948310F
:1020F000884205D14FF07461394A103A91606EE020
:1021000037496031884204D13649354A103AD160A6
:1021100065E033497831884204D13349304A103A76
:10212000D1605CE02E499031884204D12F492C4A7D
:10213000103AD16053E02A49A831884205D14FF0C6
:102140003D51274A103AD16049E02949884204D1DB
:102150003D21274A083A116041E02549183188425B
:1021600005D14FF47461224A083A116037E02049E2
:102170003031884205D14FF474111D4A083A11607C
:102180002DE01B494831884205D14FF07461184A4F
:10219000083A116023E016496031884204D11149A0
:1021A000134A121F11601AE011497831884204D194
:1021B0000D490F4A121F116011E00D4990318842FC
:1021C00004D10A490A4A121F116008E00849A831DF
:1021D000884204D14FF03D51054A121F11607047EB
:1021E000106002403D000020400F002000003D2014
:1021F00010640240014600200A6802F001020AB1A0
:10220000012000E00020704770B502460020002445
:102210000025124EB24201D2114B01E00F4B103B90
:10222000104E0E4036B11E2606EAD124166806EA84
:10223000040502E0566906F0800501F000560EB173
:102240005C6800E01C68084E344004EA010616B1E0
:102250000DB1012000E0002070BD000010640240BC
:10226000006002403C0F3C0F7D0F7D0F10B501F068
:1022700080034BB122B1436943F08003436103E023
:10228000436923F08003436180290BD02AB103689E
:1022900001F01E042343036004E0036801F01E0400
:1022A000A343036010BD000010B500220268134B69
:1022B0001A40CC680B6823434C6923438C69234341
:1022C000CC6923430C6A23434C6A23438C6A23431F
:1022D0004C6B23438C6B23431A430260426922F008
:1022E0000702D1E90B3423431A4342610B6943606F
:1022F0004B6883608B68C36010BD00003F801CF09A
:1023000070470000074908604FF0E021096941F07B
:1023100001014FF0E022116100BF02490968002964
:10232000FBD170479C0000200120514981F84000FA
:102330009FED503AB0EE431A9FED4E3AB0EE432A6D
:102340009FED4C3AF0EE432A9FED4A3AF0EE431AE5
:102350009FED493AB4EEC30AF1EE10FA04DD9FEDA9
:10236000463AB0EE430A0AE09FED443AB4EEC30A9F
:10237000F1EE10FA03D29FED413AB0EE430AB1EE0E
:10238000603AF0EE430A9FED3E3AB4EEC30AF1EE36
:1023900010FA0ADD9FED3B3AB4EEC30AF1EE10FAF3
:1023A00003D29FED343AB0EE430A9FED353AF4EE96
:1023B000C30AF1EE10FA0ADD9FED323AF4EEC30AD9
:1023C000F1EE10FA03D29FED2B3AF0EE430ADFED67
:1023D0002E3AB0EE403A00EEA33AB0EE431AB0EE19
:1023E000412ADFED293AB0EE403A10EEA33AF0EE82
:1023F000431AF0EE612A9FED253A21EE433AF7EEBB
:10240000003A83EE234ABDEEC43A13EE100A00B23E
:10241000174948809FED1D3A22EE433AF7EE003A05
:1024200083EE234ABDEEC43A13EE100A01B21048FF
:1024300081809FED163A22EEC33AF7EE003A83EE22
:10244000234ABDEEC43A13EE100A01B20848C18017
:102450009FED0E3A21EEC33AF7EE003A83EE234A9F
:10246000BDEEC43A13EE100A01B201480181704773
:102470007802002000000000CDCC0C40CDCC0CC078
:10248000CDCC4CBDCDCC4C3DCDCCCC3E66FCBE4283
:1024900010B5012000F016F810B1012000F00CF882
:1024A00010BD10B54FF4005000F00CF818B14FF407
:1024B000005000F001F810BD0149086070470000AD
:1024C000143C014001460020034A12680A400AB148
:1024D000012000E000207047143C014010B5044684
:1024E000012C04D120210C4800F018F813E0022C34
:1024F00004D11021084800F011F80CE0032C04D19D
:102500000821054800F00AF805E0042C03D1042155
:10251000014800F003F810BD0014024042694A402F
:1025200042617047F0B50A4600210023002400BF35
:102530003DE0012505FA01F3156805EA03049C4214
:1025400034D105684F000326BE40B54305601579B8
:102550004E00B5400668354305601579012D02D05F
:102560001579022D16D185684F000326BE40B5436C
:10257000856055794E00B54086683543856045686D
:1025800001268E40B5434560456896798E40B6B2C7
:1025900035434560C5684F000326BE40B543C5605E
:1025A000D5794E00B540C6683543C560491C102931
:1025B000BFD3F0BDF0B5002300244D07ED0E02FAA5
:1025C00005F3CE1000F1200555F826504E07F70E02
:1025D0000F26BE40B543CF1000F1200646F8275025
:1025E000CE1000F1200555F8265045EA0304CE1020
:1025F00000F1200545F82640F0BD02460020136991
:102600000B400BB1012000E0002070474183704770
:102610000183704742694A404261704700BFFEE74C
:1026200010B508F0DBFD0F4948640846406C096CA2
:10263000401A4FF47A71B0FBF1F00A4988640846F9
:10264000406C086401F0C6FC0648806CC82804D9B8
:102650000020044981F84C0003E00120014981F881
:102660004C0010BD9C0300200A2000BF011EA0F1F9
:102670000102D0B2FADC70471CB50121022002F041
:1026800067FE01208DF8040000208DF80600C020B0
:10269000009001208DF8070002208DF805006946A2
:1026A0000548FFF73FFFFFF7DFFFFFF7DDFFFFF70D
:1026B000DBFFFFF7D9FF1CBD0004024010B540212D
:1026C0000F48FFF7A3FF0E48006820F440400C4974
:1026D00008600846006840F480400860802108488F
:1026E000FFF794FFFFF7C0FF40210548FFF790FF79
:1026F000FFF7BAFF40210248FFF788FF10BD000036
:102700000004024010B540210F48FFF77FFF0E483C
:10271000006820F440400C4908600846006840F416
:102720008040086080210848FFF772FFFFF79CFF98
:1027300040210548FFF76CFFFFF796FF4021024854
:10274000FFF764FF10BD00000004024070B50546AD
:1027500000241848006820F44040164908600846E4
:1027600000680860FFF780FFFFF77EFF002616E095
:1027700040211048FFF74AFFFFF776FF40210D4840
:10278000FFF746FF6006040E80210A48FFF735FF79
:1027900008B1601CC4B2FFF767FF701CC6B2082EF8
:1027A000E6DB15B9FFF7AEFF01E0FFF787FF204634
:1027B00070BD00000004024010B51048006820F40D
:1027C00040400E4908600846006840F480400860B8
:1027D00080210A48FFF71CFF40210848FFF718FF37
:1027E000FFF742FF80210548FFF710FFFFF73CFF8E
:1027F00040210248FFF70AFF10BD0000000402401C
:1028000010B51048006820F440400E4908600846A2
:10281000006840F48040086040210A48FFF7F6FE57
:1028200080210848FFF7F2FEFFF71EFF4021054810
:10283000FFF7EEFE80210348FFF7EAFEFFF714FFE3
:1028400010BD00000004024070B50446194800683D
:1028500020F44040174908600846006840F4804072
:10286000086040211348FFF7D1FE00251EE004F068
:102870008006802E04D180210E48FFF7C9FE03E0B8
:1028800080210C48FFF7C2FEFFF7EEFE6006040E43
:1028900040210848FFF7BCFEFFF7E6FE402105484F
:1028A000FFF7B4FEFFF7E0FE681CC5B2082DDEDBC3
:1028B00070BD0000000402404CF6CC4001490860A5
:1028C000704700000030004010B545F2555000F050
:1028D00021F8032000F012F84FF4FA6000F014F829
:1028E00000F004F8FFF7E8FF10BD00004AF6AA2048
:1028F000014908607047000000300040014948600D
:1029000070470000003000400149886070470000B7
:10291000003000400149086070470000003000406E
:1029200010B501225103384802F038F90122910311
:10293000354802F033F90122D103334802F02EF971
:1029400000220121314802F029F9002202212F48FA
:1029500002F024F900224FF400612C4802F01EF925
:1029600000224FF48051294802F018F900224FF458
:102970000051264802F012F900224FF4804123480A
:1029800002F00CF900220421204802F007F900228D
:1029900008211E4802F002F9002210211B4802F013
:1029A000FDF800222021194802F0F8F80122202128
:1029B000154802F0F3F801221021134802F0EEF856
:1029C00001220821104802F0E9F8012204210E48F2
:1029D00002F0E4F8012211460D4802F0DFF801216F
:1029E0000B48FFF713FE0021012003F0B1FE002188
:1029F000022003F0ADFE0021032003F0A9FE002118
:102A0000042003F0A5FE10BD001402400010024097
:102A10000000024010B50121032002F0A9FC802033
:102A2000C10508804FF6FF70C862002008850120AC
:102A30008882A72008818420104908802020091D51
:102A400008804FF6FF700D492C3108605320091F94
:102A50000880012009491431088080200749083185
:102A600008800648008840F00100044908800805F5
:102A7000008840F001000905088010BD00040040F6
:102A80002DE9F0418AB0002400250026AE2221461F
:102A9000641C01A84254EA222146641C42540122CB
:102AA0002146641C4254AC222146641C42542348F3
:102AB00002782146641C01A842540027042003F038
:102AC000D7FC4FEA0018032003F0D2FC48EAC00804
:102AD000022003F0CDFC48EA8008012003F0C8FC86
:102AE00048EA000808F0FF072146641C01A8475483
:102AF000601EC0B28DF80600022504E001A8405D0A
:102B00000644681CC5B2A542F8DB2046611CCCB265
:102B100001A90E54EF222046611CCCB201A90A542F
:102B2000FE222046611CCCB201A90A542246044868
:102B300004F084FA0AB0BDE8F08100005C000020D7
:102B400000100140F0B585B004460D4646F240063F
:102B5000002704F5C060009000208DF808008DF873
:102B6000090008208DF80A002B208DF80B00F1B227
:102B70008DF80C1031128DF80D108DF80E70E9B231
:102B80008DF80F1000218DF810108DF811108DF8B0
:102B9000121069460248FEF799FF05B0F0BD00002B
:102BA00000640040F0B585B004460D464FF48E46F3
:102BB000012704F5C060009000208DF808008DF812
:102BC000090008208DF80A002F208DF80B00F1B2C3
:102BD0008DF80C1031128DF80D108DF80E708DF8E7
:102BE0000F5000218DF810108DF811108DF8121073
:102BF00069460248FEF76AFF05B0F0BD0064004078
:102C0000F0B585B0002400253227264A07CA02AB5A
:102C100007C325A103C9CDE9000101243CE000253B
:102C200036E0002625E04FF400412148FFF7EEFC96
:102C30001DF8052002A830F81510204601F008F80C
:102C400041F2883001F0B8F94FF400411848FFF71D
:102C5000DFFC41F2883001F0AFF941F2883001F039
:102C6000ABF941F2883001F0A7F9214611A005F037
:102C70008FF9194800780028D5D0BE4204DB2146E0
:102C800016A005F085F901E000F056FB681CC5B2FE
:102C9000062DC6DB601CC4B2052CC0DB012005B0CC
:102CA000F0BD00008CC400083A3B3C3DF1F300004D
:102CB000001402404D6F74726F204150534C3244E7
:102CC000423A2025642072656164206D6F746F72D2
:102CD000204944200A000000430000204D6F747218
:102CE0006F204150534C3244423A20256420726593
:102CF0006164206D6F746F72204944206661696C55
:102D000064202121210A00002DE9F041002432270E
:102D100000250526012408E006212046FFF712FFC2
:102D2000384601F049F9601CC4B2052CF4DB0124DB
:102D300008E00F212046FFF705FF384601F03CF977
:102D4000601CC4B2052CF4DB60A005F021F9FFF78C
:102D500057FF04242BE00321204600F0FBFF3846F8
:102D600001F02AF9002510E000205F4908705F4853
:102D7000016804F5B060814203D100205B4908601E
:102D800003E021465AA005F003F95748007820B91E
:102D90002846691C8DB2B042E6DBB54205D1601E03
:102DA000C4B2214660A005F0F3F8601EC4B2002C46
:102DB000D1DC012408E086212046FFF7C3FE384617
:102DC00001F0FAF8601CC4B2052CF4DB012427E002
:102DD0000F212046FFF7B6FE384601F0EDF800253A
:102DE0000DE00020404908704048016804F5B060DB
:102DF000814204D13D48C07A602800D107E03A48BA
:102E0000007820B92846691C8DB2B042E9DB00BFCA
:102E1000B54203DB214652A005F0BAF8601CC4B2EB
:102E2000052CD5DB57A005F0B3F8012409E09FED90
:102E3000610B204600F0BEFF384601F0BDF8601C73
:102E4000C4B2052CF3DB5DA005F0A2F8012408E074
:102E50001C21204600F028FF384601F0ADF8601C28
:102E6000C4B2052CF4DB614805F092F8012415E0AA
:102E70000421204600F0F4FF384601F09DF8384662
:102E800001F09AF80921204601F040F8384601F097
:102E900093F8384601F090F8601CC4B2052CE7DBCB
:102EA00001240EE001212046FFF77CFE384601F0A8
:102EB00083F8384601F080F8384601F07DF8601C50
:102EC000C4B2052CEEDBBDE8F08100004D4F544F3D
:102ED000525F4150534C3244425F496E666F725F9D
:102EE0004765742E2E2E0A00430000205401002056
:102EF0004D6F74726F204150534C3244423A20253A
:102F000064206973206F66666C696E652C20636847
:102F100065636B2043414E2062757320636F6E6E54
:102F2000656374696F6E0A004D6F74726F20415053
:102F3000534C3244423A202564206E6F74207265EF
:102F400073706F6E64696E672C206D6F746F722082
:102F5000696E6974206661696C65640A000000002E
:102F60004D6F74726F204150534C3244423A2025C9
:102F70006420656E61626C65206661696C65640AD7
:102F8000000000004D6F74726F204150534C32446A
:102F9000423A20536574204D6F746F72204953205C
:102FA000312D3420546172676574207370656564D7
:102FB0002030000000000000000000004D6F74721F
:102FC0006F204150534C3244423A20536574204D97
:102FD0006F746F7220495320312D34204375727203
:102FE000656E74204C696D742032350068D200081B
:102FF00010B52DED068BC8480088C0F30B101828BB
:103000005CD10020C5490860C348C07A0870C24836
:10301000007B4870C048407B8870BF48807BC87088
:10302000BD480068A0F2811002280DD20846006851
:103030004142B9480068A0F28110C0EBC000B84A14
:1030400002EBC00081600BE0B4480168B248006840
:10305000A0F28110C0EBC000B14A02EBC000816059
:103060000020AE490860AC48C07B0870AA48007CCC
:103070004870A948407C8870A748807CC870A648E2
:103080000068A0F2811002280CD208460068414274
:10309000A1480068A0F28110C0EBC000A04A42F82D
:1030A000301035E19D4801689B480068A0F281100E
:1030B000C0EBC0009A4A42F8301029E196480088D7
:1030C000C0F30B105828ECD19348407B602821D1E5
:1030D0009148007B63281DD18F48807BD0B90020A8
:1030E0008E4908608C48C07B08708B48007C487013
:1030F0008948407C88708848807CC8700846016890
:1031000085480068A0F28150C0EBC000844A42F8B4
:103110003010FDE08048407B60281ED17E48007B57
:10312000F9281AD17C48807B182816D100207D49C7
:1031300008807948C07B08707748007C4870084652
:10314000B0F9001074480068A0F28150C0EBC000D4
:10315000734A02EBC0008160DAE06F48407B602870
:1031600023D16D48007BF9281FD16B48807B19283B
:103170001BD10020694908606748C07B0870664819
:10318000007C48706448407C88706348807CC870CC
:103190000846016860480068A0F28150C0EBC0009A
:1031A0005F4A02EBC0008160B2E05B48407B602870
:1031B00033D15948007B78282FD15748807B60BB9A
:1031C0000020584908805448C07B08705248007C51
:1031D0004870B1F90000FDF7CBF941EC1A0B9FEDF7
:1031E000520B53EC102BFDF7E2F841EC190B9FED5D
:1031F000500B53EC102BFDF74CF941EC180BFDF77D
:10320000D5F901B244480068A0F28150C0EBC0007B
:10321000434A02EBC00041827AE03F48407B60288D
:103220001DD13D48007BF72819D13B48807B1228EF
:1032300015D100203B4908803748C07B08703648CC
:10324000007C48700846018833480068A0F281502D
:10325000C0EBC000324A02EBC000818258E02E4829
:10326000407B60281DD12C48007BF72819D12A48C3
:10327000807B0B2815D100202A4908802648C07B76
:1032800008702548007C487008460188224800687C
:10329000A0F28150C0EBC000214A02EBC000C18205
:1032A00036E01D48407B602812D11B48007B412836
:1032B0000ED11948807B58B91748C17B0068A0F22D
:1032C0008150C0EBC000164A02EBC00001731FE042
:1032D0001148407B26281BD10F48007B012817D1BD
:1032E0000D48807BA0B90C48C17B0068A0F28150DA
:1032F000C0EBC0000A4A02EBC00041730648017CE3
:103300000068A0F28150C0EBC00002EBC0008173E6
:10331000BDEC068B10BD000054010020940000207D
:10332000BC020020980000200000000000F0554082
:10333000000000000000F03F38B5F2480088C0F3FC
:103340000B10182819D1EF480068A0F28110C0EBCB
:10335000C000ED4C54F83030EA480068A0F281100B
:10336000C0EBC00004EBC0008268E6480068A0F231
:103370008111E6A004F00CFED6E3E2480088C0F319
:103380000B105828F8D1DF48407B602817D1DD4862
:10339000007B632813D1DB48807B80B9D948006863
:1033A000A0F28150C0EBC000D74B53F83020D54875
:1033B0000068A0F28151E2A004F0EAFDB4E3D14834
:1033C000407B602812D1CF48007BF9280ED1CD4830
:1033D000807B18280AD1E348B0F90020C94800686A
:1033E000A0F28151E0A004F0D3FD9DE3C548407BED
:1033F000602819D1C348007BF92815D1C148807BCA
:10340000192811D1BF480068A0F28150C0EBC0005C
:10341000BD4B03EBC0008268BA480068A0F281513E
:10342000DBA004F0B5FD7FE3B648407B602819D1EE
:10343000B448007B782815D1B248807B90B9B14858
:103440000068A0F28150C0EBC000AF4B03EBC0009E
:10345000B0F91220AB480068A0F28151D8A004F066
:1034600097FD61E3A748407B60281AD1A548007BFF
:10347000F72816D1A348807B122812D1A1480068F2
:10348000A0F28150C0EBC0009F4B03EBC000B0F92D
:1034900014209C480068A0F28151D4A004F078FD6B
:1034A00042E39848407B60281AD19648007BF72871
:1034B00016D19448807B0B2812D192480068A0F264
:1034C0008150C0EBC000904B03EBC000B0F9162058
:1034D0008C480068A0F28151CDA004F059FD23E38F
:1034E0008848407B60283CD18648007B412838D101
:1034F0008448807B80BB83480068A0F28150C0EB89
:10350000C000814901EBC000007B08280DD17D4837
:103510000068A0F28150C0EBC0000A4602EBC00078
:10352000017BC4A004F034FDFEE276480068A0F2FE
:103530008150C0EBC000744901EBC000007B002843
:103540008FD170480068A0F28150C0EBC0000A46DD
:1035500002EBC000017B00E003E0C1A004F018FD15
:10356000E2E26848407B26287DD16648007B01283E
:10357000FAD16448807B0028F6D1C4A004F008FD8D
:1035800060480068A0F28150C0EBC0005E4901EBCA
:10359000C000407B00F0010010B1C5A004F0F8FCB1
:1035A00058480068A0F28150C0EBC000564901EBBA
:1035B000C000407B00F0020010B1C0A004F0E8FCA5
:1035C00050480068A0F28150C0EBC0004E4901EBAA
:1035D000C000407B00F0040010B1BEA004F0D8FC95
:1035E00048480068A0F28150C0EBC000464901EB9A
:1035F000C000407B00F0080010B1BCA004F0C8FC83
:1036000040480068A0F28150C0EBC0003E4901EB89
:10361000C000407B00F0100010B1B8A004F0B8FC6E
:1036200038480068A0F28150C0EBC000364901EB79
:10363000C000407B00F0200010B1B5A004F0A8FC51
:1036400030480068A0F28150C0EBC0002E4901EB69
:10365000C000407B00F0400010B1B2A004F098FC24
:103660002848006800E0D4E1A0F28150C0EBC0001F
:10367000254901EBC000407B00F0800010B1AEA0F6
:1036800004F086FC1F480068A0F28150C0EBC00027
:103690001D4901EBC000807B00F0010010B1AAA021
:1036A00004F076FC17480068A0F28150C0EBC0001F
:1036B000154901EBC000807B00F0020010B1A9A009
:1036C00004F066FC0F480068A0F28150C0EBC00017
:1036D0000D4901EBC000807B00F0040010B1A7A0F1
:1036E00004F056FC07480068A0F28150C0EBC0000F
:1036F000054901EBC000807B00F0080000B143E108
:1037000045E1000054010020BC0200204D6F746FA1
:1037100072204150534C3244422069643A2564205F
:103720002050444F2073706565645F72706D3A2558
:10373000642020616E676C653A25640A0000000011
:103740004D6F746F72204150534C32444220696473
:103750003A2564202020616E676C653A256420203C
:103760000A000000980000204D6F746F72204150D5
:10377000534C3244422069643A25642020207370FF
:103780006565645F72706D3A256420200A00000050
:103790004D6F746F72204150534C32444220696423
:1037A0003A256420202073706565645F72706D280F
:1037B000302E303031293A256420200A00000000E4
:1037C0004D6F746F72204150534C324442206964F3
:1037D0003A25642020207265616C5F6375727265A2
:1037E0006E743A256420200A000000004D6F746F4B
:1037F00072204150534C3244422069643A2564207F
:103800002020566F6C746167653A256420200A0099
:103810004D6F746F72204150534C324442206964A2
:103820003A256420202054656D703A256420200AD2
:10383000000000004D6F746F72204150534C3244B1
:103840004220647269766572202069643A2564209A
:10385000206572726F7220212121200A0000000071
:103860004D6F746F72204150534C32444220647249
:1038700069766572202069643A2564202069732086
:103880004F4B20212121200A000000004D6F746F52
:1038900072204150534C3244422064726976657202
:1038A000206572726F7220636F64653A20090000B0
:1038B000C4DAB2BFB4EDCEF3200A0000B1E0C2EB2F
:1038C000C6F72041425A20D0C5BAC5B4EDCEF30A9E
:1038D00000000000B1E0C2EBC6F72055565720D0DB
:1038E000C5BAC5B4EDCEF30A00000000B1E0C2EBEA
:1038F000C6F7BCC6CAFDB4EDCEF30A00C7FDB6AF2D
:10390000C6F7CEC2B6C8B9FDB8DF200A0000000075
:10391000C7FDB6AFC6F7C4B8CFDFB5E7D1B9B9FDBB
:10392000B8DF0A00C7FDB6AFC6F7C4B8CFDFB5E74A
:10393000D1B9B9FDB5CD0A00C7FDB6AFC6F7CAE427
:10394000B3F6B6CCC2B70A00C7FDB6AFC6F7D6C647
:10395000B6AFB5E7D7E8B9FDCEC2B1A8BEAF200A71
:1039600000000000CAB5BCCAB8FACBE6CEF3B2EE8E
:10397000B3ACB9FDD4CAD0EDD6B50A00B1A3C1F439
:10398000B1B8D3C30A00000068A004F001FB6F487F
:103990000068A0F28150C0EBC0006D4901EBC0008F
:1039A000807B00F0100010B16AA004F0F1FA6748C3
:1039B0000068A0F28150C0EBC000654901EBC00077
:1039C000807B00F0200010B169A004F0E1FA5F48AC
:1039D0000068A0F28150C0EBC0005D4901EBC0005F
:1039E000807B00F0400010B165A004F0D1FA574888
:1039F0000068A0F28150C0EBC000554901EBC00047
:103A0000807B00F08000002802D064A004F0C0FA9F
:103A10008AE04E48407B302811D14C48007B70B979
:103A20004A48807B3A280AD14848C07B00904748E2
:103A3000037C427C817C5DA004F0AAFA74E04348D8
:103A4000407B302811D14148007B70B93F48807BD2
:103A50003B280AD13D48C07B00903C48037C427C17
:103A6000817C59A004F094FA5EE03848407B30280D
:103A700011D13648007B70B93448807B3C280AD18C
:103A80003248C07B00903148037C427C817C57A047
:103A900004F07EFA48E02D48407B302811D12B48B5
:103AA000007B70B92948807B3D280AD12748C07B1C
:103AB00000902648037C427C817C55A004F068FA83
:103AC00032E02248407B252819D12048007BB0B93C
:103AD0001E48807BF12812D11C48807C02061B48BE
:103AE000407C42EA00421948007C42EA0020174A22
:103AF000D27B40EA02014CA004F04AFA14E01348D9
:103B0000407B252810D11148007B68B90F48807B85
:103B1000F32809D10D48C07B00900C48037C427CFF
:103B2000817C45A004F034FA38BD000049322A54A3
:103B300020B9CAD5CF28C7FDB6AFC6F7BBF2B5E7E7
:103B4000BBFAB9FDD4D8290A0000000054010020B6
:103B5000BC020020CBD9B6C8B8FACBE6CEF3B2EEA1
:103B6000B3ACB9FDD4CAD0EDD6B5200A0000000030
:103B7000B5E7BBFAB9FDCEC2B1A8BEAF0A000000DE
:103B8000D1B0D5D2B5E7BBFAB4EDCEF328CDA8D1EC
:103B9000B6CABDB1E0C2EBC6F7290A00CDA8D0C5B0
:103BA000B5F4CFDFB1A8BEAF0A000000B1BEBBFACA
:103BB000D0CDBAC52DCFB5C1D03A256325632563D5
:103BC000256320200A000000B1BEBBFAD0CDBAC5E3
:103BD0002DB5E7D1B9D3EBB5E7C1F7B5C8BCB63A57
:103BE000256325632563256320200A00B1BEBBFA47
:103BF000D0CDBAC52DB7B4C0A1D3EBD7DCCFDFC0D1
:103C0000E0D0CD3A256325632563256320200A0093
:103C1000B1BEBBFAD0CDBAC53A256325632563256D
:103C20006320200A00000000B9CCBCFEC8D5C6DA6B
:103C30003A256420200A0000D3B2BCFEB0E6B1BE33
:103C40003A256325632563256320200A00000000D0
:103C5000F0B585B005460C461646402705F5C06010
:103C6000009000208DF808008DF8090008208DF8DC
:103C70000A008DF80B70E1B28DF80C1021128DF84E
:103C80000D108DF80E6000218DF80F108DF81010BA
:103C90008DF811108DF8121069460248FDF716FFD5
:103CA00005B0F0BD006400402DE9F0412DED068B1C
:103CB00086B004460D4646F273064FF000082846CB
:103CC000FCF767FC41EC1A0B9FED1D0B53EC102B1E
:103CD000FCF76DFB41EC190B9FED1B0B53EC102B0C
:103CE000FCF7D7FB41EC180BFCF77FFC87B204F51F
:103CF000C060019000208DF80C008DF80D000820A8
:103D00008DF80E002B208DF80F008DF81060311209
:103D10008DF811108DF812808DF8137039128DF80E
:103D2000141000218DF815108DF8161001A90848FF
:103D3000FDF7CCFE06B0BDEC068BBDE8F0810000BF
:103D40000000000000205840000000000000F03F8C
:103D500000640040F0B585B004460D4646F26006AA
:103D6000002704F5C060009000208DF808008DF851
:103D7000090008208DF80A002F208DF80B00F1B201
:103D80008DF80C1031128DF80D108DF80E70E9B20F
:103D90008DF80F1000218DF810108DF811108DF88E
:103DA000121069460248FDF791FE05B0F0BD000013
:103DB00000640040F0B52DED068B85B00546B0EEF1
:103DC000408AF0EE608A46F2FF0600279FED1F0B47
:103DD00053EC102B51EC180BFCF7E9FA41EC1A0BE1
:103DE0009FED1C0B53EC102BFCF753FB41EC190B14
:103DF000FCF7DCFB044605F5C060009000208DF860
:103E000008008DF8090008208DF80A0023208DF89D
:103E10000B00F1B28DF80C1031128DF80D108DF8E9
:103E20000E70E1B28DF80F10210A8DF81010210CE0
:103E30008DF81110210E8DF8121069460748FDF714
:103E400045FE05B0BDEC068BF0BD0000C7BEBF9CB3
:103E5000EC799140000000000000F03F0064004059
:103E60002DE9F0412DED068B86B005460E4646F253
:103E700083074FF000083046FCF78BFB41EC1A0B30
:103E80009FED1D0B53EC102BFCF791FA41EC190B35
:103E90009FED1B0B53EC102BFCF7FBFA41EC180BBE
:103EA000FCF7A3FB044605F5C060019000208DF8E7
:103EB0000C008DF80D0008208DF80E0023208DF8E1
:103EC0000F008DF8107039128DF811108DF81280D6
:103ED0008DF81340210A8DF81410210C8DF815105F
:103EE000210E8DF8161001A90748FDF7EFFD06B069
:103EF000BDEC068BBDE8F0816666666666C650401E
:103F0000000000000000F03F006400402DE9F04197
:103F10002DED068B86B005460E4646F284074FF01F
:103F200000083046FCF735FB41EC1A0B9FED1D0BEA
:103F300053EC102BFCF73BFA41EC190B9FED1B0BDC
:103F400053EC102BFCF7A5FA41EC180BFCF74DFBDA
:103F5000044605F5C060019000208DF80C008DF836
:103F60000D0008208DF80E0023208DF80F008DF82D
:103F7000107039128DF811108DF812808DF81340E1
:103F8000210A8DF81410210C8DF81510210E8DF8D2
:103F9000161001A90748FDF799FD06B0BDEC068B88
:103FA000BDE8F0816666666666C6504000000000A7
:103FB0000000F03F0064004006E041F2883100BF9D
:103FC0000A1EA1F10101FBD1021EA0F10100F4D1F2
:103FD0007047000000B52DED0C8B8DB0B7EE000AD8
:103FE000F0EE409A9FEDA10AB0EE408A9FED9F0A45
:103FF000F0EE408A9FED9D0AB0EE409A06A807A910
:104000000CAB02AACDE9001008A90AA805F0D0FD62
:1040100020B101200DB0BDEC0C8B00BDBDF8280017
:104020009349C880BDF82A1091480181BDF82C1031
:104030004181B0F9060000EE100AB8EEC00ADFEDCB
:104040008D0A20EE200ADFED8C0A80EE201A8848C7
:1040500080ED061AB0F9080000EE100AB8EEC00AAA
:10406000DFED840A20EE200ADFED830A80EE201ABD
:104070007F4880ED071AB0F90A0000EE100AB8EE8A
:10408000C00ADFED7C0A20EE200ADFED7B0A80EE1D
:10409000201A774880ED081ABDF82000744908807E
:1040A000BDF822004880BDF824008880BDF81C00BF
:1040B00000F4807000287DD09DED020AB8EEC00AA1
:1040C000DFED6E0A80EE201AF0EE419A9DED030AB4
:1040D000B8EEC00ADFED690A80EE201AB0EE418A20
:1040E0009DED040AB8EEC00ADFED640A80EE201AE6
:1040F000F0EE418A9DED050AB8EEC00ADFED5F0AD9
:1041000080EE201AB0EE419AB8EE000A28EE000ABE
:1041100020EE090AF0EE000A69EEA00A00EEA80AF5
:1041200010EE101A0846FCF779FA41EC1C0BB0EEC1
:104130004C0AF0EE6C0A04F08BF9B0EE40BAF0EEE7
:1041400060BA9FED4F0B53EC102B51EC1B0BFCF79F
:104150002EF941EC1A0BFCF7A5FA45498863B8EE35
:10416000000A28EE000A20EE080AF0EE000A68EEC7
:10417000A00A00EEE80AF7EE000A30EE200A10EE80
:10418000101A0846FCF74AFA41EC1C0BB0EE000A84
:1041900028EE800A20EE090AF0EE000A69EEA00A75
:1041A00000EE880A10EE101A0846FCF737FA41ECC8
:1041B0001D0B00E056E0B0EE4C1AF0EE6C1AB0EEBB
:1041C0004D0AF0EE6D0A04F05FFCB0EE40BAF0EE7E
:1041D00060BA9FED2B0B53EC102B51EC1B0BFCF733
:1041E000E6F841EC1A0BFCF75DFA2149486329EE29
:1041F000A90A08EE080A08EEE80A09EE490A10EED4
:10420000101A0846FCF70AFA41EC1C0B28EE280AA3
:1042100009EE890AF0EE000A20EE200A10EE101ACC
:104220000846FCF7FBF941EC1D0BB0EE4C1AF0EE22
:104230006C1AB0EE4D0AF0EE6D0A04F025FCB0EEFB
:1042400040BAF0EE60BA9FED0E0B53EC102B51EC20
:104250001B0BFCF7ACF841EC1A0BFCF723FA0449F2
:10426000C86301E00220D5E60020D3E6000000008C
:104270009C03002039FA8E3C6F1283410000804E6F
:104280006666666666A64C4010B500241448006851
:1042900020F4404012490860084600680860802108
:1042A0000F48FEF7B5F9FEF7DFF940210C48FEF79D
:1042B000AFF9FEF7D9F907E0601CC4B2FA2C03DDB0
:1042C000FEF79EFA012010BD80210548FEF795F902
:1042D0000028F1D140210248FEF798F90020F2E7CA
:1042E000000402402DE9F04106460F4614461D46E3
:1042F000FEF762FA002141EA4601C8B2FEF7A4FACD
:10430000FFF7C2FF20B1FEF77BFA0120BDE8F08184
:104310003846FEF799FAFFF7B7FFFEF74DFA01218D
:1043200001EB4601C8B2FEF78FFAFFF7ADFF0DE0D3
:10433000012C04D10020FEF709FA287003E00120C7
:10434000FEF704FA2870601EC4B26D1C002CEFD179
:10435000FEF756FA0020D9E72DE9F04105460E4652
:1043600017469846FEF728FA002141EA4501C8B2EF
:10437000FEF76AFAFFF788FF20B1FEF741FA012045
:10438000BDE8F0813046FEF75FFAFFF77DFF0024BD
:104390000CE018F80400FEF757FAFFF775FF18B1A4
:1043A000FEF72EFA0120EBE7601CC4B2BC42F0DB42
:1043B000FEF726FA0020E3E730B59BB005460C4631
:1043C0008748854274D10121801500F0F1FF84B93E
:1043D0000121084600F0BCFF0120139003208DF856
:1043E000500000208DF8530013A97E48FEF79AF87C
:1043F00093E0012C10D10121084600F0A9FF022012
:10440000139003208DF8500000208DF8530013A95D
:104410007448FEF787F880E0022C10D1012108468D
:1044200000F096FF0420139003208DF85000002028
:104430008DF8530013A96B48FEF774F86DE0032C58
:1044400010D10121084600F083FF082013900320BB
:104450008DF8500000208DF8530013A96148FEF735
:1044600061F85AE0042C10D10121084600F070FFD9
:104470001020139003208DF8500000208DF8530079
:1044800013A95848FEF74EF847E0052C11D1012139
:10449000084600F05DFF2020139003208DF85000A7
:1044A00000208DF8530013A94E48FEF73BF834E086
:1044B00091E0062C10D10121084600F049FF402070
:1044C000139003208DF8500000208DF8530013A99D
:1044D0004448FEF727F820E0072C10D101210846B8
:1044E00000F036FF8020139003208DF8500000204C
:1044F0008DF8530013A93B48FEF714F80DE0102C7B
:1045000003D10120FCF738FB07E0112C03D1012077
:10451000FCF732FB01E000BFFEE7002000904FF403
:1045200080300190002002904FF470600390684644
:10453000FCF768FA002015908DF8580001208DF8DE
:104540005900002017901890199001208DF86800EC
:1045500015A92348FCF784FA0121880500F0F8FE2C
:104560001F484C30059020480690002007900120FD
:104570000890002009900A904FF400600B90800092
:104580000C9040110D9040020E9000200F900120E1
:104590001090002011901290049004A91348FDF788
:1045A00083FE01211148FDF76DFD03230122214601
:1045B0002846FCF77FFA01212846FCF746FA01213C
:1045C0002846FCF737FA01212846FCF70FFA28465F
:1045D000FCF7CCFA01E000BFFEE71BB030BD0000E5
:1045E0000020014000000240AC00002010640240A6
:1045F00000BFFEE770B52DED088B42F210750A245E
:104600004FF4B476FC480078012803D00020BDECBC
:10461000088B70BDF9480078AE2803D1F748407880
:10462000EA2801D00020F2E70020F3490870F3489F
:10463000C078F349087008460078F22872D1F14832
:1046400090F8200001286DD1EC484179007901EB08
:10465000002000EE100AB8EEC00A9FEDEB1AC0EE83
:10466000010A00EE104AB8EE400A30EEC00AE448F3
:1046700080ED0D0AE148C179807901EB002000EE60
:10468000100AB8EEC00A9FEDE01AC0EE010A00EE73
:10469000104AB8EE400A30EEC00AD94880ED0E0A42
:1046A000D648417A007A01EB002000EE100AB8EEFD
:1046B000C00A9FEDD51AC0EE010A00EE104AB8EE0E
:1046C000400A30EEC00ACE4880ED0C0A0320CC49E7
:1046D00081F84100002081F82800012081F8400085
:1046E000084690ED0C0AB5EEC00AF1EE10FA0AD0B9
:1046F00090ED0C0AB0EE401ADFEDC40A9FEDC30A3C
:1047000003F0B2FAD5E1BE4890ED0E1AF0EE410A80
:1047100090ED0D1AB0EE410A9FEDBC1A03F0A4FA19
:10472000C7E1FFE7B6480078F32863D1B54890F8B1
:10473000200001285ED12046FBF72BFF41EC190B2E
:10474000AE494A79097902EB0120FBF711FF41ECF0
:104750001B0B9FEDAF0B53EC102BFBF79AFE41ECBC
:104760001A0B53EC192BFBF71CFE41EC180BFBF753
:1047700099FF00EE100AA24880ED0D0A9FEDA30AF2
:1047800080ED0E0A2046FBF704FF41EC190B9B4914
:104790004A7A097A02EB0120FBF7EAFE41EC1B0B97
:1047A0009FED9B0B53EC102BFBF773FE41EC1A0BA8
:1047B00053EC192BFBF7F5FD41EC180BFBF772FFDF
:1047C00000EE100A8E4880ED0C0A00208C4981F81A
:1047D000410081F82800012081F84000084690ED52
:1047E0000C1AF0EE410A90ED0D1AB0EE410AFDF7F9
:1047F0009BFD5EE182480078F42866D1814890F8FC
:104800002000012861D12046FBF7C3FE41EC190BC3
:104810007A494A79097902EB0120FBF7A9FE41ECBC
:104820001B0B9FED7B0B53EC102BFBF732FE41EC87
:104830001A0B53EC192BFBF7B4FD41EC180BFBF7EB
:1048400031FF00EE100A6E4880ED0D0A9FED6F0AF1
:1048500080ED0E0A2046FBF79CFE41EC190B6749E0
:104860004A7A097A02EB0120FBF782FE41EC1B0B2E
:104870009FED670B53EC102BFBF70BFE41EC1A0B73
:1048800053EC192BFBF78DFD41EC180BFBF70AFFDE
:1048900000EE100A5A4880ED0C0A0220584981F8AF
:1048A0004100002081F82800012081F840000846DE
:1048B000D0ED0C0AB0EE601AD0ED0D0AB0EE600A31
:1048C000DFED520AFCF76EF9F3E04D480078FA2864
:1048D0007ED14C4890F82000012879D14748417991
:1048E000007901EB002006EBC60101EB0611A0EBFD
:1048F0008100434908614148C179807901EB00207A
:10490000401B00B23E4948803C48417A007A01EBA6
:10491000002006EBC60101EB0611A0EB810138482F
:1049200041613648C17A807A01EB0020401B01B218
:10493000334881803148417B007B01EB002006EB4E
:10494000C60101EB0611A0EB81012D4881612B48C6
:10495000C17B807B01EB0020401B01B22848C18055
:104960002648417C007C01EB002006EBC60101EBF0
:104970000611A0EB81012248C1612048C17C807CE6
:1049800001EB0020401B01B21D4801811B48417D05
:10499000007D01EB002006EBC60101EB0611A0EB48
:1049A0008101174801621548C17D807D01EB00201F
:1049B000401B01B2124841811048417E007E01EB4C
:1049C000002006EBC60101EB0611A0EB810100E01F
:1049D00022E00B4841620948C17E807E01EB002045
:1049E000401B01B2064881810120054981F8280059
:1049F000002081F840005CE0A60000202604002092
:104A0000780200207C0100200000C8420000000065
:104A100000000000000059402E480078E12804D131
:104A20002DA12E4802F060FB43E02A480078E228DE
:104A30003FD028480078C02834D1294800794D2833
:104A400037D127484079492833D1254880794328F0
:104A50002FD12348C0794B282BD122A003F098FAFC
:104A6000012080F3138800BF00BF00BF00BF00BF5C
:104A700000BFBFF34F8F00BF00BF00BF22480068D8
:104A800000F4E06021490843001D1F49086000BF91
:104A900000BF00BFBFF34F8F00BF00BF00BF00E0EB
:104AA00000BFFDE700200B4981F8280081F8400095
:104AB000ADE50120074981F84200084690F828003A
:104AC00018B9084690F8400010B10020104908605D
:104AD00001209CE5780200204F4B0A0000100140A5
:104AE00026040020554152543120434D4420206F6C
:104AF0007843302C204E6F77207265736574204D9B
:104B00004355210A000000000CED00E00000FA050A
:104B10002800002070B504460D4616461948844208
:104B200004D13146284602F0F3FA29E016488442BF
:104B300004D13146284602F043FC21E01348844268
:104B400004D13146284602F0DDFC19E010488442C9
:104B500004D13146284602F011F911E00D48844293
:104B600004D13146284602F0B5F909E00A488442EA
:104B700004D13146284602F0DBFD01E000BFFEE72C
:104B800070BD00000010014000440040004800409B
:104B9000004C004000500040001401402DE9FC4151
:104BA00004460F4616462E48844201D1012530E0C6
:104BB0002C48844201D102252BE02B48844201D1AC
:104BC000042526E02948844201D1082521E028480F
:104BD000844201D110251CE02648844201D12025C1
:104BE00017E02548844201D1402512E02348844241
:104BF00001D180250DE02248844201D1851508E0CD
:104C00002048844201D1451503E01F48844200D169
:104C100005150121284600F09BFB00978DF80460E4
:104C2000012E09D100208DF8060001208DF8070023
:104C300000208DF8050006E02EB901208DF8070050
:104C400000208DF8050069462046FDF76BFC012E1B
:104C500003D139462046FDF7DBFCBDE8FC810000AE
:104C6000000002400004024000080240000C024024
:104C7000001002400014024000180240001C0240D4
:104C800000200240002402400028024000B58FB0FE
:104C90000121880500F05CFB1848FDF7FFF900BF13
:104CA0001648FDF7A7FA0028FAD14FF000600090EF
:104CB000134801901348029000200390282004908C
:104CC000002005904FF48060069000200790089027
:104CD0004FF48070099000020A9000200B9003208E
:104CE0000C9000200D900E9069460448FDF7DCFA08
:104CF00001210248FDF7C6F90FB000BD4064024033
:104D000004100140260A002000B58FB0012188055B
:104D100000F01EFB1648FDF7C1F900BF1448FDF76F
:104D200069FA0028FAD14FF0006000901148019014
:104D3000114802904020039000010490002005904B
:104D40004FF48060069000200790089009904FF47F
:104D500080300A9000200B9003200C9000200D90D2
:104D60000E9069460248FDF79FFA0FB000BD0000A3
:104D7000B8640240041001402606002000B58FB040
:104D80000121480500F0E4FA1848FDF787F900BF53
:104D90001648FDF72FFA0028FAD14FF00060009076
:104DA00013480190134802900020039019200490AA
:104DB000002005904FF48060069000200790089036
:104DC00009904FF480300A9000200B9003200C9043
:104DD00000200D900E9069460448FDF765FA012108
:104DE0000248FDF74FF90FB000BD00008860024097
:104DF000044400404E0A002000B58FB00121480550
:104E000000F0A6FA1848FDF749F900BF1648FDF76B
:104E1000F1F90028FAD14FF000600090134801909A
:104E20001348029040200390000104900020059058
:104E30004FF48060069000200790089009904FF48E
:104E400080300A9000200B9003200C9000200D90E1
:104E50000E9069460448FDF727FA01210248FDF744
:104E600011F90FB000BD0000A060024004440040F2
:104E70002606002000B58FB00121480500F068FA31
:104E80001848FDF70BF900BF1648FDF7B3F90028E5
:104E9000FAD14FF00060009013480190134802903F
:104EA0000020039028200490002005904FF480609B
:104EB000069000200790089009904FF480300A90E7
:104EC00000200B9003200C9000200D900E9069465E
:104ED0000448FDF7E9F901210248FDF7D3F80FB0C6
:104EE00000BD00002860024004480040260A00205F
:104EF00000B58FB00121480500F02AFA1848FDF7E7
:104F0000CDF800BF1648FDF775F90028FAD14FF02B
:104F100000600090134801901348029040200390D5
:104F200000010490002005904FF48060069000205E
:104F30000790089009904FF480300A9000200B9061
:104F400003200C9000200D900E9069460448FDF758
:104F5000ABF901210248FDF795F80FB000BD000044
:104F600058600240044800402606002000B58FB07B
:104F70000121880500F0ECF91848FDF78FF800BF13
:104F80001648FDF737F90028FAD14FF0206000905D
:104F900013480190134802900020039028200490A9
:104FA000002005904FF48060069000200790089044
:104FB00009904FF480300A9000200B9003200C9051
:104FC00000200D900E9069460448FDF76DF901210F
:104FD0000248FDF757F80FB000BD000028640240FA
:104FE00004140140260A002000B58FB00121880575
:104FF00000F0AEF91848FDF751F800BF1648FDF76C
:10500000F9F80028FAD14FF0206000901348019081
:105010001348029040200390000104900020059066
:105020004FF48060069000200790089009904FF49C
:1050300080300A9000200B9003200C9000200D90EF
:105040000E9069460448FDF72FF901210248FDF74B
:1050500019F80FB000BD0000A06402400414014024
:1050600026060020F8B504460F46002239462046A1
:10507000FFF750FD7B4884422DD17B4D7A4E783E20
:10508000FFF742FE4FF4E06000F036F946208DF85D
:10509000000003208DF8010001208DF8020000209F
:1050A0008DF80300684600F0EBF8FFF7EFFD4FF4D2
:1050B000E06000F021F93A208DF8000003208DF81F
:1050C000010000208DF8020001208DF803006846E1
:1050D00000F0D6F892E0654884422DD1644D644ECC
:1050E000183EFFF789FE4FF4E06000F005F911204B
:1050F0008DF8000003208DF8010001208DF80200DA
:1051000000208DF80300684600F0BAF8FFF736FE7D
:105110004FF4E06000F0F0F810208DF8000003205C
:105120008DF8010000208DF8020001208DF80300A9
:10513000684600F0A5F861E04E4884422ED14C4DFF
:10514000483D4B4E783EFFF7D3FEFFF793FE4FF4FA
:10515000E06000F0D1F80E208DF8000003208DF8FB
:10516000010001208DF8020000208DF80300684640
:1051700000F086F84FF4E06000F0BEF80C208DF8E7
:10518000000003208DF8010000208DF802000120AE
:105190008DF80300684600F073F82FE0364884422B
:1051A0002AD1314D183D304E903EFFF71DFFFFF7DD
:1051B000DDFE4FF4A06000F09FF845208DF8000060
:1051C00003208DF8010001208DF8020000208DF8E9
:1051D0000300684600F054F839208DF800000320E1
:1051E0008DF8010000208DF8020001208DF80300E9
:1051F000684600F045F801E000BFFEE701212846BF
:10520000FCF740FF00BF2846FCF7F4FF0128FAD165
:1052100001213046FCF736FF00BF3046FCF7EAFFBD
:105220000128FAD101228021204602F0F3FB01225D
:105230004021204602F0EEFB012210212846FDF716
:1052400015F8012210213046FDF710F800228021C8
:10525000204602F0DFFB00224021204602F0DAFB6C
:10526000F8BD000000100140B86402400044004056
:10527000A060024000480040001401407047000058
:1052800070B5002100230F22C4781CB3174C24688A
:1052900004F4E064C4F5E064C4F30721C1F104043C
:1052A000E3B20A4144789C40E1B28478144021433F
:1052B0000C07210E0E4C05786155047804F01F058B
:1052C0000124AC4005786D11AD0005F1E025C5F86D
:1052D000004109E0047804F01F050124AC40054DAD
:1052E0000678761145F8264070BD00000CED00E010
:1052F00000E400E080E100E002490143024A11605D
:10530000704700000000FA050CED00E000BF00BF90
:1053100000BFBFF34F8F00BF00BF00BF0948006848
:1053200000F4E06008490843001D0649086000BF1A
:1053300000BF00BFBFF34F8F00BF00BF00BF00E042
:1053400000BFFDE70CED00E00000FA05704700002B
:1053500029B1064A12680243044B1A6004E0034A6A
:1053600012688243014B1A607047000030380240D7
:1053700029B1064A12680243044B1A6004E0034A4A
:1053800012688243014B1A607047000040380240A7
:1053900029B1064A12680243044B1A6004E0034A2A
:1053A00012688243014B1A607047000020380240A7
:1053B00029B1064A12680243044B1A6004E0034A0A
:1053C00012688243014B1A60704700004438024063
:1053D00029B1064A12680243044B1A6004E0034AEA
:1053E00012688243014B1A60704700002438024063
:1053F000F0B5002100220024022500260223324FAE
:105400003F6807F00C0121B1042905D0082937D1E4
:1054100005E02E4F076036E02D4F076033E02A4F3E
:105420003F1F3F68C7F38056274F3F1F3F6807F075
:105430003F036EB1264FB7FBF3F7DFF88CC0ACF13A
:10544000040CDCF800C0CCF3881C07FB0CF40CE067
:105450001E4FB7FBF3F7DFF870C0ACF1040CDCF8BB
:1054600000C0CCF3881C07FB0CF4174F3F1F3F68AC
:10547000C7F301477F1C7D00B4FBF5F7076002E02E
:10548000124F076000BF00BF0F4F3F6807F0F001E9
:105490000909104F7A5C0768D74047600A4F3F6898
:1054A00007F4E051890A0B4F7A5C4768D740876060
:1054B000054F3F6807F46041490B064F7A5C476827
:1054C000D740C760F0BD0000083802400024F40057
:1054D00000127A001400002070B50025FE4C0CB9B3
:1054E000002070BDFD4890F83600012851D1207889
:1054F000617840EA0120C0F30A00F849088060782A
:10550000C010A17840EA4110C0F30A00F349488076
:10551000A0788011E17840EA8100217940EA812079
:10552000C0F30A00ED49888020794010617940EA93
:10553000C110C0F30A00E949C880607900118008F1
:1055400081F820006079C0F3011081F82100A07972
:10555000E17940EA0120E14981F82200207A617A6C
:1055600040EA0120DD4981F82300A07AE17A40EA8F
:105570000120DA4981F82400207B81F82500607B36
:1055800081F82600A07B81F82700012081F83500F2
:1055900037E2D24890F8360002287CD120780F28D4
:1055A00005D1207E18B9E07D08B9002520E0CB4860
:1055B00090F83700B8B9CAA002F0EAFC002505E06F
:1055C000615DCAA002F0E4FC681CC5B2192DF7DBCE
:1055D000C8A002F0DDFCC8A002F0DAFC012003F054
:1055E0005EFCFFF793FECDA002F0D2FC002078E72E
:1055F000681C192190FBF1F201FB1200215CA81C30
:10560000192290FBF2F302FB1300205C41EA002018
:10561000C0F30A00B1490880A81C192190FBF1F2DF
:1056200001FB1200205CC110E81C192290FBF2F370
:1056300002FB1300205C41EA4010C0F30A00A749B6
:105640004880E81C192190FBF1F201FB1200205C5C
:105650008111281D192290FBF2F302FB1300205C3C
:1056600041EA8001681D90FBF2F302FB1300205C0D
:1056700041EA8020C0F30A0098498880681D1921FA
:1056800090FBF1F201FB1200205C4110A81D1922D1
:1056900090FBF2F300E0ACE102FB1300205C41EA76
:1056A000C010C0F30A008D49C880A81D192190FBC5
:1056B000F1F201FB1200205C0111E81D192290FBA0
:1056C000F2F302FB1300205C41EA0010C0F30A0071
:1056D00082490881E81D192190FBF1F201FB1200BB
:1056E000205CC11105F10800192290FBF2F302FBC6
:1056F0001300205C41EA400105F1090090FBF2F340
:1057000002FB1300205C41EA4020C0F30A00734909
:10571000488105F10900192190FBF1F201FB12000B
:10572000205C811005F10A00192290FBF2F302FBC4
:105730001300205C41EA8010C0F30A0067498881A9
:1057400005F10A00192190FBF1F201FB1200205C27
:10575000411105F10B00192290FBF2F302FB13003B
:10576000205C41EAC0005D49C88105F10C001921A7
:1057700090FBF1F201FB1200215C05F10D001922F2
:1057800090FBF2F302FB1300205C41EA0020C0F31F
:105790000A005249088205F10D00192190FBF1F22F
:1057A00001FB1200205CC11005F10E00192290FBD4
:1057B000F2F302FB1300205C41EA4010C0F30A0040
:1057C0004649488205F10E00192190FBF1F201FBD8
:1057D0001200205C811105F10F00192290FBF2F3F9
:1057E00002FB1300205C41EA800105F1100090FBF0
:1057F000F2F302FB1300205C41EA8020C0F30A00B0
:105800003649888205F11000192190FBF1F201FB65
:105810001200205C411005F11100192290FBF2F3F7
:1058200002FB1300205C41EAC010C0F30A002B49C0
:10583000C88205F11100192190FBF1F201FB120061
:10584000205C011105F11200192290FBF2F302FB1A
:105850001300205C41EA0010C0F30A001F490883CE
:1058600005F11200192190FBF1F201FB1200205CFE
:10587000C11105F11300192290FBF2F302FB130092
:10588000205C41EA400105F1140090FBF2F302FBB9
:105890001300205C41EA4020C0F30A000F4948830E
:1058A00005F11400192190FBF1F201FB1200205CBC
:1058B000811005F11500192290FBF2F302FB130091
:1058C000205C41EA8010C0F30A000449888305F196
:1058D0001500192140E000004E0A00207C01002044
:1058E0005342555320646174613A2000202030787F
:1058F00025327800200D0A0053425553206672610C
:105900006D206865616420213D20307830662C2050
:105910007265736574204D43552E0A0052554E2012
:1059200073746174653A2020534255532066726146
:105930006D206865616420213D20307830662C2020
:105940007468726F77206177617920746869732059
:105950006672616D0A00000090FBF1F201FB12001B
:10596000205C411105F11600192290FBF2F302FBB5
:105970001300205C41EAC0006349C8830846B0F9BF
:105980000C0040F2DC51884204DD03205E4981F8BE
:1059900020000EE05C48B0F90C00B0F5FA7F04DAA4
:1059A0000120594981F8200003E00220564981F87E
:1059B00020005548B0F9080040F2DC51884204DD6F
:1059C0000220514981F821000EE04F48B0F908004B
:1059D000B0F5FA7F04DA01204B4981F8210003E099
:1059E0000320494981F821000120474981F8350009
:1059F00007E00120444981F83500002081F8340097
:105A00006FE5414890F83700002831D13FA002F0FF
:105A1000BFFA00203C4981F8340000F0EFF950B1A2
:105A20000220394981F83400012081F837003AA07A
:105A300002F0AEFA1AE00120334981F83400002068
:105A400081F8370038A002F0A3FA3A480078401CE9
:105A500038490870084600781E2807DD36A002F095
:105A600097FA012003F01BFAFFF750FC002038E5FD
:105A70002548B0F9000040F6C41188422CDC2248C9
:105A8000B0F90000642827DB1F48B0F90200884203
:105A900022DC1D48B0F9020064281DDB1A48B0F969
:105AA0000400884218DC1848B0F90400642813DBAD
:105AB000154890F8200003280EDC134890F82000C9
:105AC000012809DB104890F82100032804DC0E4867
:105AD00090F8210001280ADA1EA002F059FA00F01D
:105AE00043F80320084981F834000020F9E40F202E
:105AF000054981F8340000F045FB0348006B401C69
:105B0000014908630120ECE47C0100205243204954
:105B10006E697420000000007375636365737366BB
:105B2000756C210A000000006661696C65642E2EA8
:105B30000A000000760000206661696C645F746989
:105B40006D65733E3330207265736574204D435527
:105B50002E2E0A0052432052656D6F746520455207
:105B6000524F520A0000000010B5864890F83600E7
:105B7000012854D184A1874801F0B6FA8148B0F9D0
:105B80000010844801F082FA0921824801F06FFA7E
:105B900081A1804801F0A8FA7A48B0F902107D4846
:105BA00001F074FA09217B4801F061FA7CA179487F
:105BB00001F09AFA7348B0F90410764801F066FAD9
:105BC0000921744801F053FA77A1724801F08CFA68
:105BD0006C48B0F906106F4801F058FA09216D4879
:105BE00001F045FA72A16B4801F07EFA654890F821
:105BF0002010684801F04AFA0921664801F037FA96
:105C00006DA1644801F070FA5E4890F82110614877
:105C100001F03CFA0A215F4801F029FA78E059487E
:105C200090F83600022873D165A15A4801F05CFA59
:105C30005448B0F90010574801F028FA0921554896
:105C400001F015FA4F48B0F90210524801F01EFA5F
:105C50000921504801F00BFA4A48B0F904104D48A8
:105C600001F014FA09214B4801F001FA4548B0F956
:105C70000610484801F00AFA0921464801F0F7F9F0
:105C80004048B0F90810434801F000FA09214148A2
:105C900001F0EDF93B48B0F90A103E4801F0F6F981
:105CA00009213C4801F0E3F93648B0F90C103948B5
:105CB00001F0ECF90921374801F0D9F93148B0F980
:105CC0000E10344801F0E2F90921324801F0CFF911
:105CD00037A1304801F008FA2A4890F820102D48E2
:105CE00001F0D4F909212B4801F0C1F932A129486A
:105CF00001F0FAF9234890F82110264801F0C6F97E
:105D00000A21244801F0B3F90A21224801F0AFF931
:105D10002EA1204801F0E8F91A48B0F928101D48D2
:105D200001F0B4F909211B4801F0A1F92AA1194891
:105D300001F0DAF91348B0F92A10164801F0A6F973
:105D40000921144801F093F926A1124801F0CCF979
:105D50000C48B0F92C100F4801F098F909210D48B2
:105D600001F085F922A10B4801F0BEF90548B0F910
:105D70002E10084801F08AF90A21064801F077F947
:105D800010BD00007C010020444255533A2020639E
:105D900068313A00001401406368323A00000000A4
:105DA0006368333A000000006368343A0000000082
:105DB0007377313A000000007377323A0000000038
:105DC000534255533A20206368313A006368315F8B
:105DD0006F66667365743A006368325F6F666673F8
:105DE00065743A006368335F6F66667365743A0082
:105DF0006368345F6F66667365743A0070B5844893
:105E0000B0F90000B0F5617F05DB8148B0F9000012
:105E1000B0F5966F07DD7E48B0F900107DA002F066
:105E2000B7F8002070BD7A48B0F90200B0F5617F84
:105E300005DB7748B0F90200B0F5966F04DD81A06C
:105E400002F0A6F80020EDE77148B0F90400B0F5C3
:105E5000617F05DB6E48B0F90400B0F5966F04DD94
:105E600081A002F095F80020DCE76948B0F906004F
:105E7000B0F5617F05DB6648B0F90600B0F5966FB6
:105E800004DD82A002F084F80020CBE78848007887
:105E900040B9002087490860874908608749086041
:105EA000874908605A48B0F90000824909680844E7
:105EB000804908605648B0F902007F4909680844E3
:105EC0007D4908605248B0F904007C4909680844DB
:105ED0007A4908604E48B0F90600794909680844D3
:105EE0007749086072480078401C7149087008467C
:105EF00000780A287EDB6F480068097890FBF1F093
:105F000000B2434908856C4800686949097890FBEC
:105F1000F1F000B23E494885684800686449097854
:105F200090FBF1F000B23A49888565480068604905
:105F3000097890FBF1F000B23549C8850C46248DF4
:105F40009CB30C46648D84B30C46A48D6CB30C4694
:105F5000E48D54B30C46B4F92830002B01DB1C4609
:105F600000E05C4240F6C415AC4224DC284CB4F995
:105F70002A20002A01DB144600E0544240F6C415F2
:105F8000AC4218DC224CB4F92C10002901DB0C4681
:105F900000E04C4240F6C415AC420CDC1C4CB4F999
:105FA0002E00002802DB044601E004E0444240F6F3
:105FB000C415AC4217DDFFF7D7FD0020144981F866
:105FC00034003B4908703B4908603B4908603B4945
:105FD00008603B4908603BA001F0DAFF012002F0B5
:105FE0005EFFFFF793F90120094981F8340030483A
:105FF000007800E002E00863012013E70020044974
:1060000081F834002A480078086300200AE700007D
:106010007C01002072632E636831203C20393030CF
:1060200029207C7C202872632E636831203E203139
:106030003230302921202020646174613A25640ABD
:106040000000000072632E636832203C203930303B
:1060500029207C7C202872632E636832203E203108
:1060600032303029210A000072632E636833203CED
:106070002039303029207C7C202872632E636833DD
:10608000203E203132303029210A000072632E6315
:106090006834203C2039303029207C7C20287263F1
:1060A0002E636834203E203132303029210A00002E
:1060B0007400002064000020680000206C000020B4
:1060C0007000002072632E6368315F6F66667365CF
:1060D00074203D3D3020207265736574204D43551A
:1060E000210A000010B5002419491A48FEF7BAFF2A
:1060F00001224021174801F08DFC0220164981F849
:106100003600164800781549087016E014480078E3
:1061100010B1FFF7E1F910E00220FCF7DFF94FF4CE
:1061200080411048FCF7FAF90F4C00BF201EA4F183
:106130000104FBD10DA001F02BFF074890F83400BB
:106140000028E3D00021022000F002FB012010BD56
:10615000A0860100004400407C0100207500002062
:106160004000002000140240E0930E007761697443
:1061700020666F7220524320696E69742E2E2E0A9B
:10618000000000002DE9F0412DED0A8B9FEDB30AD0
:1061900010EE104A002500270026B14890F8200094
:1061A00001287DD0AE4890F834000028F9D00420B2
:1061B00000F05EF9002873D1A94890F82100012869
:1061C00004D1B7EE000A10EE104A17E0A44890F888
:1061D0002100032804D1B0EE000A10EE104A0DE0B1
:1061E0009F4890F82100022804D1B1EE000A10EE79
:1061F000104A03E09FED990A10EE104A9848B0F952
:1062000000009749B1F92810451A9548B0F90200E5
:106210009349B1F92A10471A9148B0F904009049FE
:10622000B1F92C10461A281E01DB014600E041425C
:10623000502900DA0025381E01DB014600E041420A
:10624000502900DA0027301E01DB014600E0414200
:10625000502900DA00268348007800F00300E0BBF4
:106260002046FAF7DBF941EC1A0B6842FAF780F99D
:1062700041EC1C0B9FED7C0B53EC102BFAF709F94A
:1062800041EC1B0B53EC1A2BFAF791F841EC190B6C
:10629000FAF708FA08EE100A2046FAF7BFF900E00C
:1062A00047E041EC1A0B3046FAF762F941EC1C0B5F
:1062B0009FED6D0B53EC102BFAF7EBF841EC1B0B39
:1062C00053EC1A2BFAF773F841EC190BFAF7EAF9C9
:1062D00008EE900AF0EE480A00E004E0B0EE680A2A
:1062E000FCF722F8B6E05F48007800F003000128D0
:1062F0001FD05C48007800F0030002287ED1CEB1A8
:106300007042FAF735F941EC1A0B9FED570B53EC3D
:10631000102BFAF7BEF841EC190BFAF7C3F908EEA7
:10632000100AB0EE481ADFED4D0A9FED4C0A01F05D
:106330009BFC8FE04A4890F82000032840D120467B
:10634000FAF76CF941EC1A0B6842FAF711F941ECD3
:106350001C0B9FED450B53EC102BFAF79AF841EC10
:106360001B0B53EC1A2BFAF722F841EC190BFAF736
:1063700099F908EE100A2046FAF750F941EC1A0B89
:106380003846FAF7F5F841EC1C0B9FED370B53EC50
:10639000102BFAF77EF841EC1B0B53EC1A2BFAF793
:1063A00006F841EC190BFAF77DF908EE900AB0EE09
:1063B000481ADFED2A0AB0EE680AFAF7F3FB49E063
:1063C000274890F82000022844D12046FAF726F901
:1063D00041EC1A0B6842FAF7CBF841EC1C0B9FED2D
:1063E000220B53EC102BFAF754F841EC1B0B53EC37
:1063F0001A2BF9F7DCFF41EC190B00E028E0FAF763
:1064000051F908EE100A2046FAF708F941EC1A0B88
:106410003846FAF7ADF841EC1C0B9FED130B53EC2B
:10642000102BFAF736F841EC1B0B53EC1A2BF9F74B
:10643000BEFF41EC190BFAF735F908EE900A9FED13
:10644000071AF0EE480AB0EE680A01F00DFC01E010
:1064500004480078BDEC0A8BBDE8F0810000000024
:106460007C010020750000200000000000A0844096
:1064700070B50446FF25012C08D120211448FCF7F3
:10648000BCF808B9012521E000251FE0022C08D145
:1064900010210F48FCF7B1F808B9012516E00025D6
:1064A00014E0032C08D108210948FCF7A6F808B924
:1064B00001250BE0002509E0042C07D10421044844
:1064C000FCF79BF808B9012500E00025284670BDBF
:1064D0000010024000B587B001210846FEF738FFE2
:1064E00001210803FEF764FF02208DF81800002048
:1064F0008DF81A00E020059001208DF81B00032084
:106500008DF8190005A92048FCF70CF80522114662
:106510001D48FCF74FF8052206211B48FCF74AF8F6
:10652000052207211848FCF745F801210803FEF76A
:106530004FFF00214FF48050FEF74AFF3820ADF89E
:106540000C000120ADF808000220ADF8060007207D
:10655000ADF810000020ADF80400ADF80000ADF873
:106560000E004FF48270ADF802004FF40070ADF8E9
:106570000A006946054800F055F80121034800F07B
:1065800037F807B000BD00000000024000300140B5
:1065900010B5044600BF02210A4800F035F8002873
:1065A000F9D02146074800F03BF800BF012105481B
:1065B00000F02AF80028F9D0024800F02EF8C0B206
:1065C00010BD00000030014010B5044607480088A7
:1065D0004FF6C771084005490880084600882043E7
:1065E00008800121014800F003F810BD003001408F
:1065F00021B1028842F04002028004E002884FF696
:10660000BF731A40028070470246002013890B4076
:106610000BB1012000E000207047014688897047D7
:106620008181704710B50022028802F441520B8824
:106630004C8823438C882343CC8823430C892343F1
:106640004C8923438C892343CC8923431A430280FA
:10665000838B4FF2FF74234083830B8A038210BD28
:10666000704700000CB5002001900090344800688D
:1066700040F480303249086000BF3148006800F4BF
:10668000003000900198401C0190009818B90198C2
:10669000B0F5A04FF1D12A48006800F4003010B1E5
:1066A0000120009001E0002000900098012846D1D0
:1066B00023484030006840F0805021494031086054
:1066C0002048006840F440401E4908601C480830DB
:1066D00000681B49083108600846006840F4004023
:1066E00008600846006840F4A05008601648091F7A
:1066F0000860081F006840F08070091F086000BF34
:106700000F48006800F000700028F9D040F20570D2
:106710000E4908600A480830006820F00300084964
:10672000083108600846006840F00200086000BFB9
:1067300003480830006800F00C000828F8D10CBDB0
:10674000003802400070004008544007003C0240FE
:1067500070B505460C46012D16D154B120213048A4
:10676000FBF756FF2F48007840F001002D490870D4
:1067700054E020212A48FBF749FF2A48007800F01E
:10678000FE002849087049E0022D16D154B11021AD
:106790002348FBF73DFF2348007840F002002149E1
:1067A00008703BE010211E48FBF730FF1D480078C1
:1067B00000F0FD001B49087030E0032D16D154B1E4
:1067C00008211748FBF724FF1648007840F0040022
:1067D0001449087022E008211148FBF717FF1148FF
:1067E000007800F0FB000F49087017E0042D15D168
:1067F00054B104210A48FBF70BFF0A48007840F027
:1068000008000849087009E004210548FBF7FEFE6E
:106810000448007800F0F7000249087070BD0000DD
:10682000001402405C0000200448006820B10348C6
:106830000068401E01490860704700009C0000206D
:1068400030B519480068194AB0FBF2F1481EB0F1A2
:10685000807F01D301201BE0481E4FF0E0225061F1
:1068600050170F22002807DA13071D0E104B00F0F7
:106870000F04241F1D5503E013071C0E0D4B1C5461
:1068800000BF00204FF0E02290610720106100203F
:1068900008B100BFFEE74FF0E020006920F00100E2
:1068A0004FF0E021086130BD00000020A08601000B
:1068B00018ED00E000E400E010B51548006840F471
:1068C0007000134908601348006840F00100114946
:1068D000086000200F49083108600E4800680E4922
:1068E00008400C4908600D48091D0860081F006831
:1068F00020F48020091F0860002006490C31086040
:10690000FFF7B0FE4FF0006001498039086010BD0C
:1069100088ED00E000380240FFFFF6FE1030002452
:1069200010B50121880700F079F818B10121880716
:1069300000F065F810BD000010B501210E4800F010
:106940006DF8C0B10D480068401C0C4908600C4847
:106950000068401C0A49086008480068FBF7CEF947
:1069600006480068042802D3002004490860012179
:10697000014800F044F810BD001000404C00002019
:106980003C00002010B50121144800F047F818B36E
:1069900013480068401C1249086012480068401CF7
:1069A0001049086010480068401C0F4908600F48F3
:1069B0000068401C0D4908600D480068401C0C49E7
:1069C00008600C480068401C0A490860FBF712FA8E
:1069D0000121024800F013F810BD0000001400402F
:1069E00024000020280000202C000020300000207F
:1069F0003400002038000020CA4302827047CA4396
:106A00000282704721B1028842F00102028004E054
:106A100002884FF6FE731A400280704730B5024676
:106A2000002000230024158A05EA0103958905EA60
:106A3000010413B10CB1012000E0002030BD1AB1F7
:106A400083890B43838102E083898B438381704771
:106A500000220288184B98420ED0184B98420BD057
:106A6000B0F1804F08D0164B984205D0154B984294
:106A700002D0154B984204D14FF68F731A404B88C1
:106A80001A43124B984207D0114B984204D04FF64C
:106A9000FF431A400B891A4302804B68C3620B887C
:106AA0000385054B984202D0044B984201D18B7A62
:106AB00003860123838270470000014000040140E7
:106AC0000004004000080040000C0040001000409E
:106AD000001400407FB504460D46B4F1804F34D118
:106AE0004FF4E060FEF708FC1C208DF80000002049
:106AF0008DF8010002208DF8020001208DF80300BE
:106B00006846FEF7BDFB01210846FEF731FC681E12
:106B100002905320ADF804000020ADF80C00ADF851
:106B2000060001A94FF08040FFF792FF012188077E
:106B3000FFF762FF012211469007FFF780FF002157
:106B40004FF08040FFF75EFFA0E08348844232D1DF
:106B50004FF4E060FEF7D0FB1D208DF80000002010
:106B60008DF8010003208DF8020001208DF803004C
:106B70006846FEF785FB01210220FEF7F9FB681E3F
:106B800002905320ADF804000020ADF80C00ADF8E1
:106B9000060001A92046FFF75BFF01212046FFF711
:106BA0002BFF012211462046FFF749FF0021204616
:106BB000FFF728FF6AE06948844232D14FF4E06071
:106BC000FEF79AFB1E208DF8000000208DF80100D2
:106BD00004208DF8020001208DF803006846FEF7BE
:106BE0004FFB01210420FEF7C3FB681E02905320D7
:106BF000ADF804000020ADF80C00ADF8060001A9C6
:106C00002046FFF725FF01212046FFF7F5FE012270
:106C100011462046FFF713FF00212046FFF7F2FE42
:106C200034E04F48844231D14FF4E060FEF764FB1A
:106C300032208DF8000000208DF8010005208DF82D
:106C4000020001208DF803006846FEF719FB0121C0
:106C50000820FEF78DFB681E02905320ADF804005B
:106C60000020ADF80C00ADF8060001A92046FFF7A2
:106C7000EFFE01212046FFF7BFFE0122114620460C
:106C8000FFF7DDFE00212046FFF7BCFE35488442B9
:106C90002DD14FF4E060FEF72FFB36208DF8000079
:106CA00000208DF8010006208DF8020001208DF8EB
:106CB00003006846FEF7E4FA01211020FEF758FBB6
:106CC000681E02905320ADF8040001A92046FFF78A
:106CD000BFFE01212046FFF78FFE0122114620460C
:106CE000FFF7ADFE00212046FFF78CFE32E01E4884
:106CF00084422DD14FF4E060FEF7FEFA37208DF884
:106D0000000000208DF8010007208DF8020001200E
:106D10008DF803006846FEF7B3FA01212020FEF744
:106D200027FB681E02905320ADF8040001A92046FD
:106D3000FFF78EFE01212046FFF75EFE012211467D
:106D40002046FFF77CFE00212046FFF75BFE01E0B6
:106D500000BFFEE77FBD00000004004000080040C7
:106D6000000C0040001000400014004010B5044624
:106D700001212046FFF746FE10BD000030B587B068
:106D800005460C4601210420FEF7E2FA00208DF8AA
:106D90001A0001208DF81B0002208DF819004FF415
:106DA0004060059002208DF8180005A91C48FBF7EB
:106DB000B9FB08220A211A48FBF7FCFB08220B2129
:106DC0001748FBF7F7FB0121C804FEF7D1FA01953C
:106DD0000020ADF80800ADF80A00ADF80C00ADF8E1
:106DE00010000C20ADF80E0001A90E4800F078FE4E
:106DF000012C08D100F058F8012240F22551094831
:106E000000F048FE05E0002240F22551054800F060
:106E100041FE0121034800F0F1FD07B030BD000044
:106E200000080240004C004010B501211D4800F050
:106E300007FE30B11B4800F0BDFE0121194800F0EB
:106E4000C5FD0821174800F0FBFD30B1154800F0E2
:106E5000B1FE0821134800F0B9FD0221114800F0ED
:106E6000EFFD30B10F4800F0A5FE02210D4800F003
:106E7000ADFD40F225510B4800F0E2FD80B120212C
:106E8000084800F0A3FD40F22551064800F0A7FD98
:106E9000044800F08FFEC4B22146024800F08FFE85
:106EA00010BD0000004C004008B54FF4A060FEF794
:106EB00023FA34208DF8000003208DF80100022011
:106EC0008DF8020001208DF803006846FEF7D8F91E
:106ED00008BD000030B587B005460C4601210C20E6
:106EE000FEF736FA00208DF81A0001208DF81B00FD
:106EF00002208DF81900C002059002208DF81800BC
:106F000005A92148FBF70EFB0420059002208DF80F
:106F1000180005A91D48FBF705FB08220C211A489B
:106F2000FBF748FB082202211848FBF743FB01212D
:106F30000805FEF71DFA01950020ADF80800ADF830
:106F40000A00ADF80C00ADF810000C20ADF80E00F2
:106F500001A90F4800F0C4FD012C08D100F05AF837
:106F6000012240F225510A4800F094FD05E000227C
:106F700040F22551064800F08DFD0121044800F043
:106F80003DFD07B030BD000000080240000C02408B
:106F90000050004010B501211D4800F051FD30B1F6
:106FA0001B4800F007FE0121194800F00FFD0821E1
:106FB000174800F045FD30B1154800F0FBFD0821F1
:106FC000134800F003FD0221114800F039FD30B1F3
:106FD0000F4800F0EFFD02210D4800F0F7FC40F2F1
:106FE00025510B4800F02CFD80B12021084800F00D
:106FF000EDFC40F22551064800F0F1FC044800F099
:10700000D9FDC4B22146024800F0D9FD10BD0000F0
:107010000050004008B54FF4A060FEF76DF9352030
:107020008DF8000003208DF801008DF8020001208A
:107030008DF803006846FEF723F908BD2DE9F041FD
:1070400007460C461546002600BF0CE014F8011B4D
:10705000384600F0B4FD00BF8021384600F0E3FC64
:107060000028F9D0761CAE42F0D3BDE8F08170B5AF
:1070700004460D462946204600F0A1FD00BF8021B0
:10708000204600F0D0FC0028F9D070BDFEB50746C0
:107090000E46354600208DF8000001240CE00A2041
:1070A000B5FBF0F100FB115030300DF804000A2060
:1070B000B5FBF0F5601CC4B20A20B5FBF0F0002867
:1070C000EDD10A20B5FBF0F100FB115030300DF886
:1070D000040006E01DF804103846FFF7C8FF601EE4
:1070E000C4B2002CF6DCFEBD70B505460C460BE0C4
:1070F00014F8011B284600F062FD00BF80212846DD
:1071000000F091FC0028F9D020780028F0D170BD63
:1071100030B587B005460C4601210846FEF718F940
:1071200000208DF81A0001208DF81B0002208DF838
:1071300019000002059002208DF8180005A92148C9
:10714000FBF7F0F94FF48060059002208DF81800ED
:1071500005A91C48FBF7E6F907220A211948FBF7A5
:1071600029FA072209211748FBF724FA01211020E8
:10717000FEF71EF901950020ADF80800ADF80A00F1
:10718000ADF80C00ADF810000C20ADF80E0001A910
:107190000D4800F0A5FC012C08D100F0FDF80122FB
:1071A00040F22551084800F075FC05E0002240F24D
:1071B0002551054800F06EFC0121034800F01EFC3B
:1071C00007B030BD000002400010014010B50121A1
:1071D000674800F035FC30B1654800F0EBFC012158
:1071E000634800F0F3FB0821614800F029FC30B14E
:1071F0005F4800F0DFFC08215D4800F0E7FB02215A
:107200005B4800F01DFC30B1594800F0D3FC02216E
:10721000574800F0DBFB40F22551554800F010FCC8
:10722000002837D02021524800F0D0FB40F22551F1
:107230004F4800F0D4FB4E4800F0BCFCC4B24FF401
:1072400000514C48FBF76AF94B4800784B490870ED
:10725000494804700078EA281DD108460078AE2815
:1072600019D100204649088001204649087043484A
:107270000178434802880088401C414B18804248EE
:1072800081543D480178184602880088401C1880C7
:107290003D4881546BE03B480078012862D1384872
:1072A000008802285EDB3648008803280ADA324864
:1072B0000178334802880088401C314B18803248DE
:1072C000815454E030488078801C2D4909888842D8
:1072D0000ADD294802782A4801880088401C284B8A
:1072E00018802948425442E027488078801C24496D
:1072F000098888420ED120480078EF280AD11E481C
:1073000001781F4802880088401C1D4B18801E48C9
:1073100081542CE01C488078C01C19490988884297
:107320001AD115480078FE2816D113480178144860
:1073300002880088401C124B18801348815418465C
:107340000088124908800120114908700020114965
:1073500008600C4908700AE000200A4908700849D2
:10736000088004E00020064908800649087010BD26
:107370000010014000140240570000205800002077
:10738000540000205600002026040020A400002005
:10739000A60000202800002008B54FF4A060FDF7EB
:1073A000ABFF25208DF8000001208DF801008DF83D
:1073B00002008DF803006846FDF762FF08BD00007B
:1073C00030B587B005460C4601210846FDF7C0FFE1
:1073D00000208DF81A0001208DF81B0002208DF886
:1073E00019000C20059002208DF8180005A91C48F2
:1073F000FBF798F8072203211948FBF7DBF807226F
:1074000002211748FBF7D6F801214804FDF7B0FF29
:1074100001950020ADF80800ADF80A00ADF80C00A9
:10742000ADF810000C20ADF80E0001A90D4800F0D9
:1074300057FB012C08D100F051F8012240F22551F0
:10744000084800F027FB05E0002240F225510548DE
:1074500000F020FB0121034800F0D0FA07B030BD56
:10746000000002400044004010B501211A4800F01D
:10747000E7FA30B1184800F09DFB0121164800F0F2
:10748000A5FA0821144800F0DBFA30B1124800F0E8
:1074900091FB0821104800F099FA02210E4800F0F3
:1074A000CFFA30B10C4800F085FB02210A4800F009
:1074B0008DFA40F22551084800F0C2FA58B1202157
:1074C000054800F083FA40F22551034800F087FA9E
:1074D000014800F06FFB10BD0044004008B54FF4B8
:1074E000A060FDF709FF26208DF8000002208DF82E
:1074F00001008DF8020001208DF803006846FDF7B9
:10750000BFFE08BD30B587B005460C4601210220FC
:10751000FDF71EFF00208DF81A0001208DF81B00DA
:1075200002208DF819004FF44060059002208DF87C
:10753000180005A91C48FAF7F5FF07220A211A4886
:10754000FBF738F807220B211748FBF733F8012126
:107550008804FDF70DFF01950020ADF80800ADF897
:107560000A00ADF80C00ADF810000C20ADF80E00CC
:1075700001A90E4800F0B4FA012C08D100F0C4F8BB
:10758000012240F22551094800F084FA05E000226A
:1075900040F22551054800F07DFA0121034800F032
:1075A0002DFA07B030BD0000000402400048004042
:1075B00010B501214E4800F043FA30B14C4800F0BC
:1075C000F9FA01214A4800F001FA0821484800F080
:1075D00037FA30B1464800F0EDFA0821444800F08F
:1075E000F5F90221424800F02BFA30B1404800F092
:1075F000E1FA02213E4800F0E9F940F225513C4809
:1076000000F01EFA002872D02021394800F0DEF97F
:1076100040F22551364800F0E2F9354800F0CAFA48
:10762000C4B234480078E0B93348007801285CD10E
:10763000032C5AD10020314908702F490A782F496C
:107640000878411C2D4B19702D490A5419460878A9
:10765000411C1A4611702A490C5401202549087012
:1076600043E02448007801283AD1244800780228D1
:1076700036DB22480078032807DA20490878411CC5
:107680001E4A11701E490C5420E01D488078401D90
:107690001A490978884214DD18490878411C174AAC
:1076A000117017490C5408468078401D114609781E
:1076B00088420BD102200F4908700120114908703F
:1076C00004E000200B4908700C4908700B48007852
:1076D00064280ADB0020074908700849087004E0A4
:1076E000002004490870054908700348047010BD63
:1076F00000480040520000205000002051000020AF
:10770000140200204200002008B54FF4A060FDF7ED
:10771000F3FD27208DF8000003208DF801000120E3
:107720008DF802008DF803006846FDF7A9FD08BD3D
:1077300030B587B005460C4601210420FDF708FE50
:1077400000208DF81A0001208DF81B0002208DF812
:107750001900C020059002208DF8180005A91C48CA
:10776000FAF7E0FE082206211948FAF723FF08225B
:1077700007211748FAF71EFF01212020FDF718FE08
:1077800001950020ADF80800ADF80A00ADF80C0036
:10779000ADF810000C20ADF80E0001A90D4800F066
:1077A0009FF9012C08D100F0FDF8012240F225518B
:1077B000084800F06FF905E0002240F22551054825
:1077C00000F068F90121034800F018F907B030BD56
:1077D000000802400014014010B50121674800F084
:1077E0002FF930B1654800F0E5F90121634800F058
:1077F000EDF80821614800F023F930B15F4800F04E
:10780000D9F908215D4800F0E1F802215B4800F059
:1078100017F930B1594800F0CDF90221574800F06E
:10782000D5F840F22551554800F00AF9002837D024
:107830002021524800F0CAF840F225514F4800F08C
:10784000CEF84FF400514E48FAF768FE4D480078E4
:107850004D490870494800F0ADF94A49087008469A
:107860000078EA281DD148480078AE2819D10020B8
:10787000464908800120464908704348017843483A
:1078800002880088401C414B1880424881543D4882
:107890000178184602880088401C18803D488154B1
:1078A0006BE03B480078012862D138480088022804
:1078B0005EDB3648008803280ADA3248027833480B
:1078C00001880088401C314B18803248425454E0F3
:1078D00030488078801C2D49098888420ADD294873
:1078E00001782A4802880088401C284B18802948C3
:1078F000815442E027488078801C244909888842C6
:107900000ED120480078EF280AD11E4802781F487F
:1079100001880088401C1D4B18801E4842542CE0F2
:107920001C488078C01C1949098888421AD115481A
:107930000078FE2816D11348017814480288008880
:10794000401C124B18801348815418460088124975
:1079500008800120114908700020114908600C4975
:1079600008700AE000200A4908700849088004E00D
:107970000020064908800649087010BD0014014027
:10798000001402405700002058000020540000203E
:107990005600002026040020A4000020A60000209D
:1079A0002800002008B54FF4A060FDF7A5FC472093
:1079B0008DF8000003208DF8010001208DF80200F1
:1079C0008DF803006846FDF75BFC08BD01F400720A
:1079D000B2F5007F00D100BFCA430280704710B5E6
:1079E0000022002340F66A14A14200D100BF0A120F
:1079F00001249440A3B2DC43048010BD21B18289EC
:107A000042F40052828104E082894DF6FF731A40ED
:107A1000828170471AB1838A0B43838202E0838A92
:107A20008B438382704702460020B1F5007F00D16E
:107A300000BF13880B400BB1012000E0002070470D
:107A400070B50246002400230025002040F66A1687
:107A5000B14200D100BFC1F3421501F01F0301265E
:107A600006FA03F3012D02D19689334006E0022D78
:107A700002D1168A334001E0968A33400C12012667
:107A800006FA04F41688344013B10CB1012000E06A
:107A9000002070BDF0B5034600240026002500201C
:107AA00040F66A17B94200D100BF1846C1F342142C
:107AB00001F01F06012707FA06F5012C01D10C3051
:107AC00004E0022C01D1103000E014301AB1076834
:107AD0002F43076002E00768AF430760F0BD000076
:107AE0002DE9FF4705460E460024A14600BFA046EB
:107AF000B08900B100BF2C8A24F44054F0880443BC
:107B00002C82AC8941F20C608443B08831890843EF
:107B1000718908430443AC81AC8A24F44074B08971
:107B20000443AC826846FDF763FC2048854202D0DE
:107B30001F48854202D1DDF80C9001E0DDF8089085
:107B4000A88900F4004040B109EBC90000EB09101E
:107B500031684900B0FBF1F707E009EBC90000EB21
:107B6000091031688900B0FBF1F76420B7FBF0F031
:107B700004012009642101FB1078A88900F4004069
:107B800040B1322000EBC800B0FBF1F000F007007C
:107B9000044308E0322000EB08106421B0FBF1F050
:107BA00000F00F0004432C81BDE8FF870010014066
:107BB0000014014001468888C0F308007047C1F3F3
:107BC00008028280704700BFFEE700001CB501215B
:107BD0000846FDF7BDFB01208DF8040000208DF85C
:107BE00006001020009001208DF8070003208DF87A
:107BF000050069460748FAF795FC01200649086028
:107C0000FEF768FC0820FEF7DFFC00F009F80349E6
:107C100008801CBD00000240900240429A000020F3
:107C200010B5002400200E4908609020FEF7B0FC3B
:107C30000020FEF7ADFC0020FEF7AAFC0020FEF7B6
:107C4000A7FCFF20FEF7A4FC44EA0024FF20FEF777
:107C50009FFC044301200349C1F89002204610BD57
:107C6000900240420000404210B52DED0C8BB0EE6A
:107C700040AAF0EE60AAF0EE419A0320B44981F8E0
:107C8000410001242AEE0A0A0AEEAA0A10EE101A8E
:107C90000846F8F7C3FC41EC1B0BB0EE4B0AF0EEC4
:107CA0006B0A00F0F3FFB0EE408AF0EE608A9FEDC1
:107CB000A90AB0EE409AF5EEC09AF1EE10FA7CD027
:107CC0009FEDA50B53EC102B51EC180BF8F7D2FCE1
:107CD00019D21AEE100AF8F7A1FC41EC1D0B53EC77
:107CE000182BF8F7D6FB41EC1C0BF8F7DBFC0BEE7E
:107CF000100AB0EE4B0A00F01FFBDFED990A20EEF0
:107D0000200AB0EE409A9FED970AB4EEC09AF1EEC9
:107D100010FA05DD9FED940A30EE490AB0EE409A64
:107D2000F5EEC0AAF1EE10FA03D2B1EE490AB0EEB8
:107D3000409AB5EEC0AAF1EE10FA05D251EC180B3C
:107D400081F0004141EC180B9FED880B53EC102B98
:107D500051EC180BF8F776FC01D2604244B200EE09
:107D6000104AB8EEC00A20EE090ADFED820A20EEC2
:107D7000200AF7EE000A80EE201ABDEEC10A10EECE
:107D8000100A7349086100EE104AB8EEC00A20EEEE
:107D9000090ADFED780A20EE200AF7EE000A80EEED
:107DA000201ABDEEC10A10EE100A486100EE104A1A
:107DB000B8EEC00A20EE090A00E084E0DFED6D0AAB
:107DC00020EE200AF7EE000A80EE201ABDEEC10A6E
:107DD00010EE100A886100EE104AB8EEC00A20EEDC
:107DE000090ADFED640A20EE200AF7EE000A80EEB1
:107DF000201ABDEEC10A10EE100AC8619FED5E0B9D
:107E000053EC102B51EC180BF8F7D1FA41EC1D0B89
:107E100081F0004141EC1C0B9FED590B53EC102BF2
:107E2000F8F737FB41EC1B0BF8F7C0FB00B24849F1
:107E300048809FED510B53EC102B51EC180BF8F7C9
:107E4000B6FA41EC1D0B81F0004141EC1C0B9FED9B
:107E50004C0B53EC102BF8F71CFB41EC1B0BF8F709
:107E6000A5FB01B23A4881809FED430B53EC102BE8
:107E700051EC180BF8F79BFA41EC1C0B9FED400BF3
:107E800053EC102BF8F705FB41EC1B0BF8F78EFBBE
:107E900001B22F48C1809FED380B53EC102B51ECF1
:107EA000180BF8F784FA41EC1C0B9FED350B53ECE3
:107EB000102BF8F7EEFA41EC1B0BF8F777FB01B249
:107EC0002348018141E0304821490861414220486E
:107ED0004161494281614942C1619FED2C0A29EE0D
:107EE000800ABDEEC00A10EE100A00B218494880A0
:107EF0009FED260A29EE800AF7EE000A80EE201A8E
:107F0000BDEEC10A10EE100A01B2114881809FED4A
:107F10001F0A29EE800AF7EE000A80EE201ABDEE55
:107F2000C10A10EE100A01B20948C1809FED170A7C
:107F300029EE800AF7EE000A80EE201ABDEEC10A93
:107F400010EE100A01B202480181BDEC0C8B10BD8D
:107F50007802002000000000FCA9F1D24D62503FE1
:107F6000333365420000B442000034430000000097
:107F7000000000000000C842000000C0A281514083
:107F8000000000000000F03F6CEEFFFF7F6A164229
:107F90000FB4054B10B503A9044A029801F04CF840
:107FA00010BC5DF814FB000099A40008E800002054
:107FB00003B401984100009850EAC12018BF042082
:107FC0004A0D18BF40F0010040F2FF72B2EB515F62
:107FD00008BF40F00200012808BF052002B070472A
:107FE00010B5B94A2DED020B2DED0C8B82B00F9917
:107FF00021F000409FEDB6CB90422CDBA0F1405326
:108000000E9AA3F17F631A430FD0B349884202DC72
:1080100016D10E98A0B19DED0E0B02B0BDEC0C8BED
:1080200002B0BDE8104000F0EABE0029C1BF9FEDDC
:10803000AC0B02B0BDEC0C8B02B0C8BF10BD16E09B
:10804000012000F031FF02B0BDEC0C8B02B0BDE8A6
:10805000104000F0E9BEA44A9FEDA59B9FEDA6ABA2
:1080600090425EDAA6499FEDA8CB814208DBB0EED4
:108070004C0AF0EE6C0A02B0BDEC0C8B02B010BDE5
:108080009DED0E0B53EC102B51EC100BF8F78FF904
:1080900041EC180B9E480621B0EE480AF0EE680A43
:1080A000784400F030FE53EC182B51EC100BF8F72D
:1080B0007EF941EC1B0B9748B0EE480AF0EE680AD7
:1080C0000421784400F01FFE53EC182B51EC100BE8
:1080D000F8F76DF953EC192BF8F7C2F841EC100BD7
:1080E00051EC1B0B53EC102BF8F7D3F941EC100BB0
:1080F00053EC102B9DED0E0B51EC100BF8F757F9CC
:1081000053EC1A2BF8F750F99DED0E1B53EC112B85
:10811000F8F74AF953EC1C2BF8F746F941EC100B31
:10812000A9E79FED7D8B9FED7EBB9DED0E0B00299A
:1081300053EC192B51EC100B52DAF8F791F853EC81
:10814000182BF8F734F941EC180B77480621B0EEFC
:10815000480AF0EE680A784400F0D5FD53EC182B7D
:1081600051EC100BF8F723F941EC1D0B6F48B0EE02
:10817000480AF0EE680A0421784400F0C4FD53EC8C
:10818000182B51EC100BF8F712F953EC192BF8F7E8
:1081900067F841EC190B51EC180B04F021F941EC94
:1081A000180B53EC192B51EC1D0BF8F772F953EC2B
:1081B000182BF8F7FCF853EC1A2BF8F7F2F841EC0F
:1081C000100B51EC180B53EC102BF8F749F853EC4B
:1081D0001B2BF8F7ECF853EC1C2BF8F7E5F86DE0E7
:1081E000F8F7E2F853EC182BF8F7E1F841EC180B2C
:1081F00004F0F6F841EC1A0B00208DED00AB009076
:108200009DED000B51EC1A0B53EC102BF8F728F8EE
:108210009DED000B41EC1C0B53EC102B51EC100BA3
:10822000F8F7C5F853EC182BF8F7BEF853EC1C2BF5
:10823000F8F72FF941EC1C0B3D48B0EE480AF0EE80
:10824000680A0621784400F05EFD53EC182B51ECCF
:10825000100BF8F7ACF841EC1D0B3648B0EE480AAD
:10826000F0EE680A0421784400F04DFD53EC182B21
:1082700051EC100BF8F79BF853EC192BF7F7F0FFC4
:1082800041EC100B51EC1D0B53EC102BF8F701F9DE
:1082900053EC1A2BF8F78BF853EC1C2BF7F7E0FF95
:1082A00041EC100B53EC102B9DED000B51EC100B1F
:1082B000F7F7D6FF53EC1B2BF8F779F841EC100BCE
:1082C000D9E60000000000000000F03F00000000C0
:1082D000182D4454FB2109400000F07F00000000ED
:1082E00000000000000000000000E03F000000006F
:1082F000000000000000F03F075C143326A6913C0C
:108300000000603C00000000182D4454FB21F93FA0
:108310003C5000004A500000000000000000E03F18
:108320000000000000000040864F0000944F000055
:10833000984E0000A64E000010B510EE104A4FF007
:108340001A402DED028B00EB4400B0F1C85F4AD813
:108350004FF0FC40B0EB440F22D2B0EEC00AF7EE73
:10836000000A30EEC00AF6EE000A20EE208A18EE6F
:10837000100A04F06CF800EE100A14F0004F1DBF54
:108380009FED281ADFED280AB1EE400A9FED271A6B
:1083900008BFF0EE410AF8EE001A20EE210A05E0CF
:1083A00020EE008A9FED221ADFED220ADFED221A6D
:1083B0009FED222A70EEC00A20EE080A08EE212A5C
:1083C000DFED1F1A48EE021A9FED1E2A08EE212A41
:1083D000DFED1D1A48EE021ABDEC028B40EE610A79
:1083E00030EE810A10BD4FF0CC40B0EB440F82BF9D
:1083F0009FED160ABDEC028B10BD4FF07F40B0EB35
:10840000440F05D2BDEC028BBDE8104000F02CBD3E
:10841000012000F049FDBDEC028BBDE8104000F0EA
:1084200027BD00000000494022AA7D3A000000005C
:108430000000C93F22AAFD3924FE1C3DC78AD83C52
:108440001E67383D1B93993DAFAA2A3EDB0FC93FFB
:1084500070B5C1482DED020B2DED0E8B82B0119D34
:1084600025F000449FEDBEDB9FEDBFEB84423EDB79
:10847000A4F140511098A1F17F6108430FD0BC488E
:10848000844202DC28D1109830B39DED100B02B06D
:10849000BDEC0E8B02B0BDE8704000F0B0BC9DEDAD
:1084A000100B53EC1D2B51EC100BF7F780FF9DEDDB
:1084B000100B41EC180B53EC1E2B51EC100BF7F783
:1084C00076FF53EC182BF7F7CBFE41EC100B02B004
:1084D000BDEC0E8B02B070BD012000F0E5FC02B0D7
:1084E000BDEC0E8B02B0BDE8704000F09DBCA14811
:1084F0009FEDA18B844256DA9DED100BB4F1795FAC
:108500000ADA51EC100BFFF753FD042808BF00F006
:108510009BFC9DED100BDAE753EC102B51EC100B8C
:10852000F7F745FF41EC190B95480621B0EE490AD3
:10853000F0EE690A784400F0E6FB53EC192B51EC9D
:10854000100BF7F734FF41EC1A0B8E48B0EE490AD6
:10855000F0EE690A0421784400F0D5FB53EC192BA6
:1085600051EC100BF7F723FF53EC182BF7F778FEBD
:1085700041EC100B51EC1A0B53EC102BF7F789FF61
:10858000CDE900019DED000B53EC102B9DED100B80
:1085900051EC100BF7F70BFF9DED101B53EC112B5B
:1085A000F7F75EFED2E09DED100B51EC100B01F0E1
:1085B00067FF53EC182BF7F7F7FE9FED730BCDE930
:1085C000000153EC102B9DED000B51EC100BF7F755
:1085D000EEFE41EC190B6E480621B0EE490AF0EEB2
:1085E000690A784400F08FFB53EC192B51EC100B07
:1085F000F7F7DDFE41EC1B0B6648B0EE490AF0EEE2
:10860000690A0421784400F07EFB53EC192B51ECED
:10861000100BF7F7CCFE53EC182BF7F721FE41ECCB
:108620001C0B51EC190B03F0DBFE41EC180B5A4804
:108630009FED5BABA04222DC53EC1C2B51EC1B0BDF
:10864000F7F727FFCDE900019DED000B51EC180B6A
:1086500053EC102BF7F7ABFE53EC182BF7F700FE9B
:1086600053EC1A2BF7F7A3FE53EC1D2BF7F799FEEB
:1086700053EC1E2BF7F798FE41EC100B5FE08DEDED
:10868000008B002000909DED000B51EC180B53EC7B
:10869000102BF7F7E5FD9DED000B41EC1E0B53ECA5
:1086A000102B51EC100BF7F782FE53EC192BF7F758
:1086B0007BFE53EC1E2BF7F7ECFE41EC190B53EC51
:1086C0001C2B51EC1B0BF7F7E4FE41EC1B0B53EC9E
:1086D0001A2B51EC190BF7F76AFE53EC1D2BF7F729
:1086E00063FE41EC190B53EC1A2B51EC180BF7F706
:1086F0005EFE53EC1B2BF7F75AFE53EC192BF7F7E2
:1087000050FE9DED000B41EC180B53EC1A2B51EC75
:10871000100BF7F74CFE9FED249B53EC192BF7F74A
:1087200043FE41EC100B51EC180B53EC102BF7F7F8
:1087300038FE53EC192BF7F737FE41EC100B002DE8
:108740003FF7C5AE51EC100B81F0004141EC100B2E
:10875000BDE60000000000000000F03F0000000047
:10876000075C143326A6913C182D4454FB21F93F95
:108770000000F07F0000E03F000000000000F03F3C
:10878000F84B0000064C0000000000000000E03F35
:108790004A4B0000584B00003333EF3F000000000D
:1087A0000000000000000040182D4454FB21E93F68
:1087B00070B59B482DED020B2DED068B079D25F026
:1087C0000044A04218DC9748844202DC0AD1069893
:1087D00040B19DED060BBDEC068B02B0BDE87040CC
:1087E00000F00DBB002DCCBF9FED8F0B9FED900BCC
:1087F000BDEC068B02B070BD8F48A04215DD8F48DE
:10880000A042D8BF4FF0FF3458DD9DED060B51EC70
:10881000100BFFF7CDFB042808BF00F015FB9DED02
:10882000060BBDEC068B02B070BD9DED060B51EC46
:10883000100B01F025FECDE9060181489FED828BEA
:10884000A0423CDD8248A0421FDD00249FED82ABA8
:108850009DED060B53EC1A2B51EC100BF7F700FDB6
:108860009DED060B41EC190B53EC1A2B51EC100B40
:10887000F7F79DFD53EC182BF7F793FD53EC192BED
:10888000F7F707FECDE9060149E09DED060B01244F
:1088900053EC182B51EC100BF7F7E2FC9DED060B97
:1088A00041EC190B53EC182B51EC100BF7F779FD39
:1088B00053EC192BF7F7EDFDCDE906012FE06848E1
:1088C000A0421FDD02249FED689B9DED060B53EC3B
:1088D000192B51EC100BF7F76AFD53EC182BF7F737
:1088E000BFFC9DED060B41EC180B53EC192B51EC22
:1088F000100BF7F756FD53EC182BF7F7CAFDCDE92F
:1089000006010CE09DED060B032453EC102B9FEDAC
:10891000580B51EC100BF7F7BCFDCDE906019DEDAE
:10892000060B53EC102B51EC100BF7F740FD41EC0C
:10893000180B53EC182BF7F73AFD41EC190B4E4886
:108940000621B0EE490AF0EE690A784400F0DBF93E
:1089500053EC182B51EC100BF7F729FD41EC180BD9
:108960004648B0EE490AF0EE690A0521784400F065
:10897000CAF953EC192B51EC100BF7F718FD41EC29
:10898000100B51EC180B53EC102B002C0EDAF7F7F0
:1089900067FC9DED061B53EC112BF7F708FD9DEDD1
:1089A000061B53EC112BF7F7FFFC35E0F7F758FCEB
:1089B0009DED061B53EC112BF7F7F9FC41EC100B66
:1089C0002F48784400EBC40090ED001B51EC100BD5
:1089D00053EC112BF7F7E5FC9DED061B53EC112B27
:1089E000F7F7DFFC41EC100B2648784400EBC4009D
:1089F00090ED001B51EC100B53EC112BF7F7D4FC4E
:108A000041EC100B002DA2BFBDEC068B02B070BD77
:108A100051EC100B81F0004141EC100B01E700001C
:108A2000000010440000F07F182D4454FB21F93F52
:108A3000182D4454FB21F9BF0000DC3F0000203E0C
:108A40000000F33F00000000000000000000F03FC5
:108A50000000E63F000000000000000000000040B1
:108A60000080034000000000000000000000F83F0C
:108A7000000000000000F0BF9A48000050480000CD
:108A8000DA4700009247000070B56B4E2DED040BE5
:108A90002DED028B82B0DDF81CC0DDE905235C42C0
:108AA0002CF000411C4341EAD474049D22F00040A4
:108AB000B44205D86C422C4340EAD474B4420BD97A
:108AC0009DED061B9DED040B02B0BDEC028B04B0C6
:108AD000BDE8704000F09DB9ACF14054A4F17F6452
:108AE0001C430BD0022404EAAC7444EAD27405435C
:108AF0009FED538B9FED542B07D015E09DED040B9C
:108B000051EC100B00F090FE42E0002C11BF012C44
:108B10009DED040B02B0BDEC028B04BF04B070BD30
:108B2000022C38D0032C3BD00B439FED491B9FED0B
:108B30004A0B0AD0B14218D1B04209D121F080418C
:108B400020F08040079105900FE0002A15DA10E030
:108B5000434B7B44002C08BF93ED000B0DD0012C40
:108B600010D0022C17D0032C1AD0B0421DD1002AED
:108B700003DAB0EE410AF0EE610A02B0BDEC028BFE
:108B800004B070BD93ED000B51EC100B81F000416F
:108B900041EC100BF1E7B0EE480AF0EE680AECE7A2
:108BA000B0EE420AF0EE620AE7E7401A00153C28F0
:108BB000C8BF8DED000B19DCBCF1000FBEBF10F17A
:108BC0003C0F9FED290B8DED000B0FDB9DED060B90
:108BD00053EC102B9DED040B51EC100BF7F759FCE7
:108BE00001F04EFC00F020FECDE90001002C08BF92
:108BF0009DED000BC1D0012C10D0022C9FED1C0B61
:108C000053EC102B9DED000B51EC100B0DD0F7F732
:108C1000C8FB53EC182BF7F7C4FBB9E7019880F0B9
:108C2000004001909DED000BA7E7F7F7BAFB53EC6E
:108C3000182BF7F7B9FBABE70000F07F000000004E
:108C4000182D4454FB210940182D4454FB2109C020
:108C5000182D4454FB21F9BF182D4454FB21F93F32
:108C6000C2460000000000000000000000000000FC
:108C7000075C143326A6A13C2DED020B019820F0D1
:108C8000004001909DED000B02B0704700B52DED46
:108C9000048BB0EE409AF0EE609A83B051EC190B61
:108CA000F7F728FE41EC180B18EE100A18EE901A90
:108CB0008DED008B002818BF0120084320F00040F4
:108CC000C0F17F6000F1E040C00F14D019EE101A1F
:108CD00019EE900A8DED009B002918BF0121084371
:108CE00020F00040C0F17F6000F1E040C00F04BF01
:108CF000012000F0D9F8B0EE480A03B0F0EE680A9F
:108D0000BDEC048B00BD70B504462DED028B4D1EED
:108D100000EBC500B0EE408AF0EE608A90ED000BEB
:108D200035F0060017D053EC182B51EC100BF7F769
:108D30003EFB41EC100B6D1E04EBC50090ED001BDB
:108D400051EC100B53EC112BF7F78AFA41EC100B96
:108D500035F00600E7D1022D36D0042D1CD0062DAB
:108D60001CBFBDEC028B70BD53EC182B51EC100BEB
:108D7000F7F71DFB94ED0A1B53EC112BF7F770FA74
:108D800053EC182BF7F713FB94ED081B53EC112B46
:108D9000F7F766FA41EC100B53EC182B51EC100B63
:108DA000F7F705FB94ED061B53EC112BF7F758FA78
:108DB00053EC182BF7F7FBFA94ED040B53EC102B44
:108DC000F7F74EFA41EC100B53EC182B51EC100B4B
:108DD000F7F7EDFA94ED021B53EC112BF7F740FA7D
:108DE00053EC182BF7F7E3FA94ED001B53EC112B1F
:108DF000F7F736FABDEC028B41EC100B70BD10B5E5
:108E000053EC102B51EC100BF7F72AFA41EC100B36
:108E100010BD10B553EC112B51EC100BF7F720FAE5
:108E200041EC100B10BD00009FED050B10B553EC8D
:108E3000102B51EC100BF7F72CFB41EC100B10BD75
:108E400000000000000000009FED050B10B553EC82
:108E5000102B51EC100BF7F7AAFA41EC100B10BDD8
:108E6000000000000000001030EE000A7047000013
:108E7000DFED020A80EEA00A70470000000000004B
:108E800002E008C8121F08C1002AFAD170477047D3
:108E9000002001E001C1121F002AFBD1704700F041
:108EA000010181F313887047014908607047000091
:108EB000EC0000202DE9FF5F82B00021DDE90430E5
:108EC000020DDDF840B0034318D044F61050A2F272
:108ED000FF3242431514119801281FD0A5EB0B0057
:108EE000401C5FEA000A4FF000064E4FDFF8389151
:108EF000B046504615D5CAF1000413E0119801247C
:108F00004AA3012801D16FEA0B010298119AC0E926
:108F10000031C0E9024206B0BDE8F09FCBF100008D
:108F2000DFE704460021404A491842EB0450CDE9EE
:108F3000001012E0E00707D032463B464046494663
:108F4000F7F735FA8046894632463B4610461946C1
:108F5000F7F72DFA06460F466410002CEAD1DDE93A
:108F60000401DDE90023BAF1000F06DAF7F71FFA72
:108F700042464B46F7F71BFA05E0F7F78AFA4246F6
:108F80004B46F7F786FA04460E460022284BF7F7C1
:108F900071FB03D84FF0FF30014607E00022254B5C
:108FA00020463146F7F75CF9F7F7F5FC102409E0A5
:108FB000002C0ADB0A220023F7F7A6FB039B3032C2
:108FC0001A55641E50EA0102F2D1641C039AC4F1DE
:108FD00011031444119A012A03D0012208430DD130
:108FE0000AE0084304D000204FF0110B119072E703
:108FF000A3EB0B056D1E0DE05B4504DD4FF0000299
:1090000005F1010504E003DA4FF00002A5F10105C6
:10901000002AECD002981199C0E90231C0E900455C
:1090200079E70000000014400000F03F300000002D
:109030000000F0430000E03F2DE9FF4F95B09B4654
:109040008946064600250FE2252877D100242746C9
:10905000F84A0121059400E0044316F8013F203B43
:1090600001FA03F01042F7D130782A2811D06FF0BE
:109070002F033078A0F13002092A16D8059A44F05F
:10908000020402EB820203EB42021044761C0590BC
:10909000EFE759F8042B0592002A03DA504244F412
:1090A0000054059044F00204761C30782E2816D126
:1090B00016F8010F44F004042A280DD06FF02F0297
:1090C0003078A0F13003092B09D807EB870302EBB6
:1090D0004303C718761CF3E759F8047B761C3078F5
:1090E0006C280FD006DC4C2817D068280DD06A28D1
:1090F00014D104E0742810D07A280FD10DE044F484
:1091000000140AE044F4801401E044F4401472783E
:10911000824202D104F58014761C761C30786628D1
:109120000BD013DC582877D009DC002875D04528EF
:10913000F6D04628F4D047281AD19DE118E06328DC
:1091400035D0642879D0652812D195E1702873D084
:1091500008DC6728F1D069286FD06E280DD06F2801
:1091600006D1B5E073282CD0752875D0782874D036
:109170005A46179990476D1C75E1C4F302500228B6
:1091800009D003280DD0D9F8001004280DD00D60A7
:1091900009F1040967E1D9F80010EA17C1E90052A2
:1091A000F6E7D9F800100D80F2E70D70F0E719F836
:1091B000041B8DF8001000208DF80100EA46012004
:1091C00003E059F804AB4FF0FF3061074FF00001A6
:1091D00002D40DE008F101018846B9420FDA80455A
:1091E000F8DB1AF808100029F4D108E008F10101B1
:1091F00088468142FADB1AF808100029F6D1059852
:109200005B46A0EB080721463846179A00F094FA0F
:10921000284400EB080507E04DE029E10DE01AF8CD
:10922000010B5A4617999047B8F10108F7D25B46EF
:1092300021463846179A13E142E00A220092C4F30D
:1092400002524FF0000A022A08D059F804CB032A30
:109250004FEAEC710AD00DE029E02AE009F107019C
:1092600021F00702F2E802C1914609E00FFA8CFCF6
:109270004FEAEC71042A03D14FFA8CFC4FEAEC71EF
:10928000002907DA0A460021DCF1000C61EB02013B
:109290002D2202E0220504D52B228DF80420012284
:1092A00003E0E20701D02022F7E7904659E00A21C7
:1092B00002E010220DE010214FF0000A00910BE0B7
:1092C00010224FF0000A44F004040827009203E043
:1092D00008224FF0000A0092C4F30252022A05D07D
:1092E00059F804CB0021032A08D009E009F107014D
:1092F00021F00702F2E802C1914605E01FFA8CFC5A
:10930000042A01D10CF0FF0C4FF00008220728D5E9
:10931000702806D0009B83F0100353EA0A0305D09F
:109320000EE040228DF80420012208E05CEA0102F0
:1093300006D030228DF804208DF8050002229046D8
:10934000009B83F0080353EA0A030AD15CEA010296
:1093500001D1620705D530228DF804204FF00108B5
:109360007F1E582804D034A003900EA802900DE070
:1093700036A0F9E753466046009AF7F7C5F98446E8
:109380000398825C0298401E029002705CEA010021
:10939000F0D1029806A9081A00F1200A600702D548
:1093A00024F4803400E00127574502DDA7EB0A00D2
:1093B00000E0002000EB0A01009005984144401AAB
:1093C0000590E00306D45B462146179A059800F005
:1093D000B3F90544002706E001A85A46C05D179975
:1093E00090476D1C7F1C4745F6DBE0030CD55B46C0
:1093F0002146179A059800F09FF9054404E03020B3
:109400005A46179990476D1C0099481E00900029F4
:10941000F5DC08E0029802995A460078491C02914E
:10942000179990476D1CBAF10001AAF1010AF1DC0D
:1094300065E1000009280100303132333435363718
:109440003839616263646566000000003031323390
:109450003435363738394142434445460000000030
:1094600000F058F90544761C307800287FF4ECAD04
:1094700019B02846BDE8F08F620700D4062709F12D
:10948000070222F0070CFCE80223E14603F0004843
:109490005FEA080C02D00FF2702C0DE05FEA045C6A
:1094A00002D50FF2682C07E05FEAC47C02D00FF20D
:1094B000602C01E0AFF2700C4FF0FF3823F0004356
:1094C000CDF850C065280CD006DC452809D04628C8
:1094D0001DD047283DD13DE0662818D067287ED1B1
:1094E00038E00021112F01DB112000E0781CCDE9CC
:1094F000000106A90EA8FFF7DDFCDDE90F010E9AB9
:1095000003910021009207F1010A04914DE04FF010
:1095100000400097CDE9011006A90EA8FFF7CAFC8C
:10952000DDE90F0203920E9B11990022DDF80CA0D9
:109530000093049211B9791C00EB010AB7EB0A0001
:1095400004D4C0F1FF3007F1010A0490AAEB070030
:10955000019044E0012F00DA01270021112F01DDE5
:10956000112000E03846CDE9000106A90EA8FFF75A
:10957000A1FCDDE90F010E9A0391002104910092F4
:10958000BA4621070CD40399514500DA8A46BAF14C
:10959000010F05DD009AAAF10101515C302908D0C4
:1095A000B84202DA10F1040F06DA0121CDE9011008
:1095B00015E0AAF10101E9E7002805DC049901445E
:1095C0000491AAEB000102E0411C514500DD8A46EE
:1095D0000499401A401C01904FF00040029020076F
:1095E00004D40198504501DBCDF8048000208DF8AB
:1095F0004F0002980DF14F07B0F1004F25D02B20FE
:109600000E9002984FF0020800280CDA40420290B7
:109610002D200E9007E00A210298F7F75FF830310D
:10962000029007F8011DB8F10001A8F10108F2DC71
:1096300002980028EFD1791E0E980870307800F05B
:10964000200040F0450007F8020D12A8C01B00F1F1
:1096500007081498007800B1012000EB0A01019876
:1096600001EBE07105984144401A401E0590E0036B
:1096700006D45B462146179A059800F05DF805442C
:109680001498007818B15A46179990476D1CE0035A
:1096900024D55B462146179A059800F04DF80544FD
:1096A0001CE00498002807DBDDE90301884203DDA4
:1096B0000098405C179901E0179930205A4690476E
:1096C000049805F10105401C04900198401E01908A
:1096D00004D12E205A46179990476D1CBAF100010B
:1096E000AAF1010ADDDC05E017F8010B5A461799CB
:1096F00090476D1CB8F10001A8F10108F4DC5B464D
:109700002146179A0598ABE62D0000002B000000BB
:10971000200000002DE9F041044600251E461746B2
:10972000880404D405E039462020B0476D1C641E2F
:10973000F9D52846BDE8F0812DE9F0410446002521
:109740001E469046C80301D5302700E02027880434
:1097500004D505E041463846B0476D1C641EF9D576
:109760002846BDE8F0810000F0B52DED028B83B0F6
:1097700006460F460025684600F0A0FE002448E09B
:1097800056F8241057F82420881A002801DB0146D7
:1097900000E0414200EE101AB8EEC00ADFED200AE8
:1097A00080EE208A684600EB840090ED000AB5EE5A
:1097B000C00AF1EE10FA19D0684600EB8400D0ED33
:1097C000000A88EE200AF7EE000A70EE608A00BFF9
:1097D000B0EEE80A1348D0ED090AB4EEE00AF1EE63
:1097E00010FA15DD0120A040054311E00D4890ED71
:1097F000070AB4EEC80AF1EE10FA06DC90ED080A8A
:10980000B4EEC80AF1EE10FA02D20120A0400543DE
:10981000641C032CB4DB284603B0BDEC028BF0BD06
:1098200000008047C0C4000810B541EC100BFEF7E3
:10983000BFFF51EC100B10BD2DE9F0410446E0785C
:1098400000F0C006E07800F03F05607800F001000D
:1098500098B1EF102846E91705EB5171C910A5EB37
:10986000C101491C01F0FF080B48006820B10A48FB
:10987000414602683846904700BF607800F0080013
:1098800030B10548406818B1B011034A51688847A3
:109890000020BDE8F0810000680A002001B56422C4
:1098A000009901FB02F0F8F72DFD08BD38B504461C
:1098B00064B120208DF8000028208DF801003020B0
:1098C0008DF8020038208DF8030004E0A322042163
:1098D0006846F6F7A6FC6A46042140F69E2002F090
:1098E0006BFC02F055F838BD3EB5044602208DF8F9
:1098F0000000CA208DF80100E3208DF80200092045
:109900008DF803006A460421682002F055FCA3206C
:109910008DF8000004F0400048B1C0208DF801002F
:10992000C8208DF80200C2208DF8030006E0A320B5
:109930008DF801008DF802008DF8030004F4C0706A
:1099400048B1C4208DF80400CC208DF80500C62055
:109950008DF8060006E0A3208DF804008DF80500C0
:109960008DF80600A3208DF807008DF808008DF80B
:1099700009006A460A2140F6A72002F01DFC04F007
:10998000030018B120208DF8000002E0D8208DF8E7
:1099900000006A46012140F6B62002F00DFC04F0FA
:1099A000200018B1012000F0ADF802E0002000F026
:1099B000A9F804F4C07008B304F4807060B1B22058
:1099C0008DF800008B208DF80100B6208DF8020084
:1099D0009B208DF803000BE0B0208DF80000802064
:1099E0008DF80100B4208DF8020090208DF803005E
:1099F0006A46042140F6A22002F0DEFB04F00100DA
:109A000020B3F8208DF800006A4601214FF40B6066
:109A100002F0D2FBFA21072000F02CFC072000F016
:109A2000F3FB012000F013FC642000F003FD4FF471
:109A3000FA7000F012FDC821304800F0A3FB282086
:109A400000F0BCFB0A2000F0CCFB08E0D8208DF829
:109A500000006A4601214FF40B6002F0ADFB04F0F8
:109A6000020018B1D9208DF8000002E0D8208DF84E
:109A700000006A46012140F23D7002F09DFB04F0B7
:109A8000040018B1012000F069F802E0002000F0A5
:109A900065F804F0100018B10120FFF707FF02E09D
:109AA0000020FFF703FF44F008001549488101F04A
:109AB0006FFF00201249887304F0400018B1084677
:109AC000807B801D887304F4C07020B10C48807BBB
:109AD000801D0B49887304F0140020B10848807B76
:109AE00010300749887304F0030020B10448807BDC
:109AF000001D0349887300203EBD000009E3CA022F
:109B0000680A00203EB504466CB10EA1D1E90020E0
:109B10008968CDE9002002916A4609214FF49760D7
:109B200002F04AFB3EBD0AA2D2E900109268CDE9DC
:109B3000010200916A4609214FF4976002F03CFB54
:109B4000F0E70000B8AAB38DB4980D355D000000B1
:109B5000B8AAAAAAB088C3C5C700000038B5044691
:109B600064B1C0208DF80000C2208DF80100C4202F
:109B70008DF80200C6208DF8030004E08B2204213A
:109B80006846F6F74EFB6A46042140F6982002F03C
:109B900013FB01F0FDFE38BD10B5C8234FF4806201
:109BA000024940F6F63001F087FD10BDE8C4000818
:109BB0002DE9F04F8DB00746884615469946DDE9F8
:109BC000166B0024002030806B49887B5A4605A91B
:109BD00001F03EFE18B1601E0DB0BDE8F08F664882
:109BE000807A00F01400002867D09DF81400000669
:109BF0009DF8151040EA01409DF8161040EA01203A
:109C00009DF81710084328609DF8180000069DF87D
:109C1000191040EA01409DF81A1040EA01209DF811
:109C20001B10084368609DF81C0000069DF81D107D
:109C300040EA01409DF81E1040EA01209DF81F10E7
:109C40000843A8609DF8200000069DF8211040EA16
:109C500001409DF8221040EA01209DF8231008439E
:109C6000E86004F11000C4B228680014019068682C
:109C700000140290A86800140390E868001404908F
:109C800001984043029901FB0100039901FB010087
:109C9000049901FB010ABAF1706F02DBBAF1885F27
:109CA00005DD01F075FE00203080401E94E7B6F916
:109CB000000040F48070308000BF2F48807A00F0B0
:109CC000400020B305A9601C085C095D40EA012042
:109CD00000B2A8F8000005A9E01C095C05AAA01CB8
:109CE000105C41EA002000B2A8F8020005A9601D3E
:109CF000095C201D105C41EA002000B2A8F80400B5
:109D0000A01DC4B2B6F9000040F0080030801A4827
:109D1000408900F4C07008B305A9601C085C095DA7
:109D200040EA012000B2388005A9E01C095C05AAC0
:109D3000A01C105C41EA002000B2788005A9601DDB
:109D4000095C201D105C41EA002000B2B880A01D13
:109D5000C4B2B6F9000040F0700030800648807A46
:109D600000F0030018B105A90819FFF765FD484682
:109D700001F032FA00202FE7680A002070B588B0A1
:109D8000064601A801F0E4FABDF804000021C90369
:109D900041EA5045C4034448007A00F0030056F8F5
:109DA000200005904048007A00F0040010B10598AA
:109DB000404205903C48007AC0F3C10056F82000AC
:109DC00006903948007A00F0200010B10698404211
:109DD00006903548007AC0F3811056F820000790AD
:109DE0003148008900F4807010B107984042079014
:109DF0000598C117A0FB042301FB043100FB0510EB
:109E0000810041EA927005900698C117A0FB0423D7
:109E100001FB043100FB0510810041EA92700690BD
:109E20000798C117A0FB042301FB043100FB0510B8
:109E3000810041EA927007900598000E8DF80800A5
:109E40000598000C8DF809000598000A8DF80A00A5
:109E50000598C0B28DF80B000698000E8DF80C0026
:109E60000698000C8DF80D000698000A8DF80E007B
:109E70000698C0B28DF80F000798000E8DF81000FC
:109E80000798000C8DF811000798000A8DF8120051
:109E90000798C0B28DF8130002AA0C214FF4257068
:109EA00002F08AF908B070BD680A002030B585B0AC
:109EB000044616A207CA02AB07C3C82C03DD4FF045
:109EC000FF3005B030BDC82090FBF4F0401E85B2D5
:109ED000280A8DF80000E8B28DF801006A460221D8
:109EE00040F2162002F068F910B14FF0FF30E8E7B9
:109EF00002AA0C2140F6C12002F05EF910B14FF029
:109F0000FF30DEE7044884810020DAE7FEF2ABC4CC
:109F1000AAF1DFDFBBAFDFDF680A00201FB5044610
:109F20004848007A00F0030054F8200001904548AA
:109F3000007A00F0040010B10198404201904148BD
:109F4000007AC0F3C10054F8200002903D48007A26
:109F500000F0200010B10298404202903948007A87
:109F6000C0F3811054F8200003903648008900F4B3
:109F7000807010B10398404203903349019880FBF0
:109F80000101800F40EA810001902F49029880FB77
:109F90000110820042EA917002902B49039880FBE5
:109FA0000110820042EA917003900198000E8DF832
:109FB00000000198000C8DF801000198000A8DF84E
:109FC00002000198C0B28DF803006A4604214FF4E4
:109FD000747002F0F1F818B14FF0FF3004B010BD0A
:109FE0000298000E8DF800000298000C8DF8010018
:109FF0000298000A8DF802000298C0B28DF80300A2
:10A000006A4604214FF4757002F0D6F810B14FF093
:10A01000FF30E3E70398000E8DF800000398000C72
:10A020008DF801000398000A8DF802000398C0B271
:10A030008DF803006A4604214FF4767002F0BCF8F4
:10A04000CCE70000680A002009E3CA0210B586B018
:10A05000044647A00068039046A00068029046A00E
:10A060000068019045A00068009004F0030003A977
:10A07000085C8DF8140003A8C4F3C101405C8DF89E
:10A08000150003A8C4F38111405C8DF8160004F09C
:10A09000030002A9085C8DF8100002A8C4F3C101F6
:10A0A000405C8DF8110002A8C4F38111405C8DF86A
:10A0B000120005AA032140F2264002F07DF818B1F3
:10A0C0004FF0FF3006B010BD04AA032140F22A4031
:10A0D00002F072F810B14FF0FF30F3E701980590ED
:10A0E0000098049004F0040058B19DF8140040F06A
:10A0F00001008DF814009DF8100040F001008DF86B
:10A10000100004F0200058B19DF8150040F0010047
:10A110008DF815009DF8110040F001008DF8110038
:10A1200004F4807058B19DF8160040F001008DF8DD
:10A1300016009DF8120040F001008DF8120005AAEB
:10A1400003214FF4886002F037F810B14FF0FF3070
:10A15000B8E704AA032140F2314002F02DF810B113
:10A160004FF0FF30AEE7064804810020AAE7000068
:10A170004CCD6C000CC92C00365676002646660085
:10A18000680A0020F8B505460E464FF47A7095FB34
:10A19000F0F000FB06F4200E8DF80000200C8DF886
:10A1A0000100200A8DF80200E0B28DF803006A4633
:10A1B00004214FF4AE7001F0FFFFF8BD38B504463E
:10A1C000052094FBF0F084B220128DF80000E0B27C
:10A1D0008DF801006A4602214FF4AD7001F0ECFFEA
:10A1E00038BD38B50446052094FBF0F084B2201247
:10A1F0008DF80000E0B28DF801006A4602214FF4AC
:10A20000AC7001F0D9FF38BD38B50446002000908D
:10A2100004F0010020B19DF8000040F030000090F3
:10A2200004F0020020B19DF8000040F00C00009006
:10A2300004F0040020B19DF8000040F003000090FD
:10A240006A4601214FF4A47001F0B6FF38BD38B55D
:10A250000446012C01DA012402E0042C00DD042470
:10A26000601EC0B200906A46012140F24F1001F01A
:10A27000A3FF38BDF0B52DED028B83B006460F4627
:10A2800006F0070010B1B7F5C86F05DD4FF0FF30DD
:10A2900003B0BDEC028BF0BD00EE107AB8EE400AC0
:10A2A000DFED5B0A80EE208A01A801F02BF89DF813
:10A2B0000400022806D0042817D0082828D0102827
:10A2C0004CD138E09FED530A28EE000ABCEEC00ADC
:10A2D00010EE100A84B29FED500A28EE000ABCEE80
:10A2E000C00A10EE100A85B23BE09FED4C0A28EE42
:10A2F000000ABCEEC00A10EE100A84B29FED480AB4
:10A3000028EE000ABCEEC00A10EE100A85B228E062
:10A310009FED440A28EE000ABCEEC00A10EE100AB7
:10A3200084B29FED410A28EE000ABCEEC00A10EE8E
:10A33000100A85B215E09FED3D0A28EE000ABCEE3A
:10A34000C00A10EE100A84B29FED390A28EE000A06
:10A35000BCEEC00A10EE100A85B202E04FF0FF30EA
:10A3600096E700BF20128DF80800E0B28DF80900D2
:10A3700028128DF80A00E8B28DF80B0006F00100F3
:10A38000A0B102AA02214FF4EA7001F015FF10B14A
:10A390004FF0FF307CE70DF10A0202214FF492707A
:10A3A00001F00AFF10B14FF0FF3071E706F0020034
:10A3B000A0B102AA02214FF4EC7001F0FDFE10B131
:10A3C0004FF0FF3064E70DF10A0202214FF4947060
:10A3D00001F0F2FE10B14FF0FF3059E706F0040033
:10A3E000A0B102AA02214FF4EE7001F0E5FE10B117
:10A3F0004FF0FF304CE70DF10A0202214FF4967046
:10A4000001F0DAFE10B14FF0FF3041E700203FE7E6
:10A41000000048430000804600004046000000461F
:10A420000000C04500008045000040450000004598
:10A430000000C04438B50446052094FBF0F085B216
:10A4400028128DF80000E8B28DF801006A4602215A
:10A450004FF4EF7001F0B0FE38BD38B5044605206A
:10A4600094FBF0F085B228128DF80000E8B28DF868
:10A4700001006A4602214FF4ED7001F09DFE38BDE7
:10A4800082B0CDE9000121F0004001909DED000B6C
:10A4900002B051EC100B704770B504460D46E1B2A6
:10A4A0000548FDF78CFB00BF80210348FDF7BBFA90
:10A4B0000028F9D0204670BD001401407CB5054647
:10A4C0002E494968087801AB04220D21F9F70AFFEB
:10A4D00008B107207CBD9DF80700C0F301109DF86E
:10A4E000041001F0E00140EAE1008DF800009DF861
:10A4F0000700C0F381009DF8051001F0E00140EA7B
:10A50000E1008DF801009DF8070000F003009DF8C0
:10A51000061001F0E00140EAE1008DF8020000249D
:10A5200027E01DF8040030B99FED150A05EB840003
:10A5300080ED000A1BE09FED130A05EB840080ED1F
:10A54000000A0BE005EB840090ED000ADFED0E0A37
:10A5500020EE200A05EB840080ED000A1DF80400BF
:10A56000401EC0B20DF804000028EBD100BF601CF3
:10A57000C4B2032CD5DB0020ACE70000B000002003
:10A58000000000007B14AE3E1D5A843F2DE9F04FC1
:10A5900087B005460C46914601208DF8100000203A
:10A5A0008DF81100FE4A1268917CFD4A52681078BD
:10A5B00004AB0222F9F7D0FE20B14FF0FF3007B014
:10A5C000BDE8F08FC820FFF769F900208DF8100072
:10A5D000F34A1268D17BF24A5268107804AB012228
:10A5E000F9F7BAFE10B14FF0FF30E8E7EC4A126815
:10A5F0005179EB4A5268107804AB0122F9F7ACFEAE
:10A6000010B14FF0FF30DAE7E54A1268917CE44A76
:10A610005268107804AB0122F9F79EFE10B14FF09A
:10A62000FF30CCE7DE4A1268D17DDD4A52681078EF
:10A6300004AB0122F9F790FE10B14FF0FF30BEE7F6
:10A64000D74A12681179D64A5268107804AB0122B1
:10A65000F9F782FE10B14FF0FF30B0E70C208DF813
:10A660001000CF4A12681179CD4A5268107804ABB5
:10A670000122F9F771FE10B14FF0FF309FE70F2074
:10A68000FFF70CF9C648806A407A8DF81000C44A7A
:10A6900012689178C24A5268107804AB0122F9F727
:10A6A0005BFE10B14FF0FF3089E7BD48806A007A49
:10A6B0008DF81000BA4A12685178B94A5268107879
:10A6C00004AB0122F9F748FE10B14FF0FF3076E7F6
:10A6D000B9F1000F07D0B248806A807A40F0E000FC
:10A6E0008DF8100004E0AE48806A807A8DF8100082
:10A6F000AB4A12689179AA4A5268107804AB0122D9
:10A70000F9F72AFE10B14FF0FF3058E7B9F1000F0A
:10A7100007D0A348806AC07A40F0E0008DF81000AE
:10A7200003E0A048C07A8DF810009D4A1268D179E4
:10A730009B4A5268107804AB0122F9F70DFE10B164
:10A740004FF0FF303BE7B9F1000F02D0C820FFF710
:10A75000A5F840208DF81000914A12681179904AAE
:10A760005268107804AB0122F9F7F6FD10B14FF0F2
:10A77000FF3024E778208DF81000894A126851795B
:10A78000874A5268107804AB0122F9F7E5FD10B151
:10A790004FF0FF3013E783498889FFF77FF80020E7
:10A7A0008DF810007E4A126851797D4A52681078FF
:10A7B00004AB0122F9F7D0FD10B14FF0FF30FEE6F7
:10A7C000774A1268917A764A5268107804AB02226E
:10A7D000F9F788FD10B14FF0FF30F0E69DF8110059
:10A7E0009DF8101040EA012B0C209BFBF0F0C6B244
:10A7F0000020A86068602860A060606020608246D9
:10A8000065E0674A1268D17A654A5268107804ABED
:10A810000C22F9F767FD10B14FF0FF30CFE69DF83D
:10A8200011009DF8101040EA012000B2ADF80800B8
:10A830009DF813009DF8121040EA012000B2ADF817
:10A840000A009DF815009DF8141040EA012000B29E
:10A85000ADF80C00BDF90810206808442060BDF96F
:10A860000A10606808446060BDF90C10A0680844D4
:10A87000A0609DF817009DF8161040EA012000B274
:10A88000ADF800009DF819009DF8181040EA01206D
:10A8900000B2ADF802009DF81B009DF81A1040EAC6
:10A8A000012000B2ADF80400BDF90010286808448A
:10A8B0002860BDF90210686808446860BDF904109A
:10A8C000A8680844A8600AF1010000F0FF0AB24538
:10A8D00097DB3448D0F800C02868C117090441EA62
:10A8E00010410704624600233846F5F769FC3246FA
:10A8F0000023CDE90201F5F763FC28602948D0F870
:10A9000000C06868C117090441EA104107046246A3
:10A9100000233846F5F754FC32460023CDE9020106
:10A92000F5F74EFC68601F48D0F800C0A868C11752
:10A93000090441EA10410704624600233846F5F74E
:10A940003FFC32460023CDE90201F5F739FCA8604F
:10A950001448D0F804C02168C817000440EA114820
:10A960000F046246002338464146F5F729FC32467B
:10A970000023CDE90201F5F723FC20600948D0F857
:10A9800004C06068C117090441EA10410704624627
:10A9900000233846F5F714FC3246002304E000009B
:10A9A000B0000020C0C40008CDE90201F5F708FCA2
:10A9B00060601148D0F804C0A068C117090441EADA
:10A9C00010410704624600233846F5F7F9FB32468A
:10A9D0000023CDE90201F5F7F3FBA060A068002891
:10A9E00004DDA068A0F58030A06003E0A06800F559
:10A9F0008030A0600020E2E5C0C40008F0B52DED75
:10AA0000048B81B006460F4600253F494968087807
:10AA10006B4603220D21F9F765FC20B1072001B038
:10AA2000BDEC048BF0BD9DF8000000F01F008DF818
:10AA300000009DF8010000F01F008DF801009DF856
:10AA4000020000F01F008DF80200002457E056F8C5
:10AA5000241057F82420881A002801DB014600E062
:10AA6000414200EE101AB8EEC00ADFED280A80EE6F
:10AA7000208A1DF8040070B3254890ED000AB8EE56
:10AA8000400ADFED240A80EE801AB0EE419A05E01C
:10AA90009FED210A29EE000AB0EE409A1DF804004D
:10AAA000401EC0B20DF804000028F1D188EE090A5A
:10AAB000F7EE000A70EE608A00BFB0EEE80A1448B4
:10AAC000D0ED060AB4EEE00AF1EE10FA16DD012030
:10AAD000A040054312E0FFE70D4890ED040AB4EEF4
:10AAE000C80AF1EE10FA06DC90ED050AB4EEC80AC9
:10AAF000F1EE10FA02D20120A0400543641C032CA1
:10AB0000A5DB28468BE70000B0000020000080474E
:10AB1000C0C4000800B04C4554E3853F10B504465E
:10AB2000204600F00FF80346E01C00F00BF843EA63
:10AB3000C00083B2A01D00F005F843EA801083B284
:10AB4000184610BD014691F90020002A01DD0020C1
:10AB50001EE091F90020002A01DA042018E091F9A2
:10AB60000120002A01DD012012E091F90120002AD4
:10AB700001DA05200CE091F90220002A01DD022013
:10AB800006E091F90220002A01DA062000E0072001
:10AB9000704700002DED0A8B82B0002400250027AD
:10ABA0009FEDD80AB0EE408AFBF74AFEF7F732FF76
:10ABB000F7F7B6FE0121D448F9F7FEFB01224FF466
:10ABC000E131D248F9F7A6FFD1A1D048FCF78CFAC1
:10ABD00001224FF47A31D848F9F79CFFD7A1D64823
:10ABE000FCF782FA01F028FBFCF7F0FFFDF718F8FC
:10ABF000C6B23146DBA0FDF7CBF9DFA0FDF7C8F9FF
:10AC00004FF40051E348F7F789FC23E04FF400517B
:10AC1000E048F7F783FC0420F7F760FCDEA0FDF7BF
:10AC2000B7F900F0DBFA4FF47A71B0FBF1F8414666
:10AC3000DFA0FDF7ADF96420FEF730FE00F0CEFA9C
:10AC40004FF47A71B0FBF1F84146DCA0FDF7A0F9B2
:10AC5000681CC5B200F006FB08B1052DD6DB00214B
:10AC60000420FBF775FD052D04DA0127D6A0FDF7BA
:10AC70008FF902E0DCA0FDF78BF9E2A0FDF788F97F
:10AC80004FF47A71E348F6F7C1FBE3A0FDF780F9D2
:10AC9000E7A0FDF77DF9FBF725FAEAA0FDF778F9C3
:10ACA000F0A0FDF775F9F8F72FF8F5A0FDF770F9AA
:10ACB00042F21071FB48FBF70DFFFA48FCF756F81B
:10ACC0004CF25031F848FBF705FFF748FCF74EF817
:10ACD000F6A0FDF75DF9F7F7F7FDF8A0FDF758F9D5
:10ACE00077E2F7F703FEFE480078B0B1FD48007840
:10ACF000401CFC490870084600780A280ADD4FF419
:10AD00008041A448F7F70AFC0320F7F7E7FB00208F
:10AD1000F44908700020F2490870F34800780028D0
:10AD20005CD0F2480078401CF04908700846007872
:10AD3000032806DD002008704FF400419548F7F71E
:10AD4000EDFBEB48007B60B9E94890F8440040B95E
:10AD5000E74890F87C0020B9E54890F8B400002856
:10AD600033D0E4480078401CE2490870002400BF5A
:10AD700028E0DF48007B18B32146DFA0FDF708F983
:10AD8000C4EBC400DA4901EBC000407B00F0800056
:10AD900038B9C4EBC40001EBC000807B00F00800B0
:10ADA00050B1D44800780A2806DA2146DA48FDF77F
:10ADB000EFF8F7F7A9FF03E001210420FBF7C8FC37
:10ADC000601CC4B2042CD4DB03E000210420FBF798
:10ADD000BFFCF7F71DF80020C349087047B1CF4802
:10ADE0000068012804D9F7F71BFC0020CB49086054
:10ADF000CB480068142804D3F7F742FE0020C84966
:10AE00000860C848006814283BD30020C549086082
:10AE1000B8490870C4480078401CC3490870084607
:10AE20000078052804DA08460078F6F7B5FA28E035
:10AE30000020BD490870AE48B0F916003C280EDA73
:10AE4000AB48B0F94E003C2809DAA948B0F98600B1
:10AE50003C2804DAA648B0F9BE003C2811DBA4481F
:10AE6000B0F9BE000090A248B0F98630B0F94E208B
:10AE7000B0F91610ADA0FDF78BF800210420FBF708
:10AE800067FCB448006814283AD30020B149086030
:10AE9000B1490888F5F77DFB41EC1C0B9FEDAF0B2A
:10AEA00053EC102BF5F783FA41EC1B0B9FEDAD0B28
:10AEB00053EC102BF5F7EDFA41EC1A0B9FEDAB0BB1
:10AEC00053EC102BF5F773FA41EC190BF5F7EAFB8D
:10AED00008EE100AA7A0FDF75BF8B3EE070AB4EE80
:10AEE000C08AF1EE10FA0CD218EE100AF5F796FBB4
:10AEF00041EC190B53EC192BA5A0FDF749F851E1D2
:10AF000059E154E100000000002001400010014020
:10AF100055534152543120436861737369737320F0
:10AF2000666F72204D69636B526F626F742D56337A
:10AF3000202E2E2E2E2E0A00001401405553415271
:10AF4000543620436861737369737320666F72208F
:10AF50004D69636B526F626F742D5633202E2E2E07
:10AF60002E2E0A0057323551313238202049443ACA
:10AF700025580D0A00000000537461727420496E58
:10AF80006974204D505536303530202E2E2E200A33
:10AF900000000000001402404D505536303530207E
:10AFA0005265496E69742E2E2E200D0A0000000095
:10AFB00074696D65313A20256400000074696D651F
:10AFC000323A2025640000004D505536303530208F
:10AFD000496E6974205375636365737366756C207D
:10AFE00020200D0A000000004D505536303530202D
:10AFF000496E6974204661696C65642020200D0AE1
:10B000000000000043414E3120496E6974202E2E0D
:10B010002E0A00000064004043414E3120496E6911
:10B0200074205375636365737366756C20210A0021
:10B0300052435F52656D6F74655F496E6974202E6F
:10B040002E2E0A0052435F52656D6F74655F496E24
:10B050006974205375636365737366756C20210A88
:10B06000000000004D4F544F525F4150534C32444A
:10B070004220496E6974202E2E2E200A0000000006
:10B080004D4F544F525F4150534C32444220496E11
:10B090006974205375636365737366756C20210A48
:10B0A0000000000000100040001400404F70656E6A
:10B0B0002049574447202E2E2E200A004D69636BED
:10B0C000726F626F7458342D563320496E69742044
:10B0D0007365636365737366756C2E2E2E0A0000AC
:10B0E00040000020410000204300002044000020D8
:10B0F000BC020020460000204D6F746F722049444E
:10B100003A202564202077697468207761726E691F
:10B110006E67202121210A0020D200083C00002077
:10B120003000002034000020470000204D6F746F75
:10B130007220494420312D342074656D707475720D
:10B14000653A2025642C2025642C2025642C20259C
:10B1500064200A0038000020AC00002066666666A5
:10B1600066660A40000000000000B04000000000D9
:10B17000000037406D61696E207768696C65283121
:10B18000292069732072756E6E696E670000000079
:10B19000766F6C746167653A2025662056200A2018
:10B1A0000000000001210B48F7F732FA03E001210B
:10B1B0000848F7F72BFA0120FBF75AF9012804D1C8
:10B1C00001210420FBF7C4FA03E000210420FBF76F
:10B1D000BFFA86E5000002407047000000204FF0F3
:10B1E0008041486A00040249096808447047000029
:10B1F0002404004070B50446002624F001041848D9
:10B2000090F8240008B1002070BD1548807A10B96C
:10B210004FF0FF30F8E71248057C807A2040104953
:10B2200008740846007CA04202D04FF0FF3600E0D0
:10B23000002614B90A48007D18B1012001F088F8F1
:10B2400002E0002001F084F83CB100F0A1FB20B145
:10B25000034805744FF0FF30D6E73046D4E70000CE
:10B26000B000002070B50024F7F706FA00F02CF9C2
:10B27000002840D1782000F037FFC4B20CB1012083
:10B2800070BD7820FFF7B6FFC4B20CB10220F7E71B
:10B29000642000F0DBFEC4B20CB10320F0E7FEF73F
:10B2A0007BFCC4B20CB10420EAE71548FFF736FC7A
:10B2B0000546FEF7CBFEC4B20CB10520E0E740F234
:10B2C0007310FEF711FBC4B20CB10620D8E764205E
:10B2D000FEF7ECFDC4B20CB10720D1E700F0EAFFA5
:10B2E00004460CB10820CBE7012000F0ABFDC4B24E
:10B2F0001CB10920C4E70A20C2E70020C0E7000013
:10B30000DC00002001461148407A30B1012807D006
:10B31000022808D003280CD108E0022008700BE0B6
:10B320000420087008E00820087005E0102008706C
:10B3300002E04FF0FF30704700BF0448C07C18B1F6
:10B3400008784006000E08700020F4E7B0000020E6
:10B3500001461348407A30B1012808D002280AD0AB
:10B36000032810D10BE04FF4804008800EE041F636
:10B370009C7008800AE04FF48050088006E04FF48B
:10B380000060088002E04FF0FF30704700BF0448C3
:10B39000C07C10B10888401008800020F5E700004C
:10B3A000B000002001460248007C08700020704771
:10B3B000B000002001460F48007A30B1012807D0C4
:10B3C000022809D003280FD10AE0FA2008800EE0F5
:10B3D0004FF4FA7008800AE04FF47A70088006E0B3
:10B3E0004FF4FA60088002E00020088000BF00BF30
:10B3F00000207047B000002001461248007A30B1AA
:10B40000012809D002280CD0032814D10EE09FEDAA
:10B410000E0A81ED000A11E09FED0C0A81ED000A91
:10B420000CE09FED0B0A81ED000A07E09FED090A91
:10B4300081ED000A02E04FF0FF30704700BF0020AE
:10B44000FBE70000B000002000000343000083423F
:10B45000333303423333834101461248C07A08280C
:10B4600017D2DFE800F01704070A0D101318BC20EC
:10B47000088013E06220088010E02A2008800DE098
:10B48000142008800AE00A20088007E005200880D0
:10B4900004E000BF00BF0020088000BF00BF002004
:10B4A00070470000B00000200146064890F82400D4
:10B4B00010B14FF0FF3070470248C089088000206B
:10B4C000F9E70000B00000201CB580208DF80000D6
:10B4D000654A1268917C644A526810786B46012272
:10B4E000F8F73AFF10B14FF0FF301CBD6420FEF7B3
:10B4F000D5F900208DF800005B4A1268917C5A4A09
:10B50000526810786B460122F8F726FF10B14FF011
:10B51000FF30EAE7544A1268917D534A5268107826
:10B520006B460622F8F7DEFE10B14FF0FF30DCE785
:10B530009DF80500C007400F9DF8031001F00101C0
:10B5400040EA41009DF8011001F0010140EA0104C8
:10B5500094B1012C03D101214348C17431E0022C84
:10B5600003D100214048C1742BE021463FA0FCF7E5
:10B570000FFD4FF0FF30B8E73B4A1268D1783A4AE6
:10B58000526810786B460122F8F7ACFE10B14FF00C
:10B59000FF30AAE79DF8000000F00F042CB93D48E9
:10B5A000FCF7F6FC4FF0FF309FE7042C06D13AA0E1
:10B5B000FCF7EEFC01212C48C17402E000212A486E
:10B5C000C174FF2128488172FF2027490872FF219A
:10B5D00025484172C1724FF6FF71C181FF2101748C
:10B5E00081740121017380F82210002180F823105A
:10B5F000417501751630016041608160163880F830
:10B60000241080F82510C1844FF4FA6000F062FC29
:10B6100010B14FF0FF3068E7022000F02BFB10B1B3
:10B620004FF0FF3061E72A2000F0CEFC10B14FF060
:10B63000FF305AE7322000F009FD10B14FF0FF3023
:10B6400053E70020FFF7D6FD10B14FF0FF304CE775
:10B65000002000F051FB10B14FF0FF3045E7002013
:10B6600000F042FD002040E7B0000020556E7375E9
:10B6700070706F7274656420736F66747761726541
:10B680002070726F64756374207265762025642E55
:10B690000A000000B4D2000848616C662073656E31
:10B6A0007369746976697479207061727420666F49
:10B6B000756E642E0A0000002DE9F04385B0054642
:10B6C0000E4690469946294890F8250020B14FF043
:10B6D000FF3005B0BDE8F08316B94FF0FF30F8E752
:10B6E000002423E0281B102801DD102000E0281B87
:10B6F00087B232193946204600F05EFD10B14FF096
:10B70000FF30E6E701AA3946204600F001F910B102
:10B710004FF0FF30DDE730193A4601A9F4F793FD09
:10B7200010B16FF00100D4E7E01984B2AC42D9DB6C
:10B730004FEA28208DF8000008F0FF008DF8010086
:10B740000A4A1268917E094A526810786B460222B2
:10B75000F8F702FE10B14FF0FF30BAE701210348BD
:10B7600080F82510A0F826900020B2E7B000002055
:10B7700038B50446282C02DD4FF0FF3038BDDCB967
:10B78000002000F0EBFB00208DF8000007208DF872
:10B7900001002E4A1268917C2C4A526810786B4640
:10B7A0000222F8F7D9FD10B14FF0FF30E6E7002193
:10B7B000264801750020E1E7012000F0CFFB2020A2
:10B7C0008DF80000012C06D100208DF80100052025
:10B7D00000F0FAFB17E0052C06DC01208DF80100D3
:10B7E000052000F0F1FB0EE0142C06DC02208DF8A1
:10B7F00001000A2000F0E8FB05E003208DF80100BD
:10B80000142000F0E1FB9DF80100072101EB8010FE
:10B81000C0B28DF801000D4A1268917C0B4A526843
:10B8200010786B460222F8F797FD10B14FF0FF3009
:10B83000A4E70821054881720021017301210175E7
:10B840000020FFF7D7FC002098E70000B0000020A0
:10B85000F8B504460F4616462C4890F8240010B957
:10B860004FF0FF30F8BD2948807A10B94FF0FF3013
:10B87000F8E7264A1268917A244A526810786B4693
:10B880000222F8F72FFD10B14FF0FF30EAE79DF8E4
:10B8900001009DF8001040EA0125A54203DA0020CE
:10B8A0003070401EDEE7194840684088B5EB600FF5
:10B8B00017DD164A1268517C144A526810786B469C
:10B8C0000122F8F70FFD10B14FF0FF30CAE79DF8E5
:10B8D000000000F0100020B100F05AF86FF00100F5
:10B8E000C0E7E2B2094B1B68D97A084B5B6818784D
:10B8F0003B46F8F7F7FC10B14FF0FF30B2E795FB8D
:10B90000F4F0401E30700020ACE70000B0000020D2
:10B91000F8B504460D46164616B94FF0FF30F8BD8F
:10B920001A48807A10B94FF0FF30F8E720128DF8EE
:10B930000000E0B28DF801009DF801002844134991
:10B9400049684989884202DD4FF0FF30E7E70F4A36
:10B950001268117E0D4A526810786B460222F8F781
:10B96000FBFC10B14FF0FF30D9E7EAB2074B1B6880
:10B97000597D064B5B6818783346F8F7B3FC10B175
:10B980004FF0FF30CBE70020C9E70000B0000020F7
:10B9900008B57048807A10B94FF0FF3008BD00201C
:10B9A00000906C4A1268D17B6A4A526810786B46E4
:10B9B0000122F8F7D1FC10B14FF0FF30EEE7654AF5
:10B9C00012685179634A526810786B460122F8F781
:10B9D000C3FC10B14FF0FF30E0E75E4A1268117906
:10B9E0005C4A526810786B460122F8F7B5FC10B13A
:10B9F0004FF0FF30D2E7574890F82400002853D08A
:10BA00000C200090534A12681179524A52681078FB
:10BA10006B460122F8F7A0FC10B14FF0FF30BDE7F4
:10BA20003220FDF73BFFC02000904A48807A00F0AA
:10BA3000010020B19DF8000040F020000090454A30
:10BA400012681179434A526810786B460122F8F760
:10BA500083FC10B14FF0FF30A0E73E48407C10B1AE
:10BA60000220009001E0002000903A4A1268D17B49
:10BA7000384A526810786B460122F8F76DFC10B115
:10BA80004FF0FF308AE700200090324A1268517967
:10BA9000304A526810786B460122F8F75DFC0028A6
:10BAA00055D04FF0FF3079E704200090294A126802
:10BAB0001179284A526810786B460122F8F74CFC3D
:10BAC00010B14FF0FF3069E72248807C20B921484F
:10BAD000807A00F0010010B94020009001E0602061
:10BAE00000901C4A126811791A4A526810786B4605
:10BAF0000122F8F731FC10B14FF0FF304EE7322051
:10BB0000FDF7CCFE1348407C10B10120009001E00D
:10BB1000002000900F4A1268D17B0E4A52681078BC
:10BB20006B460122F8F718FC10B14FF0FF3035E7F3
:10BB3000084A12685179074A52681078054B103349
:10BB40000122F8F709FC10B14FF0FF3026E7002082
:10BB500024E70000B00000202DE9F04F8DB08346AF
:10BB60000F4602200C90424890F8240020B100209B
:10BB700000F068F9012600E0002603A8FFF71AFC90
:10BB800005A8FFF7BFFB01A8FFF766FC02A8FFF7B7
:10BB90008BFC374890F80AA004A8FFF703FC0024A8
:10BBA00007E0002239465846FEF7F0FC00B902E0F3
:10BBB000641C022CF5DB00BF022C01D1002528E01B
:10BBC000002407E0012206A909A8FEF7DFFC00B95E
:10BBD00002E0641C022CF5DB00BF022C01D1002521
:10BBE00017E006A93846FDF7BFFD00F0FF0809A9D8
:10BBF0005846FEF703FF00F0FF090025B9F1000FDA
:10BC000001D145F00105B8F1000F01D145F0020561
:10BC100000BFFF2016490872FF2115484172C1720A
:10BC20004FF6FF71C181FF218172017401210173FF
:10BC3000BDF80C0000F04EF99DF8140000F01AF861
:10BC4000BDF8040000F0C0F9BDF8080000F0FEF9EE
:10BC5000504600F049FA9DF81000FFF7CBFA16B1F4
:10BC6000012000F0EFF828460DB0BDE8F08F00008D
:10BC7000B000002038B504461E48807A10B94FF055
:10BC8000FF3038BD022C06D0042C07D0082C08D079
:10BC9000102C0CD108E0002000900BE00820009050
:10BCA00008E01020009005E01820009002E04FF01E
:10BCB000FF30E6E700BF0F48407A9DF80010B0EB78
:10BCC000E10F01D10020DCE70A4A1268D179094A64
:10BCD000526810786B460122F8F73EFB10B14FF026
:10BCE000FF30CEE79DF80000C110024841720020ED
:10BCF000C7E70000B000002038B504465048807CFB
:10BD0000A04201D1002038BD002C46D04C4A126818
:10BD100011794B4A526810786B460122F8F7E2FA23
:10BD200010B14FF0FF30EEE79DF8000020F020004A
:10BD30000090434A12681179414A526810786B4664
:10BD40000122F8F709FB10B14FF0FF30DBE70320C9
:10BD5000FDF7A4FD02200090394890F8220020B1A0
:10BD60009DF8000040F080000090354890F82300D6
:10BD700020B19DF8000040F030000090304A126879
:10BD8000117D2F4A526810786B460122F8F7E4FAC9
:10BD9000002851D04FF0FF30B5E7294A12681179D9
:10BDA000274A526810786B460122F8F79BFA10B1C7
:10BDB0004FF0FF30A7E72248807A00F0010028B159
:10BDC0009DF8000040F02000009004E09DF8000085
:10BDD00020F0200000901A4A12681179184A52681F
:10BDE00010786B460122F8F7B7FA10B14FF0FF3028
:10BDF00089E70320FDF752FD114890F8220010B1A9
:10BE00008020009001E0002000900D4890F8230071
:10BE100020B19DF8000040F030000090084A126800
:10BE2000117D074A526810786B460122F8F794FAA0
:10BE300010B14FF0FF3066E701488474002062E7DC
:10BE4000B000002038B50446214890F82400A042F4
:10BE500001D1002038BD24B31D4890F8250010B949
:10BE60004FF0FF30F6E7002000F072FA0020FFF7F5
:10BE700043FF1749C88C00F0E9F8002000901449EE
:10BE8000496808786B4601222321F8F765FA0121F9
:10BE90000F4880F82410012000F05AFAFFF778FDCF
:10BEA00013E0002000F054FA0948007C0090084993
:10BEB000496808786B4601222321F8F74DFA0021E2
:10BEC000034880F82410FFF763FD0020C2E700005C
:10BED000B000002038B504461F48807A10B94FF0F2
:10BEE000FF3038BDFA2C09D0B4F5FA7F09D0B4F58B
:10BEF0007A7F09D0B4F5FA6F0CD108E000200090E9
:10BF00000BE00820009008E01020009005E01820C9
:10BF1000009002E04FF0FF30E3E700BF0E48007AE8
:10BF20009DF80010B0EBE10F01D10020D9E70A4ADB
:10BF300012689179084A526810786B460122F8F726
:10BF40000BFA10B14FF0FF30CBE79DF80000C010A6
:10BF5000014908720020C4E7B000002038B504464B
:10BF6000184890F82300A04201D1002038BD14B138
:10BF70003020009001E0002000901248807C20B129
:10BF80009DF8000040F0020000900E4890F822005A
:10BF900020B19DF8000040F080000090094A12682E
:10BFA000117D084A526810786B460122F8F7D4F9DF
:10BFB00010B14FF0FF30D9E7024880F8234000204D
:10BFC000D4E70000B000002038B504461E48807A4F
:10BFD00010B94FF0FF3038BDBC2C02DB01200090BF
:10BFE00015E0622C02DB0220009010E02A2C02DB1C
:10BFF000032000900BE0142C02DB0420009006E0EC
:10C000000A2C02DB0520009001E0062000900E487B
:10C01000C07A9DF80010884201D10020DBE70A4A6F
:10C0200012689178084A526810786B460122F8F736
:10C0300093F910B14FF0FF30CDE79DF800100248A2
:10C04000C1720020C7E70000B000002038B50446E8
:10C050002448807A10B94FF0FF3038BD214890F85D
:10C06000240010B14FF0FF30F7E71E48007D50B1BB
:10C0700034B1282C04DCE0B2FFF77AFB0020ECE7B7
:10C080000020FFF775FB042C01DA042404E0B4F56A
:10C090007A7F01DD4FF47A744FF47A7090FBF4F0FC
:10C0A000401EC0B200900F4A126851780D4A526883
:10C0B00010786B460122F8F74FF910B14FF0FF30BE
:10C0C000CBE79DF80000401C4FF47A7191FBF0F033
:10C0D00081B20448C1810146C9894810FFF774FF45
:10C0E0000020BAE7B000002038B5044604F0700024
:10C0F00010B10120009005E014B10020009001E093
:10C10000402000902B4A1268917C2A4A526810788D
:10C110006B460122F8F720F920B1002125488172F1
:10C12000481E38BD9DF8000020F0400121480173F1
:10C130000020009004F0400020B99DF8000040F07D
:10C140000400009004F0200020B99DF8000040F0A9
:10C150000200009004F0100020B99DF8000040F0AB
:10C160000100009004F0080020B99DF8000040F0A4
:10C17000380000900F4A1268D17C0E4A526810783D
:10C180006B460122F8F7E8F820B1002109488172D6
:10C19000481EC6E724B1082C02D00020FFF7DEFEBF
:10C1A00004488472002101753220FDF777FB0020DE
:10C1B000B7E70000B0000020F8B504460D4616466B
:10C1C00016B94FF0FF30F8BD1A48807A10B94FF019
:10C1D000FF30F8E720128DF80000E0B28DF8010082
:10C1E0009DF801002844134949684989884202DDC5
:10C1F0004FF0FF30E7E70F4A1268117E0D4A526890
:10C2000010786B460222F8F7A7F810B14FF0FF3014
:10C21000D9E7EAB2074B1B68597D064B5B68187873
:10C220003346F8F799F810B14FF0FF30CBE7002014
:10C23000C9E70000B000002010B506A0FBF7A8FE7B
:10C240000FA0FBF7A5FE14A0FBF7A2FE01A0FBF7D1
:10C250009FFE10BD3D3D3D3D3D3D3D3D3D3D3D3D98
:10C260003D3D3D3D3D3D3D3D3D3D3D3D3D3D3D3DFE
:10C270003D3D3D3D3D3D3D3D3D3D3D3D3D0A00009B
:10C280004865782076657273696F6E3A2032303275
:10C2900034303732330A00004D6F746F7220547996
:10C2A00070653A204150534C3244422D382E302094
:10C2B0000A00000010B588B002A905A8FFF74CFCE1
:10C2C0000446032C41D101A8FFF796F89DED050A1D
:10C2D000B8EEC00ADDED010A20EE200ABDEEC00A6C
:10C2E0008DED050A9DED060AB8EEC00ADDED010AE6
:10C2F00020EE200ABDEEC00A8DED060A9DED070A6C
:10C30000B8EEC00ADDED010A20EE200ABDEEC00A3B
:10C310008DED070A05A8FDF701FE6846FFF718F83E
:10C32000BDF80010029848430290BDF80010039831
:10C3300048430390BDF8001004984843049002A8B5
:10C34000FDF71CFD002008B010BD0120FBE7000038
:10C3500038B50446214890F82400C0B114B1022039
:10C36000009001E0002000901C4A1268D17B1B4A1B
:10C37000526810786B460122F7F7EEFF10B14FF0CC
:10C38000FF3038BD9DF800101448417423E0134875
:10C39000807A10B94FF0FF30F3E724B10F48407CAA
:10C3A00008B10020EDE714B10120009001E0002069
:10C3B00000900A4A1268D17B084A526810786B468E
:10C3C0000122F7F7C9FF10B14FF0FF30D9E79DF810
:10C3D0000010024841740020D3E70000B0000020A4
:10C3E00000B52DED048B83B041EC190BF4F782FA04
:10C3F00041EC180B18EE100A18EE901A8DED008B18
:10C40000002818BF0120084320F00040C0F17F60E1
:10C4100000F1E040C00F14D019EE101A19EE900A86
:10C420008DED009B002918BF0121084320F000403A
:10C43000C0F17F6000F1E040C00F04BF0120FCF7B5
:10C4400033FD51EC180B03B0BDEC048B00BD10B5EF
:10C4500000EE100A2DED028BB1EEC08A18EE100A24
:10C4600020F00040C0F1FF40C00F0AD010EE100ACB
:10C4700020F00040C0F1FF40C00F04BF0120FCF7D6
:10C4800013FD18EE100ABDEC028B10BD0030003019
:10C49000003000300025002575191A0C6A231B1C7A
:10C4A0001F207274433B4138393A6B6C376F062456
:10C4B0006D6E70006800000476005401F7FD000105
:10C4C0008300000000080000000100183200050091
:10C4D000000020410000D242295C0F3E9A99993E0B
:10C4E0003333733F295C0F3E0000700000000024CE
:10C4F000000000020003000000650054FFEF000090
:10C50000FA80000B12820001030C30C30E8C8CE900
:10C5100014D5400213710F8E3883F8833000F883EE
:10C52000258EF8833000F883FFFFFFFF0FFEA9D6AA
:10C53000240004001A8279A10000003CFFFF0000E3
:10C540000010000038836FA2003E0330400000005E
:10C5500002CAE3093E800000200000000000000045
:10C560004000000060000000000C0000000C186E8D
:10C57000000006920A16C0DFFFFF0256FD8CD3773B
:10C58000FFE1C496E0C5BEAA00000000FFFF0B2B30
:10C5900000001657000003594000000000001DFA7B
:10C5A00000026C1D000000003FFFDFEB003EB3B651
:10C5B000000D227800002F3C00000000001942B559
:10C5C000000039A20000B365D90E9FC91DCF4C34BD
:10C5D00030000000500000003BB67AE80064000024
:10C5E00000C8000000000000100000001000FA92D7
:10C5F0001000225E000D229F0001000000320000AA
:10C60000FF46000063D400001000000004D60000C4
:10C6100004CC000004CC00000000107200000040B8
:10C6200000000000000000000006000200050007F6
:10C630000000000000640000000000000000000591
:10C640000005006400200000000000000000000061
:10C65000000040000000030000000032F8980000D5
:10C66000FF650000830F0000FF9BFC00000000003E
:10C6700000000000000000000000000000000000BA
:10C6800000000000000000000000000000000000AA
:10C690000000000000001000400000000000000644
:10C6A0000000B26A000200000001FB830068000085
:10C6B00000D9FC007CF1FF83000000000065000051
:10C6C000006403E80064002800000025000000006A
:10C6D00016A000000000100000001000002F000055
:10C6E000000001F40000100000280000FFFF458159
:10C6F000FFFFFA7200000000000000000044000587
:10C700000005BAC6004778A2000000010000000042
:10C7100000000600000000140000254D002F706D81
:10C72000000005AE000C02D0000000000000000078
:10C730000000000000000000001B000000000000DE
:10C74000000000000000000000640000000800007D
:10C7500000000000000000000000000000000000D9
:10C7600000000000000000000000000000000000C9
:10C7700000000000000000000000000000000000B9
:10C7800000000000000000000000000000000000A9
:10C790000000000000000000000000000000000099
:10C7A0000000000000000000001B0000000000006E
:10C7B00000000000000E000E00000AC70004000088
:10C7C00000000032FFFFFF9C00000B2B0000000266
:10C7D0000000000100000064FFE500000000000010
:10C7E0000000000000000000000000010000000048
:10C7F0000001000000000000000180000001800036
:10C8000000018000002426D300000000000000008A
:10C81000000600100096003C000000000000000030
:10C8200000000000000000000C0A4E68CDCF770920
:10C8300050166759C619CE820000000000000000A3
:10C8400000000000000000000000000000000000E8
:10C8500017D7840003000000000000000000000063
:10C86000C7938F9D1E1B1C190000000000000000D4
:10C8700000000000000000000000000000000000B8
:10C8800002031885000040000000000300000003C0
:10C890000000000000000000400000000000000058
:10C8A0000000000000000000000000000000000088
:10C8B0000000000000000000000000000000000078
:10C8C000000000000000000000000000677DDF7E27
:10C8D00072902E554CF6E688000000000000000023
:10C8E0000000000000000000D8DCB4B8B0D8B9AB3C
:10C8F000F3F8FAB3B7BB8E9EAEF132F51BF1B4B8C4
:10C90000B08097F1A9DFDFDFAADFDFDFF2AAC5CDB4
:10C91000C7A90CC92C97F1A989264666B28999A99D
:10C920002D557DB0B08AA896365676F1BAA3B4B22A
:10C9300080C0B8A89711B28398BAA3F02408441015
:10C940006418B2B9B49883F1A329557DBAB5B1A3DF
:10C950008393F0002850F5B2B6AA839328547CF153
:10C96000B9A3829361BAA2DADEDFDB819AB9AEF5B0
:10C97000606870F1DABAA2DFD9BAA2FAB9A38292DA
:10C98000DB31BAA2D9BAA2F8DF85A4D0C1BBAD838E
:10C99000C2C5C7B8A2DFDFDFBAA0DFDFDFD8D8F1BA
:10C9A000B8AAB38DB4980D355DB2B6BAAF8C9619EE
:10C9B0008F9FA70E161EB49AB8AA872C547CBAA4CF
:10C9C000B08AB691325676B28494A4C808CDD8B84D
:10C9D000B4B0F19982A82D557D98A80E161EA22CF0
:10C9E000547C92A4F02C5078F184A898C4CDFCD843
:10C9F0000DDBA8FC2DF3D9BAA6F8DABAA6DED8BAB0
:10CA0000B2B68696A6D0F3C841DAA6C8F8D8B0B4B4
:10CA1000B882A892F52C548898F135D9F418D8F139
:10CA2000A2D0F8F9A884D9C7DFF8F883C5DADF699E
:10CA3000DF83C1D8F40114F1A8824EA884F311D188
:10CA400082F5D992289788F109F41C1CD884A8F3A0
:10CA5000C0F9D1D99782F129F40DD8F3F9F9D1D9D8
:10CA600082F4C203D8DEDF1AD8F1A2FAF9A88498BA
:10CA7000D9C7DFF8F8F883C7DADF69DFF883C3D8EE
:10CA8000F40114F198A8822EA884F311D182F5D96B
:10CA900092509788F109F41CD884A8F3C0F8F9D112
:10CAA000D99782F149F40DD8F3F9F9D1D982F4C4B8
:10CAB00003D8DEDFD8F1AD8898CCA809F9D98292E5
:10CAC000A8F57CF1883ACF944A6E98DB6931DAADEB
:10CAD000F2DEF9D88795A8F221D1DAA5F9F417D9B1
:10CAE000F1AE8ED0C0C3AE82C684C3A88595C8A55A
:10CAF00088F2C0F1F4010EF18E9EA8C63E56F554A0
:10CB0000F18872F40115F19845856EF58E9E0488C2
:10CB1000F142985A8E9E068869F4011CF1981E1104
:10CB200008D0F504F11E970202983625DBF9D98565
:10CB3000A5F3C1DA85A5F3DFD88595A8F309DAA5B1
:10CB4000FAD88292A8F578F1881A849F26889821CD
:10CB5000DAF41DF3D8879F39D1AFD9DFDFFBF9F4C1
:10CB60000CF3D8FAD0F8DAF9F9D0DFD9F9D8F40B08
:10CB7000D8F3879F39D1AFD9DFDFF41DF3D8FAFCA2
:10CB8000A869F9F9AFD0DADEFAD9F88F9FA8F1CC0D
:10CB9000F398DB45D9AFDFD0F8D8F18F9FA8CAF35F
:10CBA0008809DAAF8FCBF8D8F2AD978D0CD9A5DF15
:10CBB000F9BAA6F3FAF412F2D8950DD1D9BAA6F3C0
:10CBC000FADAA5F2C1BAA6F3DFD8F1BAB2B6869600
:10CBD000A6D0CAF349DAA6CBF8D8B0B4B8D8AD8499
:10CBE000F2C0DFF18FCBC3A8B2B68696C8C1CBC363
:10CBF000F3B0B48898A821DB718D9D71859521D9FA
:10CC0000ADF2FAD88597A828D9F408D8F28D29DA98
:10CC1000F405D9F285A4C2F2D8A88D9401D1D9F433
:10CC200011F2D88721D8F40AD8F28498A8C801D183
:10CC3000D9F411D8F3A4C8BBAFD0F2DEF8F8F8F8F5
:10CC4000F8F8F8F8D8F1B8F6B5B9B08A95A3DE3C93
:10CC5000A3D9F8D85CA3D9F8D87CA3D9F8D8F8F927
:10CC6000D1A5D9DFDAFAD8B18530F7D9DED8F830D6
:10CC7000ADDADED8F2B48C99A32D557DA083DFDF29
:10CC8000DFB591A0F629D9FBD8A0FC29D9FAD8A004
:10CC9000D051D9F8D8FC51D9F9D879D9FBD8A0D03E
:10CCA000FC79D9FAD8A1F9F9F9F9F9A0DADFDFDFCF
:10CCB000D8A1F8F8F8F8F8ACDEF8ADDE8393AC2C28
:10CCC000547CF1A8DFDFDFF69D2CDAA0DFD9FADB98
:10CCD0002DF8D8A850DAA0D0DED9D0F8F8F8DB5576
:10CCE000F8D8A878DAA0D0DFD9D0FAF8F8F8F8DBCD
:10CCF0007DF8D89CA88CF530DB38D9D0DEDFA0D009
:10CD0000DEDFD8A848DB58D9DFD0DEA0DFD0DED800
:10CD1000A868DB70D9DFDFA0DFDFD8F1A888902C0E
:10CD2000547C98A8D05C38D1DAF2AE8CDFF9D8B058
:10CD300087A8C1C1B188A8C6F9F9DA36D8A8F9DA46
:10CD400036D8A8F9DA36D8A8F9DA36D8A8F9DA3612
:10CD5000D8F78D9DADF818DAF2AEDFD8F7ADFA301E
:10CD6000D9A4DEF9D8F2AEDEFAF983A7D9C3C5C7D4
:10CD7000F1889BA77AADF7DEDFA4F8849408A79723
:10CD8000F300AEF29819A488C6A39488F632DFF2B5
:10CD90008393DB09D9F2AADFD8D8AEF8F9D1DAF358
:10CDA000A4DEA7F1889B7AD8F38494AE19F9DAAAA5
:10CDB000F1DFD8A881C0C3C5C7A39283F628ADDE32
:10CDC000D9F8D8A350ADD9F8D8A378ADD9F8D8F808
:10CDD000F9D1A1DADEC3C5C7D8A18194F818F2B0A1
:10CDE00089ACC3C5C7F1D8B8B4B09786A8319B0643
:10CDF0009907AB9728889BF00C201440B0B4B8F08A
:10CE0000A88A9A285078B79BA82951792470594448
:10CE10006938644831F1BBAB88002C547CF0B38B8B
:10CE2000B8A804285078F1B088B49726A85998BBC0
:10CE3000ABB38B02264666B0B8F08A9CA82951791C
:10CE40008B2951798A2470598B2058718A4469380A
:10CE50008B3940688A6448318B30496088F1AC0076
:10CE60002C547CF08CA804285078F1889726A85977
:10CE700098AC8C02264666F0899CA82951792470CA
:10CE800059446938644831A98809205970AB113870
:10CE90004069A8193148608CA83C415C207C00F1B5
:10CEA00087981986A86E767EA999882D557DD8B168
:10CEB000B5B9A3DFDFDFAED0DFAAD0DEF2ABF8F981
:10CEC000D9B087C4AAF1DFDFBBAFDFDFB9D8B1F1DA
:10CED000A3978E60DFB084F2C8F8F9D9DED89385C5
:10CEE000F14AB183A308B5839A0810B79F10D8F10F
:10CEF000B0BAAEB08AC2B2B68E9EF1FBD9F41DD8DC
:10CF0000F9D90CF1D8F8F8AD61D9AEFBD8F40CF131
:10CF1000D8F8F8AD19D9AEFBDFD8F416F1D8F8ADD2
:10CF20008D61D9F4F4ACF59C9C8DDF2BBAB6AEFACA
:10CF3000F8F40BD8F1AED0F8AD51DAAEFAF8F1D87A
:10CF4000B9B1B6A3839C08B9B1839AB5AAC0FD3024
:10CF500083B79F10B58B93F20202D1ABDADED8F122
:10CF6000B080BAABC0C3B284C1C3D8B1B9F38BA38C
:10CF700091B609B4D9ABDEB0879CB9A3DDF1B38B10
:10CF80008B8B8B8BB087A3A3A3A3B28BB69BF2A38F
:10CF9000A3A3A3A3A3A3A3A3A3F1B087B59AA3F3C9
:10CFA0009BA3A3DCBAACDFB9A3A3A3A3A3A3A3A3AE
:10CFB000A3A3A3A3A3A3A3A3D8D8D8BBB3B7F1AA11
:10CFC000F9DAFFD9809AAA28B48098A720B7978762
:10CFD000A86688F07951F1902C870CA7819762930D
:10CFE000F071716085940129517990A5F1284C6CFC
:10CFF000870C95188578A38390284C6C886CD8F39F
:10D00000A28200F210A8921980A2F2D926D8F18843
:10D01000A84DD948D896A83980D93CD89580A83948
:10D02000A68698D92CDA87A72CD8A8899519A98023
:10D03000D938D8A88939A980DA3CD8A82EA839903F
:10D04000D90CD8A8953198D90CD8A809D9FFD801FE
:10D05000DAFFD89539A9DA26FFD890A80D8999A8C2
:10D0600010809821DA2ED88999A83180DA2ED8A894
:10D0700086963180DA2ED8A8873180DA2ED8A88219
:10D0800092F34180F1D92ED8A882F31980F1D92EDC
:10D09000D882ACF3C0A28022F1A62EA72EA9229896
:10D0A000A829DAACDEFFD8A2F22AF1A92E8292A832
:10D0B000F23180A696F1D900AC8C9C0C30ACDED05D
:10D0C000DEFFD88C9CACD010ACDE8092A2F24C82F9
:10D0D000A8F1CAF235F19688A6D900D8F1FF000070
:10D0E000555555555555C53F7D6FEB0312D6D4BFE9
:10D0F0005544880E55C1C93F3B8F68B52882A4BFEF
:10D1000088B20175E0EF493F09F7FD0DE13D023FAF
:10D110004B2D8A1C273A03C0C88A599CE52A004037
:10D1200059018D1B6C06E6BF82922EB1C5B8B33F84
:10D13000555555555555C53F7D6FEB0312D6D4BF98
:10D140005544880E55C1C93F3B8F68B52882A4BF9E
:10D1500088B20175E0EF493F09F7FD0DE13D023F5F
:10D160004B2D8A1C273A03C0C88A599CE52A0040E7
:10D1700059018D1B6C06E6BF82922EB1C5B8B33F34
:10D180004FBB610567ACDD3F182D4454FB21E93FDF
:10D190009BF681D20B73EF3F182D4454FB21F93FCE
:10D1A000E2652F227F2B7A3C075C143326A6813C54
:10D1B000BDCBF07A8807703C075C143326A6913CFF
:10D1C000C4EB98999999C9BF711623FEC671BCBF6B
:10D1D0006D9A74AFF2B0B3BF9AFDDE522DDEADBFD3
:10D1E0002F6C6A2C44B4A2BF0D5555555555D53FEB
:10D1F000FF8300922449C23F6E204CC5CD45B73F06
:10D20000513DD0A0660DB13FEB0D76244B7BA93F7D
:10D2100011DA22E33AAD903F000000000000000068
:10D220004D6F746F722049443A2025642020697341
:10D23000206F766572686561642C206E6F7720635D
:10D240006C65617220746865206572726F72206609
:10D250006C6167207769746820726573657420411A
:10D2600050534C3244420A004D6F74726F2041504B
:10D27000534C3244423A20536574204D6F746F72A0
:10D2800020495320312D342054726170657A6F69C2
:10D2900064616C20416363656C65726174696F6E73
:10D2A00020616E6420446563656C65726174696FAA
:10D2B0006E20000050726F647563742049442072C0
:10D2C000656164206173203020696E6469636174F4
:10D2D0006573206465766963652069732065697488
:10D2E00068657220696E636F6D70617469626C65E8
:10D2F000206F7220616E204D5055333035302E0A2C
:10D300000000000024D3000800000020F00000000E
:10D31000808E000814D40008F0000020881100005E
:10D32000908E0008007A030A000000000000000050
:10D3300001020304060708090000000001020304BB
:10D3400001020304060708090000000000000000B5
:10D3500000000000000000000000000000000000CD
:10D3600000000000000000000000000000000000BD
:10D3700000000000000000000000000000000000AD
:10D38000000000000000000000000000000000009D
:10D39000000000000000000000000000000000008D
:10D3A000000000000000000000000000000000007D
:10D3B000000000000000000000000000000017EF67
:10D3C000000000000000000000000000000000005D
:10D3D0000000000098C40008B4C400080000000069
:10D3E000000000000000000000000000000000003D
:10D3F000000000000000000000000000C0C40008A1
:10D400000100000001000000010000000000000019
:04D410000000000018
:040000050800018965
:00000001FF
