:020000040800F2
:10000000781200209D010008AD410008E91D00089C
:1000100075350008510B0008E36800080000000077
:100020000000000000000000000000003D54000837
:10003000CD1A0008000000007D42000805560008A7
:10004000B7010008B7010008B7010008B7010008B0
:10005000B7010008B70100085D1C0008B7010008DF
:10006000B7010008B7010008B7010008B701000890
:10007000B7010008B7010008B7010008B701000880
:100080002D170008B7010008B7010008B7010008E4
:10009000550B0008B7010008B7010008B7010008B8
:1000A000B7010008B7010008B7010008B701000850
:1000B000FD560008B7010008B7010008B7010008A5
:1000C000B7010008B7010008B7010008B701000830
:1000D000B7010008A95F0008456200088D630008A9
:1000E0006F1C0008B7010008B7010008B70100083D
:1000F000B7010008B7010008B7010008B701000800
:10010000B7010008B7010008B7010008B7010008EF
:10011000055C0008715D000815570008615700086C
:10012000B7010008B701000865170008B70100080B
:10013000B7010008B7010008B7010008B7010008BF
:10014000850B0008B7010008B7010008B7010008D7
:10015000B7010008B7010008B5170008B565000829
:10016000B7010008B7010008B7010008B70100088F
:10017000B7010008B7010008B7010008B70100087F
:10018000B7010008B7010008DFF80CD000F0F2FB5F
:1001900000480047DD90000878120020064880479C
:1001A00006480047FEE7FEE7FEE7FEE7FEE7FEE75C
:1001B000FEE7FEE7FEE7FEE7955600088901000826
:1001C0002DE9F0410024061B254671F1000605DAF1
:1001D00001240027D0EB070067EB0101161E73F125
:1001E000000605DA0027D2EB0702012567EB0303BF
:1001F00000F048FA86460E4617469C46AC4204D0AC
:100200000025D0EB050E65EB010624B10020D2EBF2
:10021000000760EB030C704631463A466346BDE882
:10022000F081D2B201E000F8012B491EFBD27047E9
:100230000022F6E710B513460A4604461946FFF7B2
:10024000F0FF204610BD30B504460020034600E014
:100250005B1C934203D2E05CCD5C401BF8D030BD08
:1002600030B505460020034600E05B1C934205D2F2
:10027000EC5CC85C201A01D1002CF6D130BD2DE910
:10028000FE4F804681EA0300C00F0C46009021F02B
:10029000004123F00045B8EB0200A94105D24046D9
:1002A000214690461C460B46024623F00040104370
:1002B00047D0270DC7F30A00C3F30A510290401A32
:1002C000019040286BDAC3F3130040F4801B0098C0
:1002D000924620B10023D2EB030A63EB0B0B01988B
:1002E0005946C0F14002504600F0FDF906460D4661
:1002F00050465946019A00F015FA10EB080061418A
:10030000002487EA115284EAE7731A4340D0009A26
:1003100062B3019A012A4FEA075215DC001B61EB18
:1003200002014FF0004202EA0752CDE90042001CF0
:1003300041F5801132462B4600F04CFA03B0BDE87F
:10034000F08F40462146F9E7001B61EB0201001CDB
:1003500041F5801300185B412018A2F5001747EB08
:10036000030140EAD570B6196D4111E06D084FEAFE
:10037000360645EAC0754FEA0752001B61EB0201E1
:10038000001C41F5801149084FEA30000019514125
:1003900032462B4603B0BDE8F04F00F00CBA00988F
:1003A000012240000023D0EB020263EBE0730098CF
:1003B00021464FEAE074B8EB000061EB0401E9E785
:1003C00083F000435BE781F0004158E72DE9FE4FE1
:1003D00081EA030404F0004421F0004100944FF04E
:1003E000000B23F0004350EA01045ED052EA0304FC
:1003F0005BD0C3F30A54C1F30A552C44A4F2F3347E
:100400000194A0FB0254C1F3130141F48011C3F322
:10041000130343F4801301FB024400FB034E840AE0
:10042000970A44EA815447EA8357A4FB0768029578
:100430008D0A05FB07854FEA932C04FB0C54270516
:10044000029D4FEA065847EA1637B5EB08056EEBF2
:10045000070C870E920E47EA811742EA8312A7FB28
:100460000201B6EB0B0164EB00042B0D43EA0C33E5
:100470005E1844EB1C50DA465146E7FB0201C5F317
:1004800013044FEA0B3343EA14534FEA0432019C3E
:1004900043EA0603A4F10C040294009CCDE900B4E5
:1004A00000F098F903B0BDE8F08F00200146F9E7AD
:1004B0002DE9F04D81EA030404F0004B21F00045E2
:1004C00014464FF0000A23F0004150EA050220D004
:1004D00054EA01021DD0C5F30A570246C5F31303BF
:1004E000C1F31300C1F30A5640F4801543F480139E
:1004F000A7EB0608101BD64608F2FD3873EB050083
:1005000002D308F1010801E092185B41B8F1000F35
:1005100003DA00200146BDE8F08D00204FF4801181
:10052000064684460EE0171B73EB050705D3121B26
:1005300063EB050306434CEA010C49084FEA30001F
:1005400092185B4150EA0107EDD152EA030012D044
:1005500082EA040083EA0501084305D0101BAB4181
:1005600006D20122002306E000224FF0004302E001
:100570006FF0010253101AEB06004CEB085110EB20
:100580000A0041EB0B01BDE8F04D00F014B90EB5C7
:10059000C10F80EAE0700844CA07002140F23343EB
:1005A0008DE80E000A460B4600F014F903B000BDBA
:1005B0000EB540F2334102910021CDE900110A4607
:1005C0000B4600F007F903B000BD00F0004230F028
:1005D00000400AD0C10D01F56071C0F3160042EA77
:1005E0000151C2084007114370470020014670477F
:1005F00030B5041E71F1000404DB4FF000444042AA
:1006000064EB0101141E73F1000405DB1C464FF07E
:100610000043524263EB04038B4208BF824230BD69
:1006200001F0004330B421F0004150EA010206D04D
:100630000A0DA2F56072C1F31301002A02DC30BC7E
:1006400000207047440F44EAC104C100E01830BCE8
:1006500000EBC25000F078B830B50B4601460020E0
:100660002022012409E021FA02F59D4205D303FA74
:1006700002F5491B04FA02F52844151EA2F10102F5
:10068000F1DC30BD2DE9F05F0546002092469B4627
:1006900088460646814640241BE028464146474698
:1006A000224600F02FF853465A46C01A914110D303
:1006B00011461846224600F016F82D1A67EB01087D
:1006C0004F4622460120002100F00DF817EB0009EB
:1006D0004E41201EA4F10104DFDC484631462A4683
:1006E0004346BDE8F09F202A04DB203A00FA02F1DD
:1006F000002070479140C2F1200320FA03F3194310
:1007000090407047202A04DB203A21FA02F00021B1
:10071000704721FA02F3D040C2F120029140084311
:1007200019467047202A06DBCB17203A41FA02F01F
:1007300043EAE07306E041FA02F3D040C2F120023E
:1007400091400843194670470029A8BF7047401CD4
:10075000490008BF20F00100704710B4B0FA80FCD7
:1007600000FA0CF050EA010404BF10BC704749B114
:10077000CCF1200421FA04F411FA0CF118BF012184
:1007800021430843A3EB0C01CB1D4FEA00614FEA64
:10079000102042BF002010BC704700EBC350104433
:1007A0000029A4BF10BC7047401C490008BF20F0BE
:1007B000010010BC704710B5141E73F1000408DA74
:1007C000401C41F1000192185B411A4301D120F015
:1007D000010010BD2DE9F04D92469B4611B1B1FAD2
:1007E00081F202E0B0FA80F220329046FFF77BFF00
:1007F00004460F4640EA0A0041EA0B0153465A46B6
:10080000084313D0114653EA010019D0C8F1400241
:100810005046FFF777FF05460E465046594642467A
:10082000FFF761FF084305D0012004E02046394668
:10083000BDE8F08D0020054346EAE0762C433743BF
:100840000A986305E40AA0EB08000022FD0A44EAC6
:1008500047540A3002D500200146E9E70105101986
:100860006941DDE9084500196941BDE8F04DA2E79D
:100870002DE9F04D00231A461B1A8A4103DB0020A4
:100880000146BDE8F08DC1F30A52C1F3130141F4F2
:1008900080154FF0000BD10702D100186D41521E98
:1008A0000027044640F2FF11384601EB620A3E463B
:1008B0008046024600204FF48011FFF723FFC21943
:1008C0007141BB1846EB0100B4EB030C75EB000C57
:1008D00004D3E41A65EB000517460E46241908F107
:1008E00001006D4180463428E3DDF91946EB06002E
:1008F000091BA84103D24FF0FF32134601E000224A
:1009000013461BEB070046EB0A51BDE8F04DFFF71D
:1009100052BFC1F30A52C1F3130140F2FF3341F455
:1009200080119A4202DA00200146704740F23343B8
:100930009A42A2F2334202DC5242FFF7E3BEFFF7D3
:10094000D2BE000030B5041E71F1000404DB4FF08C
:100950000044404264EB0101141E73F1000405DB06
:100960001C464FF00043524263EB0403994208BF18
:10097000904230BD064C074D06E0E06840F00103B0
:1009800094E8070098471034AC42F6D3FFF700FC18
:1009900070B7000890B7000821B1826842F00102E8
:1009A000826003E0826822F00102826070470000EA
:1009B0000021084A1168084A1140D0E900231A436F
:1009C00083681A43C3681A431143044AC2F80413E4
:1009D0007047000004230140E030FCFF002001408C
:1009E00021B1826842F48072826003E0826822F45E
:1009F00080728260704721B1826842F40072826026
:100A000003E0826822F400728260704730B50246CB
:100A1000002000235068104C20400D790C6844EAF7
:100A200005242043506090680C4C2040D1E90354C9
:100A30002C438D682C434D7944EA45042043906053
:100A4000D06A20F470000C7D641EE4B2234340EAB7
:100A50000350D06230BD0000FFFEFFFCFDF7FFC079
:100A6000F0B504460D4600200021092D11DDE06897
:100A7000A5F10A0606EB4607072606FA07F18843A2
:100A8000A5F10A0606EB460603FA06F10843E06004
:100A90000CE0206905EB4507072606FA07F18843B5
:100AA00005EB450603FA06F108432061072A0FDA31
:100AB000606B561E06EB86071F2606FA07F1884371
:100AC000561E06EB860605FA06F10843606322E02F
:100AD0000D2A0FDA206BD61F06EB86071F2606FAB3
:100AE00007F18843D61F06EB860605FA06F1084390
:100AF000206310E0E06AA2F10D0606EB86071F26D0
:100B000006FA07F18843A2F10D0606EB860605FA00
:100B100006F10843E062F0BD816841F080418160E8
:100B20007047000038B10849096841F40001074ADC
:100B3000C2F8041306E00449096821F40001034ADD
:100B4000C2F8041370470000042301400020014054
:100B500000BFFEE710B50221074800F06FF9012839
:100B600009D1064A0021044800F0FAFA01F02CFEEF
:100B700001200349087010BD0064004054010020AA
:100B80004300002010B50221064800F057F9012863
:100B900007D1054A0021034800F0E2FA0120034989
:100BA000087010BD0068004068010020450000206A
:100BB00070B504460D46204600F0DAF82946204676
:100BC00000F060FA204600F0A5F8204600F09EFAFA
:100BD00070BD000010B504460B48844209D10121C4
:100BE000480603F06DFB00214FF0007003F068FB36
:100BF00008E00121880603F063FB00214FF08060CC
:100C000003F05EFB10BD00000064004010B5002141
:100C1000837A012202FA03F13D4A126842F001028E
:100C20003B4B1A603A4A1C3212688A43384B1C33D9
:100C30001A60027BCAB9364A0C3212688A43344BB6
:100C40000C331A604288C38842EA0343304A403278
:100C5000847A42F834300288838842EA03432C4A7B
:100C60004032847A02EBC4025360027B012A19D11C
:100C7000274A0C3212680A43254B0C331A6042880B
:100C8000038842EA0343224A4032847A42F83430ED
:100C9000C288838842EA03431D4A4032847A02EBC9
:100CA000C4025360C27A3AB9194A121D12688A43C3
:100CB000174B1B1D1A6006E0154A121D12680A43E5
:100CC000134B1B1D1A60028932B9114A1432126883
:100CD0008A430F4B14331A600289012A06D10C4A49
:100CE000143212680A430A4B14331A60427B012AF9
:100CF00006D1074A1C3212680A43054B1C331A609E
:100D0000034A126822F00102014B1A6010BD000074
:100D1000006600401FB504461448844203D10020F9
:100D20008DF80A0002E00E208DF80A0000208DF8F0
:100D30000B0001208DF80C000020ADF8000042F6F9
:100D40000440ADF802000020ADF80400ADF8060044
:100D5000ADF8080001208DF80D006846FFF756FF3A
:100D600001220221204600F0F9F81FBD0064004076
:100D70001CB504462E4884422BD10121480603F0BD
:100D80008FFA0121082003F07BFA0922002129486B
:100D900000F0F6FF09220121264800F0F1FF0220B1
:100DA00000908DF804008DF8050000208DF80600F5
:100DB00001208DF8070069461E4800F099FF0120C8
:100DC000009002208DF8040069461A4800F090FF58
:100DD0002DE00121880603F063FA0121022003F0CF
:100DE0004FFA09220C21144800F0CAFF09220D21F4
:100DF000114800F0C5FF4FF40050009002208DF81C
:100E000004008DF8050000208DF8060001208DF803
:100E100007006946084800F06BFF4FF480500090CF
:100E200002208DF804006946034800F061FF1CBDF4
:100E300000640040000C02400004024070B504460B
:100E40000D46002660692840002871D0B5F5807FE6
:100E50005CD010DC082D35D006DC012D20D0022D11
:100E600024D0042D72D127E0102D31D0202D35D083
:100E7000402D6BD138E0B5F5004F60D009DCB5F5F9
:100E8000007F49D0B5F5806F4CD0B5F5006F5DD1CE
:100E90004FE0B5F5803F2DD0B5F5003F56D12FE09E
:100EA000A0682D4900F038FC064651E0E0680321B7
:100EB00000F032FC06464BE0E068082100F02CFC14
:100EC000064645E0E068102100F026FC06463FE0BB
:100ED0002069032100F020FC064639E02069082142
:100EE00000F01AFC064633E02069102100F014FCE3
:100EF00006462DE06068082100F00EFC064627E05B
:100F00006068102100F008FC064621E0A06901217C
:100F100000F002FC06461BE0A069022100F0FCFB89
:100F2000064615E0A069042100F0F6FB06460FE036
:100F30000FE0A069702100F0EFFB064608E0606852
:100F4000042100F0E9FB064602E0FFE7002600BFAF
:100F500000E00026304670BD010101001AB143696E
:100F60000B43436102E043698B434361704730B5F3
:100F7000024600200023146824F002041460146860
:100F800044F00104146000E05B1C546804F00104A8
:100F90001CB94FF6FF74A342F6D1546804F0010463
:100FA0000CB900206CE08C79012C04D1146844F059
:100FB0008004146003E0146824F080041460CC7989
:100FC000012C04D1146844F04004146003E0146858
:100FD00024F0400414600C7A012C04D1146844F00D
:100FE0002004146003E0146824F0200414604C7A98
:100FF000012C04D1146844F01004146003E0146858
:1010000024F0100414608C7A012C04D1146844F08C
:101010000804146003E0146824F008041460CC7A17
:10102000012C04D1146844F00404146003E0146833
:1010300024F0040414608C78A407CD7844EA056495
:101040000D7944EA05444D7944EA05540D886D1E36
:101050002C43D461146824F001041460002300E0E0
:101060005B1C546804F001041CB14FF6FF74A342EA
:10107000F6D1546804F001040CB1002000E0012016
:1010800030BD00003EB505460C461F48854204D1E0
:101090000121480603F004F904E001214FF0C0608B
:1010A00003F0FEF82846FFF795FD684600F0D0F8FB
:1010B00000208DF8060001208DF807008DF808004B
:1010C00000208DF809008DF80A008DF80B008DF8CE
:1010D000020001208DF8030003208DF80400012098
:1010E0008DF80500B4F5FA7F03D10C20ADF80000AF
:1010F00005E0B4F57A7F02D10620ADF8000069461C
:101100002846FFF734FF3EBD0064004038B5044672
:101110004FF4C06003F088F8104884420ED11420C8
:101120008DF8000000208DF801008DF802000120EC
:101130008DF80300684603F03BF80DE040208DF881
:10114000000000208DF8010001208DF802008DF8CC
:101150000300684603F02CF838BD0000006400402E
:1011600010B500F5D87303EB01131B6803F00403FB
:101170001372137A53B900F5D87303EB01131B688C
:1011800040F2FF7404EA5353136009E000F5D8738A
:1011900003EB01131B686FF0604404EAD303536050
:1011A00000F5D87303EB01131B6803F002035372BD
:1011B00000F5D87303EB01135B6803F00F03937220
:1011C00000F5D87303EB01135B681B0AD37400F5B9
:1011D000D87303EB01139B68D37200F5D87303EB4C
:1011E00001139B681C0A147300F5D87303EB0113F9
:1011F0009B681C0C547300F5D87303EB01139B68B8
:101200001B0E937300F5D87303EB0113DB68D373E4
:1012100000F5D87303EB0113DB681C0A147400F5A6
:10122000D87303EB0113DB681C0C547400F5D873FE
:1012300003EB0113DB681B0E937421B9C36843F001
:101240002003C36003E0036943F02003036110BD82
:1012500000218171C171017241728172C17281700C
:10126000C170032101710221417101210180704788
:1012700010B502460020936803F08063B3F1806FDD
:1012800000D110E0936803F00063B3F1006F01D167
:10129000012008E0936803F08053B3F1805F01D12F
:1012A000022000E00420042874D002F5C07303EB90
:1012B00000131B6803F0010402F5C07303EB001375
:1012C0001C600B7A7BB94B7A0C8843EA445302F5D5
:1012D000C07404EB00142468234302F5C07404EBCB
:1012E0000014236010E00B7A4C6843EAC4034C7A84
:1012F000234302F5C07404EB00142468234302F571
:10130000C07404EB001423608B7A03F00F038B721C
:1013100002F5C07303EB00135B6823F00F0402F5C2
:10132000C07303EB00135C6002F5C07303EB0013A2
:101330005B688C7A234302F5C07404EB001463608D
:101340008B7B1C064B7B44EA03440B7B44EA032360
:10135000CC7A234302F5C07404EB0014A3608B7CA9
:101360001C064B7C44EA03440B7C44EA0323CC7BFD
:10137000234302F5C07404EB0014E36002F5C0736C
:1013800003EB00131B6843F0010402F5C07303EB89
:1013900000131C6010BD000010B52DED068B334806
:1013A0008168006C084400EE100AB8EEC00A9FED98
:1013B000301AC0EE010A9FED2F0A80EE801AF0EE7F
:1013C000418A2A48D0F8B010806F084400EE100A15
:1013D000F8EEC00A9FED261A80EE810ADFED250A9D
:1013E00080EE201AB0EE418A38EE280AF0EE000AAC
:1013F00080EE201A204880ED001A9FED200A204838
:1014000080ED000A1F4890F84C0028B31D4890ED6D
:10141000080A1D4880ED000A90ED000A10EE100A3F
:10142000FFF7D3F841EC1A0BB0EE4A0AF0EE6A0A65
:1014300005F00EFFB0EE409AF0EE609A9FED130BB0
:1014400053EC102B51EC190BFFF7D2F804D29FED9F
:101450000B0A0D4880ED000A0B4890ED000A0D487C
:1014600080ED000ABDEC068B10BD0000BC02002020
:101470000000FA4478B0E0427C0000200000000048
:10148000800000209C030020880000207B14AE47D1
:10149000E17A743F8400002010B50446012003F077
:1014A000D5FE01280CD024480068142808D8234809
:1014B0000068142818D9224890F82000012813D178
:1014C0000020204981F8280081F8400008610021AF
:1014D0001C4841618161C16100201A494880002196
:1014E00018488180C1800181012C06D0022C0BD0CC
:1014F000032C10D0042C1CD114E01248B0F90210B7
:10150000012001F003FD15E00E48B0F9061003209C
:1015100001F0FCFC0EE00B48B0F90210012001F0D4
:10152000F5FC07E00748B0F90610032001F0EEFCD7
:1015300000E000BF00BF10BD2400002028000020F4
:101540007C0100207802002010B502F015F802F0AE
:101550005BFF10B1002002490860FFF71DFF10BDBE
:1015600024000020F0B52DED088B8DB0002400265E
:1015700000270025AE222146641C06A84254EA2218
:101580002146641C425401222146641C4254A72275
:101590002146641C4254524890ED000A10EE100A95
:1015A000FFF713F841EC180B4E4890ED000A10EECF
:1015B000100AFFF70AF841EC190B4B4890ED000AAE
:1015C00010EE100AFFF701F841EC1A0B474890EDB6
:1015D000000A10EE100AFEF7F8FF41EC1B0B8DED30
:1015E000048B8DED029B8DED00AB53EC1B2B40A0CB
:1015F00005F0F0F93D4890ED000ADFED450A20EED8
:10160000200AF7EE000A80EE201ABDEEC10A10EEA5
:10161000100A05B2C5F307222146641C06A84254ED
:101620002146641C4554304890ED000ADFED380A2D
:1016300020EE200AF7EE000A80EE201ABDEEC10A65
:1016400010EE100A05B2C5F307222146641C06A855
:1016500042542046611CCCB206A90D54214890ED9D
:10166000000ADFED2B0A20EE200AF7EE000A80EEDA
:10167000201ABDEEC10A10EE100A05B2C5F307220A
:101680002046611CCCB206A90A542046611CCCB28B
:1016900006A90D54601EC0B28DF81A00022604E09F
:1016A00006A8805D0744701CC6B2A642F8DB20463F
:1016B000611CCCB206A90F54EF222046611CCCB2AB
:1016C00006A90A54FE222046611CCCB206A90A547F
:1016D0002246104804F0A0FB0DB0BDEC088BF0BD15
:1016E0008800002084000020800000207C00002072
:1016F0006F646F6D20252E3366200920252E3366FA
:10170000200920252E3366200920252E33660A0065
:1017100000007A44001001400246002002EA010362
:101720000BB1012000E000207047000010B50A490D
:101730000A4800F04FF970B10749084800F06EF808
:1017400019200649091D08600121044800F080F8AD
:1017500001200349087010BD008800208860024005
:101760004000002010B50F490F4800F033F9B8B120
:1017700000210D4800F06CF80A490B4800F04EF8C3
:1017800040210A4804F0B0FF28200749091D0860DD
:101790000121054800F05CF84021054800F020FBDD
:1017A00010BD000000802010406402400010014085
:1017B0000014024010B54021084800F011FB084910
:1017C000084800F007F938B10021064800F040F859
:1017D0000349044800F008F810BD0000001402405E
:1017E00000800028B86402400246094B9A4201D2A8
:1017F000084801E00648103801F000531BB1064BC1
:101800000B40C36002E0044B0B4083607047000054
:1018100010640240006002407D0F7D0F0246094BBC
:101820009A4201D2084801E00648103801F00053FE
:101830001BB1064B0B40C36002E0044B0B408360BE
:101840007047000010640240006002407D0F7D0F71
:1018500021B1026842F00102026003E0026822F056
:101860000102026070470000016821F0010101607F
:101870000021016041608160C160016121214161FD
:101880004A49884204D13D21484A103A91608CE08F
:1018900046491831884205D14FF47461434A103AE1
:1018A000916082E041493031884205D14FF4741192
:1018B0003E4A103A916078E03C494831884205D16F
:1018C0004FF07461394A103A91606EE037496031E7
:1018D000884204D13649354A103AD16065E033492F
:1018E0007831884204D13349304A103AD1605CE003
:1018F0002E499031884204D12F492C4A103AD160A8
:1019000053E02A49A831884205D14FF03D51274A7A
:10191000103AD16049E02949884204D13D21274A43
:10192000083A116041E025491831884205D14FF449
:101930007461224A083A116037E020493031884208
:1019400005D14FF474111D4A083A11602DE01B496E
:101950004831884205D14FF07461184A083A116045
:1019600023E016496031884204D11149134A121FFD
:1019700011601AE011497831884204D10D490F4AAB
:10198000121F116011E00D499031884204D10A49BB
:101990000A4A121F116008E00849A831884204D1A0
:1019A0004FF03D51054A121F116070471060024010
:1019B0003D000020400F002000003D201064024048
:1019C000014600200A6802F001020AB1012000E08D
:1019D0000020704770B50246002000240025124EFA
:1019E000B24201D2114B01E00F4B103B104E0E40A2
:1019F00036B11E2606EAD124166806EA040502E07E
:101A0000566906F0800501F000560EB15C6800E0F2
:101A10001C68084E344004EA010616B10DB10120DD
:101A200000E0002070BD0000106402400060024031
:101A30003C0F3C0F7D0F7D0F10B501F080034BB1C3
:101A400022B1436943F08003436103E0436923F01B
:101A50008003436180290BD02AB1036801F01E0482
:101A60002343036004E0036801F01E04A343036002
:101A700010BD000010B500220268134B1A40CC685C
:101A80000B6823434C6923438C692343CC6923436C
:101A90000C6A23434C6A23438C6A23434C6B2343D5
:101AA0008C6B23431A430260426922F00702D1E99A
:101AB0000B3423431A4342610B6943604B688360D4
:101AC0008B68C36010BD00003F801CF070470000B1
:101AD000074908604FF0E021096941F001014FF02A
:101AE000E022116100BF024909680029FBD170475B
:101AF0009C0000200120514981F840009FED503AA0
:101B0000B0EE431A9FED4E3AB0EE432A9FED4C3AA9
:101B1000F0EE432A9FED4A3AF0EE431A9FED493A20
:101B2000B4EEC30AF1EE10FA04DD9FED463AB0EED2
:101B3000430A0AE09FED443AB4EEC30AF1EE10FA0C
:101B400003D29FED413AB0EE430AB1EE603AF0EEB7
:101B5000430A9FED3E3AB4EEC30AF1EE10FA0ADDF5
:101B60009FED3B3AB4EEC30AF1EE10FA03D29FEDBB
:101B7000343AB0EE430A9FED353AF4EEC30AF1EE83
:101B800010FA0ADD9FED323AF4EEC30AF1EE10FAD4
:101B900003D29FED2B3AF0EE430ADFED2E3AB0EE82
:101BA000403A00EEA33AB0EE431AB0EE412ADFED20
:101BB000293AB0EE403A10EEA33AF0EE431AF0EEB6
:101BC000612A9FED253A21EE033AF7EE003A83EEC3
:101BD000234ABDEEC43A13EE100A00B217494880FA
:101BE0009FED1D3A22EE033AF7EE003A83EE234AC8
:101BF000BDEEC43A13EE100A01B2104881809FED89
:101C0000163A22EE833AF7EE003A83EE234ABDEE0F
:101C1000C43A13EE100A01B20848C1809FED0E3A93
:101C200021EE833AF7EE003A83EE234ABDEEC43A42
:101C300013EE100A01B201480181704778020020BA
:101C400000000000CDCC0C40CDCC0CC0CDCC4CBDA8
:101C5000CDCC4C3D7B14AE3E78B0E04210B50120B7
:101C600000F016F810B1012000F00CF810BD10B50E
:101C70004FF4005000F00CF818B14FF4005000F091
:101C800001F810BD0149086070470000143C014094
:101C900001460020034A12680A400AB1012000E010
:101CA00000207047143C014010B50446012C04D1BB
:101CB00020210C4800F018F813E0022C04D1102168
:101CC000084800F011F80CE0032C04D10821054865
:101CD00000F00AF805E0042C03D10421014800F0CB
:101CE00003F810BD0014024042694A404261704747
:101CF000F0B50A4600210023002400BF3DE0012585
:101D000005FA01F3156805EA03049C4234D105681D
:101D10004F000326BE40B543056015794E00B5401F
:101D20000668354305601579012D02D01579022D1D
:101D300016D185684F000326BE40B54385605579AE
:101D40004E00B540866835438560456801268E4063
:101D5000B5434560456896798E40B6B235434560D7
:101D6000C5684F000326BE40B543C560D5794E0017
:101D7000B540C6683543C560491C1029BFD3F0BDC6
:101D8000F0B5002300244D07ED0E02FA05F3CE1046
:101D900000F1200555F826504E07F70E0F26BE40DD
:101DA000B543CF1000F1200646F82750CE1000F1C1
:101DB000200555F8265045EA0304CE1000F1200511
:101DC00045F82640F0BD0246002013690B400BB1D8
:101DD000012000E000207047418370470183704775
:101DE00042694A404261704700BFFEE710B507F004
:101DF0005FFC124948640846406C096C401A4FF475
:101E00007A71B0FBF1F00D4988640846406C0864B3
:101E100001F0A2F80948806CC82804D900200749BD
:101E200081F84C0003E00120044981F84C0003488C
:101E3000816C03A004F0CEFD10BD00009C030020C7
:101E4000494D552064742025642020200A0000009C
:101E50000A2000BF011EA0F10102D0B2FADC7047D7
:101E60001CB50121022002F00BFA01208DF80400BC
:101E700000208DF80600C020009001208DF807009A
:101E800002208DF8050069460548FFF731FFFFF78E
:101E9000DFFFFFF7DDFFFFF7DBFFFFF7D9FF1CBD1B
:101EA0000004024010B540210F48FFF795FF0E488F
:101EB000006820F440400C4908600846006840F47F
:101EC0008040086080210848FFF786FFFFF7C0FFC9
:101ED00040210548FFF782FFFFF7BAFF4021024883
:101EE000FFF77AFF10BD00000004024010B540214A
:101EF0000F48FFF771FF0E48006820F440400C497E
:101F000008600846006840F4804008608021084866
:101F1000FFF764FFFFF79CFF40210548FFF75EFFD6
:101F2000FFF796FF40210248FFF756FF10BD000063
:101F30000004024070B5054600241848006820F4EB
:101F4000404016490860084600680860FFF780FFB7
:101F5000FFF77EFF002616E040211048FFF73CFF08
:101F6000FFF776FF40210D48FFF738FF6006040EAB
:101F700080210A48FFF727FF08B1601CC4B2FFF7B1
:101F800067FF701CC6B2082EE6DB15B9FFF7AEFF7F
:101F900001E0FFF787FF204670BD0000000402400B
:101FA00010B51048006820F440400E49086008460B
:101FB000006840F48040086080210A48FFF70EFF67
:101FC00040210848FFF70AFFFFF742FF802105483C
:101FD000FFF702FFFFF73CFF40210248FFF7FCFE3E
:101FE00010BD00000004024010B51048006820F445
:101FF00040400E4908600846006840F48040086090
:1020000040210A48FFF7E8FE80210848FFF7E4FE78
:10201000FFF71EFF40210548FFF7E0FE802103483F
:10202000FFF7DCFEFFF714FF10BD000000040240C4
:1020300070B504461948006820F44040174908600C
:102040000846006840F48040086040211348FFF7CC
:10205000C3FE00251EE004F08006802E04D18021FE
:102060000E48FFF7BBFE03E080210C48FFF7B4FEEB
:10207000FFF7EEFE6006040E40210848FFF7AEFEB3
:10208000FFF7E6FE40210548FFF7A6FEFFF7E0FE5A
:10209000681CC5B2082DDEDB70BD000000040240E4
:1020A0004CF6CC4001490860704700000030004009
:1020B00010B545F2555000F021F8032000F012F859
:1020C0004FF4FA6000F014F800F004F8FFF7E8FFAE
:1020D00010BD00004AF6AA200149086070470000C0
:1020E0000030004001494860704700000030004067
:1020F00001498860704700000030004001490860D5
:10210000704700000030004010B5012251033848EC
:1021100001F0DCFC01229103354801F0D7FC0122DB
:10212000D103334801F0D2FC00220121314801F0F3
:10213000CDFC002202212F4801F0C8FC00224FF400
:1021400000612C4801F0C2FC00224FF48051294864
:1021500001F0BCFC00224FF40051264801F0B6FC0F
:1021600000224FF48041234801F0B0FC00220421FA
:10217000204801F0ABFC002208211E4801F0A6FC1B
:10218000002210211B4801F0A1FC00222021194847
:1021900001F09CFC01222021154801F097FC01224E
:1021A0001021134801F092FC01220821104801F08F
:1021B0008DFC012204210E4801F088FC0122114609
:1021C0000D4801F083FC01210B48FFF705FE0021BB
:1021D000012003F0ABF90021022003F0A7F9002150
:1021E000032003F0A3F90021042003F09FF910BDA0
:1021F00000140240001002400000024010B501210E
:10220000032002F04DF88020C10508804FF6FF70D2
:10221000C8620020088501208882A72008818420C8
:10222000104908802020091D08804FF6FF700D49D5
:102230002C3108605320091F0880012009491431FE
:10224000088080200749083108800648008840F04F
:102250000100044908800805008840F001000905D4
:10226000088010BD000400402DE9F0418AB0002430
:1022700000250026AE222146641C01A84254EA2211
:102280002146641C425401222146641C4254AC2263
:102290002146641C4254234802782146641C01A84C
:1022A00042540027042002F0D1FF4FEA0018032017
:1022B00002F0CCFF48EAC008022002F0C7FF48EA5B
:1022C0008008012002F0C2FF48EA000808F0FF077A
:1022D0002146641C01A84754601EC0B28DF8060058
:1022E000022504E001A8405D0644681CC5B2A54271
:1022F000F8DB2046611CCCB201A90E54EF22204627
:10230000611CCCB201A90A54FE222046611CCCB249
:1023100001A90A542246044803F07EFD0AB0BDE834
:10232000F08100005C000020001001401CB5044654
:1023300004A103C9CDE90001E1B2684600F026FD21
:102340001CBD00002B4060008000000006E041F250
:10235000883100BF0A1EA1F10101FBD1021EA0F1CC
:102360000100F4D17047000000B587B01BA003C87E
:10237000CDE905011BA103C9CDE903011BA103C9D7
:10238000CDE90101012105A800F000FD5020FFF773
:10239000DDFF012103A800F0F9FC5020FFF7D6FF74
:1023A000012101A800F0F2FC5020FFF7CFFF03212C
:1023B00005A800F0EBFC5020FFF7C8FF032103A89D
:1023C00000F0E4FC5020FFF7C1FF032101A800F05A
:1023D000DDFC5020FFF7BAFF07B000BD2B406000C6
:1023E000060000002B406000070000002B4060004A
:1023F0000F00000030B58BB005460C4622A003C884
:10240000CDE9090122A103C9CDE9070122A103C930
:10241000CDE9050122A103C9CDE9030122A103C928
:10242000CDE901014FF6FF7000EA4404E0B28DF8F7
:102430001000200A8DF81100294609A800F0A6FC1A
:102440006420FFF783FF294607A800F09FFC642063
:10245000FFF77CFF294605A800F098FC6420FFF7F1
:1024600075FF294603A800F091FC6420FFF76EFF7A
:10247000294601A800F08AFC6420FFF767FF284680
:1024800000F01EFC0BB030BD2F001A000000000051
:1024900023001A0120036C602F001802FF000000C7
:1024A0002B001805140000002F001A000100000086
:1024B000F0B587B0002464270025052644A003C892
:1024C000CDE9050144A103C9CDE9030144A103C934
:1024D000CDE90101012425E0214643A004F07AFA68
:1024E000214605A800F052FC3846FFF72FFFA01C3C
:1024F000C4B2002500BF4348007820B92846691CB3
:102500008DB2B042F7DBB54203D03F48C07B05280F
:1025100008D021463D4804F05DFA00F0F7FB0020AA
:1025200007B0F0BD052CD7DB012424E0214638A0FC
:1025300004F050FA214603A800F028FC3846FFF7C3
:1025400005FFA01CC4B2002500BF2E48007820B9AA
:102550002846691C8DB2B042F7DBB54203D02A4849
:10256000007C012807D02146304804F033FA00F0FF
:10257000CDFB0020D4E7052CD8DB012424E0214644
:102580002BA004F027FA214601A800F0FFFB3846F3
:10259000FFF7DCFEA01CC4B2002500BF194800787C
:1025A00020B92846691C8DB2B042F7DBB54203D092
:1025B0001548C07B012807D02146254804F00AFAB7
:1025C00000F0A4FB0020ABE7052CD8DB0120A7E737
:1025D000401810000000000040181001000000002A
:1025E00040181002000000000952656164204D612E
:1025F0006B6572496E666F5F436D642049443A2093
:10260000256400004300002054010020D4B60008D7
:1026100009526561642056656E646F7249445F4378
:102620006D642049443A20256400000038B6000853
:1026300009526561642050726F64756374436F64FE
:10264000655F436D642049443A2025640000000022
:1026500084B6000870B5002464251DA004F0BAF902
:1026600006E029A004F0B6F944F62060FFF76EFEFC
:10267000FFF71EFF0028F4D02FA004F0ABF90124CF
:1026800007E02046FFF752FE2846FFF75FFEA01C3A
:10269000C4B2052CF5DB32A004F09CF9012409E05A
:1026A0004FF4FA712046FFF7A5FE2846FFF74EFECD
:1026B000A01CC4B2052CF3DB32A004F08BF900F0AF
:1026C00087FB39A004F086F9FFF74EFE70BD0000CD
:1026D0000A737465703120B6C1C8A1D6C6D4ECC9DE
:1026E000CCD0C5CFA2204D4F544F525F5A4C4143DE
:1026F00038303135445F496E666F725F4765742EBE
:102700002E2E200A00000000C7EBBCECB2E94341CA
:102710004EC1ACBDD320CEDEB7A8B6C1C8A1B5BDF1
:102720005A4C41433830313544B5E7BBFAD0C5CFB8
:10273000A2202E2E2E0A00007374657032204D4F99
:10274000544F525F5A4C414338303135445F436CEB
:1027500065616E5F4572726F72436F64650A000057
:102760007374657033204D4F544F525F5A4C414340
:1027700038303135445F456E61626C655F50444F5F
:102780000A0000007374657034204D4F544F525F3F
:102790005A4C414338303135445F5365745F4D6F57
:1027A00064656C0A000000007374657035204D4F3D
:1027B000544F525F5A4C414338303135445F456E77
:1027C00061626C650A00000038B5FA480088C0F301
:1027D0000B10182845D10020F7490880F548C07A29
:1027E0000870F448007B4870F248006840F283119A
:1027F000884208D1F048B0F90000404264214843C3
:10280000EE4988670CE0EB48006840F2811188428D
:1028100006D1E9480088642110FB01F0E74988608F
:102820000020E5490880E348407B0870E148807B50
:102830004870E0480068A0F28110022809D30846D9
:10284000B0F90000404264214843DC49C1F8B000BF
:102850002FE2D9480088642110FB01F1D7480164B8
:1028600027E2D4480088C0F30B105828F0D1D14893
:10287000407B602878D1CF48007B642874D1002049
:10288000CF490860CB48C07B0870CA48007C4870BC
:10289000C848407C8870C748807CC870C548807B29
:1028A00001281ED1C348006840F2835188420CD1F0
:1028B000C34800684142BF480068A0F28150C0EBA5
:1028C000C000BE4A42F830102DE0BD480168B9484A
:1028D0000068A0F28150C0EBC000B84A42F8301046
:1028E00021E0B448807B02281DD1B248006840F244
:1028F000835188420CD1B24800684142AD4800681B
:10290000A0F5B060C0EBC000AC4A42F830100AE05D
:10291000AB480168A7480068A0F5B060C0EBC000F4
:10292000A64A42F83010A3480068A0F5B060C0EB9A
:10293000C000A24951F8300000909E480068A0F203
:102940008150C0EBC0000C4654F830309948006804
:10295000A0F5B06297480068A0F2815100E003E062
:1029600098A004F037F8A4E19248407B60286DD12C
:102970009048007B6C2869D18E48807B032865D104
:102980008C48006840F2815188422BD100208A494E
:1029900008808848C07B08708648007C48700846DC
:1029A000B0F9001083480068A0F28150C0EBC0006D
:1029B000824A02EBC000816000207F4908807D4888
:1029C000407C08707B48807C48700846B0F9001055
:1029D00078480068A0F5B060C0EBC00002EBC00012
:1029E000816066E17348006840F283518842BAD141
:1029F0000020714908806F48C07B08706D48007CDA
:102A000048700846B0F9000041426A480068A0F2E8
:102A10008150C0EBC000694A02EBC0008160002019
:102A2000654908806348407C08706248807C487033
:102A30000846B0F9000041425E480068A0F5B06069
:102A4000C0EBC00002EBC000816032E15948407B1E
:102A500060286BD15748007B772867D15548807B29
:102A6000032863D15348006840F28151884229D13C
:102A70000020514908804F48C07B08704D48007CB9
:102A80004870084601884B480068A0F28150C0EBAE
:102A9000C0004A4A02EBC00041820020464908803B
:102AA0004448407C08704348807C48700846018850
:102AB00040480068A0F5B060C0EBC00002EBC00069
:102AC0004182F6E03B48006840F28351884288D159
:102AD0000020394908803748C07B08703548007CA1
:102AE000487008460088404201B232480068A0F2AF
:102AF0008150C0EBC000314A02EBC000418200208F
:102B00002D4908802B48407C08702A48807C4870FA
:102B100008460088404201B226480068A0F5B0602F
:102B2000C0EBC00002EBC0004182C2E02148407B04
:102B300020281CD11F48007B352818D11D48807BD8
:102B4000A8B900201C4908801A48C07B08701948A1
:102B5000007C48700846018816480068A0F2815041
:102B6000C0EBC000154A02EBC0008182A1E0114811
:102B7000407B20283ED10F48007B32283AD10D48B7
:102B8000807B012836D100200B4908800948C07B92
:102B900008700848007C48700846018805480068AD
:102BA000A0F28150C0EBC000044A02EBC000C18219
:102BB0007FE000005401002098000020BC020020AB
:102BC000940000200A206D6F746F5F6368617373F7
:102BD00069732069643A25642C25642020616E673E
:102BE0006C653A2564202025642028636E74290AC8
:102BF000000000002F48407B20281DD12D48007B7D
:102C0000322819D12B48807B022815D100202A496F
:102C100008802848C07B08702648007C4870084619
:102C2000018824480068A0F5B060C0EBC000234ACA
:102C300002EBC000C1823CE01E48407B602838D1D6
:102C40001C48007B3F2834D11A48807B88BB194838
:102C5000006840F28351884214D11648C17B17485E
:102C600080F87D101348017C144880F87E101148CC
:102C7000417C124880F8B5100E48817C0F4880F8DE
:102C8000B61016E00B48006840F28151884210D11E
:102C90000848C07B094948730648007C887305488A
:102CA000417C064880F845100248817C034880F842
:102CB000461038BD5401002098000020BC020020BE
:102CC00010B586B00446002001908DF80C008DF8F8
:102CD0000D0008208DF80E0001208DF80F008DF8F2
:102CE000104001218DF811108DF812408DF813104D
:102CF0008DF814408DF815108DF8164001A9024882
:102D0000FEF7B6FA06B010BD0064004000B587B00B
:102D10000E48807C0D49497C0C4A127C0B4BDB7BB6
:102D2000CDE90332CDE905100848817B407B074A95
:102D3000127BCDE9002002910448C37AC27C01686D
:102D4000034803F047FE07B000BD00005401002017
:102D5000E0B500081FB5044608A003C8CDE902018C
:102D600008A103C9CDE90001E1B202A800F00EF804
:102D7000E1B2684600F00AF81FBD000040322001B1
:102D800000000000403220020000000070B586B054
:102D900005460E46002406F5C060019000208DF81F
:102DA0000C008DF80D0008208DF80E0000BF05E026
:102DB000295D0DF10F000155601CC4B2082CF7DB32
:102DC00001A90248FEF754FA06B070BD0064004045
:102DD00030B58DB041A003C8CDE90B0141A103C9B5
:102DE000CDE9090141A103C9CDE9070141A103C909
:102DF000CDE9050141A103C9CDE9030141A103C901
:102E0000CDE90101642564248DF82050280A8DF84D
:102E100021008DF81850280A8DF819008DF81040FF
:102E2000200A8DF811008DF80840200A8DF809005D
:102E3000012107A8FFF7AAFF6420FFF787FA012105
:102E400003A8FFF7A3FF6420FFF780FA012105A87C
:102E5000FFF79CFF6420FFF779FA012101A8FFF733
:102E600095FF6420FFF772FA01210BA8FFF78EFF90
:102E70006420FFF76BFA012109A8FFF787FF6420A0
:102E8000FFF764FA032107A8FFF780FF6420FFF72C
:102E90005DFA032103A8FFF779FF6420FFF756FAD4
:102EA000032105A8FFF772FF6420FFF74FFA032103
:102EB00001A8FFF76BFF6420FFF748FA03210BA876
:102EC000FFF764FF6420FFF741FA032109A8FFF729
:102ED0005DFF6420FFF73AFA0DB030BD2B0F2000E4
:102EE000010000002F6060000300000023836001E8
:102EF000C802000023836002C8020000238460012E
:102F0000C800000023846002C80000007CB50546AC
:102F10000C460FA103C9CDE90001FA2C01DDFA240A
:102F200004E014F1FA0F01DA6FF0F904E0B28DF861
:102F30000400200A8DF80500E0B28DF80600200A92
:102F40008DF8070029466846FFF720FF7CBD00008A
:102F500023FF60030000000000B52DED0C8B8DB049
:102F6000B7EE000AF0EE409A9FEDA10AB0EE408A5B
:102F70009FED9F0AF0EE408A9FED9D0AB0EE409AC9
:102F800006A807A90CAB02AACDE9001008A90AA857
:102F900005F0B2F820B101200DB0BDEC0C8B00BDE6
:102FA000BDF828009349C880BDF82A1091480181D6
:102FB000BDF82C104181B0F9060000EE100AB8EE01
:102FC000C00ADFED8D0A20EE200ADFED8C0A80EECC
:102FD000201A884880ED061AB0F9080000EE100AA1
:102FE000B8EEC00ADFED840A20EE200ADFED830A86
:102FF00080EE201A7F4880ED071AB0F90A0000EE33
:10300000100AB8EEC00ADFED7C0A20EE200ADFEDE0
:103010007B0A80EE201A774880ED081ABDF8200060
:1030200074490880BDF822004880BDF824008880DB
:10303000BDF81C0000F4807000287DD09DED020AD0
:10304000B8EEC00ADFED6E0A80EE201AF0EE419A6B
:103050009DED030AB8EEC00ADFED690A80EE201A82
:10306000B0EE418A9DED040AB8EEC00ADFED640AB5
:1030700080EE201AF0EE418A9DED050AB8EEC00AF6
:10308000DFED5F0A80EE201AB0EE419AB8EE000A3A
:1030900028EE000A20EE090AF0EE000A69EEA00A06
:1030A00000EEA80A10EE101A0846FDF78EFA41EC61
:1030B0001C0BB0EE4C0AF0EE6C0A03F0B5FCB0EE5F
:1030C00040BAF0EE60BA9FED4F0B53EC102B51EC71
:1030D0001B0BFDF77BF941EC1A0BFDF7A1FA4549F3
:1030E0008863B8EE000A28EE000A20EE080AF0EE27
:1030F000000A68EEA00A00EEE80AF7EE000A30EED9
:10310000200A10EE101A0846FDF75FFA41EC1C0B7E
:10311000B0EE000A28EE800A20EE090AF0EE000A5E
:1031200069EEA00A00EE880A10EE101A0846FDF7B4
:103130004CFA41EC1D0B00E056E0B0EE4C1AF0EEFC
:103140006C1AB0EE4D0AF0EE6D0A03F089FFB0EE96
:1031500040BAF0EE60BA9FED2B0B53EC102B51EC04
:103160001B0BFDF733F941EC1A0BFDF759FA214916
:10317000486329EEA90A08EE080A08EEE80A09EEF3
:10318000490A10EE101A0846FDF71FFA41EC1C0B15
:1031900028EE280A09EE890AF0EE000A20EE200A3D
:1031A00010EE101A0846FDF710FA41EC1D0BB0EEB8
:1031B0004C1AF0EE6C1AB0EE4D0AF0EE6D0A03F008
:1031C0004FFFB0EE40BAF0EE60BA9FED0E0B53EC3D
:1031D000102B51EC1B0BFDF7F9F841EC1A0BFDF726
:1031E0001FFA0449C86301E00220D5E60020D3E6B7
:1031F000000000009C03002039FA8E3C6F128341CE
:103200000000804E6666666666A64C4010B50024D7
:103210001448006820F440401249086008460068DD
:10322000086080210F48FEF7D9FDFEF711FE40210E
:103230000C48FEF7D3FDFEF70BFE07E0601CC4B29E
:10324000FA2C03DDFEF7D0FE012010BD80210548D9
:10325000FEF7B9FD0028F1D140210248FEF7BCFD80
:103260000020F2E7000402402DE9F04106460F4637
:1032700014461D46FEF794FE002141EA4601C8B2FD
:10328000FEF7D6FEFFF7C2FF20B1FEF7ADFE01202C
:10329000BDE8F0813846FEF7CBFEFFF7B7FFFEF73B
:1032A0007FFE012101EB4601C8B2FEF7C1FEFFF728
:1032B000ADFF0DE0012C04D10020FEF73BFE28708D
:1032C00003E00120FEF736FE2870601EC4B26D1CBC
:1032D000002CEFD1FEF788FE0020D9E72DE9F04160
:1032E00005460E4617469846FEF75AFE002141EA6B
:1032F0004501C8B2FEF79CFEFFF788FF20B1FEF73C
:1033000073FE0120BDE8F0813046FEF791FEFFF725
:103310007DFF00240CE018F80400FEF789FEFFF79B
:1033200075FF18B1FEF760FE0120EBE7601CC4B228
:10333000BC42F0DBFEF758FE0020E3E730B59BB05F
:1033400005460C468748854274D10121801500F05E
:10335000C7FF84B90121084600F092FF01201390B5
:1033600003208DF8500000208DF8530013A97E48EB
:10337000FEF7BEFC93E0012C10D10121084600F0BD
:103380007FFF0220139003208DF8500000208DF85D
:10339000530013A97448FEF7ABFC80E0022C10D157
:1033A0000121084600F06CFF0420139003208DF8E3
:1033B000500000208DF8530013A96B48FEF798FCCD
:1033C0006DE0032C10D10121084600F059FF0820C0
:1033D000139003208DF8500000208DF8530013A99E
:1033E0006148FEF785FC5AE0042C10D10121084603
:1033F00000F046FF1020139003208DF850000020AD
:103400008DF8530013A95848FEF772FC47E0052CCD
:1034100011D10121084600F033FF20201390032032
:103420008DF8500000208DF8530013A94E48FEF788
:103430005FFC34E091E0062C10D10121084600F039
:103440001FFF4020139003208DF8500000208DF8BE
:10345000530013A94448FEF74BFC20E0072C10D181
:103460000121084600F00CFF8020139003208DF806
:10347000500000208DF8530013A93B48FEF738FC9C
:103480000DE0102C03D10120FDF74CFB07E0112CBF
:1034900003D10120FDF746FB01E000BFFEE700205D
:1034A00000904FF480300190002002904FF4706043
:1034B00003906846FDF77CFA002015908DF85800BF
:1034C00001208DF8590000201790189019900120C4
:1034D0008DF8680015A92348FDF798FA01218805A1
:1034E00000F0CEFE1F484C3005902048069000208A
:1034F000079001200890002009900A904FF4006086
:103500000B9080000C9040110D9040020E90002016
:103510000F9001201090002011901290049004A9A7
:103520001348FEF7A7FA01211148FEF791F903238A
:10353000012221462846FDF793FA01212846FDF78E
:103540005AFA01212846FDF74BFA01212846FDF7DA
:1035500023FA2846FDF7E0FA01E000BFFEE71BB0C2
:1035600030BD00000020014000000240AC000020FF
:103570001064024000BFFEE770B52DED088B42F2EB
:1035800010750A244FF4B476F8480078012803D067
:103590000020BDEC088B70BDF5480078AE2803D143
:1035A000F3484078EA2801D00020F2E70020EF49F4
:1035B0000870EF48C078EF49087008460078F22894
:1035C00054D1ED4890F8200001284FD1E8484179C6
:1035D000007901EB002000EE100AB8EEC00A9FED62
:1035E000E71AC0EE010A00EE104AB8EE400A30EECB
:1035F000C00AE04880ED0D0ADD48C179807901EB11
:10360000002000EE100AB8EEC00A9FEDDC1AC0EEF2
:10361000010A00EE104AB8EE400A30EEC00AD54862
:1036200080ED0E0AD248417A007A01EB002000EECC
:10363000100AB8EEC00A9FEDD11AC0EE010A00EEE2
:10364000104AB8EE400A30EEC00ACA4880ED0C0AB3
:103650000320C84981F84100002081F8280001209A
:1036600081F84000084690ED0C0ABFE1C14800789F
:10367000F32863D1C04890F8200001285ED120468D
:10368000FCF796FF41EC190BB9494A79097902EB2D
:103690000120FCF77CFF41EC1B0B9FEDB90B53ECB9
:1036A000102BFCF705FF41EC1A0B53EC192BFCF720
:1036B00087FE41EC180BFCF7B3FF00EE100AAD4893
:1036C00080ED0D0A9FEDB00A80ED0E0A2046FCF752
:1036D0006FFF41EC190BA6494A7A097A02EB0120E7
:1036E000FCF755FF41EC1B0B9FEDA50B53EC102B8A
:1036F000FCF7DEFE41EC1A0B53EC192BFCF760FED5
:1037000041EC180BFCF78CFF00EE100A994880ED95
:103710000C0A0020974981F8410081F82800012017
:1037200081F84000084690ED0C1AF0EE410A90ED49
:103730000D1AB0EE410AFEF7DDF957E18D48007829
:10374000F42859D18C4890F82000012854D1204603
:10375000FCF72EFF41EC190B85494A79097902EBF8
:103760000120FCF714FF41EC1B0B9FED850B53EC84
:10377000102BFCF79DFE41EC1A0B53EC192BFCF7B8
:103780001FFE41EC180BFCF74BFF00EE100A7948C6
:1037900080ED0D0A9FED7C0A80ED0E0A2046FCF7B5
:1037A00007FF41EC190B72494A7A097A02EB0120B2
:1037B000FCF7EDFE41EC1B0B9FED710B53EC102B56
:1037C000FCF776FE41EC1A0B53EC192BFCF7F8FDD5
:1037D00041EC180BFCF724FF00EE100A654880ED61
:1037E0000C0A0220634981F84100002081F828007A
:1037F000012081F84000F9E05E480078FA287CD189
:103800005D4890F82000012877D159484179007926
:1038100001EB002006EBC60101EB0611A0EB8100D5
:10382000544908615248C179807901EB0020401B5E
:1038300000B2504948804E48417A007A01EB00209E
:1038400006EBC60101EB0611A0EB8101494841617D
:103850004748C17A807A01EB0020401B01B24548FD
:1038600081804348417B007B01EB002006EBC601D1
:1038700001EB0611A0EB81013E4881613C48C17B10
:10388000807B01EB0020401B01B23A48C1803848E0
:10389000417C007C01EB002006EBC60101EB061128
:1038A000A0EB81013348C1613148C17C807C01EBD0
:1038B0000020401B01B22F4801812D48417D007D31
:1038C00001EB002006EBC60101EB0611A0EB810124
:1038D000284801622648C17D807D01EB0020401B05
:1038E00001B2244841812248417E007E01EB002044
:1038F00006EBC60101EB061100E014E0A0EB81012C
:103900001C4841621A48C17E807E01EB0020401BAA
:1039100001B2184881810120164981F82800002051
:1039200081F8400062E013480078E12804D117A133
:10393000174802F0C7FA59E00E480078E22855D03F
:103940000C480078C0284AD1094800794D284DD14B
:1039500007484079492849D105488079432845D10D
:103960000348C0794B2841D114E00000A600002094
:1039700026040020780200207C0100200000C842BC
:103980000000000000005940000000004F4B0A00FA
:10399000001001401EA003F01DF8012080F31388E1
:1039A00000BF00BF00BF00BF00BF00BFBFF34F8F0D
:1039B00000BF00BF00BF1F48006800F4E0601E4960
:1039C0000843001D1B49086000BF00BF00BFBFF3D4
:1039D0004F8F00BF00BF00BF00E000BFFDE7002029
:1039E000164981F8280081F84000D2E501201349EA
:1039F00081F84200084690F8280018B9084690F867
:103A0000400010B100200E4908600120C1E500000F
:103A1000554152543120434D4420206F7843302C7F
:103A2000204E6F77207265736574204D4355210ACF
:103A3000000000000CED00E00000FA057802002014
:103A40002800002070B504460D46164619488442E9
:103A500004D13146284602F049FA29E0164884424A
:103A600004D13146284602F099FB21E013488442F4
:103A700004D13146284602F033FC19E01048844254
:103A800004D13146284602F067F811E00D4884421F
:103A900004D13146284602F00BF909E00A48844275
:103AA00004D13146284602F031FD01E000BFFEE7B7
:103AB00070BD00000010014000440040004800407C
:103AC000004C004000500040001401402DE9FC4132
:103AD00004460F4616462E48844201D1012530E0A7
:103AE0002C48844201D102252BE02B48844201D18D
:103AF000042526E02948844201D1082521E02848F0
:103B0000844201D110251CE02648844201D12025A1
:103B100017E02548844201D1402512E02348844221
:103B200001D180250DE02248844201D1851508E0AD
:103B30002048844201D1451503E01F48844200D14A
:103B400005150121284600F09BFB00978DF80460C5
:103B5000012E09D100208DF8060001208DF8070004
:103B600000208DF8050006E02EB901208DF8070031
:103B700000208DF8050069462046FEF7B9F8012EB1
:103B800003D139462046FEF729F9BDE8FC81000043
:103B9000000002400004024000080240000C024005
:103BA000001002400014024000180240001C0240B5
:103BB00000200240002402400028024000B58FB0DF
:103BC0000121880500F05CFB1848FDF74DFE00BFA1
:103BD0001648FDF7F5FE0028FAD14FF0006000907E
:103BE000134801901348029000200390282004906D
:103BF000002005904FF48060069000200790089008
:103C00004FF48070099000020A9000200B9003206E
:103C10000C9000200D900E9069460448FDF72AFF95
:103C200001210248FDF714FE0FB000BD40640240C0
:103C300004100140260A002000B58FB0012188053C
:103C400000F01EFB1648FDF70FFE00BF1448FDF7FD
:103C5000B7FE0028FAD14FF00060009011480190A3
:103C6000114802904020039000010490002005902C
:103C70004FF48060069000200790089009904FF460
:103C800080300A9000200B9003200C9000200D90B3
:103C90000E9069460248FDF7EDFE0FB000BD000032
:103CA000B8640240041001402606002000B58FB021
:103CB0000121480500F0E4FA1848FDF7D5FD00BFE2
:103CC0001648FDF77DFE0028FAD14FF00060009005
:103CD000134801901348029000200390192004908B
:103CE000002005904FF48060069000200790089017
:103CF00009904FF480300A9000200B9003200C9024
:103D000000200D900E9069460448FDF7B3FE012196
:103D10000248FDF79DFD0FB000BD00008860024025
:103D2000044400404E0A002000B58FB00121480530
:103D300000F0A6FA1848FDF797FD00BF1648FDF7FA
:103D40003FFE0028FAD14FF0006000901348019028
:103D50001348029040200390000104900020059039
:103D60004FF48060069000200790089009904FF46F
:103D700080300A9000200B9003200C9000200D90C2
:103D80000E9069460448FDF775FE01210248FDF7D3
:103D90005FFD0FB000BD0000A06002400444004081
:103DA0002606002000B58FB00121480500F068FA12
:103DB0001848FDF759FD00BF1648FDF701FE002821
:103DC000FAD14FF000600090134801901348029020
:103DD0000020039028200490002005904FF480607C
:103DE000069000200790089009904FF480300A90C8
:103DF00000200B9003200C9000200D900E9069463F
:103E00000448FDF737FE01210248FDF721FD0FB000
:103E100000BD00002860024004480040260A00203F
:103E200000B58FB00121480500F02AFA1848FDF7C7
:103E30001BFD00BF1648FDF7C3FD0028FAD14FF067
:103E400000600090134801901348029040200390B6
:103E500000010490002005904FF48060069000203F
:103E60000790089009904FF480300A9000200B9042
:103E700003200C9000200D900E9069460448FDF739
:103E8000F9FD01210248FDF7E3FC0FB000BD000081
:103E900058600240044800402606002000B58FB05C
:103EA0000121880500F0ECF91848FDF7DDFC00BFA2
:103EB0001648FDF785FD0028FAD14FF020600090EC
:103EC000134801901348029000200390282004908A
:103ED000002005904FF48060069000200790089025
:103EE00009904FF480300A9000200B9003200C9032
:103EF00000200D900E9069460448FDF7BBFD01219E
:103F00000248FDF7A5FC0FB000BD00002864024088
:103F100004140140260A002000B58FB00121880555
:103F200000F0AEF91848FDF79FFC00BF1648FDF7FA
:103F300047FD0028FAD14FF020600090134801900F
:103F40001348029040200390000104900020059047
:103F50004FF48060069000200790089009904FF47D
:103F600080300A9000200B9003200C9000200D90D0
:103F70000E9069460448FDF77DFD01210248FDF7DA
:103F800067FC0FB000BD0000A064024004140140B3
:103F900026060020F8B504460F4600223946204682
:103FA000FFF750FD7B4884422DD17B4D7A4E783E01
:103FB000FFF742FE4FF4E06000F036F946208DF83E
:103FC000000003208DF8010001208DF80200002080
:103FD0008DF80300684600F0EBF8FFF7EFFD4FF4B3
:103FE000E06000F021F93A208DF8000003208DF800
:103FF000010000208DF8020001208DF803006846C2
:1040000000F0D6F892E0654884422DD1644D644EAC
:10401000183EFFF789FE4FF4E06000F005F911202B
:104020008DF8000003208DF8010001208DF80200BA
:1040300000208DF80300684600F0BAF8FFF736FE5E
:104040004FF4E06000F0F0F810208DF8000003203D
:104050008DF8010000208DF8020001208DF803008A
:10406000684600F0A5F861E04E4884422ED14C4DE0
:10407000483D4B4E783EFFF7D3FEFFF793FE4FF4DB
:10408000E06000F0D1F80E208DF8000003208DF8DC
:10409000010001208DF8020000208DF80300684621
:1040A00000F086F84FF4E06000F0BEF80C208DF8C8
:1040B000000003208DF8010000208DF8020001208F
:1040C0008DF80300684600F073F82FE0364884420C
:1040D0002AD1314D183D304E903EFFF71DFFFFF7BE
:1040E000DDFE4FF4A06000F09FF845208DF8000041
:1040F00003208DF8010001208DF8020000208DF8CA
:104100000300684600F054F839208DF800000320C1
:104110008DF8010000208DF8020001208DF80300C9
:10412000684600F045F801E000BFFEE7012128469F
:10413000FDF78EFB00BF2846FDF742FC0128FAD1AF
:1041400001213046FDF784FB00BF3046FDF738FC07
:104150000128FAD101228021204602F0E9FA012249
:104160004021204602F0E4FA012210212846FDF702
:1041700063FC012210213046FDF75EFC0022802105
:10418000204602F0D5FA00224021204602F0D0FA63
:10419000F8BD000000100140B86402400044004037
:1041A000A060024000480040001401407047000039
:1041B00070B5002100230F22C4781CB3174C24686B
:1041C00004F4E064C4F5E064C4F30721C1F104041D
:1041D000E3B20A4144789C40E1B284781440214320
:1041E0000C07210E0E4C05786155047804F01F056C
:1041F0000124AC4005786D11AD0005F1E025C5F84E
:10420000004109E0047804F01F050124AC40054D8D
:104210000678761145F8264070BD00000CED00E0F0
:1042200000E400E080E100E002490143024A11603D
:10423000704700000000FA050CED00E000BF00BF71
:1042400000BFBFF34F8F00BF00BF00BF0948006829
:1042500000F4E06008490843001D0649086000BFFB
:1042600000BF00BFBFF34F8F00BF00BF00BF00E023
:1042700000BFFDE70CED00E00000FA05704700000C
:1042800029B1064A12680243044B1A6004E0034A4B
:1042900012688243014B1A607047000030380240B8
:1042A00029B1064A12680243044B1A6004E0034A2B
:1042B00012688243014B1A60704700004038024088
:1042C00029B1064A12680243044B1A6004E0034A0B
:1042D00012688243014B1A60704700002038024088
:1042E00029B1064A12680243044B1A6004E0034AEB
:1042F00012688243014B1A60704700004438024044
:1043000029B1064A12680243044B1A6004E0034ACA
:1043100012688243014B1A60704700002438024043
:10432000F0B5002100220024022500260223324F8E
:104330003F6807F00C0121B1042905D0082937D1C5
:1043400005E02E4F076036E02D4F076033E02A4F1F
:104350003F1F3F68C7F38056274F3F1F3F6807F056
:104360003F036EB1264FB7FBF3F7DFF88CC0ACF11B
:10437000040CDCF800C0CCF3881C07FB0CF40CE048
:104380001E4FB7FBF3F7DFF870C0ACF1040CDCF89C
:1043900000C0CCF3881C07FB0CF4174F3F1F3F688D
:1043A000C7F301477F1C7D00B4FBF5F7076002E00F
:1043B000124F076000BF00BF0F4F3F6807F0F001CA
:1043C0000909104F7A5C0768D74047600A4F3F6879
:1043D00007F4E051890A0B4F7A5C4768D740876041
:1043E000054F3F6807F46041490B064F7A5C476808
:1043F000D740C760F0BD0000083802400024F40038
:1044000000127A001400002070B50025FE4C0CB993
:10441000002070BDFD4890F83600012851D1207869
:10442000617840EA0120C0F30A00F849088060780A
:10443000C010A17840EA4110C0F30A00F349488057
:10444000A0788011E17840EA8100217940EA81205A
:10445000C0F30A00ED49888020794010617940EA74
:10446000C110C0F30A00E949C880607900118008D2
:1044700081F820006079C0F3011081F82100A07953
:10448000E17940EA0120E14981F82200207A617A4D
:1044900040EA0120DD4981F82300A07AE17A40EA70
:1044A0000120DA4981F82400207B81F82500607B17
:1044B00081F82600A07B81F82700012081F83500D3
:1044C00037E2D24890F8360002287CD120780F28B5
:1044D00005D1207E18B9E07D08B9002520E0CB4841
:1044E00090F83700B8B9CAA002F074FA002505E0C8
:1044F000615DCAA002F06EFA681CC5B2192DF7DB27
:10450000C8A002F067FAC8A002F064FA012002F025
:104510006AFFFFF793FECDA002F05CFA002078E777
:10452000681C192190FBF1F201FB1200215CA81C10
:10453000192290FBF2F302FB1300205C41EA0020F9
:10454000C0F30A00B1490880A81C192190FBF1F2C0
:1045500001FB1200205CC110E81C192290FBF2F351
:1045600002FB1300205C41EA4010C0F30A00A74997
:104570004880E81C192190FBF1F201FB1200205C3D
:104580008111281D192290FBF2F302FB1300205C1D
:1045900041EA8001681D90FBF2F302FB1300205CEE
:1045A00041EA8020C0F30A0098498880681D1921DB
:1045B00090FBF1F201FB1200205C4110A81D1922B2
:1045C00090FBF2F300E0ACE102FB1300205C41EA57
:1045D000C010C0F30A008D49C880A81D192190FBA6
:1045E000F1F201FB1200205C0111E81D192290FB81
:1045F000F2F302FB1300205C41EA0010C0F30A0052
:1046000082490881E81D192190FBF1F201FB12009B
:10461000205CC11105F10800192290FBF2F302FBA6
:104620001300205C41EA400105F1090090FBF2F320
:1046300002FB1300205C41EA4020C0F30A007349EA
:10464000488105F10900192190FBF1F201FB1200EC
:10465000205C811005F10A00192290FBF2F302FBA5
:104660001300205C41EA8010C0F30A00674988818A
:1046700005F10A00192190FBF1F201FB1200205C08
:10468000411105F10B00192290FBF2F302FB13001C
:10469000205C41EAC0005D49C88105F10C00192188
:1046A00090FBF1F201FB1200215C05F10D001922D3
:1046B00090FBF2F302FB1300205C41EA0020C0F300
:1046C0000A005249088205F10D00192190FBF1F210
:1046D00001FB1200205CC11005F10E00192290FBB5
:1046E000F2F302FB1300205C41EA4010C0F30A0021
:1046F0004649488205F10E00192190FBF1F201FBB9
:104700001200205C811105F10F00192290FBF2F3D9
:1047100002FB1300205C41EA800105F1100090FBD0
:10472000F2F302FB1300205C41EA8020C0F30A0090
:104730003649888205F11000192190FBF1F201FB46
:104740001200205C411005F11100192290FBF2F3D8
:1047500002FB1300205C41EAC010C0F30A002B49A1
:10476000C88205F11100192190FBF1F201FB120042
:10477000205C011105F11200192290FBF2F302FBFB
:104780001300205C41EA0010C0F30A001F490883AF
:1047900005F11200192190FBF1F201FB1200205CDF
:1047A000C11105F11300192290FBF2F302FB130073
:1047B000205C41EA400105F1140090FBF2F302FB9A
:1047C0001300205C41EA4020C0F30A000F494883EF
:1047D00005F11400192190FBF1F201FB1200205C9D
:1047E000811005F11500192290FBF2F302FB130072
:1047F000205C41EA8010C0F30A000449888305F177
:104800001500192140E000004E0A00207C01002024
:104810005342555320646174613A2000202030785F
:1048200025327800200D0A005342555320667261EC
:104830006D206865616420213D20307830662C2031
:104840007265736574204D43552E0A0052554E20F3
:1048500073746174653A2020534255532066726127
:104860006D206865616420213D20307830662C2001
:104870007468726F7720617761792074686973203A
:104880006672616D0A00000090FBF1F201FB1200FC
:10489000205C411105F11600192290FBF2F302FB96
:1048A0001300205C41EAC0006349C8830846B0F9A0
:1048B0000C0040F2DC51884204DD03205E4981F89F
:1048C00020000EE05C48B0F90C00B0F5FA7F04DA85
:1048D0000120594981F8200003E00220564981F85F
:1048E00020005548B0F9080040F2DC51884204DD50
:1048F0000220514981F821000EE04F48B0F908002C
:10490000B0F5FA7F04DA01204B4981F8210003E079
:104910000320494981F821000120474981F83500E9
:1049200007E00120444981F83500002081F8340077
:104930006FE5414890F83700002831D13FA002F0E0
:1049400049F800203C4981F8340000F0EFF950B1FB
:104950000220394981F83400012081F837003AA05B
:1049600002F038F81AE00120334981F834000020C1
:1049700081F8370038A002F02DF83A480078401C42
:1049800038490870084600781E2807DD36A002F076
:1049900021F8012002F027FDFFF750FC002038E548
:1049A0002548B0F9000040F6C41188422CDC2248AA
:1049B000B0F90000642827DB1F48B0F902008842E4
:1049C00022DC1D48B0F9020064281DDB1A48B0F94A
:1049D0000400884218DC1848B0F90400642813DB8E
:1049E000154890F8200003280EDC134890F82000AA
:1049F000012809DB104890F82100032804DC0E4848
:104A000090F8210001280ADA1EA001F0E3FF00F06F
:104A100043F80320084981F834000020F9E40F200E
:104A2000054981F8340000F03DFB0348006B401C51
:104A3000014908630120ECE47C0100205243204935
:104A40006E6974200000000073756363657373669C
:104A5000756C210A000000006661696C65642E2E89
:104A60000A000000760000206661696C645F74696A
:104A70006D65733E3330207265736574204D435508
:104A80002E2E0A0052432052656D6F7465204552E8
:104A9000524F520A0000000010B5864890F83600C8
:104AA000012854D184A1874801F00CFA8148B0F95B
:104AB0000010844801F0D8F90921824801F0C5F9B5
:104AC00081A1804801F0FEF97A48B0F902107D48D2
:104AD00001F0CAF909217B4801F0B7F97CA17948B6
:104AE00001F0F0F97348B0F90410764801F0BCF910
:104AF0000921744801F0A9F977A1724801F0E2F99F
:104B00006C48B0F906106F4801F0AEF909216D4804
:104B100001F09BF972A16B4801F0D4F9654890F857
:104B20002010684801F0A0F90921664801F08DF9CC
:104B30006DA1644801F0C6F95E4890F82110614803
:104B400001F092F90A215F4801F07FF978E05948B5
:104B500090F83600022873D165A15A4801F0B2F9E5
:104B60005448B0F90010574801F07EF90921554822
:104B700001F06BF94F48B0F90210524801F074F996
:104B80000921504801F061F94A48B0F904104D4834
:104B900001F06AF909214B4801F057F94548B0F98D
:104BA0000610484801F060F90921464801F04DF926
:104BB0004048B0F90810434801F056F9092141482E
:104BC00001F043F93B48B0F90A103E4801F04CF9B6
:104BD00009213C4801F039F93648B0F90C10394840
:104BE00001F042F90921374801F02FF93148B0F9B5
:104BF0000E10344801F038F90921324801F025F946
:104C000037A1304801F05EF92A4890F820102D486D
:104C100001F02AF909212B4801F017F932A129489E
:104C200001F050F9234890F82110264801F01CF9B2
:104C30000A21244801F009F90A21224801F005F966
:104C40002EA1204801F03EF91A48B0F928101D485D
:104C500001F00AF909211B4801F0F7F82AA11948C7
:104C600001F030F91348B0F92A10164801F0FCF8A9
:104C70000921144801F0E9F826A1124801F022F9AF
:104C80000C48B0F92C100F4801F0EEF809210D483E
:104C900001F0DBF822A10B4801F014F90548B0F946
:104CA0002E10084801F0E0F80A21064801F0CDF87E
:104CB00010BD00007C010020444255533A2020637F
:104CC00068313A00001401406368323A0000000085
:104CD0006368333A000000006368343A0000000063
:104CE0007377313A000000007377323A0000000019
:104CF000534255533A20206368313A006368315F6C
:104D00006F66667365743A006368325F6F666673D8
:104D100065743A006368335F6F66667365743A0062
:104D20006368345F6F66667365743A0070B5844873
:104D3000B0F90000B0F5617F05DB8148B0F90000F3
:104D4000B0F5966F07DD7E48B0F900107DA001F048
:104D500041FE002070BD7A48B0F90200B0F5617FD5
:104D600005DB7748B0F90200B0F5966F04DD81A04D
:104D700001F030FE0020EDE77148B0F90400B0F515
:104D8000617F05DB6E48B0F90400B0F5966F04DD75
:104D900081A001F01FFE0020DCE76948B0F90600A1
:104DA000B0F5617F05DB6648B0F90600B0F5966F97
:104DB00004DD82A001F00EFE0020CBE788480078D9
:104DC00040B9002087490860874908608749086022
:104DD000874908605A48B0F90000824909680844C8
:104DE000804908605648B0F902007F4909680844C4
:104DF0007D4908605248B0F904007C4909680844BC
:104E00007A4908604E48B0F90600794909680844B3
:104E10007749086072480078401C7149087008465C
:104E200000780A287EDB6F480068097890FBF1F073
:104E300000B2434908856C4800686949097890FBCD
:104E4000F1F000B23E494885684800686449097835
:104E500090FBF1F000B23A498885654800686049E6
:104E6000097890FBF1F000B23549C8850C46248DD5
:104E70009CB30C46648D84B30C46A48D6CB30C4675
:104E8000E48D54B30C46B4F92830002B01DB1C46EA
:104E900000E05C4240F6C415AC4224DC284CB4F976
:104EA0002A20002A01DB144600E0544240F6C415D3
:104EB000AC4218DC224CB4F92C10002901DB0C4662
:104EC00000E04C4240F6C415AC420CDC1C4CB4F97A
:104ED0002E00002802DB044601E004E0444240F6D4
:104EE000C415AC4217DDFFF7D7FD0020144981F847
:104EF00034003B4908703B4908603B4908603B4926
:104F000008603B4908603BA001F064FD012002F00D
:104F10006AFAFFF793F90120094981F83400304813
:104F2000007800E002E00863012013E70020044954
:104F300081F834002A480078086300200AE700005E
:104F40007C01002072632E636831203C20393030B0
:104F500029207C7C202872632E636831203E20311A
:104F60003230302921202020646174613A25640A9E
:104F70000000000072632E636832203C203930301C
:104F800029207C7C202872632E636832203E2031E9
:104F900032303029210A000072632E636833203CCE
:104FA0002039303029207C7C202872632E636833BE
:104FB000203E203132303029210A000072632E63F6
:104FC0006834203C2039303029207C7C20287263D2
:104FD0002E636834203E203132303029210A00000F
:104FE0007400002064000020680000206C00002095
:104FF0007000002072632E6368315F6F66667365B0
:1050000074203D3D3020207265736574204D4355FA
:10501000210A000010B5002416491748FEF7BAFF10
:1050200001224021144801F083FB0220134981F83A
:105030003600134800781249087014E011480078CF
:1050400010B1FFF7E1F90EE04FF480410E48FCF794
:105050004BFE4FF4803400BF201EA4F10104FBD1AD
:105060000AA001F0B7FC054890F834000028E5D00C
:10507000012010BDA0860100004400407C010020FA
:105080007500002040000020001402407761697420
:1050900020666F7220524320696E69742E2E2E0A8C
:1050A000000000002DE9F0412DED0A8B9FED620A12
:1050B00010EE106A002500270024604890F82000B8
:1050C00001287DD05D4890F834000028F9D00420F4
:1050D00000F0BCF8002873D1584890F8210001284E
:1050E00004D1B7EE000A10EE106A17E0534890F8AA
:1050F0002100032804D1B0EE000A10EE106A0DE082
:105100004E4890F82100022804D1B1EE000A10EEBA
:10511000106A03E09FED480A10EE106A4748B0F9A4
:1051200000004649B1F92810451A4448B0F9020078
:105130004249B1F92A10471A4048B0F904003F49E2
:10514000B1F92C10441A281E01DB014600E041424F
:10515000322900DA0025381E01DB014600E0414219
:10516000322900DA0027201E01DB014600E041421F
:10517000322900DA00243248007800F00300E0BB56
:105180003046FBF722FA41EC1A0B6842FBF7FFF9B5
:1051900041EC1C0B9FED2B0B53EC102BFBF788F90C
:1051A00041EC1B0B53EC1A2BFBF710F941EC190BDC
:1051B000FBF736FA08EE100A3046FBF706FA00E075
:1051C00036E041EC1A0B2046FBF7E1F941EC1C0BF1
:1051D0009FED1C0B53EC102BFBF76AF941EC1B0BFA
:1051E00053EC1A2BFBF7F2F841EC190BFBF718FA0A
:1051F00008EE900AF0EE480A00E004E0B0EE680A1B
:10520000FCF778FC14E00E48007800F00300012859
:105210000ED00B48007800F00300022806D13CB9FC
:10522000064890F82000032802D001E004480078E6
:10523000BDEC0A8BBDE8F081000000007C0100207D
:10524000750000200000000000A0844070B50446F6
:10525000FF25012C08D120211448FCF7B4FD08B922
:10526000012521E000251FE0022C08D110210F4864
:10527000FCF7A9FD08B9012516E0002514E0032C70
:1052800008D108210948FCF79EFD08B901250BE06B
:10529000002509E0042C07D104210448FCF793FD04
:1052A00008B9012500E00025284670BD0010024025
:1052B00000B587B001210846FEF7E2FF012108038F
:1052C000FFF70EF802208DF8180000208DF81A0064
:1052D000E020059001208DF81B0003208DF81900B7
:1052E00005A92048FCF704FD052211461D48FCF7DE
:1052F00047FD052206211B48FCF742FD0522072138
:105300001848FCF73DFD01210803FEF7F9FF0021D5
:105310004FF48050FEF7F4FF3820ADF80C00012068
:10532000ADF808000220ADF806000720ADF8100027
:105330000020ADF80400ADF80000ADF80E004FF409
:105340008270ADF802004FF40070ADF80A006946B3
:10535000054800F055F80121034800F037F807B080
:1053600000BD0000000002400030014010B50446BE
:1053700000BF02210A4800F035F80028F9D0214684
:10538000074800F03BF800BF0121054800F02AF86B
:105390000028F9D0024800F02EF8C0B210BD00007D
:1053A0000030014010B50446074800884FF6C77129
:1053B00008400549088008460088204308800121EC
:1053C000014800F003F810BD0030014021B102880F
:1053D00042F04002028004E002884FF6BF731A4098
:1053E000028070470246002013890B400BB1012058
:1053F00000E000207047014688897047818170472E
:1054000010B50022028802F441520B884C882343D5
:105410008C882343CC8823430C8923434C89234322
:105420008C892343CC8923431A430280838B4FF218
:10543000FF74234083830B8A038210BD70470000F2
:105440000CB50020019000903448006840F4803092
:105450003249086000BF3148006800F40030009015
:105460000198401C0190009818B90198B0F5A04F20
:10547000F1D12A48006800F4003010B101200090FA
:1054800001E0002000900098012846D123484030D8
:10549000006840F080502149403108602048006891
:1054A00040F440401E4908601C48083000681B4911
:1054B000083108600846006840F40040086008466B
:1054C000006840F4A05008601648091F0860081FD3
:1054D000006840F08070091F086000BF0F48006836
:1054E00000F000700028F9D040F205700E49086005
:1054F0000A480830006820F00300084908310860B5
:105500000846006840F00200086000BF0348083009
:10551000006800F00C000828F8D10CBD00380240EB
:105520000070004008544007003C024070B505463A
:105530000C46012D16D154B120213048FCF74EFC09
:105540002F48007840F001002D49087054E02021D8
:105550002A48FCF741FC2A48007800F0FE00284960
:10556000087049E0022D16D154B110212348FCF7F0
:1055700035FC2348007840F00200214908703BE0E8
:1055800010211E48FCF728FC1D48007800F0FD00A3
:105590001B49087030E0032D16D154B1082117487B
:1055A000FCF71CFC1648007840F004001449087011
:1055B00022E008211148FCF70FFC1148007800F0A8
:1055C000FB000F49087017E0042D15D154B10421D8
:1055D0000A48FCF703FC0A48007840F00800084934
:1055E000087009E004210548FCF7F6FB0448007840
:1055F00000F0F7000249087070BD0000001402407E
:105600005C0000200448006820B103480068401E88
:1056100001490860704700009C00002030B519481F
:105620000068194AB0FBF2F1481EB0F1807F01D347
:1056300001201BE0481E4FF0E022506150170F225E
:10564000002807DA13071D0E104B00F00F04241F6B
:105650001D5503E013071C0E0D4B1C5400BF00200A
:105660004FF0E022906107201061002008B100BFD8
:10567000FEE74FF0E020006920F001004FF0E0214C
:10568000086130BD00000020A086010018ED00E098
:1056900000E400E010B51548006840F470001349BC
:1056A00008601348006840F00100114908600020BC
:1056B0000F49083108600E4800680E4908400C493F
:1056C00008600D48091D0860081F006820F480204C
:1056D000091F0860002006490C310860FFF7B0FE82
:1056E0004FF0006001498039086010BD88ED00E08E
:1056F00000380240FFFFF6FE1030002410B50121F3
:10570000880700F079F818B10121880700F065F8E2
:1057100010BD000010B501210E4800F06DF8C0B1B9
:105720000D480068401C0C4908600C480068401C8B
:105730000A49086008480068FBF7AEFE06480068A2
:10574000042802D30020044908600121014800F028
:1057500044F810BD001000404C0000203C00002028
:1057600010B50121144800F047F818B31348006839
:10577000401C1249086012480068401C104908602B
:1057800010480068401C0F4908600F480068401C22
:105790000D4908600D480068401C0C4908600C4821
:1057A0000068401C0A490860FBF7CEFE0121024850
:1057B00000F013F810BD0000001400402400002089
:1057C000280000202C0000203000002034000020A1
:1057D00038000020CA4302827047CA4302827047E1
:1057E00021B1028842F00102028004E002884FF6F3
:1057F000FE731A400280704730B502460020002335
:105800000024158A05EA0103958905EA010413B10C
:105810000CB1012000E0002030BD1AB183890B4398
:10582000838102E083898B43838170470022028851
:10583000184B98420ED0184B98420BD0B0F1804FC5
:1058400008D0164B984205D0154B984202D0154B04
:10585000984204D14FF68F731A404B881A43124B6B
:10586000984207D0114B984204D04FF6FF431A409C
:105870000B891A4302804B68C3620B880385054B72
:10588000984202D0044B984201D18B7A03860123BF
:105890008382704700000140000401400004004082
:1058A00000080040000C00400010004000140040C0
:1058B0007FB504460D46B4F1804F34D14FF4E0601B
:1058C000FEF7B2FC1C208DF8000000208DF80100CE
:1058D00002208DF8020001208DF803006846FEF7D3
:1058E00067FC01210846FEF7DBFC681E029053208E
:1058F000ADF804000020ADF80C00ADF8060001A9D9
:105900004FF08040FFF792FF01218807FFF762FF09
:10591000012211469007FFF780FF00214FF08040E1
:10592000FFF75EFFA0E08348844232D14FF4E0608D
:10593000FEF77AFC1D208DF8000000208DF8010094
:1059400003208DF8020001208DF803006846FEF761
:105950002FFC01210220FEF7A3FC681E02905320B9
:10596000ADF804000020ADF80C00ADF8060001A968
:105970002046FFF75BFF01212046FFF72BFF0122A6
:1059800011462046FFF749FF00212046FFF728FF78
:105990006AE06948844232D14FF4E060FEF744FC8B
:1059A0001E208DF8000000208DF8010004208DF8E5
:1059B000020001208DF803006846FEF7F9FB012183
:1059C0000420FEF76DFC681E02905320ADF8040021
:1059D0000020ADF80C00ADF8060001A92046FFF745
:1059E00025FF01212046FFF7F5FE01221146204642
:1059F000FFF713FF00212046FFF7F2FE34E04F4887
:105A0000844231D14FF4E060FEF70EFC32208DF875
:105A1000000000208DF8010005208DF80200012013
:105A20008DF803006846FEF7C3FB01210820FEF74E
:105A300037FC681E02905320ADF804000020ADF83A
:105A40000C00ADF8060001A92046FFF7EFFE01218A
:105A50002046FFF7BFFE012211462046FFF7DDFE7C
:105A600000212046FFF7BCFE354884422DD14FF47B
:105A7000E060FEF7D9FB36208DF8000000208DF89D
:105A8000010006208DF8020001208DF80300684611
:105A9000FEF78EFB01211020FEF702FC681E02902B
:105AA0005320ADF8040001A92046FFF7BFFE0121F5
:105AB0002046FFF78FFE012211462046FFF7ADFE7C
:105AC00000212046FFF78CFE32E01E4884422DD193
:105AD0004FF4E060FEF7A8FB37208DF800000020AF
:105AE0008DF8010007208DF8020001208DF80300D9
:105AF0006846FEF75DFB01212020FEF7D1FB681E02
:105B000002905320ADF8040001A92046FFF78EFE55
:105B100001212046FFF75EFE012211462046FFF7D5
:105B20007CFE00212046FFF75BFE01E000BFFEE7A0
:105B30007FBD00000004004000080040000C004051
:105B4000001000400014004010B50446012120461A
:105B5000FFF746FE10BD000030B587B005460C4685
:105B600001210420FEF78CFB00208DF81A00012093
:105B70008DF81B0002208DF819004FF4406005904D
:105B800002208DF8180005A91C48FCF7B1F808227E
:105B90000A211A48FCF7F4F808220B211748FCF7F1
:105BA000EFF80121C804FEF77BFB01950020ADF85A
:105BB0000800ADF80A00ADF80C00ADF810000C209C
:105BC000ADF80E0001A90E4800F018FE012C08D116
:105BD00000F058F8012240F22551094800F0E8FD94
:105BE00005E0002240F22551054800F0E1FD0121C9
:105BF000034800F091FD07B030BD000000080240EE
:105C0000004C004010B501211D4800F0A7FD30B147
:105C10001B4800F05DFE0121194800F065FD0821D8
:105C2000174800F09BFD30B1154800F051FE0821E7
:105C3000134800F059FD0221114800F08FFD30B1EA
:105C40000F4800F045FE02210D4800F04DFD40F2E6
:105C500025510B4800F082FD80B12021084800F05A
:105C600043FD40F22551064800F047FD044800F08E
:105C70002FFEC4B22146024800F02FFE10BD0000E6
:105C8000004C004008B54FF4A060FEF7CDFA342078
:105C90008DF8000003208DF8010002208DF802002D
:105CA00001208DF803006846FEF782FA08BD000067
:105CB00030B587B005460C4601210C20FEF7E0FA0E
:105CC00000208DF81A0001208DF81B0002208DF8AD
:105CD0001900C002059002208DF8180005A921487E
:105CE000FCF706F80420059002208DF8180005A99D
:105CF0001D48FBF7FDFF08220C211A48FCF740F86D
:105D0000082202211848FCF73BF801210805FEF79C
:105D1000C7FA01950020ADF80800ADF80A00ADF80B
:105D20000C00ADF810000C20ADF80E0001A90F48D2
:105D300000F064FD012C08D100F05AF8012240F275
:105D400025510A4800F034FD05E0002240F22551BB
:105D5000064800F02DFD0121044800F0DDFC07B0ED
:105D600030BD000000080240000C0240005000401E
:105D700010B501211D4800F0F1FC30B11B4800F0C6
:105D8000A7FD0121194800F0AFFC0821174800F0D9
:105D9000E5FC30B1154800F09BFD0821134800F0E8
:105DA000A3FC0221114800F0D9FC30B10F4800F0EB
:105DB0008FFD02210D4800F097FC40F225510B4861
:105DC00000F0CCFC80B12021084800F08DFC40F2AE
:105DD0002551064800F091FC044800F079FDC4B25A
:105DE0002146024800F079FD10BD0000005000403F
:105DF00008B54FF4A060FEF717FA35208DF80000C3
:105E000003208DF801008DF8020001208DF80300B9
:105E10006846FEF7CDF908BD2DE9F04107460C466E
:105E20001546002600BF0CE014F8011B384600F0B0
:105E300054FD00BF8021384600F083FC0028F9D0D3
:105E4000761CAE42F0D3BDE8F08170B504460D4635
:105E50002946204600F041FD00BF8021204600F089
:105E600070FC0028F9D070BDFEB507460E463546D9
:105E700000208DF8000001240CE00A20B5FBF0F1B1
:105E800000FB115030300DF804000A20B5FBF0F58E
:105E9000601CC4B20A20B5FBF0F00028EDD10A2046
:105EA000B5FBF0F100FB115030300DF8040006E0B6
:105EB0001DF804103846FFF7C8FF601EC4B2002C5E
:105EC000F6DCFEBD70B505460C460BE014F8011B70
:105ED000284600F002FD00BF8021284600F031FC7A
:105EE0000028F9D020780028F0D170BD30B587B0F7
:105EF00005460C4601210846FEF7C2F900208DF840
:105F00001A0001208DF81B0002208DF819000002F4
:105F1000059002208DF8180005A92148FBF7E8FE3E
:105F20004FF48060059002208DF8180005A91C48E8
:105F3000FBF7DEFE07220A211948FBF721FF0722A3
:105F400009211748FBF71CFF01211020FEF7C8F9B3
:105F500001950020ADF80800ADF80A00ADF80C007E
:105F6000ADF810000C20ADF80E0001A90D4800F0AE
:105F700045FC012C08D100F0FDF8012240F225512A
:105F8000084800F015FC05E0002240F225510548C4
:105F900000F00EFC0121034800F0BEFB07B030BD4D
:105FA000000002400010014010B50121674800F0D8
:105FB000D5FB30B1654800F08BFC0121634800F04F
:105FC00093FB0821614800F0C9FB30B15F4800F045
:105FD0007FFC08215D4800F087FB02215B4800F050
:105FE000BDFB30B1594800F073FC0221574800F066
:105FF0007BFB40F22551554800F0B0FB002832D021
:106000002021524800F070FB40F225514F4800F02B
:1060100074FB4E4800F05CFCC4B24D4800784D491A
:1060200008704B4804700078EA281DD108460078B3
:10603000AE2819D10020484908800120474908703E
:1060400044480178444802880088401C424B18802C
:10605000434881543E480178184602880088401C15
:1060600018803F4881546FE03C480078012866D191
:1060700039480088022862DB3748008803280ADA9A
:1060800033480178344802880088401C324B18801D
:106090003348815458E032488078801C2E49098862
:1060A00088420ADD2A4802782B4801880088401C73
:1060B000294B18802A48425446E029488078801CA1
:1060C0002549098888420ED121480078EF280AD155
:1060D0001F480178204802880088401C1E4B188009
:1060E0001F48815430E01E488078C01C1A49098836
:1060F00088421ED116480078FE281AD1144801782B
:10610000154802880088401C134B1880144881549D
:10611000184600881349088001201349087041037C
:106120001248FBF7E1FD0020114908600B49087097
:106130000AE00020094908700749088004E00020AF
:10614000054908800549087010BD00000010014095
:106150005700002058000020540000205600002066
:1061600026040020A4000020A60000200014024005
:106170002800002008B54FF4A060FEF755F8252050
:106180008DF8000001208DF801008DF802008DF8D7
:1061900003006846FEF70CF808BD000030B587B074
:1061A00005460C4601210846FEF76AF800208DF8E6
:1061B0001A0001208DF81B0002208DF819000C2018
:1061C000059002208DF8180005A91C48FBF790FDEA
:1061D000072203211948FBF7D3FD072202211748A4
:1061E000FBF7CEFD01214804FEF75AF80195002087
:1061F000ADF80800ADF80A00ADF80C00ADF81000DD
:106200000C20ADF80E0001A90D4800F0F7FA012CA2
:1062100008D100F051F8012240F22551084800F061
:10622000C7FA05E0002240F22551054800F0C0FA07
:106230000121034800F070FA07B030BD00000240B1
:106240000044004010B501211A4800F087FA30B12F
:10625000184800F03DFB0121164800F045FA0821DE
:10626000144800F07BFA30B1124800F031FB0821ED
:10627000104800F039FA02210E4800F06FFA30B1F0
:106280000C4800F025FB02210A4800F02DFA40F2EC
:106290002551084800F062FA58B12021054800F065
:1062A00023FA40F22551034800F027FA014800F094
:1062B0000FFB10BD0044004008B54FF4A060FDF78F
:1062C000B3FF26208DF8000002208DF801008DF824
:1062D000020001208DF803006846FDF769FF08BD44
:1062E00030B587B005460C4601210220FDF7C8FFF6
:1062F00000208DF81A0001208DF81B0002208DF877
:1063000019004FF44060059002208DF8180005A98F
:106310001C48FBF7EDFC07220A211A48FBF730FD69
:1063200007220B211748FBF72BFD01218804FDF7FD
:10633000B7FF01950020ADF80800ADF80A00ADF8F0
:106340000C00ADF810000C20ADF80E0001A90E48AD
:1063500000F054FA012C08D100F0C4F8012240F2F8
:106360002551094800F024FA05E0002240F22551A9
:10637000054800F01DFA0121034800F0CDF907B0EF
:1063800030BD0000000402400048004010B501216B
:106390004E4800F0E3F930B14C4800F099FA012181
:1063A0004A4800F0A1F90821484800F0D7F930B177
:1063B000464800F08DFA0821444800F095F9022182
:1063C000424800F0CBF930B1404800F081FA022198
:1063D0003E4800F089F940F225513C4800F0BEF9F2
:1063E000002872D02021394800F07EF940F2255172
:1063F000364800F082F9354800F06AFAC4B23448F1
:106400000078E0B93348007801285CD1032C5AD1D8
:106410000020314908702F490A782F490878411C1B
:106420002D4B19702D490A5419460878411C1A46FB
:1064300011702A490C5401202549087043E0244872
:10644000007801283AD124480078022836DB224817
:106450000078032807DA20490878411C1E4A117089
:106460001E490C5420E01D488078401D1A490978C7
:10647000884214DD18490878411C174A11701749E1
:106480000C5408468078401D1146097888420BD18B
:1064900002200F49087001201149087004E0002013
:1064A0000B4908700C4908700B48007864280ADB17
:1064B0000020074908700849087004E000200449DA
:1064C0000870054908700348047010BD004800407A
:1064D0005200002050000020510000201402002033
:1064E0004200002008B54FF4A060FDF79DFE272074
:1064F0008DF8000003208DF8010001208DF80200C6
:106500008DF803006846FDF753FE08BD30B587B02F
:1065100005460C4601210420FDF7B2FE00208DF84F
:106520001A0001208DF81B0002208DF81900C020F0
:10653000059002208DF8180005A91C48FBF7D8FB30
:10654000082206211948FBF71BFC082207211748DF
:10655000FBF716FC01212020FDF7C2FE019500206B
:10656000ADF80800ADF80A00ADF80C00ADF8100069
:106570000C20ADF80E0001A90D4800F03FF9012CE8
:1065800008D100F09DF8012240F22551084800F0A2
:106590000FF905E0002240F22551054800F008F906
:1065A0000121034800F0B8F807B030BD00080240F0
:1065B0000014014010B501213B4800F0CFF830B184
:1065C000394800F085F90121374800F08DF808219D
:1065D000354800F0C3F830B1334800F079F90821AC
:1065E000314800F081F802212F4800F0B7F830B1AF
:1065F0002D4800F06DF902212B4800F075F840F2AB
:106600002551294800F0AAF800284CD0202126481E
:1066100000F06AF840F22551234800F06EF8234854
:10662000007823490870204800F052F91F4908708B
:1066300008460078EA2817D11D480078AE2813D103
:1066400001201C4908701A4800781B491B4A12880F
:1066500088541A480088401C184908800846008859
:10666000FF2801DD002008801248007880B10F4823
:1066700001781148114A1288815410480088401C42
:106680000E49088008460088FF2801DD00200880A8
:1066900006480078FE2806D105480078EF2802D188
:1066A00000200449087010BD001401405A00002069
:1066B0005B0000205900002026050020A8000020D3
:1066C00008B54FF4A060FDF7AFFD47208DF800003E
:1066D00003208DF8010001208DF802008DF80300E1
:1066E0006846FDF765FD08BD01F40072B2F5007F54
:1066F00000D100BFCA430280704710B500220023BA
:1067000040F66A14A14200D100BF0A12012494404D
:10671000A3B2DC43048010BD21B1828942F400524F
:10672000828104E082894DF6FF731A4082817047AE
:106730001AB1838A0B43838202E0838A8B4383826C
:10674000704702460020B1F5007F00D100BF1388DA
:106750000B400BB1012000E00020704770B50246ED
:10676000002400230025002040F66A16B14200D123
:1067700000BFC1F3421501F01F03012606FA03F31F
:10678000012D02D19689334006E0022D02D1168AEE
:10679000334001E0968A33400C12012606FA04F4D5
:1067A0001688344013B10CB1012000E0002070BD08
:1067B000F0B50346002400260025002040F66A17A5
:1067C000B94200D100BF1846C1F3421401F01F06C0
:1067D000012707FA06F5012C01D10C3004E0022C48
:1067E00001D1103000E014301AB107682F43076060
:1067F00002E00768AF430760F0BD00002DE9FF47E6
:1068000005460E460024A14600BFA046B08900B14F
:1068100000BF2C8A24F44054F08804432C82AC89B5
:1068200041F20C608443B088318908437189084380
:106830000443AC81AC8A24F44074B0890443AC8234
:106840006846FDF76DFD2048854202D01F4885420D
:1068500002D1DDF80C9001E0DDF80890A88900F481
:10686000004040B109EBC90000EB09103168490054
:10687000B0FBF1F707E009EBC90000EB0910316844
:106880008900B0FBF1F76420B7FBF0F004012009A8
:10689000642101FB1078A88900F4004040B1322047
:1068A00000EBC800B0FBF1F000F00700044308E083
:1068B000322000EB08106421B0FBF1F000F00F0073
:1068C00004432C81BDE8FF87001001400014014003
:1068D00001468888C0F308007047C1F3080282802F
:1068E000704700BFFEE700001CB501210846FDF718
:1068F000C7FC01208DF8040000208DF80600102050
:10690000009001208DF8070003208DF805006946EE
:106910000748FBF7EDF9012006490860FEF7C8FCBF
:106920000820FEF73FFD00F031F8034908801CBD48
:1069300000000240900240429A0000202DE9F04100
:1069400006460C46174600200F4908600320FEF754
:106950000DFDC4F30740FEF709FDC4F30720FEF761
:1069600005FDE0B2FEF702FD002505E0FF20FEF781
:10697000FDFC7055681C85B2BD42F7DB0120024961
:106980000860BDE8F08100009002404210B500248C
:1069900000200E4908609020FEF7E8FC0020FEF77A
:1069A000E5FC0020FEF7E2FC0020FEF7DFFCFF2004
:1069B000FEF7DCFC44EA0024FF20FEF7D7FC04438A
:1069C00001200349C1F89002204610BD90024042C8
:1069D000000040420FB4054B10B503A9044A0298C9
:1069E00000F0CEFD10BC5DF814FB0000E18900084A
:1069F000E800002003B401984100009850EAC1204B
:106A000018BF04204A0D18BF40F0010040F2FF7289
:106A1000B2EB515F08BF40F00200012808BF05201B
:106A200002B070470000000070B5C1482DED020BA8
:106A30002DED0E8B82B0119D25F000449FEDBEDB45
:106A40009FEDBFEB84423EDBA4F140511098A1F1D1
:106A50007F6108430FD0BC48844202DC28D11098E3
:106A600030B39DED100B02B0BDEC0E8B02B0BDE853
:106A7000704000F073BC9DED100B53EC1D2B51ECDE
:106A8000100BF9F7A3FC9DED100B41EC180B53EC28
:106A90001E2B51EC100BF9F799FC53EC182BF9F75E
:106AA000EEFB41EC100B02B0BDEC0E8B02B070BDE2
:106AB000012000F09DFC02B0BDEC0E8B02B0BDE8E1
:106AC000704000F061BCA1489FEDA18B844256DA72
:106AD0009DED100BB4F1795F0ADA51EC100BFFF762
:106AE00089FF042808BF00F05FFC9DED100BDAE77A
:106AF00053EC102B51EC100BF9F768FC41EC190B1F
:106B000095480621B0EE490AF0EE690A784400F093
:106B1000A9FB53EC192B51EC100BF9F757FC41EC86
:106B20001A0B8E48B0EE490AF0EE690A0421784447
:106B300000F098FB53EC192B51EC100BF9F746FCC5
:106B400053EC182BF9F79BFB41EC100B51EC1A0B93
:106B500053EC102BF9F7ACFCCDE900019DED000BD7
:106B600053EC102B9DED100B51EC100BF9F72EFC94
:106B70009DED101B53EC112BF9F781FBD2E09DED3D
:106B8000100B51EC100B01F01FFF53EC182BF9F711
:106B90001AFC9FED730BCDE9000153EC102B9DED1A
:106BA000000B51EC100BF9F711FC41EC190B6E487E
:106BB0000621B0EE490AF0EE690A784400F052FB73
:106BC00053EC192B51EC100BF9F700FC41EC1B0BAB
:106BD0006648B0EE490AF0EE690A0421784400F0F4
:106BE00041FB53EC192B51EC100BF9F7EFFB53EC75
:106BF000182BF9F744FB41EC1C0B51EC190B03F07B
:106C00001BFE41EC180B5A489FED5BABA04222DC07
:106C100053EC1C2B51EC1B0BF9F74AFCCDE900019E
:106C20009DED000B51EC180B53EC102BF9F7CEFB3C
:106C300053EC182BF9F723FB53EC1A2BF9F7C6FB8F
:106C400053EC1D2BF9F7BCFB53EC1E2BF9F7BBFBE8
:106C500041EC100B5FE08DED008B002000909DED6E
:106C6000000B51EC180B53EC102BF9F708FB9DEDC2
:106C7000000B41EC1E0B53EC102B51EC100BF9F7F1
:106C8000A5FB53EC192BF9F79EFB53EC1E2BF9F7E0
:106C90000FFC41EC190B53EC1C2B51EC1B0BF9F7BF
:106CA00007FC41EC1B0B53EC1A2B51EC190BF9F7B9
:106CB0008DFB53EC1D2BF9F786FB41EC190B53ECC4
:106CC0001A2B51EC180BF9F781FB53EC1B2BF9F73E
:106CD0007DFB53EC192BF9F773FB9DED000B41EC99
:106CE000180B53EC1A2B51EC100BF9F76FFB9FEDBF
:106CF000249B53EC192BF9F766FB41EC100B51EC7C
:106D0000180B53EC102BF9F75BFB53EC192BF9F72D
:106D10005AFB41EC100B002D3FF7C5AE51EC100BA8
:106D200081F0004141EC100BBDE6000000000000C6
:106D30000000F03F00000000075C143326A6913CE1
:106D4000182D4454FB21F93F0000F07F0000E03F84
:106D5000000000000000F03FE0490000EE490000A4
:106D6000000000000000E03F324900004049000000
:106D70003333EF3F0000000000000000000000403F
:106D8000182D4454FB21E93F70B59B482DED020BB3
:106D90002DED068B079D25F00044A04218DC974896
:106DA000844202DC0AD1069840B19DED060BBDEC91
:106DB000068B02B0BDE8704000F0D0BA002DCCBF09
:106DC0009FED8F0B9FED900BBDEC068B02B070BD5D
:106DD0008F48A04215DD8F48A042D8BF4FF0FF3446
:106DE00058DD9DED060B51EC100BFFF703FE042858
:106DF00008BF00F0D9FA9DED060BBDEC068B02B082
:106E000070BD9DED060B51EC100B01F0DDFDCDE9E1
:106E1000060181489FED828BA0423CDD8248A04262
:106E20001FDD00249FED82AB9DED060B53EC1A2B6A
:106E300051EC100BF9F723FA9DED060B41EC190B01
:106E400053EC1A2B51EC100BF9F7C0FA53EC182B3A
:106E5000F9F7B6FA53EC192BF9F72AFBCDE906013D
:106E600049E09DED060B012453EC182B51EC100B5F
:106E7000F9F705FA9DED060B41EC190B53EC182BB5
:106E800051EC100BF9F79CFA53EC192BF9F710FBA6
:106E9000CDE906012FE06848A0421FDD02249FEDE6
:106EA000689B9DED060B53EC192B51EC100BF9F779
:106EB0008DFA53EC182BF9F7E2F99DED060B41EC36
:106EC000180B53EC192B51EC100BF9F779FA53EC22
:106ED000182BF9F7EDFACDE906010CE09DED060B54
:106EE000032453EC102B9FED580B51EC100BF9F7CA
:106EF000DFFACDE906019DED060B53EC102B51ECAA
:106F0000100BF9F763FA41EC180B53EC182BF9F757
:106F10005DFA41EC190B4E480621B0EE490AF0EE3D
:106F2000690A784400F09EF953EC182B51EC100BD1
:106F3000F9F74CFA41EC180B4648B0EE490AF0EE6E
:106F4000690A0521784400F08DF953EC192B51ECB6
:106F5000100BF9F73BFA41EC100B51EC180B53EC0A
:106F6000102B002C0EDAF9F78AF99DED061B53EC75
:106F7000112BF9F72BFA9DED061B53EC112BF9F7AA
:106F800022FA35E0F9F77BF99DED061B53EC112B46
:106F9000F9F71CFA41EC100B2F48784400EBC400C1
:106FA00090ED001B51EC100B53EC112BF9F708FA84
:106FB0009DED061B53EC112BF9F702FA41EC100B77
:106FC0002648784400EBC40090ED001B51EC100BF8
:106FD00053EC112BF9F7F7F941EC100B002DA2BF80
:106FE000BDEC068B02B070BD51EC100B81F000417E
:106FF00041EC100B01E70000000010440000F07F9E
:10700000182D4454FB21F93F182D4454FB21F9BF9E
:107010000000DC3F0000203E0000F33F00000000C5
:10702000000000000000F03F0000E63F000000000C
:10703000000000000000004000800340000000004D
:10704000000000000000F83F000000000000F0BF5A
:107050008246000038460000C24500007A45000024
:1070600070B56B4E2DED040B2DED028B82B0DDF86B
:107070001CC0DDE905235C422CF000411C4341EAC1
:10708000D474049D22F00040B44205D86C422C43D5
:1070900040EAD474B4420BD99DED061B9DED040B60
:1070A00002B0BDEC028B04B0BDE8704000F060B9E6
:1070B000ACF14054A4F17F641C430BD0022404EAD9
:1070C000AC7444EAD27405439FED538B9FED542B6F
:1070D00007D015E09DED040B51EC100B00F048FEBD
:1070E00042E0002C11BF012C9DED040B02B0BDEC61
:1070F000028B04BF04B070BD022C38D0032C3BD0EF
:107100000B439FED491B9FED4A0B0AD0B14218D1AA
:10711000B04209D121F0804120F0804007910590D4
:107120000FE0002A15DA10E0434B7B44002C08BF27
:1071300093ED000B0DD0012C10D0022C17D0032C96
:107140001AD0B0421DD1002A03DAB0EE410AF0EEA7
:10715000610A02B0BDEC028B04B070BD93ED000B70
:1071600051EC100B81F0004141EC100BF1E7B0EE57
:10717000480AF0EE680AECE7B0EE420AF0EE620A66
:10718000E7E7401A00153C28C8BF8DED000B19DC5D
:10719000BCF1000FBEBF10F13C0F9FED290B8DED30
:1071A000000B0FDB9DED060B53EC102B9DED040B3C
:1071B00051EC100BF9F77CF901F006FC00F0D8FD5A
:1071C000CDE90001002C08BF9DED000BC1D0012CC2
:1071D00010D0022C9FED1C0B53EC102B9DED000BDF
:1071E00051EC100B0DD0F9F7EBF853EC182BF9F725
:1071F000E7F8B9E7019880F0004001909DED000BA1
:10720000A7E7F9F7DDF853EC182BF9F7DCF8ABE753
:107210000000F07F00000000182D4454FB210940BD
:10722000182D4454FB2109C0182D4454FB21F9BFEB
:10723000182D4454FB21F93FAA440000000000002F
:107240000000000000000000075C143326A6A13CEB
:107250002DED020B019820F0004001909DED000BF8
:1072600002B0704770B504462DED028B4D1E00EB49
:10727000C500B0EE408AF0EE608A90ED000B35F06C
:10728000060017D053EC182B51EC100BF9F79EF8B1
:1072900041EC100B6D1E04EBC50090ED001B51EC92
:1072A000100B53EC112BF8F7EAFF41EC100B35F003
:1072B0000600E7D1022D36D0042D1CD0062D1CBFB0
:1072C000BDEC028B70BD53EC182B51EC100BF9F791
:1072D0007DF894ED0A1B53EC112BF8F7D0FF53EC1B
:1072E000182BF9F773F894ED081B53EC112BF8F7F2
:1072F000C6FF41EC100B53EC182B51EC100BF9F7B7
:1073000065F894ED061B53EC112BF8F7B8FF53EC1E
:10731000182BF9F75BF894ED040B53EC102BF8F7EE
:10732000AEFF41EC100B53EC182B51EC100BF9F79E
:107330004DF894ED021B53EC112BF8F7A0FF53EC22
:10734000182BF9F743F894ED001B53EC112BF8F7C9
:1073500096FFBDEC028B41EC100B70BD10B553ECE9
:10736000102B51EC100BF8F78AFF41EC100B10BDFD
:1073700010B553EC112B51EC100BF8F780FF41ECDA
:10738000100B10BD000000009FED050B10B553EC75
:10739000102B51EC100BF9F78BF841EC100B10BDD2
:1073A00000000000000000009FED050B10B553EC3D
:1073B000102B51EC100BF9F709F841EC100B10BD34
:1073C000000000000000001002E008C8121F08C101
:1073D000002AFAD170477047002001E001C1121F56
:1073E000002AFBD1704700F0010181F31388704738
:1073F0000149086070470000EC0000202DE9FF5FA4
:1074000082B00021DDE90430020DDDF840B0034315
:1074100018D044F61050A2F2FF32424315141198CE
:1074200001281FD0A5EB0B00401C5FEA000A4FF0BB
:1074300000064E4FDFF83891B046504615D5CAF1D8
:10744000000413E0119801244AA3012801D16FEA36
:107450000B010298119AC0E90031C0E9024206B05E
:10746000BDE8F09FCBF10000DFE704460021404A71
:10747000491842EB0450CDE9001012E0E00707D0B4
:1074800032463B4640464946F8F7A0FF80468946CB
:1074900032463B4610461946F8F798FF06460F4617
:1074A0006410002CEAD1DDE90401DDE90023BAF122
:1074B000000F06DAF8F78AFF42464B46F8F786FFD8
:1074C00005E0F8F7F5FF42464B46F8F7F1FF0446B2
:1074D0000E460022284BF9F735FA03D84FF0FF305B
:1074E000014607E00022254B20463146F8F7C7FE4B
:1074F000F9F70FFA102409E0002C0ADB0A22002316
:10750000F9F7C0F8039B30321A55641E50EA0102A5
:10751000F2D1641C039AC4F111031444119A012A94
:1075200003D0012208430DD10AE0084304D0002013
:107530004FF0110B119072E7A3EB0B056D1E0DE0E0
:107540005B4504DD4FF0000205F1010504E003DABC
:107550004FF00002A5F10105002AECD00298119924
:10756000C0E90231C0E9004579E70000000014409D
:107570000000F03F300000000000F0430000E03F5A
:107580002DE9FF4F95B09B468946064600250FE240
:10759000252877D100242746F84A0121059400E0E8
:1075A000044316F8013F203B01FA03F01042F7D1E3
:1075B00030782A2811D06FF02F033078A0F13002F4
:1075C000092A16D8059A44F0020402EB820203EB62
:1075D00042021044761C0590EFE759F8042B0592FF
:1075E000002A03DA504244F40054059044F00204A7
:1075F000761C30782E2816D116F8010F44F00404BA
:107600002A280DD06FF02F023078A0F13003092B1B
:1076100009D807EB870302EB4303C718761CF3E78F
:1076200059F8047B761C30786C280FD006DC4C2887
:1076300017D068280DD06A2814D104E0742810D01F
:107640007A280FD10DE044F400140AE044F48014C9
:1076500001E044F440147278824202D104F58014AF
:10766000761C761C307866280BD013DC582877D02F
:1076700009DC002875D04528F6D04628F4D04728E4
:107680001AD19DE118E0632835D0642879D06528A7
:1076900012D195E1702873D008DC6728F1D06928F1
:1076A0006FD06E280DD06F2806D1B5E073282CD08E
:1076B000752875D0782874D05A46179990476D1C54
:1076C00075E1C4F30250022809D003280DD0D9F87F
:1076D000001004280DD00D6009F1040967E1D9F804
:1076E0000010EA17C1E90052F6E7D9F800100D8042
:1076F000F2E70D70F0E719F8041B8DF80010002078
:107700008DF80100EA46012003E059F804AB4FF080
:10771000FF3061074FF0000102D40DE008F10101D4
:107720008846B9420FDA8045F8DB1AF808100029BC
:10773000F4D108E008F1010188468142FADB1AF829
:1077400008100029F6D105985B46A0EB08072146F2
:107750003846179A00F094FA284400EB080507E031
:107760004DE029E10DE01AF8010B5A4617999047B0
:10777000B8F10108F7D25B4621463846179A13E163
:1077800042E00A220092C4F302524FF0000A022A99
:1077900008D059F804CB032A4FEAEC710AD00DE067
:1077A00029E02AE009F1070121F00702F2E802C10D
:1077B000914609E00FFA8CFC4FEAEC71042A03D1E0
:1077C0004FFA8CFC4FEAEC71002907DA0A460021D7
:1077D000DCF1000C61EB02012D2202E0220504D550
:1077E0002B228DF80420012203E0E20701D02022A1
:1077F000F7E7904659E00A2102E010220DE010213F
:107800004FF0000A00910BE010224FF0000A44F004
:1078100004040827009203E008224FF0000A0092B7
:10782000C4F30252022A05D059F804CB0021032ADE
:1078300008D009E009F1070121F00702F2E802C1CE
:10784000914605E01FFA8CFC042A01D10CF0FF0CD4
:107850004FF00008220728D5702806D0009B83F03F
:10786000100353EA0A0305D00EE040228DF80420ED
:10787000012208E05CEA010206D030228DF80420E3
:107880008DF8050002229046009B83F0080353EA1E
:107890000A030AD15CEA010201D1620705D5302250
:1078A0008DF804204FF001087F1E582804D034A022
:1078B00003900EA802900DE036A0F9E7534660460B
:1078C000009AF8F7DFFE84460398825C0298401E17
:1078D000029002705CEA0100F0D1029806A9081A31
:1078E00000F1200A600702D524F4803400E001276B
:1078F000574502DDA7EB0A0000E0002000EB0A017B
:10790000009005984144401A0590E00306D45B4678
:107910002146179A059800F0B3F90544002706E0C0
:1079200001A85A46C05D179990476D1C7F1C4745BA
:10793000F6DBE0030CD55B462146179A059800F06C
:107940009FF9054404E030205A46179990476D1C72
:107950000099481E00900029F5DC08E00298029981
:107960005A460078491C0291179990476D1CBAF14C
:107970000001AAF1010AF1DC65E10000092801001B
:107980003031323334353637383961626364656695
:107990000000000030313233343536373839414257
:1079A000434445460000000000F058F90544761CA9
:1079B000307800287FF4ECAD19B02846BDE8F08F90
:1079C000620700D4062709F1070222F0070CFCE841
:1079D0000223E14603F000485FEA080C02D00FF2F0
:1079E000702C0DE05FEA045C02D50FF2682C07E012
:1079F0005FEAC47C02D00FF2602C01E0AFF2700CA1
:107A00004FF0FF3823F00043CDF850C065280CD06C
:107A100006DC452809D046281DD047283DD13DE049
:107A2000662818D067287ED138E00021112F01DBAD
:107A3000112000E0781CCDE9000106A90EA8FFF78F
:107A4000DDFCDDE90F010E9A03910021009207F1A0
:107A5000010A04914DE04FF000400097CDE901107C
:107A600006A90EA8FFF7CAFCDDE90F0203920E9BE0
:107A700011990022DDF80CA00093049211B9791C31
:107A800000EB010AB7EB0A0004D4C0F1FF3007F1A4
:107A9000010A0490AAEB0700019044E0012F00DAEC
:107AA00001270021112F01DD112000E03846CDE92A
:107AB000000106A90EA8FFF7A1FCDDE90F010E9A4F
:107AC0000391002104910092BA4621070CD4039936
:107AD000514500DA8A46BAF1010F05DD009AAAF194
:107AE0000101515C302908D0B84202DA10F1040FCC
:107AF00006DA0121CDE9011015E0AAF10101E9E75B
:107B0000002805DC049901440491AAEB000102E07D
:107B1000411C514500DD8A460499401A401C0190E1
:107B20004FF000400290200704D40198504501DB3B
:107B3000CDF8048000208DF84F0002980DF14F071A
:107B4000B0F1004F25D02B200E9002984FF0020884
:107B500000280CDA404202902D200E9007E00A2106
:107B60000298F8F779FD3031029007F8011DB8F15D
:107B70000001A8F10108F2DC02980028EFD1791E7B
:107B80000E980870307800F0200040F0450007F8AB
:107B9000020D12A8C01B00F107081498007800B16C
:107BA000012000EB0A01019801EBE07105984144C6
:107BB000401A401E0590E00306D45B462146179A02
:107BC000059800F05DF805441498007818B15A46FD
:107BD000179990476D1CE00324D55B462146179A00
:107BE000059800F04DF805441CE00498002807DBD8
:107BF000DDE90301884203DD0098405C179901E04C
:107C0000179930205A469047049805F10105401C09
:107C100004900198401E019004D12E205A461799D5
:107C200090476D1CBAF10001AAF1010ADDDC05E004
:107C300017F8010B5A46179990476D1CB8F10001CF
:107C4000A8F10108F4DC5B462146179A0598ABE6DB
:107C50002D0000002B000000200000002DE9F04165
:107C6000044600251E461746880404D405E039461C
:107C70002020B0476D1C641EF9D52846BDE8F08170
:107C80002DE9F041044600251E469046C80301D563
:107C9000302700E02027880404D505E04146384617
:107CA000B0476D1C641EF9D52846BDE8F081000080
:107CB000F0B52DED028B83B006460F4600256846D1
:107CC00000F0A0FE002448E056F8241057F82420C5
:107CD000881A002801DB014600E0414200EE101A3C
:107CE000B8EEC00ADFED200A80EE208A684600EB7D
:107CF000840090ED000AB5EEC00AF1EE10FA19D03A
:107D0000684600EB8400D0ED000A88EE200AF7EE0A
:107D1000000A70EE608A00BFB0EEE80A1348D0EDAA
:107D2000090AB4EEE00AF1EE10FA15DD0120A040D8
:107D3000054311E00D4890ED070AB4EEC80AF1EED4
:107D400010FA06DC90ED080AB4EEC80AF1EE10FA5B
:107D500002D20120A0400543641C032CB4DB28465A
:107D600003B0BDEC028BF0BD00008047D0A8000836
:107D700010B541EC100BFFF707F851EC100B10BDDC
:107D80002DE9F0410446E07800F0C006E07800F00C
:107D90003F05607800F0010098B1EF102846E91720
:107DA00005EB5171C910A5EBC101491C01F0FF0899
:107DB0000B48006820B10A4841460268384690479F
:107DC00000BF607800F0080030B10548406818B185
:107DD000B011034A516888470020BDE8F0810000D7
:107DE000680A002001B56422009901FB02F0F9F74E
:107DF0006FFE08BD38B5044664B120208DF8000040
:107E000028208DF8010030208DF8020038208DF8F0
:107E1000030004E0A32204216846F8F702FA6A4648
:107E2000042140F69E2002F031FC02F01BF838BD20
:107E30003EB5044602208DF80000CA208DF80100EE
:107E4000E3208DF8020009208DF803006A46042122
:107E5000682002F01BFCA3208DF8000004F0400015
:107E600048B1C0208DF80100C8208DF80200C22062
:107E70008DF8030006E0A3208DF801008DF80200C4
:107E80008DF8030004F4C07048B1C4208DF80400DC
:107E9000CC208DF80500C6208DF8060006E0A32052
:107EA0008DF804008DF805008DF80600A3208DF8EC
:107EB00007008DF808008DF809006A460A2140F68F
:107EC000A72002F0E3FB04F0030018B120208DF896
:107ED000000002E0D8208DF800006A46012140F63B
:107EE000B62002F0D3FB04F0200018B1012000F00E
:107EF000ADF802E0002000F0A9F804F4C07008B367
:107F000004F4807060B1B2208DF800008B208DF8F1
:107F10000100B6208DF802009B208DF803000BE0D5
:107F2000B0208DF8000080208DF80100B4208DF87D
:107F3000020090208DF803006A46042140F6A2203A
:107F400002F0A4FB04F0010020B3F8208DF800003B
:107F50006A4601214FF40B6002F098FBFA210720DA
:107F600000F02CFC072000F0F3FB012000F013FCD4
:107F7000642000F003FD4FF4FA7000F012FDC821F8
:107F8000304800F0A3FB282000F0BCFB0A2000F0E2
:107F9000CCFB08E0D8208DF800006A4601214FF4A0
:107FA0000B6002F073FB04F0020018B1D9208DF8C9
:107FB000000002E0D8208DF800006A46012140F25E
:107FC0003D7002F063FB04F0040018B1012000F0E2
:107FD00069F802E0002000F065F804F0100018B124
:107FE0000120FFF707FF02E00020FFF703FF44F046
:107FF00008001549488101F035FF002012498873B7
:1080000004F0400018B10846807B801D887304F49A
:10801000C07020B10C48807B801D0B49887304F030
:10802000140020B10848807B10300749887304F0A1
:10803000030020B10448807B001D034988730020A1
:108040003EBD000009E3CA02680A00203EB50446AE
:108050006CB10EA1D1E900208968CDE90020029120
:108060006A4609214FF4976002F010FB3EBD0AA258
:10807000D2E900109268CDE9010200916A46092117
:108080004FF4976002F002FBF0E70000B8AAB38D4E
:10809000B4980D355D000000B8AAAAAAB088C3C57F
:1080A000C700000038B5044664B1C0208DF8000058
:1080B000C2208DF80100C4208DF80200C6208DF882
:1080C000030004E08B2204216846F8F7AAF86A4608
:1080D000042140F6982002F0D9FA01F0C3FE38BD21
:1080E00010B5C8234FF48062024940F6F63001F023
:1080F0004DFD10BDF8A800082DE9F04F8DB00746E2
:10810000884615469946DDE9166B0024002030802C
:108110006B49887B5A4605A901F004FE18B1601E20
:108120000DB0BDE8F08F6648807A00F0140000289A
:1081300067D09DF8140000069DF8151040EA014034
:108140009DF8161040EA01209DF81710084328609A
:108150009DF8180000069DF8191040EA01409DF8AE
:108160001A1040EA01209DF81B10084368609DF832
:108170001C0000069DF81D1040EA01409DF81E10ED
:1081800040EA01209DF81F100843A8609DF82000D8
:1081900000069DF8211040EA01409DF8221040EAB7
:1081A00001209DF823100843E86004F11000C4B2D8
:1081B000286800140190686800140290A8680014F0
:1081C0000390E8680014049001984043029901FB71
:1081D0000100039901FB0100049901FB010ABAF1B6
:1081E000706F02DBBAF1885F05DD01F03BFE002015
:1081F0003080401E94E7B6F9000040F48070308073
:1082000000BF2F48807A00F0400020B305A9601C11
:10821000085C095D40EA012000B2A8F8000005A949
:10822000E01C095C05AAA01C105C41EA002000B219
:10823000A8F8020005A9601D095C201D105C41EA38
:10824000002000B2A8F80400A01DC4B2B6F90000D6
:1082500040F0080030801A48408900F4C07008B32C
:1082600005A9601C085C095D40EA012000B2388065
:1082700005A9E01C095C05AAA01C105C41EA0020CD
:1082800000B2788005A9601D095C201D105C41EAE0
:10829000002000B2B880A01DC4B2B6F9000040F0C2
:1082A000700030800648807A00F0030018B105A9FC
:1082B0000819FFF765FD484601F0F8F900202FE79F
:1082C000680A002070B588B0064601A801F0AAFA35
:1082D000BDF804000021C90341EA5045C4034448E5
:1082E000007A00F0030056F8200005904048007A1C
:1082F00000F0040010B10598404205903C48007A17
:10830000C0F3C10056F8200006903948007A00F00A
:10831000200010B10698404206903548007AC0F31C
:10832000811056F8200007903148008900F48070D1
:1083300010B10798404207900598C117A0FB04238D
:1083400001FB043100FB0510810041EA92700590A9
:108350000698C117A0FB042301FB043100FB0510A4
:10836000810041EA927006900798C117A0FB042390
:1083700001FB043100FB0510810041EA9270079077
:108380000598000E8DF808000598000C8DF809007E
:108390000598000A8DF80A000598C0B28DF80B0008
:1083A0000698000E8DF80C000698000C8DF80D0054
:1083B0000698000A8DF80E000698C0B28DF80F00DE
:1083C0000798000E8DF810000798000C8DF811002A
:1083D0000798000A8DF812000798C0B28DF81300B4
:1083E00002AA0C214FF4257002F050F908B070BDBC
:1083F000680A002030B585B0044616A207CA02AB51
:1084000007C3C82C03DD4FF0FF3005B030BDC820D6
:1084100090FBF4F0401E85B2280A8DF80000E8B207
:108420008DF801006A46022140F2162002F02EF972
:1084300010B14FF0FF30E8E702AA0C2140F6C1204E
:1084400002F024F910B14FF0FF30DEE704488481D8
:108450000020DAE7FEF2ABC4AAF1DFDFBBAFDFDF5B
:10846000680A00201FB504464848007A00F003005F
:1084700054F8200001904548007A00F0040010B143
:108480000198404201904148007AC0F3C10054F87D
:10849000200002903D48007A00F0200010B10298C0
:1084A000404202903948007AC0F3811054F820000D
:1084B00003903648008900F4807010B10398404260
:1084C00003903349019880FB0101800F40EA81004D
:1084D00001902F49029880FB0110820042EA9170BE
:1084E00002902B49039880FB0110820042EA9170B0
:1084F00003900198000E8DF800000198000C8DF893
:1085000001000198000A8DF802000198C0B28DF8B0
:1085100003006A4604214FF4747002F0B7F818B1F2
:108520004FF0FF3004B010BD0298000E8DF800002F
:108530000298000C8DF801000298000A8DF80200E4
:108540000298C0B28DF803006A4604214FF475709A
:1085500002F09CF810B14FF0FF30E3E70398000EF3
:108560008DF800000398000C8DF801000398000AB4
:108570008DF802000398C0B28DF803006A4604210A
:108580004FF4767002F082F8CCE70000680A002011
:1085900009E3CA0210B586B0044647A000680390FC
:1085A00046A00068029046A00068019045A00068BF
:1085B000009004F0030003A9085C8DF8140003A8E0
:1085C000C4F3C101405C8DF8150003A8C4F3811108
:1085D000405C8DF8160004F0030002A9085C8DF8D9
:1085E000100002A8C4F3C101405C8DF8110002A87C
:1085F000C4F38111405C8DF8120005AA032140F2FA
:10860000264002F043F818B14FF0FF3006B010BD1D
:1086100004AA032140F22A4002F038F810B14FF0CA
:10862000FF30F3E7019805900098049004F00400EF
:1086300058B19DF8140040F001008DF814009DF829
:10864000100040F001008DF8100004F0200058B137
:108650009DF8150040F001008DF815009DF81100FF
:1086600040F001008DF8110004F4807058B19DF8BD
:10867000160040F001008DF816009DF8120040F041
:1086800001008DF8120005AA03214FF4886001F063
:10869000FDFF10B14FF0FF30B8E704AA032140F20C
:1086A000314001F0F3FF10B14FF0FF30AEE7064864
:1086B00004810020AAE700004CCD6C000CC92C00FE
:1086C0003656760026466600680A0020F8B505464C
:1086D0000E464FF47A7095FBF0F000FB06F4200E86
:1086E0008DF80000200C8DF80100200A8DF80200A2
:1086F000E0B28DF803006A4604214FF4AE7001F039
:10870000C5FFF8BD38B50446052094FBF0F084B2EF
:1087100020128DF80000E0B28DF801006A460221B7
:108720004FF4AD7001F0B2FF38BD38B504460520F6
:1087300094FBF0F084B220128DF80000E0B28DF8C6
:1087400001006A4602214FF4AC7001F09FFF38BD72
:1087500038B504460020009004F0010020B19DF8D7
:10876000000040F03000009004F0020020B19DF8BD
:10877000000040F00C00009004F0040020B19DF8CF
:10878000000040F0030000906A4601214FF4A470FD
:1087900001F07CFF38BD38B50446012C01DA012414
:1087A00002E0042C00DD0424601EC0B200906A4682
:1087B000012140F24F1001F069FF38BDF0B52DEDF9
:1087C000028B83B006460F4606F0070010B1B7F5DE
:1087D000C86F05DD4FF0FF3003B0BDEC028BF0BD7C
:1087E00000EE107AB8EE400ADFED5B0A80EE208AD8
:1087F00001A800F0F1FF9DF80400022806D004282B
:1088000017D0082828D010284CD138E09FED530A03
:1088100028EE000ABCEEC00A10EE100A84B29FEDEA
:10882000500A28EE000ABCEEC00A10EE100A85B20B
:108830003BE09FED4C0A28EE000ABCEEC00A10EEA9
:10884000100A84B29FED480A28EE000ABCEEC00A66
:1088500010EE100A85B228E09FED440A28EE000AC7
:10886000BCEEC00A10EE100A84B29FED410A28EE59
:10887000000ABCEEC00A10EE100A85B215E09FEDAA
:108880003D0A28EE000ABCEEC00A10EE100A84B2BF
:108890009FED390A28EE000ABCEEC00A10EE100A5D
:1088A00085B202E04FF0FF3096E700BF20128DF84E
:1088B0000800E0B28DF8090028128DF80A00E8B22D
:1088C0008DF80B0006F00100A0B102AA02214FF4BE
:1088D000EA7001F0DBFE10B14FF0FF307CE70DF1E4
:1088E0000A0202214FF4927001F0D0FE10B14FF055
:1088F000FF3071E706F00200A0B102AA02214FF496
:10890000EC7001F0C3FE10B14FF0FF3064E70DF1E1
:108910000A0202214FF4947001F0B8FE10B14FF03A
:10892000FF3059E706F00400A0B102AA02214FF47B
:10893000EE7001F0ABFE10B14FF0FF304CE70DF1DF
:108940000A0202214FF4967001F0A0FE10B14FF020
:10895000FF3041E700203FE7000048430000804629
:1089600000004046000000460000C0450000804571
:1089700000004045000000450000C04438B50446F2
:10898000052094FBF0F085B228128DF80000E8B2C3
:108990008DF801006A4602214FF4EF7001F076FE77
:1089A00038BD38B50446052094FBF0F085B2281296
:1089B0008DF80000E8B28DF801006A4602214FF4FC
:1089C000ED7001F063FE38BD82B0CDE9000121F009
:1089D000004001909DED000B02B051EC100B704770
:1089E00070B504460D46E1B20548FDF776FF00BFBD
:1089F00080210348FDF7A5FE0028F9D0204670BD70
:108A0000001401407CB505462E494968087801AB41
:108A100004220D21FAF728FC08B107207CBD9DF83F
:108A20000700C0F301109DF8041001F0E00140EAD6
:108A3000E1008DF800009DF80700C0F381009DF86B
:108A4000051001F0E00140EAE1008DF801009DF819
:108A5000070000F003009DF8061001F0E00140EA75
:108A6000E1008DF80200002427E01DF8040030B971
:108A70009FED150A05EB840080ED000A1BE09FEDD9
:108A8000130A05EB840080ED000A0BE005EB84007F
:108A900090ED000ADFED0E0A20EE200A05EB8400BF
:108AA00080ED000A1DF80400401EC0B20DF804005D
:108AB0000028EBD100BF601CC4B2032CD5DB002022
:108AC000ACE70000B0000020000000007B14AE3EC8
:108AD0001D5A843F2DE9F04F87B005460C4691465C
:108AE00001208DF8100000208DF81100FE4A126858
:108AF000917CFD4A5268107804AB0222FAF7EEFB33
:108B000020B14FF0FF3007B0BDE8F08FC820FFF76D
:108B100069F900208DF81000F34A1268D17BF24AFF
:108B20005268107804AB0122FAF7D8FB10B14FF06D
:108B3000FF30E8E7EC4A12685179EB4A5268107846
:108B400004AB0122FAF7CAFB10B14FF0FF30DAE7AD
:108B5000E54A1268917CE44A5268107804AB01221D
:108B6000FAF7BCFB10B14FF0FF30CCE7DE4A1268D9
:108B7000D17DDD4A5268107804AB0122FAF7AEFBD2
:108B800010B14FF0FF30BEE7D74A12681179D64ACC
:108B90005268107804AB0122FAF7A0FB10B14FF035
:108BA000FF30B0E70C208DF81000CF4A1268117921
:108BB000CD4A5268107804AB0122FAF78FFB10B14E
:108BC0004FF0FF309FE70F20FFF70CF9C648806A8F
:108BD000407A8DF81000C44A12689178C24A5268EF
:108BE000107804AB0122FAF779FB10B14FF0FF3097
:108BF00089E7BD48806A007A8DF81000BA4A126889
:108C00005178B94A5268107804AB0122FAF766FB32
:108C100010B14FF0FF3076E7B9F1000F07D0B2483E
:108C2000806A807A40F0E0008DF8100004E0AE48E1
:108C3000806A807A8DF81000AB4A12689179AA4A4E
:108C40005268107804AB0122FAF748FB10B14FF0DC
:108C5000FF3058E7B9F1000F07D0A348806AC07A07
:108C600040F0E0008DF8100003E0A048C07A8DF8D5
:108C700010009D4A1268D1799B4A5268107804AB63
:108C80000122FAF72BFB10B14FF0FF303BE7B9F1AF
:108C9000000F02D0C820FFF7A5F840208DF8100083
:108CA000914A12681179904A5268107804AB0122F7
:108CB000FAF714FB10B14FF0FF3024E778208DF85D
:108CC0001000894A12685179874A5268107804ABBB
:108CD0000122FAF703FB10B14FF0FF3013E783498D
:108CE0008889FFF77FF800208DF810007E4A12680F
:108CF00051797D4A5268107804AB0122FAF7EEFAF6
:108D000010B14FF0FF30FEE6774A1268917A764A4A
:108D10005268107804AB0222FAF7A6FA10B14FF0AD
:108D2000FF30F0E69DF811009DF8101040EA012B8D
:108D30000C209BFBF0F0C6B20020A86068602860A1
:108D4000A06060602060824665E0674A1268D17A60
:108D5000654A5268107804AB0C22FAF785FA10B114
:108D60004FF0FF30CFE69DF811009DF8101040EA5B
:108D7000012000B2ADF808009DF813009DF8121014
:108D800040EA012000B2ADF80A009DF815009DF8F8
:108D9000141040EA012000B2ADF80C00BDF9081033
:108DA000206808442060BDF90A10606808446060CB
:108DB000BDF90C10A0680844A0609DF817009DF84C
:108DC000161040EA012000B2ADF800009DF819002D
:108DD0009DF8181040EA012000B2ADF802009DF89D
:108DE0001B009DF81A1040EA012000B2ADF8040003
:108DF000BDF90010286808442860BDF902106868B1
:108E000008446860BDF90410A8680844A8600AF125
:108E1000010000F0FF0AB24597DB3448D0F800C0EB
:108E20002868C117090441EA10410704624600237B
:108E30003846F7F7C5F932460023CDE90201F7F7C6
:108E4000BFF928602948D0F800C06868C117090434
:108E500041EA10410704624600233846F7F7B0F9AB
:108E600032460023CDE90201F7F7AAF968601F48EE
:108E7000D0F800C0A868C117090441EA10410704EE
:108E8000624600233846F7F79BF932460023CDE9C6
:108E90000201F7F795F9A8601448D0F804C02168DA
:108EA000C817000440EA11480F0462460023384600
:108EB0004146F7F785F932460023CDE90201F7F77D
:108EC0007FF920600948D0F804C06068C117090420
:108ED00041EA10410704624600233846F7F770F96B
:108EE0003246002304E00000B0000020D0A80008B3
:108EF000CDE90201F7F764F960601148D0F804C0C9
:108F0000A068C117090441EA104107046246002322
:108F10003846F7F755F932460023CDE90201F7F755
:108F20004FF9A060A068002804DDA068A0F580309B
:108F3000A06003E0A06800F58030A0600020E2E5BA
:108F4000D0A80008F0B52DED048B81B006460F4681
:108F500000253F49496808786B4603220D21FAF73E
:108F600083F920B1072001B0BDEC048BF0BD9DF862
:108F7000000000F01F008DF800009DF8010000F0D7
:108F80001F008DF801009DF8020000F01F008DF811
:108F90000200002457E056F8241057F82420881ABD
:108FA000002801DB014600E0414200EE101AB8EE55
:108FB000C00ADFED280A80EE208A1DF8040070B395
:108FC000254890ED000AB8EE400ADFED240A80EE55
:108FD000801AB0EE419A05E09FED210A29EE000AC1
:108FE000B0EE409A1DF80400401EC0B20DF8040017
:108FF0000028F1D188EE090AF7EE000A70EE608AC7
:1090000000BFB0EEE80A1448D0ED060AB4EEE00A5C
:10901000F1EE10FA16DD0120A040054312E0FFE753
:109020000D4890ED040AB4EEC80AF1EE10FA06DC21
:1090300090ED050AB4EEC80AF1EE10FA02D2012052
:10904000A0400543641C032CA5DB28468BE70000E9
:10905000B000002000008047D0A8000800B04C45B8
:1090600054E3853F10B50446204600F00FF8034650
:10907000E01C00F00BF843EAC00083B2A01D00F032
:1090800005F843EA801083B2184610BD014691F9F5
:109090000020002A01DD00201EE091F90020002AB6
:1090A00001DA042018E091F90120002A01DD0120F5
:1090B00012E091F90120002A01DA05200CE091F973
:1090C0000220002A01DD022006E091F90220002A98
:1090D00001DA062000E00720704700002DED0A8B22
:1090E000C2B0002400259FEDC80AB0EE408AFCF70C
:1090F00095FAF9F783F8F9F707F80121C348FAF769
:109100001DF901224FF4E131C148FAF79BFCC1A1DE
:10911000BF48FCF7D7FE01224FF47A31C748FAF76F
:1091200091FCC7A1C548FCF7CDFEFDF7DDFBFDF7BF
:109130002DFCC6B23146CCA0FDF74CFC1E2200210E
:1091400002A8FDF7FBFB0BE0CCA0FDF743FC4FF4BE
:10915000FA70FEF747FE4FF40051D148F8F7C4FD0E
:109160000C22D0A102A8F7F77BF80028ECD1D1A0FF
:10917000FDF730FC4FF40051C948F8F7B5FD20E089
:109180004FF40051C648F8F7AFFDD1A0FDF722FC1F
:1091900000F08EFA4FF47A71B0FBF1F73946D2A0A5
:1091A000FDF718FC0A20FEF71DFE00F081FA4FF4CF
:1091B0007A71B0FBF1F73946CEA0FDF70BFC601CCD
:1091C000C4B200F0B9FA08B1052CD9DB052C04DAD9
:1091D0000125CBA0FDF7FEFB02E0D1A0FDF7FAFBD5
:1091E000D6A0FDF7F7FB4FF4FA71D848F7F7E0FC8B
:1091F000D7A0FDF7EFFBDCA0FDF7ECFBF9F72AFAAF
:10920000E0A0FDF7E7FBE8A0FDF7E4FBFBF702FFBA
:10921000EAA0FDF7DFFB42F21071F048FCF748FBD3
:10922000EE48FCF791FC4CF25031ED48FCF740FB66
:10923000EB48FCF789FCF8F73BFFEAA0FDF7CAFB17
:10924000E0E0F8F747FFF0480078B0B1EF48007869
:10925000401CEE490870084600780A280ADD4FF4E1
:1092600080418F48F8F740FD0320F8F71DFD0020EE
:10927000E64908700020E4490870E5480078A0B18C
:10928000E4480078401CE349087008460078032849
:1092900006DD002008704FF400418148F8F724FDF6
:1092A000F8F760F90020DA490870DB4800681428F4
:1092B00041D30020D8490860D8490870D8480078C0
:1092C000401CD749087008460078012802D1F9F7F8
:1092D00041FD30E0D2480078022803D10320F9F79D
:1092E00039FD28E00020CE490870CE48B0F91600BC
:1092F0003C280EDACB48B0F94E003C2809DAC948C0
:10930000B0F986003C2804DAC648B0F9BE003C2813
:1093100011DBC448B0F9BE000090C248B0F98630F5
:10932000B0F94E20B0F91610BFA0FDF753FB002195
:109330000420FCF7FBF83DB1C548006820B1F8F700
:1093400055FD0020C2490860C2480068142804D3B3
:10935000F8F78AFF0020BF490860BF48006814285A
:1093600042D30020BC490860BC490888F7F720F9BF
:1093700041EC1C0B9FEDBA0B53EC102BF7F726F8C2
:1093800041EC1B0B9FEDB80B53EC102BF7F790F84B
:1093900041EC1A0B9FEDB60B53EC102BF7F716F8B8
:1093A00041EC190BF7F73CF908EE100AB2A0FDF7F3
:1093B00011FBB3EE050AB4EEC08AF1EE10FA0FD23B
:1093C00018EE100AF7F701F941EC190B53EC192BC1
:1093D000B0A0FDF7FFFA0121B348F8F7FFFC03E066
:1093E0000121B148F8F7F8FC0120FBF72FFF012815
:1093F00004D101210420FCF799F803E000210420A6
:10940000FCF794F81DE70000000000000020014078
:109410000010014055534152543120436861737329
:1094200069737320666F72204D69636B526F626F50
:10943000742D5633202E2E2E2E2E0A00001401409D
:1094400055534152543620436861737369737320D6
:10945000666F72204D69636B526F626F742D563365
:10946000202E2E2E2E2E0A00573235513132382022
:109470002049443A25580D0A000000000D0A54689E
:1094800069732063686970206973206E6F7420614E
:109490007574686F72697A6564202121210D0A0054
:1094A000001402406D69636B726F626F742D7633C6
:1094B00000000000537461727420496E6974204D7D
:1094C000505536303530202E2E2E200A0000000058
:1094D0004D505536303530205265496E69742E2E08
:1094E0002E200D0A0000000074696D65313A2025B8
:1094F0006400000074696D65323A20256400000044
:109500004D50553630353020496E6974205375639F
:109510006365737366756C2020200D0A00000000DF
:109520004D50553630353020496E6974204661699A
:109530006C65642020200D0A0000000043414E317C
:1095400020496E6974202E2E2E0A0000006400400F
:1095500043414E3120496E697420537563636573CE
:109560007366756C20210A004D4F544F525F5A4C60
:109570004143383031354420496E6974202E2E2EF7
:109580000A0000004D4F544F525F5A4C414338304F
:1095900031354420496E6974205375636365737374
:1095A00066756C20210A000052435F52656D6F742E
:1095B000655F496E6974202E2E2E0A0052435F5259
:1095C000656D6F74655F496E69742053756363657B
:1095D000737366756C20210A0000000000100040C3
:1095E000001400406D69636B726F626F742D5633A7
:1095F00020496E6974207365636365737366756C67
:109600002E2E2E0A00000000400000204100002005
:1096100043000020440000203400002046000020C9
:1096200047000020BC0200204D6F746F7220494437
:1096300020312D342074656D70747572653A202563
:10964000642C2025642C2025642C202564200A000D
:109650003C0000203000002038000020AC0000203A
:109660006666666666660A40000000000000B0405C
:1096700000000000000034406D61696E2077686969
:109680006C652831292069732072756E6E696E676A
:1096900000000000766F6C746167653A20256620D3
:1096A00056200A2000000000000002407047000021
:1096B00000204FF08041486A0004024909680844CC
:1096C000704700002404004070B50446002624F0D2
:1096D0000104184890F8240008B1002070BD154816
:1096E000807A10B94FF0FF30F8E71248057C807A95
:1096F0002040104908740846007CA04202D04FF078
:10970000FF3600E0002614B90A48007D18B1012098
:1097100001F04AF802E0002001F046F83CB100F008
:10972000A1FB20B1034805744FF0FF30D6E7304667
:10973000D4E70000B000002070B50024F8F790FBDB
:1097400000F02CF9002840D1782000F037FFC4B297
:109750000CB1012070BD7820FFF7B6FFC4B20CB188
:109760000220F7E7642000F0DBFEC4B20CB1032056
:10977000F0E7FEF7B5FCC4B20CB10420EAE71548E7
:10978000FFF770FC0546FEF705FFC4B20CB10520DB
:10979000E0E740F27310FEF74BFBC4B20CB10620B9
:1097A000D8E76420FEF726FEC4B20CB10720D1E74B
:1097B00000F0ACFF04460CB10820CBE7012000F01C
:1097C000ABFDC4B21CB10920C4E70A20C2E70020E7
:1097D000C0E70000DC00002001461148407A30B1AB
:1097E000012807D0022808D003280CD108E0022065
:1097F00008700BE00420087008E00820087005E0FD
:109800001020087002E04FF0FF30704700BF04489E
:10981000C07C18B108784006000E08700020F4E7FC
:10982000B000002001461348407A30B1012808D02A
:1098300002280AD0032810D10BE04FF480400880A2
:109840000EE041F69C7008800AE04FF480500880DA
:1098500006E04FF40060088002E04FF0FF307047F0
:1098600000BF0448C07C10B1088840100880002068
:10987000F5E70000B000002001460248007C0870B7
:1098800000207047B000002001460F48007A30B138
:10989000012807D0022809D003280FD10AE0FA20B6
:1098A00008800EE04FF4FA7008800AE04FF47A70F6
:1098B000088006E04FF4FA60088002E0002008808B
:1098C00000BF00BF00207047B000002001461248D2
:1098D000007A30B1012809D002280CD0032814D115
:1098E0000EE09FED0E0A81ED000A11E09FED0C0ADB
:1098F00081ED000A0CE09FED0B0A81ED000A07E004
:109900009FED090A81ED000A02E04FF0FF30704739
:1099100000BF0020FBE70000B00000200000034370
:1099200000008342333303423333834101461248FC
:10993000C07A082817D2DFE800F01704070A0D10D4
:109940001318BC20088013E06220088010E02A2051
:1099500008800DE0142008800AE00A20088007E053
:109960000520088004E000BF00BF0020088000BF81
:1099700000BF002070470000B000002001460648EC
:1099800090F8240010B14FF0FF3070470248C089B2
:1099900008800020F9E70000B00000201CB58020FE
:1099A0008DF80000654A1268917C644A526810780C
:1099B0006B460122F9F792FC10B14FF0FF301CBD4D
:1099C0006420FEF70FFA00208DF800005B4A126851
:1099D000917C5A4A526810786B460122F9F77EFC56
:1099E00010B14FF0FF30EAE7544A1268917D534AB4
:1099F000526810786B460622F9F736FC10B14FF02A
:109A0000FF30DCE79DF80500C007400F9DF803100C
:109A100001F0010140EA41009DF8011001F001014F
:109A200040EA010494B1012C03D101214348C174DF
:109A300031E0022C03D100214048C1742BE02146C3
:109A40003FA0FCF7C7FF4FF0FF30B8E73B4A126872
:109A5000D1783A4A526810786B460122F9F704FC33
:109A600010B14FF0FF30AAE79DF8000000F00F049E
:109A70002CB93D48FCF7AEFF4FF0FF309FE7042CB8
:109A800006D13AA0FCF7A6FF01212C48C17402E0E0
:109A900000212A48C174FF2128488172FF202749EC
:109AA0000872FF2125484172C1724FF6FF71C181D2
:109AB000FF21017481740121017380F822100021BB
:109AC00080F8231041750175163001604160816096
:109AD000163880F8241080F82510C1844FF4FA60FD
:109AE00000F062FC10B14FF0FF3068E7022000F098
:109AF0002BFB10B14FF0FF3061E72A2000F0CEFCC5
:109B000010B14FF0FF305AE7322000F009FD10B1DC
:109B10004FF0FF3053E70020FFF7D6FD10B14FF0B4
:109B2000FF304CE7002000F051FB10B14FF0FF3048
:109B300045E7002000F042FD002040E7B000002093
:109B4000556E737570706F7274656420736F667490
:109B5000776172652070726F6475637420726576C8
:109B60002025642E0A00000020B7000848616C66BA
:109B70002073656E73697469766974792070617297
:109B80007420666F756E642E0A0000002DE9F043A4
:109B900085B005460E4690469946294890F825001E
:109BA00020B14FF0FF3005B0BDE8F08316B94FF09B
:109BB000FF30F8E7002423E0281B102801DD1020E7
:109BC00000E0281B87B232193946204600F05EFDBE
:109BD00010B14FF0FF30E6E701AA3946204600F009
:109BE00001F910B14FF0FF30DDE730193A4601A915
:109BF000F6F729FB10B16FF00100D4E7E01984B249
:109C0000AC42D9DB4FEA28208DF8000008F0FF00B5
:109C10008DF801000A4A1268917E094A526810784C
:109C20006B460222F9F75AFB10B14FF0FF30BAE74A
:109C30000121034880F82510A0F826900020B2E703
:109C4000B000002038B50446282C02DD4FF0FF306C
:109C500038BDDCB9002000F0EBFB00208DF80000DF
:109C600007208DF801002E4A1268917C2C4A526818
:109C700010786B460222F9F731FB10B14FF0FF303C
:109C8000E6E70021264801750020E1E7012000F009
:109C9000CFFB20208DF80000012C06D100208DF88C
:109CA0000100052000F0FAFB17E0052C06DC01207E
:109CB0008DF80100052000F0F1FB0EE0142C06DC0D
:109CC00002208DF801000A2000F0E8FB05E00320E7
:109CD0008DF80100142000F0E1FB9DF80100072140
:109CE00001EB8010C0B28DF801000D4A1268917C22
:109CF0000B4A526810786B460222F9F7EFFA10B15E
:109D00004FF0FF30A4E7082105488172002101735C
:109D1000012101750020FFF7D7FC002098E7000023
:109D2000B0000020F8B504460F4616462C4890F8BF
:109D3000240010B94FF0FF30F8BD2948807A10B9DF
:109D40004FF0FF30F8E7264A1268917A244A5268A9
:109D500010786B460222F9F787FA10B14FF0FF3006
:109D6000EAE79DF801009DF8001040EA0125A542B0
:109D700003DA00203070401EDEE719484068408852
:109D8000B5EB600F17DD164A1268517C144A526811
:109D900010786B460122F9F767FA10B14FF0FF30E7
:109DA000CAE79DF8000000F0100020B100F05AF85A
:109DB0006FF00100C0E7E2B2094B1B68D97A084B8B
:109DC0005B6818783B46F9F74FFA10B14FF0FF3057
:109DD000B2E795FBF4F0401E30700020ACE70000C5
:109DE000B0000020F8B504460D46164616B94FF0EF
:109DF000FF30F8BD1A48807A10B94FF0FF30F8E70D
:109E000020128DF80000E0B28DF801009DF80100ED
:109E10002844134949684989884202DD4FF0FF30E0
:109E2000E7E70F4A1268117E0D4A526810786B46B8
:109E30000222F9F753FA10B14FF0FF30D9E7EAB236
:109E4000074B1B68597D064B5B6818783346F9F75A
:109E50000BFA10B14FF0FF30CBE70020C9E700004C
:109E6000B000002008B57048807A10B94FF0FF307C
:109E700008BD002000906C4A1268D17B6A4A526883
:109E800010786B460122F9F729FA10B14FF0FF3034
:109E9000EEE7654A12685179634A526810786B465A
:109EA0000122F9F71BFA10B14FF0FF30E0E75E4AEC
:109EB000126811795C4A526810786B460122F9F7F2
:109EC0000DFA10B14FF0FF30D2E7574890F8240058
:109ED000002853D00C200090534A12681179524A3E
:109EE000526810786B460122F9F7F8F910B14FF07B
:109EF000FF30BDE73220FDF775FFC02000904A48D3
:109F0000807A00F0010020B19DF8000040F02000B0
:109F10000090454A12681179434A526810786B469E
:109F20000122F9F7DBF910B14FF0FF30A0E73E480E
:109F3000407C10B10220009001E0002000903A4ADD
:109F40001268D17B384A526810786B460122F9F7C3
:109F5000C5F910B14FF0FF308AE700200090324A77
:109F600012685179304A526810786B460122F9F72D
:109F7000B5F9002855D04FF0FF3079E70420009064
:109F8000294A12681179284A526810786B460122D2
:109F9000F9F7A4F910B14FF0FF3069E72248807C4F
:109FA00020B92148807A00F0010010B940200090CB
:109FB00001E0602000901C4A126811791A4A526828
:109FC00010786B460122F9F789F910B14FF0FF3094
:109FD0004EE73220FDF706FF1348407C10B1012008
:109FE000009001E0002000900F4A1268D17B0E4AD9
:109FF000526810786B460122F9F770F910B14FF0F2
:10A00000FF3035E7084A12685179074A52681078DC
:10A01000054B10330122F9F761F910B14FF0FF3011
:10A0200026E7002024E70000B00000202DE9F04FD3
:10A030008DB083460F4602200C90424890F82400D1
:10A0400020B1002000F068F9012600E0002603A8F6
:10A05000FFF71AFC05A8FFF7BFFB01A8FFF766FC96
:10A0600002A8FFF78BFC374890F80AA004A8FFF776
:10A0700003FC002407E0002239465846FEF72AFD7B
:10A0800000B902E0641C022CF5DB00BF022C01D1F8
:10A09000002528E0002407E0012206A909A8FEF710
:10A0A00019FD00B902E0641C022CF5DB00BF022C94
:10A0B00001D1002517E006A93846FDF7F9FD00F0AB
:10A0C000FF0809A95846FEF73DFF00F0FF090025EB
:10A0D000B9F1000F01D145F00105B8F1000F01D130
:10A0E00045F0020500BFFF2016490872FF21154800
:10A0F0004172C1724FF6FF71C181FF2181720174FB
:10A1000001210173BDF80C0000F04EF99DF8140018
:10A1100000F01AF8BDF8040000F0C0F9BDF808001E
:10A1200000F0FEF9504600F049FA9DF81000FFF7E4
:10A13000CBFA16B1012000F0EFF828460DB0BDE8CB
:10A14000F08F0000B000002038B504461E48807A29
:10A1500010B94FF0FF3038BD022C06D0042C07D0C8
:10A16000082C08D0102C0CD108E0002000900BE047
:10A170000820009008E01020009005E018200090D2
:10A1800002E04FF0FF30E6E700BF0F48407A9DF84D
:10A190000010B0EBE10F01D10020DCE70A4A1268A1
:10A1A000D179094A526810786B460122F9F796F87E
:10A1B00010B14FF0FF30CEE79DF80000C11002480B
:10A1C00041720020C7E70000B000002038B5044607
:10A1D0005048807CA04201D1002038BD002C46D0E0
:10A1E0004C4A126811794B4A526810786B4601222A
:10A1F000F9F73AF810B14FF0FF30EEE79DF80000A4
:10A2000020F020000090434A12681179414A5268B8
:10A2100010786B460122F9F761F810B14FF0FF306A
:10A22000DBE70320FDF7DEFD02200090394890F8BF
:10A23000220020B19DF8000040F0800000903548D9
:10A2400090F8230020B19DF8000040F0300000900D
:10A25000304A1268117D2F4A526810786B460122ED
:10A26000F9F73CF8002851D04FF0FF30B5E7294A04
:10A2700012681179274A526810786B460122F8F764
:10A28000F3FF10B14FF0FF30A7E72248807A00F0CB
:10A29000010028B19DF8000040F02000009004E08B
:10A2A0009DF8000020F0200000901A4A12681179F1
:10A2B000184A526810786B460122F9F70FF810B16E
:10A2C0004FF0FF3089E70320FDF78CFD114890F82F
:10A2D000220010B18020009001E0002000900D4885
:10A2E00090F8230020B19DF8000040F0300000906D
:10A2F000084A1268117D074A526810786B4601229D
:10A30000F8F7ECFF10B14FF0FF3066E701488474B6
:10A31000002062E7B000002038B50446214890F8DC
:10A320002400A04201D1002038BD24B31D4890F87C
:10A33000250010B94FF0FF30F6E7002000F034FAA6
:10A340000020FFF743FF1749C88C00F0E9F8002010
:10A3500000901449496808786B4601222321F8F7D8
:10A36000BDFF01210F4880F82410012000F01CFAE5
:10A37000FFF778FD13E0002000F016FA0948007C92
:10A3800000900849496808786B4601222321F8F7B4
:10A39000A5FF0021034880F82410FFF763FD00208B
:10A3A000C2E70000B000002038B504461F48807A9C
:10A3B00010B94FF0FF3038BDFA2C09D0B4F5FA7F50
:10A3C00009D0B4F57A7F09D0B4F5FA6F0CD108E062
:10A3D000002000900BE00820009008E01020009082
:10A3E00005E01820009002E04FF0FF30E3E700BFE7
:10A3F0000E48007A9DF80010B0EBE10F01D100206B
:10A40000D9E70A4A12689179084A526810786B466F
:10A410000122F8F763FF10B14FF0FF30CBE79DF852
:10A420000000C010014908720020C4E7B0000020FD
:10A4300038B50446184890F82300A04201D1002006
:10A4400038BD14B13020009001E000200090124887
:10A45000807C20B19DF8000040F0020000900E4882
:10A4600090F8220020B19DF8000040F0800000909C
:10A47000094A1268117D084A526810786B46012219
:10A48000F8F72CFF10B14FF0FF30D9E7024880F801
:10A4900023400020D4E70000B000002038B5044677
:10A4A0001E48807A10B94FF0FF3038BDBC2C02DB5B
:10A4B0000120009015E0622C02DB0220009010E0E9
:10A4C0002A2C02DB032000900BE0142C02DB04207A
:10A4D000009006E00A2C02DB0520009001E0062037
:10A4E00000900E48C07A9DF80010884201D10020EB
:10A4F000DBE70A4A12689178084A526810786B467E
:10A500000122F8F7EBFE10B14FF0FF30CDE79DF8D8
:10A5100000100248C1720020C7E70000B000002010
:10A5200038B504462448807A10B94FF0FF3038BD62
:10A53000214890F8240010B14FF0FF30F7E71E4893
:10A54000007D50B134B1282C04DCE0B2FFF77AFB77
:10A550000020ECE70020FFF775FB042C01DA04244F
:10A5600004E0B4F57A7F01DD4FF47A744FF47A7029
:10A5700090FBF4F0401EC0B200900F4A1268517870
:10A580000D4A526810786B460122F8F7A7FE10B109
:10A590004FF0FF30CBE79DF80000401C4FF47A717C
:10A5A00091FBF0F081B20448C1810146C98948108D
:10A5B000FFF774FF0020BAE7B000002038B504466A
:10A5C00004F0700010B10120009005E014B10020EB
:10A5D000009001E0402000902B4A1268917C2A4AAA
:10A5E000526810786B460122F8F778FE20B10021FE
:10A5F00025488172481E38BD9DF8000020F04001BA
:10A60000214801730020009004F0400020B99DF81B
:10A61000000040F00400009004F0200020B99DF8F4
:10A62000000040F00200009004F0100020B99DF8F6
:10A63000000040F00100009004F0080020B99DF8EF
:10A64000000040F0380000900F4A1268D17C0E4A9A
:10A65000526810786B460122F8F740FE20B10021C5
:10A6600009488172481EC6E724B1082C02D0002098
:10A67000FFF7DEFE04488472002101753220FDF7E9
:10A68000B1FB0020B7E70000B0000020F8B5044699
:10A690000D46164616B94FF0FF30F8BD1A48807ABD
:10A6A00010B94FF0FF30F8E720128DF80000E0B24B
:10A6B0008DF801009DF80100284413494968498933
:10A6C000884202DD4FF0FF30E7E70F4A1268117E43
:10A6D0000D4A526810786B460222F8F7FFFD10B160
:10A6E0004FF0FF30D9E7EAB2074B1B68597D064BA4
:10A6F0005B6818783346F8F7F1FD10B14FF0FF3082
:10A70000CBE70020C9E70000B000002010B588B0FA
:10A7100002A905A8FFF78AFC0446032C41D101A831
:10A72000FFF7D4F89DED050AB8EEC00ADDED010A89
:10A7300020EE200ABDEEC00A8DED050A9DED060A49
:10A74000B8EEC00ADDED010A20EE200ABDEEC00A17
:10A750008DED060A9DED070AB8EEC00ADDED010A8F
:10A7600020EE200ABDEEC00A8DED070A05A8FDF710
:10A7700079FE6846FFF756F8BDF800100298484386
:10A780000290BDF80010039848430390BDF80010F4
:10A7900004984843049002A8FDF794FD002008B0F7
:10A7A00010BD0120FBE7000038B50446214890F8B1
:10A7B0002400C0B114B10220009001E000200090FC
:10A7C0001C4A1268D17B1B4A526810786B460122E2
:10A7D000F8F784FD10B14FF0FF3038BD9DF8001040
:10A7E0001448417423E01348807A10B94FF0FF30C9
:10A7F000F3E724B10F48407C08B10020EDE714B125
:10A800000120009001E0002000900A4A1268D17BEC
:10A81000084A526810786B460122F8F75FFD10B1C4
:10A820004FF0FF30D9E79DF8001002484174002036
:10A83000D3E70000B000002000B52DED048B83B0FD
:10A8400041EC190BF6F714F841EC180B18EE100A4E
:10A8500018EE901A8DED008B002818BF01200843D8
:10A8600020F00040C0F17F6000F1E040C00F14D044
:10A8700019EE101A19EE900A8DED009B002918BFF1
:10A880000121084320F00040C0F17F6000F1E0406A
:10A89000C00F04BF0120FCF7ABFD51EC180B03B057
:10A8A000BDEC048B00BD000075191A0C6A231B1C3B
:10A8B0001F207274433B4138393A6B6C376F062462
:10A8C0006D6E70006800000476005401F7FD000111
:10A8D000830000000008000000010018320005009D
:10A8E000000020410000D242295C0F3E9A99993E17
:10A8F0003333733F295C0F3E0000700000000024DA
:10A90000000000020003000000650054FFEF00009B
:10A91000FA80000B12820001030C30C30E8C8CE90C
:10A9200014D5400213710F8E3883F8833000F883FA
:10A93000258EF8833000F883FFFFFFFF0FFEA9D6B6
:10A94000240004001A8279A10000003CFFFF0000EF
:10A950000010000038836FA2003E0330400000006A
:10A9600002CAE3093E800000200000000000000051
:10A970004000000060000000000C0000000C186E99
:10A98000000006920A16C0DFFFFF0256FD8CD37747
:10A99000FFE1C496E0C5BEAA00000000FFFF0B2B3C
:10A9A00000001657000003594000000000001DFA87
:10A9B00000026C1D000000003FFFDFEB003EB3B65D
:10A9C000000D227800002F3C00000000001942B565
:10A9D000000039A20000B365D90E9FC91DCF4C34C9
:10A9E00030000000500000003BB67AE80064000030
:10A9F00000C8000000000000100000001000FA92E3
:10AA00001000225E000D229F0001000000320000B5
:10AA1000FF46000063D400001000000004D60000D0
:10AA200004CC000004CC00000000107200000040C4
:10AA30000000000000000000000600020005000702
:10AA4000000000000064000000000000000000059D
:10AA5000000500640020000000000000000000006D
:10AA6000000040000000030000000032F8980000E1
:10AA7000FF650000830F0000FF9BFC00000000004A
:10AA800000000000000000000000000000000000C6
:10AA900000000000000000000000000000000000B6
:10AAA0000000000000001000400000000000000650
:10AAB0000000B26A000200000001FB830068000091
:10AAC00000D9FC007CF1FF8300000000006500005D
:10AAD000006403E800640028000000250000000076
:10AAE00016A000000000100000001000002F000061
:10AAF000000001F40000100000280000FFFF458165
:10AB0000FFFFFA7200000000000000000044000592
:10AB10000005BAC6004778A200000001000000004E
:10AB200000000600000000140000254D002F706D8D
:10AB3000000005AE000C02D0000000000000000084
:10AB40000000000000000000001B000000000000EA
:10AB50000000000000000000006400000008000089
:10AB600000000000000000000000000000000000E5
:10AB700000000000000000000000000000000000D5
:10AB800000000000000000000000000000000000C5
:10AB900000000000000000000000000000000000B5
:10ABA00000000000000000000000000000000000A5
:10ABB0000000000000000000001B0000000000007A
:10ABC00000000000000E000E00000AC70004000094
:10ABD00000000032FFFFFF9C00000B2B0000000272
:10ABE0000000000100000064FFE50000000000001C
:10ABF0000000000000000000000000010000000054
:10AC00000001000000000000000180000001800041
:10AC100000018000002426D3000000000000000096
:10AC2000000600100096003C00000000000000003C
:10AC300000000000000000000C0A4E68CDCF77092C
:10AC400050166759C619CE820000000000000000AF
:10AC500000000000000000000000000000000000F4
:10AC600017D784000300000000000000000000006F
:10AC7000C7938F9D1E1B1C190000000000000000E0
:10AC800000000000000000000000000000000000C4
:10AC900002031885000040000000000300000003CC
:10ACA0000000000000000000400000000000000064
:10ACB0000000000000000000000000000000000094
:10ACC0000000000000000000000000000000000084
:10ACD000000000000000000000000000677DDF7E33
:10ACE00072902E554CF6E68800000000000000002F
:10ACF0000000000000000000D8DCB4B8B0D8B9AB48
:10AD0000F3F8FAB3B7BB8E9EAEF132F51BF1B4B8CF
:10AD1000B08097F1A9DFDFDFAADFDFDFF2AAC5CDC0
:10AD2000C7A90CC92C97F1A989264666B28999A9A9
:10AD30002D557DB0B08AA896365676F1BAA3B4B236
:10AD400080C0B8A89711B28398BAA3F02408441021
:10AD50006418B2B9B49883F1A329557DBAB5B1A3EB
:10AD60008393F0002850F5B2B6AA839328547CF15F
:10AD7000B9A3829361BAA2DADEDFDB819AB9AEF5BC
:10AD8000606870F1DABAA2DFD9BAA2FAB9A38292E6
:10AD9000DB31BAA2D9BAA2F8DF85A4D0C1BBAD839A
:10ADA000C2C5C7B8A2DFDFDFBAA0DFDFDFD8D8F1C6
:10ADB000B8AAB38DB4980D355DB2B6BAAF8C9619FA
:10ADC0008F9FA70E161EB49AB8AA872C547CBAA4DB
:10ADD000B08AB691325676B28494A4C808CDD8B859
:10ADE000B4B0F19982A82D557D98A80E161EA22CFC
:10ADF000547C92A4F02C5078F184A898C4CDFCD84F
:10AE00000DDBA8FC2DF3D9BAA6F8DABAA6DED8BABB
:10AE1000B2B68696A6D0F3C841DAA6C8F8D8B0B4C0
:10AE2000B882A892F52C548898F135D9F418D8F145
:10AE3000A2D0F8F9A884D9C7DFF8F883C5DADF69AA
:10AE4000DF83C1D8F40114F1A8824EA884F311D194
:10AE500082F5D992289788F109F41C1CD884A8F3AC
:10AE6000C0F9D1D99782F129F40DD8F3F9F9D1D9E4
:10AE700082F4C203D8DEDF1AD8F1A2FAF9A88498C6
:10AE8000D9C7DFF8F8F883C7DADF69DFF883C3D8FA
:10AE9000F40114F198A8822EA884F311D182F5D977
:10AEA00092509788F109F41CD884A8F3C0F8F9D11E
:10AEB000D99782F149F40DD8F3F9F9D1D982F4C4C4
:10AEC00003D8DEDFD8F1AD8898CCA809F9D98292F1
:10AED000A8F57CF1883ACF944A6E98DB6931DAADF7
:10AEE000F2DEF9D88795A8F221D1DAA5F9F417D9BD
:10AEF000F1AE8ED0C0C3AE82C684C3A88595C8A566
:10AF000088F2C0F1F4010EF18E9EA8C63E56F554AB
:10AF1000F18872F40115F19845856EF58E9E0488CE
:10AF2000F142985A8E9E068869F4011CF1981E1110
:10AF300008D0F504F11E970202983625DBF9D98571
:10AF4000A5F3C1DA85A5F3DFD88595A8F309DAA5BD
:10AF5000FAD88292A8F578F1881A849F26889821D9
:10AF6000DAF41DF3D8879F39D1AFD9DFDFFBF9F4CD
:10AF70000CF3D8FAD0F8DAF9F9D0DFD9F9D8F40B14
:10AF8000D8F3879F39D1AFD9DFDFF41DF3D8FAFCAE
:10AF9000A869F9F9AFD0DADEFAD9F88F9FA8F1CC19
:10AFA000F398DB45D9AFDFD0F8D8F18F9FA8CAF36B
:10AFB0008809DAAF8FCBF8D8F2AD978D0CD9A5DF21
:10AFC000F9BAA6F3FAF412F2D8950DD1D9BAA6F3CC
:10AFD000FADAA5F2C1BAA6F3DFD8F1BAB2B686960C
:10AFE000A6D0CAF349DAA6CBF8D8B0B4B8D8AD84A5
:10AFF000F2C0DFF18FCBC3A8B2B68696C8C1CBC36F
:10B00000F3B0B48898A821DB718D9D71859521D905
:10B01000ADF2FAD88597A828D9F408D8F28D29DAA4
:10B02000F405D9F285A4C2F2D8A88D9401D1D9F43F
:10B0300011F2D88721D8F40AD8F28498A8C801D18F
:10B04000D9F411D8F3A4C8BBAFD0F2DEF8F8F8F801
:10B05000F8F8F8F8D8F1B8F6B5B9B08A95A3DE3C9F
:10B06000A3D9F8D85CA3D9F8D87CA3D9F8D8F8F933
:10B07000D1A5D9DFDAFAD8B18530F7D9DED8F830E2
:10B08000ADDADED8F2B48C99A32D557DA083DFDF35
:10B09000DFB591A0F629D9FBD8A0FC29D9FAD8A010
:10B0A000D051D9F8D8FC51D9F9D879D9FBD8A0D04A
:10B0B000FC79D9FAD8A1F9F9F9F9F9A0DADFDFDFDB
:10B0C000D8A1F8F8F8F8F8ACDEF8ADDE8393AC2C34
:10B0D000547CF1A8DFDFDFF69D2CDAA0DFD9FADBA4
:10B0E0002DF8D8A850DAA0D0DED9D0F8F8F8DB5582
:10B0F000F8D8A878DAA0D0DFD9D0FAF8F8F8F8DBD9
:10B100007DF8D89CA88CF530DB38D9D0DEDFA0D014
:10B11000DEDFD8A848DB58D9DFD0DEA0DFD0DED80C
:10B12000A868DB70D9DFDFA0DFDFD8F1A888902C1A
:10B13000547C98A8D05C38D1DAF2AE8CDFF9D8B064
:10B1400087A8C1C1B188A8C6F9F9DA36D8A8F9DA52
:10B1500036D8A8F9DA36D8A8F9DA36D8A8F9DA361E
:10B16000D8F78D9DADF818DAF2AEDFD8F7ADFA302A
:10B17000D9A4DEF9D8F2AEDEFAF983A7D9C3C5C7E0
:10B18000F1889BA77AADF7DEDFA4F8849408A7972F
:10B19000F300AEF29819A488C6A39488F632DFF2C1
:10B1A0008393DB09D9F2AADFD8D8AEF8F9D1DAF364
:10B1B000A4DEA7F1889B7AD8F38494AE19F9DAAAB1
:10B1C000F1DFD8A881C0C3C5C7A39283F628ADDE3E
:10B1D000D9F8D8A350ADD9F8D8A378ADD9F8D8F814
:10B1E000F9D1A1DADEC3C5C7D8A18194F818F2B0AD
:10B1F00089ACC3C5C7F1D8B8B4B09786A8319B064F
:10B200009907AB9728889BF00C201440B0B4B8F095
:10B21000A88A9A285078B79BA82951792470594454
:10B220006938644831F1BBAB88002C547CF0B38B97
:10B23000B8A804285078F1B088B49726A85998BBCC
:10B24000ABB38B02264666B0B8F08A9CA829517928
:10B250008B2951798A2470598B2058718A44693816
:10B260008B3940688A6448318B30496088F1AC0082
:10B270002C547CF08CA804285078F1889726A85983
:10B2800098AC8C02264666F0899CA82951792470D6
:10B2900059446938644831A98809205970AB11387C
:10B2A0004069A8193148608CA83C415C207C00F1C1
:10B2B00087981986A86E767EA999882D557DD8B174
:10B2C000B5B9A3DFDFDFAED0DFAAD0DEF2ABF8F98D
:10B2D000D9B087C4AAF1DFDFBBAFDFDFB9D8B1F1E6
:10B2E000A3978E60DFB084F2C8F8F9D9DED89385D1
:10B2F000F14AB183A308B5839A0810B79F10D8F11B
:10B30000B0BAAEB08AC2B2B68E9EF1FBD9F41DD8E7
:10B31000F9D90CF1D8F8F8AD61D9AEFBD8F40CF13D
:10B32000D8F8F8AD19D9AEFBDFD8F416F1D8F8ADDE
:10B330008D61D9F4F4ACF59C9C8DDF2BBAB6AEFAD6
:10B34000F8F40BD8F1AED0F8AD51DAAEFAF8F1D886
:10B35000B9B1B6A3839C08B9B1839AB5AAC0FD3030
:10B3600083B79F10B58B93F20202D1ABDADED8F12E
:10B37000B080BAABC0C3B284C1C3D8B1B9F38BA398
:10B3800091B609B4D9ABDEB0879CB9A3DDF1B38B1C
:10B390008B8B8B8BB087A3A3A3A3B28BB69BF2A39B
:10B3A000A3A3A3A3A3A3A3A3A3F1B087B59AA3F3D5
:10B3B0009BA3A3DCBAACDFB9A3A3A3A3A3A3A3A3BA
:10B3C000A3A3A3A3A3A3A3A3D8D8D8BBB3B7F1AA1D
:10B3D000F9DAFFD9809AAA28B48098A720B797876E
:10B3E000A86688F07951F1902C870CA78197629319
:10B3F000F071716085940129517990A5F1284C6C08
:10B40000870C95188578A38390284C6C886CD8F3AA
:10B41000A28200F210A8921980A2F2D926D8F1884F
:10B42000A84DD948D896A83980D93CD89580A83954
:10B43000A68698D92CDA87A72CD8A8899519A9802F
:10B44000D938D8A88939A980DA3CD8A82EA839904B
:10B45000D90CD8A8953198D90CD8A809D9FFD8010A
:10B46000DAFFD89539A9DA26FFD890A80D8999A8CE
:10B4700010809821DA2ED88999A83180DA2ED8A8A0
:10B4800086963180DA2ED8A8873180DA2ED8A88225
:10B4900092F34180F1D92ED8A882F31980F1D92EE8
:10B4A000D882ACF3C0A28022F1A62EA72EA92298A2
:10B4B000A829DAACDEFFD8A2F22AF1A92E8292A83E
:10B4C000F23180A696F1D900AC8C9C0C30ACDED069
:10B4D000DEFFD88C9CACD010ACDE8092A2F24C8205
:10B4E000A8F1CAF235F19688A6D900D8F1FF00007C
:10B4F000555555555555C53F7D6FEB0312D6D4BFF5
:10B500005544880E55C1C93F3B8F68B52882A4BFFA
:10B5100088B20175E0EF493F09F7FD0DE13D023FBB
:10B520004B2D8A1C273A03C0C88A599CE52A004043
:10B5300059018D1B6C06E6BF82922EB1C5B8B33F90
:10B540004FBB610567ACDD3F182D4454FB21E93F3B
:10B550009BF681D20B73EF3F182D4454FB21F93F2A
:10B56000E2652F227F2B7A3C075C143326A6813CB0
:10B57000BDCBF07A8807703C075C143326A6913C5B
:10B58000C4EB98999999C9BF711623FEC671BCBFC7
:10B590006D9A74AFF2B0B3BF9AFDDE522DDEADBF2F
:10B5A0002F6C6A2C44B4A2BF0D5555555555D53F47
:10B5B000FF8300922449C23F6E204CC5CD45B73F62
:10B5C000513DD0A0660DB13FEB0D76244B7BA93FDA
:10B5D00011DA22E33AAD903F0000000000000000C5
:10B5E00053746449643A2030782578202020464DF1
:10B5F000493A20307825782020446174613A20301F
:10B600007825782020203078257820202030782553
:10B610007820202030782578202020307825782048
:10B620002020307825782020203078257820202090
:10B630003078257820200A00094D6F74726F205AE7
:10B640004C414338303135442052656164205665A1
:10B650006E646F7249445F436D643A202564206EC6
:10B660006F7420726573706F6E64696E672C206DE5
:10B670006F746F7220696E6974206661696C6564AD
:10B680000A000000094D6F74726F205A4C41433814
:10B690003031354420526561642050726F647563A7
:10B6A00074436F64655F436D643A202564206E6F58
:10B6B0007420726573706F6E64696E672C206D6F95
:10B6C000746F7220696E6974206661696C65640AC2
:10B6D00000000000094D6F74726F205A4C414338CE
:10B6E000303135442052656164204D616B6572498B
:10B6F0006E666F5F436D643A202564206E6F742020
:10B70000726573706F6E64696E672C206D6F746FF5
:10B710007220696E6974206661696C65640A000054
:10B7200050726F64756374204944207265616420AF
:10B730006173203020696E6469636174657320648D
:10B740006576696365206973206569746865722030
:10B75000696E636F6D70617469626C65206F7220D1
:10B76000616E204D5055333035302E0A00000000F8
:10B7700090B7000800000020F0000000C873000827
:10B7800080B80008F000002088110000D87300087D
:10B79000007A030A00000000000000000102030418
:10B7A0000607080900000000010203040102030467
:10B7B000060708090000000000000000000000006B
:10B7C0000000000000000000000000000000000079
:10B7D0000000000000000000000000000000000069
:10B7E0000000000000000000000000000000000059
:10B7F0000000000000000000000000000000000049
:10B800000000000000000000000000000000000038
:10B810000000000000000000000000000000000028
:10B820000000000000000000000017EF0000000012
:10B830000000000000000000000000000000000008
:10B84000A8A80008C4A8000800000000000000002C
:10B8500000000000000000000000000000000000E8
:10B860000000000000000000D0A800080100000057
:10B8700001000000010000000000000000000000C6
:040000050800018965
:00000001FF
