:020000040800F2
:10000000A81100209D010008BD3700084924000800
:10001000BF300008611700083B5F000800000000C7
:10002000000000000000000000000000794B000804
:1000300015200008000000008D380008414D000820
:10004000B7010008B7010008B7010008B7010008B0
:10005000B7010008B7010008FD220008B701000839
:10006000B7010008B7010008B7010008B701000890
:10007000B7010008B7010008B7010008B701000880
:10008000011E0008B7010008B7010008B701000809
:1000900065170008B7010008B7010008B70100089C
:1000A000B7010008B7010008B7010008B701000850
:1000B000394E0008B7010008B7010008B701000871
:1000C000B7010008B7010008B7010008B701000830
:1000D000B7010008F5560008B5590008A15A0008F4
:1000E0000F230008B7010008B7010008B701000896
:1000F000B7010008B7010008B7010008B701000800
:10010000B7010008B7010008B7010008B7010008EF
:100110002553000835540008514E00089D4E000834
:10012000B7010008B7010008551E0008B701000814
:10013000B7010008B7010008B7010008B7010008BF
:1001400095170008B7010008B7010008B7010008BB
:10015000B7010008B7010008A51E0008C55C00082B
:10016000B7010008B7010008B7010008B70100088F
:10017000B7010008B7010008B7010008B70100087F
:10018000B7010008B7010008DFF80CD000F0E6FB6B
:100190000048004765800008A811002006488047F5
:1001A00006480047FEE7FEE7FEE7FEE7FEE7FEE75C
:1001B000FEE7FEE7FEE7FEE7D14D000889010008F3
:1001C0002DE9F0410024061B254671F1000605DAF1
:1001D00001240027D0EB070067EB0101161E73F125
:1001E000000605DA0027D2EB0702012567EB0303BF
:1001F00000F06CFA86460E4617469C46AC4204D088
:100200000025D0EB050E65EB010624B10020D2EBF2
:10021000000760EB030C704631463A466346BDE882
:10022000F08140EA01039B0703D009E008C9121FCF
:1002300008C0042AFAD203E011F8013B00F8013BA0
:10024000521EF9D27047D2B201E000F8012B491ECC
:10025000FBD270470022F6E710B513460A46044663
:100260001946FFF7F0FF204610BD30B504460020C8
:10027000034600E05B1C934203D2E05CCD5C401B74
:10028000F8D030BD2DE9FE4F804681EA0300C00F53
:100290000C46009021F0004123F00045B8EB02002D
:1002A000A94105D24046214690461C460B460246CF
:1002B00023F00040104347D0270DC7F30A00C3F3D3
:1002C0000A510290401A019040286BDAC3F31300E0
:1002D00040F4801B0098924620B10023D2EB030A21
:1002E00063EB0B0B01985946C0F14002504600F0F9
:1002F0001EFA06460D4650465946019A00F036FA57
:1003000010EB08006141002487EA115284EAE77388
:100310001A4340D0009A62B3019A012A4FEA075269
:1003200015DC001B61EB02014FF0004202EA0752AC
:10033000CDE90042001C41F5801132462B4600F009
:100340006DFA03B0BDE8F08F40462146F9E7001B87
:1003500061EB0201001C41F5801300185B4120187D
:10036000A2F5001747EB030140EAD570B6196D41BD
:1003700011E06D084FEA360645EAC0754FEA0752AC
:10038000001B61EB0201001C41F5801149084FEA96
:1003900030000019514132462B4603B0BDE8F04F02
:1003A00000F02DBA0098012240000023D0EB020299
:1003B00063EBE073009821464FEAE074B8EB00006D
:1003C00061EB0401E9E783F000435BE781F0004162
:1003D00058E72DE9FE4F81EA030404F0004421F0C0
:1003E000004100944FF0000B23F0004350EA010459
:1003F0005ED052EA03045BD0C3F30A54C1F30A553A
:100400002C44A4F2F3340194A0FB0254C1F3130171
:1004100041F48011C3F3130343F4801301FB02443E
:1004200000FB034E840A970A44EA815447EA835743
:10043000A4FB076802958D0A05FB07854FEA932CFC
:1004400004FB0C542705029D4FEA065847EA16376D
:10045000B5EB08056EEB070C870E920E47EA811785
:1004600042EA8312A7FB0201B6EB0B0164EB000426
:100470002B0D43EA0C335E1844EB1C50DA46514610
:10048000E7FB0201C5F313044FEA0B3343EA1453AD
:100490004FEA0432019C43EA0603A4F10C040294DF
:1004A000009CCDE900B400F0B9F903B0BDE8F08FCD
:1004B00000200146F9E72DE9F04D81EA030404F03C
:1004C000004B21F0004514464FF0000A23F0004194
:1004D00050EA050220D054EA01021DD0C5F30A57A4
:1004E0000246C5F31303C1F31300C1F30A5640F4E7
:1004F000801543F48013A7EB0608101BD64608F2BC
:10050000FD3873EB050002D308F1010801E09218F1
:100510005B41B8F1000F03DA00200146BDE8F08D21
:1005200000204FF48011064684460EE0171B73EB43
:10053000050705D3121B63EB050306434CEA010CC8
:1005400049084FEA300092185B4150EA0107EDD1AB
:1005500052EA030012D082EA040083EA050108434C
:1005600005D0101BAB4106D20122002306E0002279
:100570004FF0004302E06FF0010253101AEB060047
:100580004CEB085110EB0A0041EB0B01BDE8F04DBC
:1005900000F035B90EB5C10F80EAE0700844CA0713
:1005A000002140F233438DE80E000A460B4600F06E
:1005B00035F903B000BD0EB540F233410291002180
:1005C000CDE900110A460B4600F028F903B000BD42
:1005D00070B5C1F30A5201F000450024C1F31301C4
:1005E00040F2FF3341F480119A4201DA002070BDDD
:1005F00040F233439A42A2F2334203DC524200F00B
:10060000A5F800E090402C43F1D0404270BD00F0CE
:10061000004230F000400AD0C10D01F56071C0F316
:10062000160042EA0151C2084007114370470020FA
:100630000146704730B5041E71F1000404DB4FF031
:100640000044404264EB0101141E73F1000405DB19
:100650001C464FF00043524263EB04038B4208BF39
:10066000824230BD30B5041E71F1000404DB4FF04E
:100670000044404264EB0101141E73F1000405DBE9
:100680001C464FF00043524263EB0403994208BFFB
:10069000904230BD01F0004330B421F0004150EAF7
:1006A000010206D00A0DA2F56072C1F31301002AFF
:1006B00002DC30BC00207047440F44EAC104C10092
:1006C000E01830BC00EBC25000F062B82DE9F05FDA
:1006D0000546002092469B468846064681464024B1
:1006E0001BE0284641464746224600F02FF8534675
:1006F0005A46C01A914110D311461846224600F0BE
:1007000016F82D1A67EB01084F46224601200021FA
:1007100000F00DF817EB00094E41201EA4F1010472
:10072000DFDC484631462A464346BDE8F09F202A92
:1007300004DB203A00FA02F1002070479140C2F138
:10074000200320FA03F3194390407047202A04DB6A
:10075000203A21FA02F00021704721FA02F3D0403A
:10076000C2F120029140084319467047202A06DB57
:10077000CB17203A41FA02F043EAE07306E041FA6F
:1007800002F3D040C2F1200291400843194670475D
:100790000029A8BF7047401C490008BF20F0010095
:1007A000704710B4B0FA80FC00FA0CF050EA010473
:1007B00004BF10BC704749B1CCF1200421FA04F405
:1007C00011FA0CF118BF012121430843A3EB0C01DE
:1007D000CB1D4FEA00614FEA102042BF002010BC41
:1007E000704700EBC35010440029A4BF10BC7047F1
:1007F000401C490008BF20F0010010BC704710B534
:10080000141E73F1000408DA401C41F10001921833
:100810005B411A4301D120F0010010BD2DE9F04DDC
:1008200092469B4611B1B1FA81F202E0B0FA80F231
:1008300020329046FFF77BFF04460F4640EA0A004D
:1008400041EA0B0153465A46084313D0114653EA76
:10085000010019D0C8F140025046FFF777FF054666
:100860000E46504659464246FFF761FF084305D001
:10087000012004E020463946BDE8F08D0020054304
:1008800046EAE0762C4337430A986305E40AA0EB76
:1008900008000022FD0A44EA47540A3002D500202D
:1008A0000146E9E7010510196941DDE9084500192C
:1008B0006941BDE8F04DA2E72DE9F04D00231A464D
:1008C0001B1A8A4103DB00200146BDE8F08DC1F30D
:1008D0000A52C1F3130141F480154FF0000BD10708
:1008E00002D100186D41521E0027044640F2FF114C
:1008F000384601EB620A3E468046024600204FF42D
:100900008011FFF723FFC2197141BB1846EB0100AC
:10091000B4EB030C75EB000C04D3E41A65EB000593
:1009200017460E46241908F101006D41804634280F
:10093000E3DDF91946EB0600091BA84103D24FF08D
:10094000FF32134601E0002213461BEB070046EB83
:100950000A51BDE8F04DFFF752BF0000064C074DAD
:1009600006E0E06840F0010394E80700984710347F
:10097000AC42F6D3FFF70CFC38A0000858A00008E2
:1009800021B1826842F00102826003E0826822F0B5
:1009900001028260704700000021084A1168084A7D
:1009A0001140D0E900231A4383681A43C3681A43ED
:1009B0001143044AC2F804137047000004230140A5
:1009C000E030FCFF0020014021B1826842F48072D7
:1009D000826003E0826822F480728260704721B1F5
:1009E000826842F40072826003E0826822F400723E
:1009F0008260704730B50246002000235068104CDA
:100A000020400D790C6844EA05242043506090682A
:100A10000C4C2040D1E903542C438D682C434D7974
:100A200044EA450420439060D06A20F470000C7DB5
:100A3000641EE4B2234340EA0350D06230BD00009C
:100A4000FFFEFFFCFDF7FFC0F0B504460D46002099
:100A50000021092D11DDE068A5F10A0606EB460725
:100A6000072606FA07F18843A5F10A0606EB4606B3
:100A700003FA06F10843E0600CE0206905EB450746
:100A8000072606FA07F1884305EB450603FA06F147
:100A900008432061072A0FDA606B561E06EB8607B3
:100AA0001F2606FA07F18843561E06EB860605FA4E
:100AB00006F10843606322E00D2A0FDA206BD61F8F
:100AC00006EB86071F2606FA07F18843D61F06EBBA
:100AD000860605FA06F10843206310E0E06AA2F1F9
:100AE0000D0606EB86071F2606FA07F18843A2F1DA
:100AF0000D0606EB860605FA06F10843E062F0BD36
:100B0000816841F0804181607047000038B1084938
:100B1000096841F40001074AC2F8041306E00449D9
:100B2000096821F40001034AC2F804137047000069
:100B3000042301400020014000B52DED040B9BB0C3
:100B40009FEDFD0A8DED1A0A9FEDFC0A8DED190A45
:100B50009FEDFA0A8DED180A9FEDF70A8DED170A41
:100B60009FEDF50A8DED160A9FEDF30A8DED150A3E
:100B70009FEDF10A8DED140A9FEDEF0A8DED130A3A
:100B80009FEDED0A8DED120A9FEDEB0A8DED110A36
:100B90009FEDE90A8DED100A9DED1B0ADDED1D0AA2
:100BA0009DED181A00EEC10A8DED0F0A9DED1C0A8D
:100BB000DDED1D0A9DED191A00EE810A8DED0E0A7C
:100BC0009DED0F0A20EE000ADDED0E0A00EEA00AF0
:100BD0008DED030A0398FFF71AFDCDE904019DEDA1
:100BE000040B05F027FE8DED060B9DED060B51EC79
:100BF000100BFFF74FFD13909DED1B0ADDED1D0A55
:100C00009DED181A00EEC10A8DED0D0A9DED1C0A2E
:100C1000DDED1D0A9DED191A00EEC10A8DED0C0ADD
:100C20009DED0D0A60EE000A9DED0C0A40EE000AF3
:100C3000CDED030A0398FFF7EAFCCDE904019DED31
:100C4000040B05F0F7FD8DED060B9DED060B51EC49
:100C5000100BFFF71FFD12909DED1B0ADDED1D0A25
:100C60009DED181A00EE810A8DED0B0A9DED1C0A10
:100C7000DDED1D0A9DED191A00EEC10A8DED0A0A7F
:100C80009DED0B0A20EE000ADDED0A0A00EEA00A37
:100C90008DED030A0398FFF7BAFCCDE904019DED41
:100CA000040B05F0C7FD8DED060B9DED060B51EC19
:100CB000100BFFF7EFFC11909DED1B0ADDED1D0AF7
:100CC0009DED181A00EE810A8DED090A9DED1C0AB2
:100CD000DDED1D0A9DED191A00EE810A8DED080A61
:100CE0009DED090A20EE000ADDED080A00EEA00ADB
:100CF0008DED030A0398FFF78AFCCDE904019DED11
:100D0000040B05F097FD8DED060B9DED060B51ECE8
:100D1000100BFFF7BFFC10900220894981F84100B9
:100D20001B98FFF774FCCDE904019DED040B05F061
:100D300077FD8DED060B9FED830B53EC102B9DED96
:100D4000060B51EC100BFFF78DFC7DD29DED0F0AC9
:100D5000DDED130A80EE201A8DED031A0398FFF7DC
:100D600056FCCDE904019DED040B05F021FB8DED52
:100D7000060B9DED060B51EC100BFFF78BFC17904B
:100D80009DED0D0ADDED120A80EE201A8DED031A9D
:100D90000398FFF73CFCCDE904019DED040B05F041
:100DA00007FB8DED060B9DED060B51EC100BFFF7CD
:100DB00071FC16909DED0B0ADDED110A80EE201AF4
:100DC0008DED031A0398FFF722FCCDE904019DED98
:100DD000040B05F0EDFA8DED060B9DED060B51ECC5
:100DE000100BFFF757FC15909DED090ADDED100A79
:100DF00080EE201A8DED031A0398FFF708FCCDE969
:100E000004019DED040B05F0D3FA8DED060B9DED6D
:100E1000060B51EC100BFFF73DFC14901798FFF7F1
:100E2000F6FB9FED4A0B53EC102BCDE906019DED2F
:100E3000060B51EC100BFFF715FC19D21798FFF7B2
:100E4000E6FB9FED440B00E049E153EC102BCDE9AC
:100E500004019DED040B51EC100BFFF7B7FACDE93F
:100E600006019DED060B51EC100BFFF713FC1790DC
:100E70001698FFF7CCFB9FED350B53EC102BCDE90B
:100E800006019DED060B51EC100BFFF7EBFB17D2A3
:100E90001698FFF7BCFB9FED2F0B53EC102BCDE901
:100EA00004019DED040B51EC100BFFF78FFACDE917
:100EB00006019DED060B51EC100BFFF7EBFB1690B6
:100EC0001598FFF7A4FB9FED210B53EC102BCDE9F8
:100ED00006019DED060B51EC100BFFF7C3FB17D27B
:100EE0001598FFF794FB9FED1B0B53EC102BCDE9EE
:100EF00004019DED040B51EC100BFFF767FACDE9EF
:100F000006019DED060B51EC100BFFF7C3FB15908E
:100F10001498FFF77CFB9FED0D0B53EC102BCDE9E4
:100F200006019DED060B51EC100BFFF79BFB2AD23F
:100F30001498FFF76CFB11E000000000CDCCCC3E14
:100F4000D40200207B14AE47E17A843F4AD8124D88
:100F5000FB21F93F4AD8124DFB2109401FED030B3D
:100F600053EC102BCDE904019DED040B51EC100B5B
:100F7000FFF72CFACDE906019DED060B51EC100BA5
:100F8000FFF788FB14909DED1B0AB5EEC00AF1EE49
:100F900010FA13DB9DED1D0AB5EEC00AF1EE10FA52
:100FA0000CDB9DED160AB1EE400A8DED160A9DEDA3
:100FB000150AB1EE400A8DED150A07E29DED1B0AF8
:100FC000B5EEC00AF1EE10FA13DB9DED1D0AB5EE89
:100FD000C00AF1EE10FA0CD29DED170AB1EE400AEC
:100FE0008DED170A9DED140AB1EE400A8DED140A3D
:100FF000ECE19DED1B0AB5EEC00AF1EE10FA33D21A
:101000009DED1D0AB5EEC00AF1EE10FA2CD89DED4B
:10101000170AB1EE400A8DED170A9DED140AB1EEE4
:10102000400A8DED140A9DED130A8DED1A0A9DED0F
:10103000100AB1EE400A8DED130A9DED1A0AB1EEC9
:10104000400A8DED100A9DED120A8DED1A0A9DEDF4
:10105000110AB1EE400A8DED120A9DED1A0AB1EEA9
:10106000400A8DED110AB1E19DED1B0AB5EEC00AF3
:10107000F1EE10FAA1D29DED1D0AB5EEC00AF1EE17
:1010800010FA9ADD9DED160AB1EE400A8DED160AB2
:101090009DED150AB1EE400A8DED150A9DED130A7E
:1010A0008DED1A0A9DED100AB1EE400A8DED130A7E
:1010B0009DED1A0AB1EE400A8DED100A9DED120A5F
:1010C0008DED1A0A9DED110AB1EE400A8DED120A5E
:1010D0009DED1A0AB1EE400A8DED110A76E11B98DA
:1010E000FFF795FACDE904019DED040B05F098FB9F
:1010F0008DED060B1FED6D0B53EC102B9DED060BCC
:1011000051EC100BFFF796FA7ED21D98FFF77FFA8D
:10111000CDE904019DED040B05F082FB8DED060B7E
:101120001FED780B53EC102B9DED060B51EC100BC3
:10113000FFF798FAE8D29DED0F0ADDED130A80EE75
:10114000201A8DED031A0398FFF761FACDE9040127
:101150009DED040B05F02CF98DED060B9DED060BB6
:1011600051EC100BFFF796FA17909DED0D0ADDED8F
:10117000120A80EE201A8DED031A0398FFF747FA42
:10118000CDE904019DED040B05F012F98DED060B80
:101190009DED060B51EC100BFFF77CFA16909DEDC0
:1011A0000B0ADDED110A80EE201A8DED031A03986B
:1011B000FFF72DFACDE904019DED040B05F0F8F8D9
:1011C0008DED060B9DED060B51EC100BFFF762FA4F
:1011D00015909DED090ADDED100A80EE201A8DEDC7
:1011E000031A0398FFF713FACDE904019DED040BF0
:1011F00005F0DEF88DED060B9DED060B51EC100BA6
:10120000FFF748FA149000E0C0E01798FFF7FFF9E5
:101210001FEDB20B53EC102BCDE906019DED060B33
:1012200051EC100BFFF71EFA17D21798FFF7EFF9E2
:101230001FEDB80B53EC102BCDE904019DED040B11
:1012400051EC100BFFF7C2F8CDE906019DED060B3E
:1012500051EC100BFFF71EFA17901698FFF7D7F90D
:101260001FEDC60B53EC102BCDE906019DED060BCF
:1012700051EC100BFFF7F6F917D21698FFF7C7F9E4
:101280001FEDCC0B53EC102BCDE904019DED040BAD
:1012900051EC100BFFF79AF8CDE906019DED060B16
:1012A00051EC100BFFF7F6F916901598FFF7AFF910
:1012B0001FEDDA0B53EC102BCDE906019DED060B6B
:1012C00051EC100BFFF7CEF917D21598FFF79FF9E5
:1012D0001FEDE00B53EC102BCDE904019DED040B49
:1012E00051EC100BFFF772F8CDE906019DED060BEE
:1012F00051EC100BFFF7CEF915901498FFF787F912
:101300001FEDEE0B53EC102BCDE906019DED060B06
:1013100051EC100BFFF7A6F917D21498FFF777F9E5
:101320001FEDF40B53EC102BCDE904019DED040BE4
:1013300051EC100BFFF74AF8CDE906019DED060BC5
:1013400051EC100BFFF7A6F914909DED1D0AB5EEB8
:10135000C00AF1EE10FA0CDD9DED160AB1EE400A5E
:101360008DED160A9DED150AB1EE400A8DED150AB8
:101370002CE09DED170AB1EE400A8DED170A9DEDA8
:10138000140AB1EE400A8DED140A1FE09FEDE90A40
:101390008DED170A9FEDE70A8DED160A9FEDE50A20
:1013A0008DED150A9FEDE30A8DED140A9FEDE10A1C
:1013B0008DED130A9FEDDF0A8DED120A9FEDDD0A18
:1013C0008DED110A9FEDDB0A8DED100A1798FFF7DE
:1013D0001EF99FEDD90B53EC102BCDE904019DEDC7
:1013E000040B51EC100BFEF7F4FFCDE906019DED67
:1013F000060B51EC100BFFF74DF917901698FFF7FD
:1014000006F99FEDCD0B53EC102BCDE904019DEDBA
:10141000040B51EC100BFEF7DCFFCDE906019DED4E
:10142000060B51EC100BFFF735F916901598FFF7E6
:10143000EEF89FEDC10B53EC102BCDE904019DEDAF
:10144000040B51EC100BFEF7C4FFCDE906019DED36
:10145000060B51EC100BFFF71DF915901498FFF7D0
:10146000D6F89FEDB50B53EC102BCDE904019DEDA3
:10147000040B51EC100BFEF7ACFFCDE906019DED1E
:10148000060B51EC100BFFF705F914909DED170AB0
:10149000DFEDAB0AB4EEE00AF1EE10FA04DD9FEDE9
:1014A000A80A8DED170A0CE09DED170ADFEDA50ADD
:1014B000B4EEE00AF1EE10FA03D29FEDA20A8DED30
:1014C000170A9DED160ADFED9E0AB4EEE00AF1EE72
:1014D00010FA04DD9FED9A0A8DED160A0CE09DEDE1
:1014E000160ADFED980AB4EEE00AF1EE10FA03D224
:1014F0009FED940A8DED160A9DED150ADFED900A19
:10150000B4EEE00AF1EE10FA04DD9FED8D0A8DEDE8
:10151000150A0CE09DED150ADFED8A0AB4EEE00A2B
:10152000F1EE10FA03D29FED870A8DED150A9DEDBD
:10153000140ADFED830AB4EEE00AF1EE10FA04DDDE
:101540009FED7F0A8DED140A0CE09DED140ADFED8E
:101550007D0AB4EEE00AF1EE10FA03D29FED790AAB
:101560008DED140A9DED170ADFED770A20EE200AB3
:10157000F7EE000A80EE201ABDEEC10A10EE100A46
:10158000724908619DED160ADFED6F0A20EE200A10
:10159000F7EE000A80EE201ABDEEC10A10EE100A26
:1015A00048619DED150ADFED680A20EE200AF7EE8E
:1015B000000A80EE201ABDEEC10A10EE100A886102
:1015C0009DED140ADFED600A20EE200AF7EE000A16
:1015D00080EE201ABDEEC10A10EE100AC861139801
:1015E000FFF715F89FED5A0B53EC102BCDE90001D6
:1015F0009DED000B51EC100BFEF7EBFECDE9020167
:101600009DED020B51EC100B81F000419FED520B50
:1016100053EC102BCDE904019DED040B51EC100BA4
:10162000FEF749FFCDE906019DED060B51EC100BCD
:10163000FEF7CEFF00B2454948801298FEF7E7FF5B
:101640009FED430B53EC102BCDE900019DED000BFA
:1016500051EC100BFEF7BDFECDE902019DED020B32
:1016600051EC100B81F000419FED3B0B53EC102B24
:10167000CDE904019DED040B51EC100BFEF71BFFAF
:10168000CDE906019DED060B51EC100BFEF7A0FF16
:1016900001B22E4881801198FEF7B9FF9FED2C0B07
:1016A00053EC102BCDE902019DED020B51EC100B18
:1016B000FEF78FFE9FED280B53EC102BCDE90401B4
:1016C0009DED040B51EC100BFEF7F5FECDE9060184
:1016D0009DED060B51EC100BFEF77AFF01B21B4893
:1016E000C1801098FEF793FF9FED190B53EC102B60
:1016F000CDE902019DED020B51EC100BFEF769FEE6
:101700009FED150B53EC102BCDE904019DED040B5F
:1017100051EC100BFEF7CFFECDE906019DED060B57
:1017200051EC100BFEF754FF01B2084801811FB0C5
:1017300000BD0000000000006666666666A64C40BC
:1017400000007042000070C20000C842D4020020B5
:101750007D0569C6A2815140000000000000F03FF5
:1017600000BFFEE710B50221074800F02BF8012862
:1017700009D1064A0021044800F0B4F801F03EF80F
:1017800001200349087010BD006400404C01002096
:101790004000002010B50221074800F013F801288E
:1017A00009D1064A0021044800F09CF801F020FA13
:1017B00001200349087010BD00680040600100204E
:1017C0004200002070B504460D460026606928409E
:1017D000002871D0B5F5807F5CD010DC082D35D0A5
:1017E00006DC012D20D0022D24D0042D72D127E05B
:1017F000102D31D0202D35D0402D6BD138E0B5F5EE
:10180000004F60D009DCB5F5007F49D0B5F5806F99
:101810004CD0B5F5006F5DD14FE0B5F5803F2DD0D0
:10182000B5F5003F56D12FE0A0682D4900F0DEFA53
:10183000064651E0E068032100F0D8FA06464BE086
:10184000E068082100F0D2FA064645E0E068102181
:1018500000F0CCFA06463FE02069032100F0C6FA0A
:10186000064639E02069082100F0C0FA064633E058
:101870002069102100F0BAFA06462DE060680821C0
:1018800000F0B4FA064627E06068102100F0AEFAD6
:10189000064621E0A069012100F0A8FA06461BE0F7
:1018A000A069022100F0A2FA064615E0A069042111
:1018B00000F09CFA06460FE00FE0A069702100F0EE
:1018C00095FA064608E06068042100F08FFA0646A3
:1018D00002E0FFE7002600BF00E00026304670BDB2
:1018E0000101010010B500F5D87303EB01131B686B
:1018F00003F004031372137A53B900F5D87303EBA2
:1019000001131B6840F2FF7404EA5353136009E0AB
:1019100000F5D87303EB01131B686FF0604404EA11
:10192000D303536000F5D87303EB01131B6803F076
:101930000203537200F5D87303EB01135B6803F0E5
:101940000F03937200F5D87303EB01135B681B0A56
:10195000D37400F5D87303EB01139B68D37200F5C1
:10196000D87303EB01139B681C0A147300F5D8733A
:1019700003EB01139B681C0C547300F5D87303EB45
:1019800001139B681B0E937300F5D87303EB0113CF
:10199000DB68D37300F5D87303EB0113DB681C0A13
:1019A000147400F5D87303EB0113DB681C0C54743A
:1019B00000F5D87303EB0113DB681B0E937421B998
:1019C000C36843F02003C36003E0036943F02003CE
:1019D000036110BD10B502460020936803F08063D8
:1019E000B3F1806F00D110E0936803F00063B3F1AE
:1019F000006F01D1012008E0936803F08053B3F138
:101A0000805F01D1022000E00420042874D002F598
:101A1000C07303EB00131B6803F0010402F5C073ED
:101A200003EB00131C600B7A7BB94B7A0C8843EAFA
:101A3000445302F5C07404EB00142468234302F5F8
:101A4000C07404EB0014236010E00B7A4C6843EA86
:101A5000C4034C7A234302F5C07404EB00142468D9
:101A6000234302F5C07404EB001423608B7A03F067
:101A70000F038B7202F5C07303EB00135B6823F056
:101A80000F0402F5C07303EB00135C6002F5C07332
:101A900003EB00135B688C7A234302F5C07404EBFC
:101AA000001463608B7B1C064B7B44EA03440B7B76
:101AB00044EA0323CC7A234302F5C07404EB0014F8
:101AC000A3608B7C1C064B7C44EA03440B7C44EAF9
:101AD0000323CC7B234302F5C07404EB0014E360C2
:101AE00002F5C07303EB00131B6843F0010402F519
:101AF000C07303EB00131C6010BD000010B52DED8A
:101B0000088B9FED600AB0EE409A5F488168006CD8
:101B1000084400EE100AB8EEC00ADFED5C0A80EE61
:101B2000201A11EE104A2046FEF771FD41EC1B0B06
:101B30009FED570B53EC102BFEF7BDFC41EC1A0B3D
:101B4000FEF7A8FD08EE100A4F48D0F8B010806FDD
:101B5000084400EE100AB8EEC00ADFED4C0A80EE31
:101B6000201A11EE104A2046FEF751FD41EC1B0BE6
:101B70009FED470B53EC102BFEF79DFC41EC1A0B2D
:101B8000FEF788FD08EE900A38EE280AF0EE000A0B
:101B900080EE201A404880ED001A9FED3A0A3F4837
:101BA00080ED000A38EE680ADFED3D0A80EE201A6B
:101BB0003C4880ED001A3C4890F84C0000B33A488D
:101BC00090ED0F0A3948D0ED000A30EE600A10EEB1
:101BD000101A0846FEF71BFD41EC1B0B9FED340B62
:101BE00053EC102BFEF767FC41EC1A0BFEF752FD8D
:101BF00009EE100A2C4890ED0F0A2C4880ED000ADF
:101C0000284890ED000A10EE100AFEF700FD41ECA6
:101C10001B0BB0EE4B0AF0EE6B0A04F001FEB0EEC7
:101C200040AAF0EE60AA9FED240B53EC102B51EC70
:101C30001A0BFEF717FD1CD219EE100AFEF7E7FC8F
:101C400041EC1B0BB0EE4B0AF0EE6B0A04F0E8FD22
:101C5000B0EE40AAF0EE60AA9FED150B53EC102BEE
:101C600051EC1A0BFEF7FEFC08D20E4880ED009AEC
:101C700004E09FED040A0B4880ED000ABDEC088BE0
:101C800010BD000000000000180300200000FA440E
:101C90001E166A4DF30E5C40780000207C00002088
:101CA000CDCCCC3E80000020D80400209000002045
:101CB0009A9999999999A93F000000000000D03F96
:101CC00010B52DED028B0446012002F041FE0128E3
:101CD00013D100202F4981F8280081F840000861C5
:101CE00000212C4841618161C1610020294948805F
:101CF000002128488180C1800181012C06D0022C5E
:101D000013D0032C20D0042C3CD12CE02149B1F974
:101D10000200FEF73FFC41EC180BB0EE480AF0EE73
:101D2000680A012000F00EFF2DE01A49B1F9080001
:101D3000FEF730FC41EC180BB0EE480AF0EE680AF2
:101D4000042000F0FFFE1EE01249B1F90600FEF784
:101D500021FC41EC180BB0EE480AF0EE680A0320B3
:101D600000F0F0FE0FE00B49B1F90400FEF712FCA1
:101D700041EC180BB0EE480AF0EE680A022000F0C1
:101D8000E1FE00E000BF00BFFFF7B8FEBDEC028B34
:101D900010BD0000D402002010480068142808D8A4
:101DA0000F480068142818D90E4890F82000012820
:101DB00013D100200C4981F8280081F84000086107
:101DC0000021094841618161C161002006494880C4
:101DD000002105488180C1800181704724000020D6
:101DE0002800002074010020D402002002460020B8
:101DF00002EA01030BB1012000E00020704700005F
:101E000010B500240E490F4800F0A6F8B0B10C49F7
:101E10000C4800F07BF819200A49091D08600121CF
:101E2000084800F08DF8084801F0E6FD04462CB1A2
:101E300001200649087000200549086010BD000017
:101E40000088002088600240780900203D000020C2
:101E50002400002010B50F490F4800F07DF8B8B1FC
:101E600000210D4800F06CF80A490B4800F04EF8CC
:101E700040210A4803F06DFF28200749091D08602A
:101E80000121054800F05CF84021054800F0D8FA2F
:101E900010BD00000080201040640240001001408E
:101EA0000014024010B54021084800F0C9FA084962
:101EB000084800F051F838B10021064800F040F819
:101EC0000349044800F008F810BD00000014024067
:101ED00000800028B86402400246094B9A4201D2B1
:101EE000084801E00648103801F000531BB1064BCA
:101EF0000B40C36002E0044B0B408360704700005E
:101F000010640240006002407D0F7D0F0246094BC5
:101F10009A4201D2084801E00648103801F0005307
:101F20001BB1064B0B40C36002E0044B0B408360C7
:101F30007047000010640240006002407D0F7D0F7A
:101F400021B1026842F00102026003E0026822F05F
:101F5000010202607047000070B5024600200024B4
:101F60000025124EB24201D2114B01E00F4B103B43
:101F7000104E0E4036B11E2606EAD124166806EA37
:101F8000040502E0566906F0800501F000560EB126
:101F90005C6800E01C68084E344004EA010616B193
:101FA0000DB1012000E0002070BD0000106402406F
:101FB000006002403C0F3C0F7D0F7D0F10B50022EA
:101FC0000268134B1A40CC680B6823434C692343C7
:101FD0008C692343CC6923430C6A23434C6A234313
:101FE0008C6A23434C6B23438C6B23431A4302605C
:101FF000426922F00702D1E90B3423431A434261BC
:102000000B6943604B6883608B68C36010BD000040
:102010003F801CF070470000074908604FF0E02146
:10202000096941F001014FF0E022116100BF02494E
:1020300009680029FBD17047A00000202DE9F0417C
:102040002DED0C8BB0EE408AF0EE608A01209949AC
:1020500081F840009FED980A10EE104A9FED960A15
:1020600010EE106A9FED940A10EE107A9FED920A1E
:1020700010EE105A18EE100AFEF7C9FA41EC190BCF
:102080009FED8E0B53EC102BFEF7ECFA04D29FED74
:102090008D0AB0EE408A10E018EE100AFEF7B7FA8B
:1020A00041EC190B9FED880B53EC102BFEF7C2FA95
:1020B00003D29FED870AB0EE408AB1EE680AF0EED7
:1020C000408A18EE100AFEF7A2FA41EC190B9FEDB8
:1020D000810B53EC102BFEF7C5FA10D218EE100A44
:1020E000FEF795FA41EC190B9FED7C0B53EC102B8E
:1020F000FEF7A0FA03D29FED700AB0EE408A18EE08
:10210000900AFEF784FA41EC190B9FED720B53EC29
:10211000102BFEF7A7FA10D218EE900AFEF777FA06
:1021200041EC190B9FED6D0B53EC102BFEF782FA6F
:1021300003D29FED610AF0EE408A18EE900AFEF796
:1021400066FA41EC1C0B9FED670B53EC102BFEF76E
:1021500040F941EC1A0B18EE100AFEF758FA41EC60
:102160001B0B53EC1A2BFEF78DF841EC190BFEF705
:1021700091FA0446264618EE900AFEF748FA41EC1A
:102180001D0B9FED580B53EC102BFEF722F941EC81
:102190001B0B18EE100AFEF73AFA41EC1C0B53EC3D
:1021A0001B2BFEF710F941EC1A0B81F0004141ECBA
:1021B000190BFEF76FFA05462F462046FEF727FA61
:1021C00041EC1C0B9FED490B53EC102BFEF701F972
:1021D00041EC1B0B81F0004141EC1A0B9FED450BCC
:1021E00053EC102BFEF767F941EC190BFEF7F0F9F1
:1021F00000B2304948803046FEF709FA41EC1C0B2A
:102200009FED3A0B53EC102BFEF7E3F841EC1B0B60
:1022100081F0004141EC1A0B9FED360B53EC102B73
:10222000FEF749F941EC190BFEF7D2F901B221484A
:1022300081803846FEF7EBF941EC1C0B9FED2B0B30
:1022400053EC102BFEF7C5F841EC1B0B81F000415D
:1022500041EC1A0B9FED270B53EC102BFEF72BF9DB
:1022600041EC190BFEF7B4F901B21248C1802846BF
:10227000FEF7CDF941EC1C0B9FED1C0B53EC102B22
:10228000FEF7A7F841EC1B0B81F0004141EC1A0B63
:102290009FED180B53EC102BFEF70DF941EC190BC9
:1022A000FEF796F901B203480181BDEC0C8BBDE845
:1022B000F0810000D4020020000000009A99999952
:1022C00099990140CDCC0C409A999999999901C05E
:1022D000CDCC0CC09A9999999999A9BF9A99999935
:1022E0009999A93F9A9999999999D93F93FE5E0A2C
:1022F0000F165C40000000000000F03F10B5012008
:1023000000F016F810B1012000F00CF810BD10B567
:102310004FF4005000F00CF818B14FF4005000F0EA
:1023200001F810BD0149086070470000143C0140ED
:1023300001460020034A12680A400AB1012000E069
:1023400000207047143C014042694A404261704796
:10235000F0B50A4600210023002400BF3DE001251E
:1023600005FA01F3156805EA03049C4234D10568B7
:102370004F000326BE40B543056015794E00B540B9
:102380000668354305601579012D02D01579022DB7
:1023900016D185684F000326BE40B5438560557948
:1023A0004E00B540866835438560456801268E40FD
:1023B000B5434560456896798E40B6B23543456071
:1023C000C5684F000326BE40B543C560D5794E00B1
:1023D000B540C6683543C560491C1029BFD3F0BD60
:1023E000F0B5002300244D07ED0E02FA05F3CE10E0
:1023F00000F1200555F826504E07F70E0F26BE4077
:10240000B543CF1000F1200646F82750CE1000F15A
:10241000200555F8265045EA0304CE1000F12005AA
:1024200045F82640F0BD0246002013690B400BB171
:10243000012000E00020704741837047018370470E
:1024400042694A404261704700BFFEE70A2000BF70
:10245000011EA0F10102D0B2FADC70471CB50121C7
:10246000022001F015FA01208DF8040000208DF8FB
:102470000600C020009001208DF8070002208DF892
:10248000050069460548FFF763FFFFF7DFFFFFF729
:10249000DDFFFFF7DBFFFFF7D9FF1CBD00040240A3
:1024A00010B540210F48FFF7C7FF0E48006820F421
:1024B00040400C4908600846006840F480400860CD
:1024C00080210848FFF7B8FFFFF7C0FF402105480B
:1024D000FFF7B4FFFFF7BAFF40210248FFF7ACFF58
:1024E00010BD00000004024010B540210F48FFF766
:1024F000A3FF0E48006820F440400C4908600846DD
:10250000006840F48040086080210848FFF796FF8B
:10251000FFF79CFF40210548FFF790FFFFF796FF6C
:1025200040210248FFF788FF10BD00000004024070
:1025300070B5054600241848006820F4404016494C
:102540000860084600680860FFF780FFFFF77EFF1D
:10255000002616E040211048FFF76EFFFFF776FFD8
:1025600040210D48FFF76AFF6006040E80210A48EB
:10257000FFF759FF08B1601CC4B2FFF767FF701C7A
:10258000C6B2082EE6DB15B9FFF7AEFF01E0FFF794
:1025900087FF204670BD00000004024010B51048BF
:1025A000006820F440400E4908600846006840F486
:1025B0008040086080210A48FFF740FF402108481A
:1025C000FFF73CFFFFF742FF80210548FFF734FF8C
:1025D000FFF73CFF40210248FFF72EFF10BD00002F
:1025E0000004024010B51048006820F440400E4935
:1025F00008600846006840F48040086040210A48AE
:10260000FFF71AFF80210848FFF716FFFFF71EFFAC
:1026100040210548FFF712FF80210348FFF70EFF16
:10262000FFF714FF10BD00000004024070B504461F
:102630001948006820F440401749086008460068BF
:1026400040F48040086040211348FFF7F5FE002564
:102650001EE004F08006802E04D180210E48FFF792
:10266000EDFE03E080210C48FFF7E6FEFFF7EEFEEB
:102670006006040E40210848FFF7E0FEFFF7E6FE83
:1026800040210548FFF7D8FEFFF7E0FE681CC5B201
:10269000082DDEDB70BD00000004024010B50122F1
:1026A0005103384801F012F801229103354801F036
:1026B0000DF80122D103334801F008F8002201216E
:1026C000314801F003F8002202212F4800F0FEFFFC
:1026D00000224FF400612C4800F0F8FF00224FF474
:1026E0008051294800F0F2FF00224FF400512648A3
:1026F00000F0ECFF00224FF48041234800F0E6FF99
:1027000000220421204800F0E1FF002208211E4899
:1027100000F0DCFF002210211B4800F0D7FF002250
:102720002021194800F0D2FF01222021154800F095
:10273000CDFF01221021134800F0C8FF012208211B
:10274000104800F0C3FF012204210E4800F0BEFF34
:10275000012211460D4800F0B9FF01210B48FFF797
:102760006BFE0021012002F07FFA0021022002F01E
:102770007BFA0021032002F077FA0021042002F006
:1027800073FA10BD00140240001002400000024025
:1027900010B50121032001F08BF88020C1050880CD
:1027A0004FF6FF70C8620020088501208882A720AC
:1027B00008818420104908802020091D08804FF6D8
:1027C000FF700D492C3108605320091F088001203B
:1027D00009491431088080200749083108800648DB
:1027E000008840F00100044908800805008840F096
:1027F00001000905088010BD0004004010B52DED52
:10280000068BC8480088C0F30B1018285CD1002044
:10281000C5490860C348C07A0870C248007B487048
:10282000C048407B8870BF48807BC870BD48006846
:10283000A0F2811002280DD2084600684142B94832
:102840000068A0F28110C0EBC000B84A02EBC000E3
:1028500081600BE0B4480168B2480068A0F28110C2
:10286000C0EBC000B14A02EBC00081600020AE495D
:102870000860AC48C07B0870AA48007C4870A94832
:10288000407C8870A748807CC870A6480068A0F289
:10289000811002280CD2084600684142A148006815
:1028A000A0F28110C0EBC000A04A42F8301035E120
:1028B0009D4801689B480068A0F28110C0EBC000F1
:1028C0009A4A42F8301029E196480088C0F30B106C
:1028D0005828ECD19348407B602821D19148007B57
:1028E00063281DD18F48807BD0B900208E490860B5
:1028F0008C48C07B08708B48007C48708948407CBD
:1029000088708848807CC8700846016885480068DF
:10291000A0F28150C0EBC000844A42F83010FDE0C4
:102920008048407B60281ED17E48007BF9281AD160
:102930007C48807B182816D100207D490880794882
:10294000C07B08707748007C48700846B0F90010DA
:1029500074480068A0F28150C0EBC000734A02EBDB
:10296000C0008160DAE06F48407B602823D16D4869
:10297000007BF9281FD16B48807B19281BD10020D0
:10298000694908606748C07B08706648007C4870E9
:102990006448407C88706348807CC8700846016841
:1029A00060480068A0F28150C0EBC0005F4A02EBB3
:1029B000C0008160B2E05B48407B602833D1594859
:1029C000007B78282FD15748807B60BB0020584976
:1029D00008805448C07B08705248007C4870B1F9A8
:1029E0000000FDF7D7FD41EC1A0B9FED520B53ECA5
:1029F000102BFDF7EEFC41EC190B9FED500B53EC47
:102A0000102BFDF758FD41EC180BFDF7E1FD01B26D
:102A100044480068A0F28150C0EBC000434A02EB7A
:102A2000C00041827AE03F48407B60281DD13D488C
:102A3000007BF72819D13B48807B122815D1002054
:102A40003B4908803748C07B08703648007C487096
:102A50000846018833480068A0F28150C0EBC000EE
:102A6000324A02EBC000818258E02E48407B602849
:102A70001DD12C48007BF72819D12A48807B0B28D0
:102A800015D100202A4908802648C07B08702548B7
:102A9000007C48700846018822480068A0F28150F6
:102AA000C0EBC000214A02EBC000C18236E01D48E5
:102AB000407B602812D11B48007B41280ED1194869
:102AC000807B58B91748C17B0068A0F28150C0EBE9
:102AD000C000164A02EBC00001731FE01148407BA2
:102AE00026281BD10F48007B012817D10D48807B79
:102AF000A0B90C48C17B0068A0F28150C0EBC000B7
:102B00000A4A02EBC00041730648017C0068A0F24B
:102B10008150C0EBC00002EBC0008173BDEC068B9E
:102B200010BD00004C01002094000020180300207C
:102B3000980000200000000000F055400000000058
:102B40000000F03FF0B52DED068B85B00546B0EEE8
:102B5000408AF0EE608A46F2FF0600279FED1F0BC9
:102B600053EC102B51EC180BFDF733FC41EC1A0B16
:102B70009FED1C0B53EC102BFDF79DFC41EC190B4A
:102B8000FDF726FD044605F5C060009000208DF895
:102B900008008DF8090008208DF80A0023208DF820
:102BA0000B00F1B28DF80C1031128DF80D108DF86C
:102BB0000E70E1B28DF80F10210A8DF81010210C63
:102BC0008DF81110210E8DF8121069460748FEF796
:102BD00001FF05B0BDEC068BF0BD0000C7BEBF9C79
:102BE000EC799140000000000000F03F00640040DC
:102BF0004F480088C0F30B1024287DD14C48C07A80
:102C0000B22801D1012070474948C07AB52801D1C6
:102C10000120F8E74648C07A702801D10120F2E788
:102C20004348C07A9A2839D14148017B0068A0F511
:102C30001070C0EBC0003F4A02EBC000C1823C48AC
:102C4000817B0068A0F51070C0EBC00002EBC000F3
:102C500001733748C17B007C41EA002001B234484F
:102C60000068A0F51070C0EBC00002EBC0008182CC
:102C70002F48417C0068A0F51070C0EBC00002EB4B
:102C8000C00041732A48817C0068A0F51070C0EB39
:102C9000C00002EBC00081730120B4E72448C07A71
:102CA000A4283FD10020244908802148407C087096
:102CB0001F48807C48701E48017B0068A0F510709A
:102CC000C0EBC0001B4A02EBC000C1821848417B28
:102CD000807B41EA002001B215480068A0F5107021
:102CE000C0EBC00002EBC00041821148C17B007CF8
:102CF00041EA00210E4800E017E00068A0F51070DE
:102D0000C0EBC00002EBC00081600B48B0F90010BE
:102D100007480068A0F51070C0EBC00042F8301002
:102D2000012070E70248C07A6DE700206BE70000E1
:102D300060010020F80300209A00002010B5002454
:102D40001448006820F440401249086008460068B2
:102D5000086080210F48FFF771FBFFF777FB4021E8
:102D60000C48FFF76BFBFFF771FB07E0601CC4B278
:102D7000FA2C03DDFFF736FC012010BD8021054849
:102D8000FFF751FB0028F1D140210248FFF754FB27
:102D90000020F2E7000402402DE9F04106460F460C
:102DA00014461D46FFF7FAFB002141EA4601C8B26E
:102DB000FFF73CFCFFF7C2FF20B1FFF713FC012037
:102DC000BDE8F0813846FFF731FCFFF7B7FFFFF7AA
:102DD000E5FB012101EB4601C8B2FFF727FCFFF735
:102DE000ADFF0DE0012C04D10020FFF7A1FB2870FE
:102DF00003E00120FFF79CFB2870601EC4B26D1C2D
:102E0000002CEFD1FFF7EEFB0020D9E72DE9F041D0
:102E100005460E4617469846FFF7C0FB002141EADB
:102E20004501C8B2FFF702FCFFF788FF20B1FFF7AA
:102E3000D9FB0120BDE8F0813046FFF7F7FBFFF733
:102E40007DFF00240CE018F80400FFF7EFFBFFF70C
:102E500075FF18B1FFF7C6FB0120EBE7601CC4B299
:102E6000BC42F0DBFFF7BEFB0020E3E730B59BB0D0
:102E700005460C468748854274D10121801500F033
:102E800027FD84B90121084600F002FD01201390BE
:102E900003208DF8500000208DF8530013A97E48C0
:102EA000FFF756FA93E0012C10D10121084600F0FB
:102EB000EFFC0220139003208DF8500000208DF8C5
:102EC000530013A97448FFF743FA80E0022C10D195
:102ED0000121084600F0DCFC0420139003208DF84B
:102EE000500000208DF8530013A96B48FFF730FA0B
:102EF0006DE0032C10D10121084600F0C9FC082028
:102F0000139003208DF8500000208DF8530013A972
:102F10006148FFF71DFA5AE0042C10D10121084640
:102F200000F0B6FC1020139003208DF85000002014
:102F30008DF8530013A95848FFF70AFA47E0052C0B
:102F400011D10121084600F0A3FC2020139003209A
:102F50008DF8500000208DF8530013A94E48FFF75C
:102F6000F7F934E091E0062C10D10121084600F079
:102F70008FFC4020139003208DF8500000208DF826
:102F8000530013A94448FFF7E3F920E0072C10D1C0
:102F90000121084600F07CFC8020139003208DF86E
:102FA000500000208DF8530013A93B48FFF7D0F9DB
:102FB0000DE0102C03D10120FDF7A8FD07E0112C36
:102FC00003D10120FDF7A2FD01E000BFFEE70020D4
:102FD00000904FF480300190002002904FF4706018
:102FE00003906846FDF7D8FC002015908DF8580036
:102FF00001208DF859000020179018901990012099
:103000008DF8680015A92348FDF7F4FC0121880517
:1030100000F03EFC1F484C300590204806900020F0
:10302000079001200890002009900A904FF400605A
:103030000B9080000C9040110D9040020E900020EB
:103040000F9001201090002011901290049004A97C
:103050001348FEF7B3FF01211148FEF771FF032368
:10306000012221462846FDF7EFFC01212846FDF705
:10307000B6FC01212846FDF7A7FC01212846FDF7F3
:103080007FFC2846FDF73CFD01E000BFFEE71BB0DA
:1030900030BD00000020014000000240A4000020DC
:1030A0001064024006E041F2883100BF0A1EA1F11F
:1030B0000101FBD1021EA0F10100F4D1704700BF55
:1030C000FEE700002DE9F0472DED088B06460F4680
:1030D0004FF0000842F210744FF00A094FF4B47533
:1030E00000BF08E03078FE4901F80800761C08F1BE
:1030F00001001FFA80F8B845F4DBFA480780012088
:10310000F9490870F648C078F84908700846007810
:10311000F2287DD1F64890F82000012878D1484661
:10312000FDF749FA41EC190BED494A79097902EBAF
:103130000120FDF72FFA41EC1B0B9FEDEE0B53EC3A
:10314000102BFDF7B8F941EC1A0B53EC192BFDF7D6
:103150003AF941EC180BFDF79DFA00EE100AE3482E
:1031600080ED0D0A4846FDF726FA41EC190BDC49C3
:10317000CA79897902EB0120FDF70CFA41EC1B0BAF
:103180009FEDDC0B53EC102BFDF795F941EC1A0B7E
:1031900053EC192BFDF717F941EC180BFDF77AFAF0
:1031A00000EE100AD14880ED0E0A4846FDF703FAFA
:1031B00041EC190BCA494A7A097A02EB0120FDF762
:1031C000E9F941EC1B0B9FEDCB0B53EC102BFDF7FA
:1031D00072F941EC1A0B53EC192BFDF7F4F841ECA2
:1031E000180BFDF757FA00EE100AC04880ED0C0AE4
:1031F0000320BE4981F84100002081F82800012009
:1032000081F84000084690ED0C0AB5EEC00A00E0D7
:103210001BE0F1EE10FA0AD090ED0C0AB0EE401A65
:10322000DFEDB60A9FEDB50A02F0D8FED8E1AF484F
:1032300090ED0E1AF0EE410A90ED0D1AB0EE410A33
:103240009FEDAE1A02F0CAFECAE1A8480078F32842
:1032500063D1A74890F8200001285ED14846FDF7C9
:10326000AAF941EC190B9E494A79097902EB012030
:10327000FDF790F941EC1B0B9FED9E0B53EC102BCF
:10328000FDF719F941EC1A0B53EC192BFDF79BF8DC
:1032900041EC180BFDF7FEF900EE100A934880EDA3
:1032A0000D0A9FED960A80ED0E0A4846FDF783F958
:1032B00041EC190B8A494A7A097A02EB0120FDF7A1
:1032C00069F941EC1B0B9FED8B0B53EC102BFDF7B9
:1032D000F2F841EC1A0B53EC192BFDF774F841ECA2
:1032E000180BFDF7D7F900EE100A804880ED0C0AA4
:1032F00000207E4981F8410081F82800012081F8F2
:103300004000084690ED0C1AF0EE410A90ED0D1ABF
:10331000B0EE410AFEF792FE62E174480078F428AC
:1033200066D1734890F82000012861D14846FDF726
:1033300042F941EC190B6A494A79097902EB0120FB
:10334000FDF728F941EC1B0B9FED6A0B53EC102B9A
:10335000FDF7B1F841EC1A0B53EC192BFDF733F8DC
:1033600041EC180BFDF796F900EE100A5F4880ED6E
:103370000D0A9FED620A80ED0E0A4846FDF71BF923
:1033800041EC190B56494A7A097A02EB0120FDF704
:1033900001F941EC1B0B9FED570B53EC102BFDF784
:1033A0008AF841EC1A0B53EC192BFDF70CF841ECA1
:1033B000180BFDF76FF900EE100A4C4880ED0C0A6F
:1033C00002204A4981F84100002081F828000120AC
:1033D00081F840000846D0ED0C0AB0EE601AD0ED3E
:1033E0000D0AB0EE600ADFED450AFDF7A5FBF7E038
:1033F0003E480078FA2871D13D4890F82000012815
:103400006CD137484179007901EB002005EBC5010B
:1034100001EB0511A0EB8100344908613048C17906
:10342000807901EB0020001B00B2304948802C4815
:10343000417A007A01EB002005EBC50101EB051193
:10344000A0EB8101294841612548C17A807A01EBCE
:103450000020001B01B2254881802148417B007B70
:1034600001EB002005EBC50101EB0511A0EB81018B
:103470001E4881611A48C17B807B01EB0020001B44
:1034800001B21A48C1801648417C007C01EB002043
:1034900005EBC50101EB0511A0EB81011348C161EA
:1034A0000F48C17C807C01EB0020001B01B20F485B
:1034B00001810B48417D007D01EB002005EBC5013A
:1034C00001EB0511A0EB8101084801620448C17DB0
:1034D000807D01EB0020001B01B211E030E0000014
:1034E000700200208C0000208E000020D4020020FA
:1034F000740100200000000000005940000000009E
:10350000404841814048417E007E01EB002005EBB0
:10351000C50101EB0511A0EB81013A4841623A482F
:10352000C17E807E01EB0020001B01B23548818105
:103530000120344981F82800002081F840004FE044
:1035400030480078E12804D130A1314802F05FF81A
:1035500046E02C480078E22842D02A480078C0286B
:1035600034D1294800794D283AD127484079492853
:1035700036D125488079432832D12348C0794B2859
:103580002ED124A002F004FF012080F3138800BF95
:1035900000BF00BF00BF00BF00BFBFF34F8F00BF21
:1035A00000BF00BF2448006800F4E06023490843DE
:1035B000001D2149086000BF00BF00BFBFF34F8F4F
:1035C00000BF00BF00BF00E000BFFDE700200D49C5
:1035D00081F8280081F84000BDEC088BBDE8F08739
:1035E0000120084981F84200084690F8280018B9DF
:1035F000084690F8400010B10020114908600120F1
:10360000EAE70000D4020020700200204F4B0A00BD
:1036100000100140554152543120434D4420206F49
:103620007843302C204E6F77207265736574204D7F
:103630004355210A000000000CED00E00000FA05EF
:103640002800002070B504460D46164619488442ED
:1036500004D13146284601F0EFFF29E016488442A4
:1036600004D13146284602F051F921E01348844242
:1036700004D13146284602F0BDF919E010488442D1
:1036800004D13146284601F0F7FD11E00D4884428F
:1036900004D13146284601F06DFE09E00A48844213
:1036A00004D13146284602F0B9FA01E000BFFEE736
:1036B00070BD000000100140004400400048004080
:1036C000004C004000500040001401402DE9FC4136
:1036D00004460F4616462E48844201D1012530E0AB
:1036E0002C48844201D102252BE02B48844201D191
:1036F000042526E02948844201D1082521E02848F4
:10370000844201D110251CE02648844201D12025A5
:1037100017E02548844201D1402512E02348844225
:1037200001D180250DE02248844201D1851508E0B1
:103730002048844201D1451503E01F48844200D14E
:1037400005150121284600F0A3F800978DF80460C4
:10375000012E09D100208DF8060001208DF8070008
:1037600000208DF8050006E02EB901208DF8070035
:1037700000208DF8050069462046FEF7E9FD012E80
:1037800003D139462046FEF759FEBDE8FC81000012
:10379000000002400004024000080240000C024009
:1037A000001002400014024000180240001C0240B9
:1037B0000020024000240240002802407047000020
:1037C00070B5002100230F22C4781CB3174C246865
:1037D00004F4E064C4F5E064C4F30721C1F1040417
:1037E000E3B20A4144789C40E1B28478144021431A
:1037F0000C07210E0E4C05786155047804F01F0566
:103800000124AC4005786D11AD0005F1E025C5F847
:10381000004109E0047804F01F050124AC40054D87
:103820000678761145F8264070BD00000CED00E0EA
:1038300000E400E080E100E002490143024A116037
:10384000704700000000FA050CED00E000BF00BF6B
:1038500000BFBFF34F8F00BF00BF00BF0948006823
:1038600000F4E06008490843001D0649086000BFF5
:1038700000BF00BFBFF34F8F00BF00BF00BF00E01D
:1038800000BFFDE70CED00E00000FA057047000006
:1038900029B1064A12680243044B1A6004E0034A45
:1038A00012688243014B1A607047000030380240B2
:1038B00029B1064A12680243044B1A6004E0034A25
:1038C00012688243014B1A60704700004038024082
:1038D00029B1064A12680243044B1A6004E0034A05
:1038E00012688243014B1A6070470000443802405E
:1038F00029B1064A12680243044B1A6004E0034AE5
:1039000012688243014B1A6070470000243802405D
:10391000F0B5002100220024022500260223324FA8
:103920003F6807F00C0121B1042905D0082937D1DF
:1039300005E02E4F076036E02D4F076033E02A4F39
:103940003F1F3F68C7F38056274F3F1F3F6807F070
:103950003F036EB1264FB7FBF3F7DFF88CC0ACF135
:10396000040CDCF800C0CCF3881C07FB0CF40CE062
:103970001E4FB7FBF3F7DFF870C0ACF1040CDCF8B6
:1039800000C0CCF3881C07FB0CF4174F3F1F3F68A7
:10399000C7F301477F1C7D00B4FBF5F7076002E029
:1039A000124F076000BF00BF0F4F3F6807F0F001E4
:1039B0000909104F7A5C0768D74047600A4F3F6893
:1039C00007F4E051890A0B4F7A5C4768D74087605B
:1039D000054F3F6807F46041490B064F7A5C476822
:1039E000D740C760F0BD0000083802400024F40052
:1039F00000127A001400002070B5044600250CB9AE
:103A0000002070BDFE4890F83600012851D1207882
:103A1000617840EA0120C0F30A00F9490880607823
:103A2000C010A17840EA4110C0F30A00F449488070
:103A3000A0788011E17840EA8100217940EA812074
:103A4000C0F30A00EE49888020794010617940EA8D
:103A5000C110C0F30A00EA49C880607900118008EB
:103A600081F820006079C0F3011081F82100A0796D
:103A7000E17940EA0120E24981F82200207A617A66
:103A800040EA0120DE4981F82300A07AE17A40EA89
:103A90000120DB4981F82400207B81F82500607B30
:103AA00081F82600A07B81F82700012081F83500ED
:103AB00034E2D34890F8360002287CD120780F28D1
:103AC00005D1207E18B9E07D08B9002520E0CC485A
:103AD00090F83700B8B9CBA002F05AFC002505E0F9
:103AE000615DCBA002F054FC681CC5B2192DF7DB58
:103AF000C9A002F04DFCC9A002F04AFC012002F06E
:103B00008AFFFFF7A3FECEA002F042FC002078E778
:103B1000681C192190FBF1F201FB1200215CA81C2A
:103B2000192290FBF2F302FB1300205C41EA002013
:103B3000C0F30A00B2490880A81C192190FBF1F2D9
:103B400001FB1200205CC110E81C192290FBF2F36B
:103B500002FB1300205C41EA4010C0F30A00A849B0
:103B60004880E81C192190FBF1F201FB1200205C57
:103B70008111281D192290FBF2F302FB1300205C37
:103B800041EA8001681D90FBF2F302FB1300205C08
:103B900041EA8020C0F30A0099498880681D1921F4
:103BA00090FBF1F201FB1200205C4110A81D1922CC
:103BB00090FBF2F300E0A9E102FB1300205C41EA74
:103BC000C010C0F30A008E49C880A81D192190FBBF
:103BD000F1F201FB1200205C0111E81D192290FB9B
:103BE000F2F302FB1300205C41EA0010C0F30A006C
:103BF00083490881E81D192190FBF1F201FB1200B5
:103C0000205CC11105F10800192290FBF2F302FBC0
:103C10001300205C41EA400105F1090090FBF2F33A
:103C200002FB1300205C41EA4020C0F30A00744903
:103C3000488105F10900192190FBF1F201FB120006
:103C4000205C811005F10A00192290FBF2F302FBBF
:103C50001300205C41EA8010C0F30A0068498881A3
:103C600005F10A00192190FBF1F201FB1200205C22
:103C7000411105F10B00192290FBF2F302FB130036
:103C8000205C41EAC0005E49C88105F10C001921A1
:103C900090FBF1F201FB1200215C05F10D001922ED
:103CA00090FBF2F302FB1300205C41EA0020C0F31A
:103CB0000A005349088205F10D00192190FBF1F229
:103CC00001FB1200205CC11005F10E00192290FBCF
:103CD000F2F302FB1300205C41EA4010C0F30A003B
:103CE0004749488205F10E00192190FBF1F201FBD2
:103CF0001200205C811105F10F00192290FBF2F3F4
:103D000002FB1300205C41EA800105F1100090FBEA
:103D1000F2F302FB1300205C41EA8020C0F30A00AA
:103D20003749888205F11000192190FBF1F201FB5F
:103D30001200205C411005F11100192290FBF2F3F2
:103D400002FB1300205C41EAC010C0F30A002C49BA
:103D5000C88205F11100192190FBF1F201FB12005C
:103D6000205C011105F11200192290FBF2F302FB15
:103D70001300205C41EA0010C0F30A0020490883C8
:103D800005F11200192190FBF1F201FB1200205CF9
:103D9000C11105F11300192290FBF2F302FB13008D
:103DA000205C41EA400105F1140090FBF2F302FBB4
:103DB0001300205C41EA4020C0F30A001049488308
:103DC00005F11400192190FBF1F201FB1200205CB7
:103DD000811005F11500192290FBF2F302FB13008C
:103DE000205C41EA8010C0F30A000549888305F190
:103DF0001500192190FBF1F201FB1200205C3DE05F
:103E0000740100205342555320646174613A2000CC
:103E10002020307825327800200D0A005342555377
:103E2000206672616D206865616420213D203078D4
:103E300030662C207265736574204D43552E0A0040
:103E400052554E2073746174653A20205342555385
:103E5000206672616D206865616420213D203078A4
:103E600030662C207468726F7720617761792074D6
:103E7000686973206672616D0A000000411105F1E6
:103E80001600192290FBF2F302FB1300205C41EABA
:103E9000C0006449C8830846B0F90C0040F2DC5108
:103EA000884204DD03205F4981F820000EE05D4870
:103EB000B0F90C00B0F5FA7F04DA0120594981F815
:103EC000200003E00220574981F820005548B0F94E
:103ED000080040F2DC51884204DD0220514981F89B
:103EE00021000EE04F48B0F90800B0F5FA7F04DA7F
:103EF00001204C4981F8210003E00320494981F861
:103F000021000120474981F8350007E0012045499B
:103F100081F83500002081F8340072E5414890F8BE
:103F20003700002831D140A002F032FA00203D498C
:103F300081F8340000F0F0F950B10220394981F8DD
:103F40003400012081F837003AA002F021FA1AE08B
:103F50000120344981F83400002081F8370039A06D
:103F600002F016FA3A480078401C394908700846B1
:103F700000781E2807DD37A002F00AFA012002F0BF
:103F80004AFDFFF763FC00203BE52648B0F900003E
:103F900040F6C41188422CDC2248B0F900006428A5
:103FA00027DB2048B0F90200884222DC1D48B0F926
:103FB000020064281DDB1B48B0F90400884218DCAD
:103FC0001848B0F90400642813DB164890F8200064
:103FD00003280EDC134890F82000012809DB114863
:103FE00090F82100032804DC0E4890F821000128F5
:103FF0000ADA1FA002F0CCF900F044F803200949C6
:1040000081F834000020FCE40F20064981F83400D8
:1040100000F0F6FA0348006B401C024908630120D7
:10402000EFE4000074010020524320496E697420BF
:10403000000000007375636365737366756C210A15
:10404000000000006661696C65642E2E0A000000A5
:10405000720000206661696C645F74696D65733E0F
:104060003330207265736574204D43552E2E0A003F
:1040700052432052656D6F7465204552524F520A6B
:104080000000000010B5864890F83600012854D191
:1040900084A1874801F0BBFA8148B0F90010844838
:1040A00001F0FEF90921824801F0EBF981A1804875
:1040B00001F0ADFA7A48B0F902107D4801F0F0F94C
:1040C00009217B4801F0DDF97CA1794801F09FFAD4
:1040D0007348B0F90410764801F0E2F909217448F8
:1040E00001F0CFF977A1724801F091FA6C48B0F96C
:1040F00006106F4801F0D4F909216D4801F0C1F9AB
:1041000072A16B4801F083FA654890F82010684866
:1041100001F0C6F90921664801F0B3F96DA16448C0
:1041200001F075FA5E4890F82110614801F0B8F985
:104130000A215F4801F0A5F978E0594890F8360067
:10414000022873D165A15A4801F061FA5448B0F9C8
:104150000010574801F0A4F90921554801F091F9E0
:104160004F48B0F90210524801F09AF9092150481D
:1041700001F087F94A48B0F904104D4801F090F970
:1041800009214B4801F07DF94548B0F9061048482F
:1041900001F086F90921464801F073F94048B0F969
:1041A0000810434801F07CF90921414801F069F900
:1041B0003B48B0F90A103E4801F072F909213C4829
:1041C00001F05FF93648B0F90C10394801F068F990
:1041D0000921374801F055F93148B0F90E1034483B
:1041E00001F05EF90921324801F04BF937A130485E
:1041F00001F00DFA2A4890F820102D4801F050F9EE
:1042000009212B4801F03DF932A1294801F0FFF9BD
:10421000234890F82110264801F042F90A21244849
:1042200001F02FF90A21224801F02BF92EA1204894
:1042300001F0EDF91A48B0F928101D4801F030F9E5
:1042400009211B4801F01DF92AA1194801F0DFF9E5
:104250001348B0F92A10164801F022F90921144830
:1042600001F00FF926A1124801F0D1F90C48B0F97C
:104270002C100F4801F014F909210D4801F001F943
:1042800022A10B4801F0C3F90548B0F92E100848E7
:1042900001F006F90A21064801F0F3F810BD00000C
:1042A00074010020444255533A20206368313A009B
:1042B000001401406368323A000000006368333A3A
:1042C000000000006368343A000000007377313A60
:1042D000000000007377323A00000000534255534B
:1042E0003A20206368313A006368315F6F66667315
:1042F00065743A006368325F6F66667365743A008E
:104300006368335F6F66667365743A006368345F31
:104310006F66667365743A0070B58448B0F9000042
:10432000B0F5617F05DB8148B0F90000B0F5966F0C
:1043300007DD7E48B0F900107DA002F029F80020CA
:1043400070BD7A48B0F90200B0F5617F05DB7748AF
:10435000B0F90200B0F5966F04DD81A002F018F804
:104360000020EDE77148B0F90400B0F5617F05DB8E
:104370006E48B0F90400B0F5966F04DD81A002F03C
:1043800007F80020DCE76948B0F90600B0F5617F66
:1043900005DB6648B0F90600B0F5966F04DD82A033
:1043A00001F0F6FF0020CBE78848007840B90020F4
:1043B000874908608749086087490860874908601D
:1043C0005A48B0F9000082490968084480490860E9
:1043D0005648B0F902007F49096808447D490860E1
:1043E0005248B0F904007C49096808447A490860D9
:1043F0004E48B0F9060079490968084477490860D1
:1044000072480078401C71490870084600780A28F4
:104410007EDB6F480068097890FBF1F000B24349F9
:1044200008856C4800686949097890FBF1F000B292
:104430003E494885684800686449097890FBF1F076
:1044400000B23A498885654800686049097890FB60
:10445000F1F000B23549C8850C46248D9CB30C465A
:10446000648D84B30C46A48D6CB30C46E48D54B3B8
:104470000C46B4F92830002B01DB1C4600E05C42FE
:1044800040F6C415AC4224DC284CB4F92A20002A9A
:1044900001DB144600E0544240F6C415AC4218DC7F
:1044A000224CB4F92C10002901DB0C4600E04C42F0
:1044B00040F6C415AC420CDC1C4CB4F92E000028AC
:1044C00002DB044601E004E0444240F6C415AC427D
:1044D00017DDFFF7D7FD0020144981F834003B4970
:1044E00008703B4908603B4908603B4908603B490C
:1044F00008603BA001F04CFF012002F08CFAFFF7AE
:10450000A5F90120094981F834003048007800E01D
:1045100002E00863012013E70020044981F8340019
:104520002A480078086300200AE700007401002090
:1045300072632E636831203C2039303029207C7C26
:10454000202872632E636831203E203132303029BA
:1045500021202020646174613A25640A0000000073
:1045600072632E636832203C2039303029207C7CF5
:10457000202872632E636832203E20313230302989
:10458000210A000072632E636833203C20393030EA
:1045900029207C7C202872632E636833203E2031E2
:1045A00032303029210A000072632E636834203CC7
:1045B0002039303029207C7C202872632E636834B7
:1045C000203E203132303029210A000070000020C6
:1045D0006000002064000020680000206C000020C3
:1045E00072632E6368315F6F6666736574203D3D4C
:1045F0003020207265736574204D4355210A0000F8
:104600002DE9F0412DED0A8B9FEDB30A10EE104A13
:10461000002500270026B14890F8200001287DD011
:10462000AE4890F834000028F9D0042000F090F94A
:10463000002873D1A94890F82100012804D1B7EED1
:10464000000A10EE104A17E0A44890F82100032851
:1046500004D1B0EE000A10EE104A0DE09F4890F829
:104660002100022804D1B1EE000A10EE104A03E046
:104670009FED990A10EE104A9848B0F9000097494A
:10468000B1F92810451A9548B0F902009349B1F9DB
:104690002A10471A9148B0F904009049B1F92C103A
:1046A000461A281E01DB014600E04142052900DAD6
:1046B0000025381E01DB014600E041420A2900DAEC
:1046C0000027301E01DB014600E04142322900DABA
:1046D00000268348007800F00300E0BB2046FBF78B
:1046E00096FF41EC1A0B6842FBF754FF41EC1C0BA0
:1046F0009FED7C0B53EC102BFBF7DDFE41EC1B0B0D
:1047000053EC1A2BFBF765FE41EC190BFBF7C2FFCC
:1047100008EE100A2046FBF77AFF00E047E041EC84
:104720001A0B3846FBF736FF41EC1C0B9FED6D0B67
:1047300053EC102BFBF7BFFE41EC1B0B53EC1A2B79
:10474000FBF747FE41EC190BFBF7A4FF08EE900ABC
:10475000F0EE480A00E004E0B0EE680AFDF76EFCF7
:10476000B6E05F48007800F0030001281FD05C48E5
:10477000007800F0030002287ED1CEB17042FBF732
:1047800009FF41EC1A0B9FED570B53EC102BFBF775
:1047900092FE41EC190BFBF77DFF08EE100AB0EE1C
:1047A000481ADFED4D0A9FED4C0A01F017FC8FE02F
:1047B0004A4890F82000032840D12046FBF727FF05
:1047C00041EC1A0B6842FBF7E5FE41EC1C0B9FED38
:1047D000450B53EC102BFBF76EFE41EC1B0B53EC1F
:1047E0001A2BFBF7F6FD41EC190BFBF753FF08EE14
:1047F000100A2046FBF70BFF41EC1A0B3846FBF77B
:10480000C9FE41EC1C0B9FED370B53EC102BFBF753
:1048100052FE41EC1B0B53EC1A2BFBF7DAFD41EC7B
:10482000190BFBF737FF08EE900AB0EE481ADFEDE0
:104830002A0AB0EE680AFCF77FF949E0274890F8A9
:104840002000022844D12046FBF7E1FE41EC1A0B80
:104850006842FBF79FFE41EC1C0B9FED220B53ECD3
:10486000102BFBF728FE41EC1B0B53EC1A2BFBF72C
:10487000B0FD41EC190B00E028E0FBF70BFF08EE60
:10488000100A2046FBF7C3FE41EC1A0B3846FBF733
:1048900081FE41EC1C0B9FED130B53EC102BFBF72F
:1048A0000AFE41EC1B0B53EC1A2BFBF792FD41EC7B
:1048B000190BFBF7EFFE08EE900A9FED071AF0EEDA
:1048C000480AB0EE680A01F089FB01E0044800786C
:1048D000BDEC0A8BBDE8F0810000000074010020EF
:1048E000710000200000000000A0844010B50024EA
:1048F0004FF400611548FDF796FD10B944F0080427
:1049000001E004F0F7044FF480511048FDF78BFDEF
:1049100010B944F0040401E004F0FB044FF400512A
:104920000A48FDF780FD10B944F0020401E004F0EC
:10493000FD044FF480410548FDF775FD10B944F0C2
:10494000010401E004F0FE04204610BD0010024006
:1049500070B50446FF25012C08D120211448FDF72D
:1049600062FD08B9012521E000251FE0022C08D1D5
:1049700010210F48FDF757FD08B9012516E0002565
:1049800014E0032C08D108210948FDF74CFD08B9B3
:1049900001250BE0002509E0042C07D1042104487F
:1049A000FDF741FD08B9012500E00025284670BD4E
:1049B0000010024070B50446FF25012C08D10121EA
:1049C0000948FDF730FD08B901250BE0002509E095
:1049D000022C07D102210448FDF725FD08B9012565
:1049E00000E00025284670BD0010024000B587B0E9
:1049F00001210846FEF74CFF01210803FEF768FF7E
:104A000002208DF8180000208DF81A00E020059093
:104A100001208DF81B0003208DF8190005A92048FE
:104A2000FDF796FC052211461D48FDF7D9FC05222D
:104A300006211B48FDF7D4FC052207211848FDF785
:104A4000CFFC01210803FEF753FF00214FF48050F3
:104A5000FEF74EFF3820ADF80C000120ADF808003D
:104A60000220ADF806000720ADF810000020ADF8D8
:104A70000400ADF80000ADF80E004FF48270ADF800
:104A800002004FF40070ADF80A006946054800F0D6
:104A900055F80121034800F037F807B000BD0000C9
:104AA000000002400030014010B5044600BF022162
:104AB0000A4800F035F80028F9D02146074800F0F0
:104AC0003BF800BF0121054800F02AF80028F9D082
:104AD000024800F02EF8C0B210BD000000300140C6
:104AE00010B50446074800884FF6C77108400549CD
:104AF000088008460088204308800121014800F012
:104B000003F810BD0030014021B1028842F040029C
:104B1000028004E002884FF6BF731A40028070479B
:104B20000246002013890B400BB1012000E0002059
:104B300070470146888970478181704710B500220F
:104B4000028802F441520B884C8823438C8823430B
:104B5000CC8823430C8923434C8923438C892343EA
:104B6000CC8923431A430280838B4FF2FF74234086
:104B700083830B8A038210BD704700000CB50020B0
:104B8000019000903448006840F480303249086059
:104B900000BF3148006800F4003000900198401CCC
:104BA0000190009818B90198B0F5A04FF1D12A48AA
:104BB000006800F4003010B10120009001E00020F6
:104BC00000900098012846D123484030006840F00A
:104BD00080502149403108602048006840F440403E
:104BE0001E4908601C48083000681B4908310860ED
:104BF0000846006840F4004008600846006840F439
:104C0000A05008601648091F0860081F006840F09F
:104C10008070091F086000BF0F48006800F0007036
:104C20000028F9D040F205700E4908600A480830A3
:104C3000006820F003000849083108600846006851
:104C400040F00200086000BF03480830006800F030
:104C50000C000828F8D10CBD00380240007000405C
:104C600008544007003C024070B505460C46012D33
:104C700016D154B120213048FDF7E0FB2F480078D1
:104C800040F001002D49087054E020212A48FDF72A
:104C9000D3FB2A48007800F0FE002849087049E05C
:104CA000022D16D154B110212348FDF7C7FB23482C
:104CB000007840F00200214908703BE010211E48B6
:104CC000FDF7BAFB1D48007800F0FD001B49087095
:104CD00030E0032D16D154B108211748FDF7AEFB83
:104CE0001648007840F004001449087022E00821BA
:104CF0001148FDF7A1FB1148007800F0FB000F49B7
:104D0000087017E0042D15D154B104210A48FDF7AD
:104D100095FB0A48007840F008000849087009E04F
:104D200004210548FDF788FB0448007800F0F700EF
:104D30000249087070BD00000014024059000020B4
:104D40000448006820B103480068401E014908601B
:104D500070470000A000002030B519480068194ACB
:104D6000B0FBF2F1481EB0F1807F01D301201BE0BF
:104D7000481E4FF0E022506150170F22002807DA3A
:104D800013071D0E104B00F00F04241F1D5503E0E8
:104D900013071C0E0D4B1C5400BF00204FF0E022E7
:104DA000906107201061002008B100BFFEE74FF0BE
:104DB000E020006920F001004FF0E021086130BDE3
:104DC00000000020A086010018ED00E000E400E0F3
:104DD00010B51548006840F4700013490860134886
:104DE000006840F001001149086000200F490831B7
:104DF00008600E4800680E4908400C4908600D48DC
:104E0000091D0860081F006820F48020091F086041
:104E1000002006490C310860FFF7B0FE4FF000603B
:104E200001498039086010BD88ED00E0003802407B
:104E3000FFFFF6FE1030002410B50121880700F0B6
:104E400062F818B10121880700F05AF810BD00007F
:104E500010B501210E4800F056F8C0B10D480068A9
:104E6000401C0C4908600C480068401C0A49086056
:104E700008480068FCF724FF06480068042802D3AD
:104E80000020044908600121014800F039F810BDF4
:104E9000001000404C0000203800002010B5012117
:104EA000114800F030F8F0B110480068401C0F497C
:104EB00008600F480068401C0D4908600D480068F4
:104EC000401C0C4908600C480068401C0A490860F6
:104ED0000A480068401C09490860FCF75DFF012191
:104EE000014800F00DF810BD00140040240000201F
:104EF000280000202C00002030000020340000207A
:104F0000CA430282704730B50246002000230024C5
:104F1000158A05EA0103958905EA010413B10CB16C
:104F2000012000E0002030BD2DED0A8B002500247B
:104F300001219C48FDF79AFF9FED9B0AB0EE408A45
:104F40002FE1601CC4B299490888FBF734FB41EC9F
:104F50001C0B9FED970B53EC102BFBF73AFA41EC2F
:104F60001B0B9FED950B53EC102BFBF7A4FA41ECB8
:104F70001A0B9FED930B53EC102BFBF72AFA41EC25
:104F8000190BFBF787FB08EE100A8FA1904800F081
:104F90003EFBB0EE480A8E4800F0B0FAB3EE070AC6
:104FA000B4EEC08AF1EE10FA04D201218948FDF76F
:104FB00045FA03E001218748FDF73EFA012000EBA6
:104FC000E4701E2C01DA012100E00021084080B1CC
:104FD00000210120FFF748FE00210220FFF744FED8
:104FE00000210320FFF740FE01210420FFF73CFED3
:104FF00057E01E2C01DB012000E000203C2C01DAF0
:10500000012100E00021084080B100210120FFF7CC
:105010002BFE00210220FFF727FE01210320FFF7CE
:1050200023FE00210420FFF71FFE3AE03C2C01DBA9
:10503000012000E000205A2C01DA012100E00021CB
:10504000084080B100210120FFF70EFE012102205F
:10505000FFF70AFE00210320FFF706FE00210420CF
:10506000FFF702FE1DE05A2C01DB012000E00020CA
:10507000782C01DA012100E00021084080B10021F4
:105080000120FFF7F1FD00210220FFF7EDFD0021D7
:105090000320FFF7E9FD00210420FFF7E5FD00E014
:1050A00000244FF4FA70FDF7FDFF4FF4FA70FDF79E
:1050B000F9FF4FF400514848FDF746F94FF480419D
:1050C0004548FDF741F94FF400414348FDF73CF9ED
:1050D0000120FFF76FFC01280FD140A001F058F923
:1050E0003EA13B4800F093FA01210846FFF7BCFDC2
:1050F00001213848FDF7A2F907E000210120FFF760
:10510000B3FD01213348FDF797F90220FFF752FC68
:1051100001280BD135A001F03BF934A12C4800F057
:1051200076FA01210220FFF79FFD03E00021022013
:10513000FFF79AFDFFF7DAFB054629462FA001F09D
:1051400027F90120FFF704FC012806D132A001F065
:105150001FF931A11E4800F05AFA0220FFF7F8FBB0
:10516000012806D132A001F013F931A1184800F04E
:105170004EFA0320FFF7ECFB012806D132A001F024
:1051800007F931A1124800F042FA0420FFF7E0FBD2
:10519000012806D132A001F0FBF831A10C4800F043
:1051A00036FACEE60020014000000000A4000020F6
:1051B0006666666666660A40000000000000B04051
:1051C00000000000000035400A204144433A20001E
:1051D0000010014000000240001402406B6579316C
:1051E0002070726573736564200A00006B65793204
:1051F0002070726573736564200A000052656164F3
:105200005F436F64655F5377697463682020203063
:105210007825780A00000000526561645F49736F69
:105220006C617465645F496E7075742831290A0079
:10523000526561645F49736F6C617465645F496E48
:105240007075742832290A00526561645F49736F72
:105250006C617465645F496E7075742833290A0047
:10526000526561645F49736F6C617465645F496E18
:105270007075742834290A0030B587B005460C468D
:1052800001210420FEF704FB00208DF81A00012004
:105290008DF81B0002208DF819004FF44060059036
:1052A00002208DF8180005A91C48FDF751F80822C6
:1052B0000A211A48FDF794F808220B211748FDF738
:1052C0008FF80121C804FEF7F3FA01950020ADF82C
:1052D0000800ADF80A00ADF80C00ADF810000C2085
:1052E000ADF80E0001A90E4800F0B4FD012C08D164
:1052F00000F02AF8012240F22551094800F084FD0F
:1053000005E0002240F22551054800F07DFD012115
:10531000034800F036FD07B030BD00000008024031
:10532000004C004010B540F22551064800F042FD07
:1053300038B1044800F0F8FDC4B22146014800F03D
:10534000F8FD10BD004C004008B54FF4A060FEF71A
:1053500073FA34208DF8000001208DF8010003203D
:105360008DF8020001208DF803006846FEF728FA48
:1053700008BD000030B587B005460C4601210C2061
:10538000FEF786FA00208DF81A0001208DF81B0028
:1053900002208DF81900C002059002208DF8180037
:1053A00005A92148FCF7D4FF0420059002208DF8C0
:1053B000180005A91D48FCF7CBFF08220C211A484C
:1053C000FDF70EF8082202211848FDF709F801211F
:1053D0000805FEF76DFA01950020ADF80800ADF85C
:1053E0000A00ADF80C00ADF810000C20ADF80E006E
:1053F00001A90F4800F02EFD012C08D100F02CF877
:10540000012240F225510A4800F0FEFC05E000228E
:1054100040F22551064800F0F7FC0121044800F055
:10542000B0FC07B030BD000000080240000C024094
:105430000050004010B540F22551064800F0BAFC7B
:1054400038B1044800F070FDC4B22146014800F0B4
:1054500070FD10BD0050004008B54FF4A060FEF78D
:10546000EBF935208DF8000001208DF801000320B4
:105470008DF8020001208DF803006846FEF7A0F9C0
:1054800008BD70B504460D462946204600F051FD82
:1054900000BF8021204600F080FC0028F9D070BDBC
:1054A000FEB507460E46354600208DF80000012463
:1054B0000CE00A20B5FBF0F100FB115030300DF884
:1054C00004000A20B5FBF0F5601CC4B20A20B5FB4D
:1054D000F0F00028EDD10A20B5FBF0F100FB1150EF
:1054E00030300DF8040006E01DF804103846FFF7D0
:1054F000C8FF601EC4B2002CF6DCFEBD70B52DEDF9
:10550000028B0646B0EE408AF0EE488AB7EE000AFB
:10551000C8EE800ABDEEE00A10EE105A2946304669
:1055200000F040F82E213046FFF7ABFF00EE105A96
:10553000B8EEC00A38EEC00ADFED190A20EE200AE4
:10554000F7EE000A80EE201ABDEEC10A10EE104AF6
:10555000002C00DA64420A2C0CDA30213046FFF7C6
:1055600090FF30213046FFF78CFF21463046FFF791
:1055700097FF11E0642C08DA30213046FFF781FFF5
:1055800021463046FFF78CFF06E0B4F57A7F03DA58
:1055900021463046FFF784FFBDEC028B70BD000052
:1055A00000007A44FEB507460E46002E04DA764225
:1055B0002D213846FFF765FF354600208DF80000A5
:1055C00001240CE00A20B5FBF0F100FB1150303053
:1055D0000DF804000A20B5FBF0F5601CC4B20A20E7
:1055E000B5FBF0F00028EDD10A20B5FBF0F100FB8F
:1055F000115030300DF8040006E01DF80410384654
:10560000FFF73FFF601EC4B2002CF6DCFEBD70B594
:1056100005460C460BE014F8011B284600F089FCF7
:1056200000BF8021284600F0B8FB0028F9D0207880
:105630000028F0D170BD000030B587B005460C469B
:1056400001210846FEF724F900208DF81A000120F8
:105650008DF81B0002208DF8190000020590022031
:105660008DF8180005A92148FCF772FE4FF4806000
:10567000059002208DF8180005A91C48FCF768FE6B
:1056800007220A211948FCF7ABFE07220921174817
:10569000FCF7A6FE01211020FEF71AF90195002063
:1056A000ADF80800ADF80A00ADF80C00ADF8100038
:1056B0000C20ADF80E0001A90D4800F0CBFB012C29
:1056C00008D100F00FF9012240F22551084800F0FE
:1056D0009BFB05E0002240F22551054800F094FBB9
:1056E0000121034800F04DFB07B030BD000002402F
:1056F0000010014010B540F225516F4800F05AFBF0
:1057000000283AD020216C4800F023FB40F22551BC
:10571000694800F027FB684800F006FCC4B24FF46B
:1057200000516648FCF710FE65480078654908702E
:10573000634804700078EA2820D108460078AE2833
:105740001CD10020604908800120604908705D4834
:1057500001785D4802880088401C5B4B18805C48DB
:10576000815457480178184602880088401C1880E8
:105770005748815401205749087072E05348007817
:10578000012869D150480088022865DB4E4800880E
:1057900003280ADA4A4801784B4802880088401CEE
:1057A000494B18804A4881545BE049488078801C06
:1057B0004549098888420ADD414801784248028803
:1057C0000088401C404B18804148815449E04048C3
:1057D0008078801C3C49098888420ED1384800787E
:1057E000EF280AD136480178374802880088401CE3
:1057F000354B18803648815433E035488078C01CDA
:1058000031490988884221D12D480078FE281DD1D0
:105810002B4802782C4801880088401C2A4B1880AD
:105820002B484254184600882B49088001202B49F8
:105830000870184601882648FDF744FC10B1002086
:10584000274908600020214908700AE000201F490C
:1058500008701D49088004E000201B4908801B498E
:1058600008700121144800F0A5FA30B1124800F088
:105870005BFB0121104800F06CFA08210E4800F093
:1058800099FA30B10C4800F04FFB08210A4800F0AB
:1058900060FA0221084800F08DFA30B1064800F0A5
:1058A00043FB0221044800F054FA40F2255102481B
:1058B00000F058FA10BD0000001001400014024032
:1058C00057000020580000205400002056000020FF
:1058D000700200203C0000208C0000208E00002080
:1058E0002800002008B54FF4A060FDF7A5FF252093
:1058F0008DF8000001208DF801008DF802008DF870
:1059000003006846FDF75CFF08BD000030B587B0B6
:1059100005460C4601210846FDF7BAFF00208DF828
:105920001A0001208DF81B0002208DF819000C20B0
:10593000059002208DF8180005A91C48FCF708FD09
:10594000072203211948FCF74BFD072202211748C3
:10595000FCF746FD01214804FDF7AAFF0195002050
:10596000ADF80800ADF80A00ADF80C00ADF8100075
:105970000C20ADF80E0001A90D4800F06BFA012CC7
:1059800008D100F021F8012240F22551084800F02A
:105990003BFA05E0002240F22551054800F034FAB8
:1059A0000121034800F0EDF907B030BD00000240CE
:1059B0000044004010B540F22551024800F0FAF9C9
:1059C00010BD00000044004008B54FF4A060FDF792
:1059D00033FF26208DF8000001208DF80100032000
:1059E0008DF8020001208DF803006846FDF7E8FEFF
:1059F00008BD000030B587B005460C4601210220E5
:105A0000FDF746FF00208DF81A0001208DF81B00DD
:105A100002208DF819004FF44060059002208DF8A7
:105A2000180005A91C48FCF793FC07220A211A4814
:105A3000FCF7D6FC07220B211748FCF7D1FC01210B
:105A40008804FDF735FF01950020ADF80800ADF89A
:105A50000A00ADF80C00ADF810000C20ADF80E00F7
:105A600001A90E4800F0F6F9012C08D100F0C0F8A9
:105A7000012240F22551094800F0C6F905E0002254
:105A800040F22551054800F0BFF90121034800F01C
:105A900078F907B030BD0000000402400048004023
:105AA00010B540F225514C4800F084F9002869D027
:105AB000494800F039FAC4B248480078E0B948488B
:105AC000007801285CD1032C5AD100204549087088
:105AD00043490A7843490878411C424B19704249AE
:105AE0000A5419460878411C1A4611703E490C5454
:105AF00001203A49087043E03848007801283AD13B
:105B000038480078022836DB36480078032807DA60
:105B100034490878411C334A117033490C5420E051
:105B200031488078401D2F490978884214DD2D497D
:105B30000878411C2B4A11702B490C540846807878
:105B4000401D1146097888420BD102202349087074
:105B500001202649087004E00020204908702149EE
:105B600008702048007864280ADB00201B49087070
:105B70001C49087004E00020184908701949087091
:105B8000174804700121144800F014F930B112488C
:105B900000F0CAF90121104800F0DBF808210E4896
:105BA00000F008F930B10C4800F0BEF908210A48AD
:105BB00000F0CFF80221084800F0FCF830B10648A8
:105BC00000F0B2F90221044800F0C3F840F2255178
:105BD000014800F0C7F810BD004800405200002006
:105BE00050000020510000200C0200203F00002047
:105BF00008B54FF4A060FDF71FFE27208DF80000C8
:105C000001208DF8010003208DF8020001208DF89D
:105C100003006846FDF7D4FD08BD000030B587B02D
:105C200005460C4601210420FDF732FE00208DF8C8
:105C30001A0001208DF81B0002208DF81900C020E9
:105C4000059002208DF8180005A91C48FCF780FB80
:105C5000082206211948FCF7C3FB08220721174830
:105C6000FCF7BEFB01212020FDF732FE019500204C
:105C7000ADF80800ADF80A00ADF80C00ADF8100062
:105C80000C20ADF80E0001A90D4800F0E3F8012C3E
:105C900008D100F049F8012240F22551084800F0EF
:105CA000B3F805E0002240F22551054800F0ACF8B9
:105CB0000121034800F065F807B030BD000802403C
:105CC0000014014010B540F22551164800F072F85A
:105CD0000121144800F06EF830B1124800F024F9A8
:105CE0000121104800F035F808210E4800F062F854
:105CF00030B10C4800F018F908210A4800F029F8E2
:105D00000221084800F056F830B1064800F00CF9BE
:105D10000221044800F01DF840F22551014800F02E
:105D200021F810BD0014014008B54FF4A060FDF744
:105D300083FD47208DF8000001208DF8010003202D
:105D40008DF8020001208DF803006846FDF738FD4C
:105D500008BD01F40072B2F5007F00D100BFCA4354
:105D60000280704710B50022002340F66A14A14259
:105D700000D100BF0A1201249440A3B2DC43048086
:105D800010BD21B1828942F40052828104E08289EF
:105D90004DF6FF731A408281704702460020B1F52C
:105DA000007F00D100BF13880B400BB1012000E041
:105DB0000020704770B50246002400230025002013
:105DC00040F66A16B14200D100BFC1F3421501F09E
:105DD0001F03012606FA03F3012D02D196893340F1
:105DE00006E0022D02D1168A334001E0968A334044
:105DF0000C12012606FA04F41688344013B10CB1D3
:105E0000012000E0002070BDF0B50346002400260C
:105E10000025002040F66A17B94200D100BF18469D
:105E2000C1F3421401F01F06012707FA06F5012C01
:105E300001D10C3004E0022C01D1103000E014300C
:105E40001AB107682F43076002E00768AF43076095
:105E5000F0BD00002DE9FF4705460E460024A1468F
:105E600000BFA046B08900B100BF2C8A24F4405482
:105E7000F08804432C82AC8941F20C608443B088E2
:105E800031890843718908430443AC81AC8A24F406
:105E90004074B0890443AC826846FDF739FD204860
:105EA000854202D01F48854202D1DDF80C9001E006
:105EB000DDF80890A88900F4004040B109EBC90062
:105EC00000EB091031684900B0FBF1F707E009EB7E
:105ED000C90000EB091031688900B0FBF1F76420BC
:105EE000B7FBF0F004012009642101FB1078A889B8
:105EF00000F4004040B1322000EBC800B0FBF1F0EC
:105F000000F00700044308E0322000EB0810642191
:105F1000B0FBF1F000F00F0004432C81BDE8FF87D7
:105F2000001001400014014001468888C0F30800B9
:105F30007047C1F308028280704700BFFEE700008F
:105F40001CB501210846FDF7A3FC01208DF80400D3
:105F500000208DF806001020009001208DF8070029
:105F600003208DF8050069460748FCF7F1F9012088
:105F700006490860FEF73AFD0820FEF7B1FD00F083
:105F800009F8034908801CBD00000240900240420D
:105F90009C00002010B5002400200E4908609020CD
:105FA000FEF782FD0020FEF77FFD0020FEF77CFD5E
:105FB0000020FEF779FDFF20FEF776FD44EA00247D
:105FC000FF20FEF771FD044301200349C1F8900250
:105FD000204610BD900240420000404270B52DEDB9
:105FE000108BB0EE40AAF0EE60AAF0EE419A0320CA
:105FF000D54981F8410001242AEE0A0A0AEEAA0ACC
:1060000010EE101A0846FAF702FB41EC1B0BB0EE3B
:106010004B0AF0EE6B0A00F00DFCB0EE408AF0EE99
:10602000608A9FEDCA0AB0EE409AF5EEC09AF1EE92
:1060300010FA7CD09FEDC60B53EC102B51EC180BD3
:10604000FAF710FB26D21AEE100AFAF7E0FA41EC42
:106050001E0B53EC182BFAF72EFA41EC1D0BFAF736
:1060600019FB0FEE100AB0EE4F0A00F04DFB10EED8
:10607000105A2846FAF7CBFA41EC1C0B9FEDB60BF1
:1060800053EC102BFAF7A5F941EC1B0BFAF702FBC6
:1060900009EE100A9FEDB20AB4EEC09AF1EE10FAC2
:1060A00005DD9FEDB00A30EE490AB0EE409AF5EEFC
:1060B000C0AAF1EE10FA03D2B1EE490AB0EE409A4E
:1060C000B5EEC0AAF1EE10FA05D251EC180B81F032
:1060D000004141EC180B9FEDA40B53EC102B51EC3D
:1060E000180BFAF7A7FA01D2604244B200EE104A48
:1060F000B8EEC00A20EE090ADFED9D0A20EE200A64
:10610000F7EE000A80EE201ABDEEC10A10EE100A6A
:106110008D49086100EE104AB8EEC00A20EE090A67
:10612000DFED930A20EE200AF7EE000A00E091E08E
:1061300080EE201ABDEEC10A10EE100A486100EE92
:10614000104AB8EEC00A20EE090ADFED890A20EEF7
:10615000200AF7EE000A80EE201ABDEEC10A10EE0A
:10616000100A886100EE104AB8EEC00A20EE090A53
:10617000DFED7F0A20EE200AF7EE000A80EE201AFB
:10618000BDEEC10A10EE100AC8619FED7A0B53EC08
:10619000102B51EC180BFAF71CF941EC1D0B81F098
:1061A000004141EC1C0B9FED750B53EC102BFAF7E3
:1061B00082F941EC1B0BFAF70BFA00B262494880F6
:1061C0009FED6C0B53EC102B51EC180BFAF701F907
:1061D00041EC1D0B81F0004141EC1C0B9FED670B66
:1061E00053EC102BFAF767F941EC1B0BFAF7F0F9B7
:1061F00001B2554881809FED5F0B53EC102B51ECA1
:10620000180BFAF7E6F841EC1C0B9FED5C0B53EC16
:10621000102BFAF750F941EC1B0BFAF7D9F901B240
:106220004948C1809FED530B53EC102B51EC180BD8
:10623000FAF7CFF841EC1C0B9FED500B53EC102BF1
:10624000FAF739F941EC1B0BFAF7C2F901B23E48F3
:10625000018175E04B483C49086141423A4841613F
:10626000494281614942C16119EE900AFAF7CFF9BA
:1062700041EC1D0B9FED440B53EC102BFAF7A9F8E2
:1062800041EC1C0B9FED3D0B53EC102BFAF713F96F
:1062900041EC1B0BFAF79CF900B22B49488019EE30
:1062A000900AFAF7B4F941EC1D0B9FED370B53EC54
:1062B000102BFAF78EF841EC1C0B9FED300B53ECD2
:1062C000102BFAF7F8F841EC1B0BFAF781F901B241
:1062D0001D48818019EE900AFAF799F941EC1D0BDF
:1062E0009FED290B53EC102BFAF773F841EC1C0BC4
:1062F0009FED220B53EC102BFAF7DDF841EC1B0B52
:10630000FAF766F901B21048C18019EE900AFAF75F
:106310007EF941EC1D0B9FED1C0B53EC102BFAF793
:1063200058F841EC1C0B9FED150B53EC102BFAF7B2
:10633000C2F841EC1B0BFAF74BF901B2024801819C
:10634000BDEC108B70BD0000D402002000000000E6
:10635000FCA9F1D24D62503F6666666666A64C4067
:106360000000B442000034430000000000000000C0
:106370000000C8427D0569C6A281514000000000AE
:106380000000F03F6CEEFFFF5A643BDF4FCD424010
:106390000FB4054B10B503A9044A029800F046FB60
:1063A00010BC5DF814FB000069790008E0000020D3
:1063B00010B5B94A2DED020B2DED0C8B82B00F9963
:1063C00021F000409FEDB6CB90422CDBA0F1405372
:1063D0000E9AA3F17F631A430FD0B349884202DCBF
:1063E00016D10E98A0B19DED0E0B02B0BDEC0C8B3A
:1063F00002B0BDE8104000F0D6BA0029C1BF9FED41
:10640000AC0B02B0BDEC0C8B02B0C8BF10BD16E0E7
:10641000012000F005FB02B0BDEC0C8B02B0BDE822
:10642000104000F0CDBAA44A9FEDA59B9FEDA6AB0E
:1064300090425EDAA6499FEDA8CB814208DBB0EE20
:106440004C0AF0EE6C0A02B0BDEC0C8B02B010BD31
:106450009DED0E0B53EC102B51EC100BF9F7B9FF1F
:1064600041EC180B9E480621B0EE480AF0EE680A8F
:10647000784400F01CFA53EC182B51EC100BF9F790
:10648000A8FF41EC1B0B9748B0EE480AF0EE680AF3
:106490000421784400F00BFA53EC182B51EC100B4C
:1064A000F9F797FF53EC192BF9F7ECFE41EC100BC1
:1064B00051EC1B0B53EC102BF9F7FDFF41EC100BCB
:1064C00053EC102B9DED0E0B51EC100BF9F781FFE7
:1064D00053EC1A2BF9F77AFF9DED0E1B53EC112BA1
:1064E000F9F774FF53EC1C2BF9F770FF41EC100B1C
:1064F000A9E79FED7D8B9FED7EBB9DED0E0B0029E7
:1065000053EC192B51EC100B52DAF9F7BBFE53EC9C
:10651000182BF9F75EFF41EC180B77480621B0EE17
:10652000480AF0EE680A784400F0C1F953EC182BE1
:1065300051EC100BF9F74DFF41EC1D0B6F48B0EE1D
:10654000480AF0EE680A0421784400F0B0F953ECF0
:10655000182B51EC100BF9F73CFF53EC192BF9F702
:1065600091FE41EC190B51EC180B02F099FE41EC35
:10657000180B53EC192B51EC1D0BF9F79CFF53EC46
:10658000182BF9F726FF53EC1A2BF9F71CFF41ECF7
:10659000100B51EC180B53EC102BF9F773FE53EC66
:1065A0001B2BF9F716FF53EC1C2BF9F70FFF6DE0CF
:1065B000F9F70CFF53EC182BF9F70BFF41EC180B14
:1065C00002F06EFE41EC1A0B00208DED00AB009046
:1065D0009DED000B51EC1A0B53EC102BF9F752FE0A
:1065E0009DED000B41EC1C0B53EC102B51EC100BF0
:1065F000F9F7EFFE53EC182BF9F7E8FE53EC1C2BE0
:10660000F9F759FF41EC1C0B3D48B0EE480AF0EE9B
:10661000680A0621784400F04AF953EC182B51EC33
:10662000100BF9F7D6FE41EC1D0B3648B0EE480AC8
:10663000F0EE680A0421784400F039F953EC182B85
:1066400051EC100BF9F7C5FE53EC192BF9F71AFEB4
:1066500041EC100B51EC1D0B53EC102BF9F72BFFF9
:1066600053EC1A2BF9F7B5FE53EC1C2BF9F70AFE85
:1066700041EC100B53EC102B9DED000B51EC100B6B
:10668000F9F700FE53EC1B2BF9F7A3FE41EC100BBE
:10669000D9E60000000000000000F03F000000000C
:1066A000182D4454FB2109400000F07F0000000039
:1066B00000000000000000000000E03F00000000BB
:1066C000000000000000F03F075C143326A6913C58
:1066D0000000603C00000000182D4454FB21F93FED
:1066E000243B0000323B0000000000000000E03FBF
:1066F00000000000000000406E3A00007C3A0000FC
:10670000803900008E39000010B510EE104A4FF0AD
:106710001A402DED028B00EB4400B0F1C85F4AD85F
:106720004FF0FC40B0EB440F22D2B0EEC00AF7EEBF
:10673000000A30EEC00AF6EE000A20EE208A18EEBB
:10674000100A02F0E4FD00EE100A14F0004F1DBF25
:106750009FED281ADFED280AB1EE400A9FED271AB7
:1067600008BFF0EE410AF8EE001A20EE210A05E01B
:1067700020EE008A9FED221ADFED220ADFED221AB9
:106780009FED222A70EEC00A20EE080A08EE212AA8
:10679000DFED1F1A48EE021A9FED1E2A08EE212A8D
:1067A000DFED1D1A48EE021ABDEC028B40EE610AC5
:1067B00030EE810A10BD4FF0CC40B0EB440F82BFE9
:1067C0009FED160ABDEC028B10BD4FF07F40B0EB81
:1067D000440F05D2BDEC028BBDE8104000F000B9BB
:1067E000012000F01DF9BDEC028BBDE8104000F067
:1067F000FBB800000000494022AA7D3A00000000DA
:106800000000C93F22AAFD3924FE1C3DC78AD83C9E
:106810001E67383D1B93993DAFAA2A3EDB0FC93F47
:106820002DED020B019820F0004001909DED000B32
:1068300002B0704700B52DED048BB0EE409AF0EE3B
:10684000609A83B051EC190BFAF736F841EC180B4B
:1068500018EE100A18EE901A8DED008B002818BF64
:106860000120084320F00040C0F17F6000F1E040CB
:10687000C00F14D019EE101A19EE900A8DED009B7E
:10688000002918BF0121084320F00040C0F17F60BB
:1068900000F1E040C00F04BF012000F0C1F8B0EEED
:1068A000480A03B0F0EE680ABDEC048B00BD70B579
:1068B00004462DED028B4D1E00EBC500B0EE408A64
:1068C000F0EE608A90ED000B35F0060017D053EC27
:1068D000182B51EC100BF9F77CFD41EC100B6D1EE1
:1068E00004EBC50090ED001B51EC100B53EC112B89
:1068F000F9F7C8FC41EC100B35F00600E7D1022D8A
:1069000036D0042D1CD0062D1CBFBDEC028B70BDF3
:1069100053EC182B51EC100BF9F75BFD94ED0A1BAF
:1069200053EC112BF9F7AEFC53EC182BF9F751FD92
:1069300094ED081B53EC112BF9F7A4FC41EC100B60
:1069400053EC182B51EC100BF9F743FD94ED061B9B
:1069500053EC112BF9F796FC53EC182BF9F739FD92
:1069600094ED040B53EC102BF9F78CFC41EC100B5D
:1069700053EC182B51EC100BF9F72BFD94ED021B87
:1069800053EC112BF9F77EFC53EC182BF9F721FD92
:1069900094ED001B53EC112BF9F774FCBDEC028B4A
:1069A00041EC100B70BD10B553EC102B51EC100BDB
:1069B000F9F768FC41EC100B10BD0000000000006E
:1069C0009FED050B10B553EC102B51EC100BF9F7A4
:1069D00072FD41EC100B10BD000000000000000033
:1069E00030EE000A70470000DFED020A80EEA00AD8
:1069F000704700000000000002E008C8121F08C134
:106A0000002AFAD170477047002001E001C1121F2F
:106A1000002AFBD1704700F0010181F31388704711
:106A20000149086070470000E40000202DE9FF4F95
:106A30008DB00F460546002606E025280BD0DDE97F
:106A40000F1290476D1C761C28780028F5D111B0E4
:106A50003046BDE8F08F0024A246A1460122EC4951
:106A600000E0044315F8013F203B02FA03F008421E
:106A7000F7D128782A2810D06FF02F022878A0F1BB
:106A80003001092914D80AEB8A0102EB410144F0D4
:106A9000020400EB010A6D1CF0E701CF5FEA000A77
:106AA00003D544F40054CAF1000A44F002046D1CFA
:106AB00028782E2817D115F8010F44F004042A284D
:106AC0000ED06FF02F022878A0F1300109290AD8E2
:106AD00009EB890102EB410100EB01096D1CF2E7B2
:106AE00057F8049B6D1C28786C280FD006DC4C28C6
:106AF00017D068280DD06A2814D104E0742810D06B
:106B00007A280FD10DE044F400140AE044F4801414
:106B100001E044F440146978814202D104F5801404
:106B20006D1C6D1C2A786E2A1FD00CDC632A31D0B4
:106B300004DC002A8BD0582A11D1A3E0642A68D043
:106B4000692A0CD165E0732A2ED004DC6F2A73D039
:106B5000702A04D19BE0752A6FD0782A6ED0104637
:106B6000DDE90F129047761C50E1C4F30250022871
:106B700006D0032809D0042801CF09D0066045E1DA
:106B800001CFF117C0E9006140E101CF06803DE18E
:106B900006703BE117F8040B8DF8000000208DF81B
:106BA0000100EB46012003E057F804BB4FF0FF3033
:106BB00061074FF0000102D40DE008F101018846A1
:106BC00049450FDA8045F8DB1BF808100029F4D19D
:106BD00008E008F1010188468142FADB1BF8081041
:106BE0000029F6D1DDE90F23AAEB080081462146F2
:106BF00000F036F9304400EB080604E0DDE90F123E
:106C00001BF8010B9047B8F10108F7D2214648461E
:106C1000F7E00A21C4F302534FF0000B0891022B56
:106C200004D001CFC117032B09D00AE0FF1D27F0C4
:106C30000707F7E8020108E032E01FE020E000B2B9
:106C4000C117042B01D140B2C117031E71F100031B
:106C500007DA4FF0000CD0EB0C006CEB01012D2398
:106C600002E0230504D52B238DF82430012303E013
:106C7000E30701D02023F7E7984658E00A2110E007
:106C800010210EE010204FF0000B08900CE01021B6
:106C90004FF0000B44F004044FF00809089103E0A2
:106CA00008214FF0000B0891C4F30253022B04D0CB
:106CB00001CF0021032B06D006E0FF1D27F00707B8
:106CC000F7E8020103E080B2042B00D1C0B24FF01C
:106CD000000823072BD5702A07D0DDF820C08CF0E0
:106CE000100C5CEA0B0C05D00EE040238DF824302C
:106CF000012308E050EA010306D030238DF8243048
:106D00008DF8252002239846DDF820C08CF0080C71
:106D10005CEA0B0C0BD150EA010301D1630706D5E5
:106D200030238DF824304FF00108A9F10109582AC9
:106D300004D038A20B9208AA0A920BE03AA2F9E713
:106D40005B46089AF9F7C2FC0B9B9B5C0A9A521EA1
:106D50000A92137050EA0102F2D10A98ADEB0000DA
:106D600000F1200B600702D524F4803401E04FF0DD
:106D70000109D94502DDA9EB0B0000E0002000EB82
:106D80000B0141440890AAEB010AE00306D4DDE9B7
:106D90000F232146504600F063F806444FF00009E7
:106DA00008E009A911F80900DDE90F12904709F17F
:106DB0000109761CC145F4DBE0030CD5DDE90F23A6
:106DC0002146504600F04CF8064404E0DDE90F127D
:106DD00030209047761C0899481E08900029F5DC61
:106DE00008E00A980A990078491C0A91DDE90F1217
:106DF0009047761CBBF10001ABF1010BF1DC2146A1
:106E00005046DDE90F2300F019F806446D1C1BE61F
:106E10000928010030313233343536373839616270
:106E20006364656600000000303132333435363734
:106E30003839414243444546000000002DE9F04105
:106E4000044600251E461746880404D405E039464A
:106E50002020B0476D1C641EF9D52846BDE8F0819E
:106E60002DE9F041044600251E469046C80301D591
:106E7000302700E02027880404D505E04146384645
:106E8000B0476D1C641EF9D52846BDE8F0810000AE
:106E9000F0B52DED028B83B006460F4600256846FF
:106EA00000F074FD002448E056F8241057F8242020
:106EB000881A002801DB014600E0414200EE101A6A
:106EC000B8EEC00ADFED200A80EE208A684600EBAB
:106ED000840090ED000AB5EEC00AF1EE10FA19D068
:106EE000684600EB8400D0ED000A88EE200AF7EE39
:106EF000000A70EE608A00BFB0EEE80A1348D0EDD9
:106F0000090AB4EEE00AF1EE10FA15DD0120A04006
:106F1000054311E00D4890ED070AB4EEC80AF1EE02
:106F200010FA06DC90ED080AB4EEC80AF1EE10FA89
:106F300002D20120A0400543641C032CB4DB284688
:106F400003B0BDEC028BF0BD0000804774930008D5
:106F500001B56422009901FB02F0FBF75DF808BD62
:106F600038B5044664B120208DF8000028208DF843
:106F7000010030208DF8020038208DF8030004E075
:106F8000A32204216846F9F75EF96A46042140F617
:106F90009E2002F0AFF801F099FC38BD3EB50446E2
:106FA00002208DF80000CA208DF80100E3208DF842
:106FB000020009208DF803006A460421682002F0CF
:106FC00099F8A3208DF8000004F0400048B1C020DB
:106FD0008DF80100C8208DF80200C2208DF8030052
:106FE00006E0A3208DF801008DF802008DF8030063
:106FF00004F4C07048B1C4208DF80400CC208DF892
:107000000500C6208DF8060006E0A3208DF80400D8
:107010008DF805008DF80600A3208DF807008DF887
:1070200008008DF809006A460A2140F6A72002F000
:1070300061F804F0030018B120208DF8000002E090
:10704000D8208DF800006A46012140F6B62002F0F3
:1070500051F804F0200018B1012000F0ADF802E072
:10706000002000F0A9F804F4C07008B304F48070A4
:1070700060B1B2208DF800008B208DF80100B620A1
:107080008DF802009B208DF803000BE0B0208DF8F6
:10709000000080208DF80100B4208DF802009020BF
:1070A0008DF803006A46042140F6A22002F022F87F
:1070B00004F0010020B3F8208DF800006A46012199
:1070C0004FF40B6002F016F8FA21072000F046FB9F
:1070D000072000F00DFB012000F02DFB642000F0E4
:1070E0001DFC4FF4FA7000F02CFCC821304800F071
:1070F000BDFA282000F0D6FA0A2000F0E6FA08E0EF
:10710000D8208DF800006A4601214FF40B6001F091
:10711000F1FF04F0020018B1D9208DF8000002E060
:10712000D8208DF800006A46012140F23D7001F040
:10713000E1FF04F0040018B1012000F069F802E05A
:10714000002000F065F804F0100018B10120FFF7EE
:1071500007FF02E00020FFF703FF44F00800154995
:10716000488101F0B3FB00201249887304F040000D
:1071700018B10846807B801D887304F4C07020B16C
:107180000C48807B801D0B49887304F0140020B1EB
:107190000848807B10300749887304F0030020B151
:1071A0000448807B001D0349887300203EBD000019
:1071B00009E3CA02940900203EB504466CB10EA151
:1071C000D1E900208968CDE9002002916A460921B1
:1071D0004FF4976001F08EFF3EBD0AA2D2E9001085
:1071E0009268CDE9010200916A4609214FF4976047
:1071F00001F080FFF0E70000B8AAB38DB4980D3518
:107200005D000000B8AAAAAAB088C3C5C7000000E4
:1072100038B5044664B1C0208DF80000C2208DF856
:107220000100C4208DF80200C6208DF8030004E0A0
:107230008B2204216846F9F706F86A46042140F6D5
:10724000982001F057FF01F041FB38BD10B5C8236D
:107250004FF48062024940F6F63001F02BFA10BD7F
:107260009C93000870B588B0064601A801F06EF83E
:10727000BDF804000021C90341EA5045C403444855
:10728000007A00F0030056F8200005904048007A8C
:1072900000F0040010B10598404205903C48007A87
:1072A000C0F3C10056F8200006903948007A00F07B
:1072B000200010B10698404206903548007AC0F38D
:1072C000811056F8200007903148008900F4807042
:1072D00010B10798404207900598C117A0FB0423FE
:1072E00001FB043100FB0510810041EA927005901A
:1072F0000698C117A0FB042301FB043100FB051015
:10730000810041EA927006900798C117A0FB042300
:1073100001FB043100FB0510810041EA92700790E7
:107320000598000E8DF808000598000C8DF80900EE
:107330000598000A8DF80A000598C0B28DF80B0078
:107340000698000E8DF80C000698000C8DF80D00C4
:107350000698000A8DF80E000698C0B28DF80F004E
:107360000798000E8DF810000798000C8DF811009A
:107370000798000A8DF812000798C0B28DF8130024
:1073800002AA0C214FF4257001F0B4FE08B070BDC4
:107390009409002030B585B0044616A207CA02AB96
:1073A00007C3C82C03DD4FF0FF3005B030BDC82047
:1073B00090FBF4F0401E85B2280A8DF80000E8B278
:1073C0008DF801006A46022140F2162001F092FE7B
:1073D00010B14FF0FF30E8E702AA0C2140F6C120BF
:1073E00001F088FE10B14FF0FF30DEE704488481E1
:1073F0000020DAE7FEF2ABC4AAF1DFDFBBAFDFDFCC
:10740000940900201FB504464848007A00F00300A4
:1074100054F8200001904548007A00F0040010B1B3
:107420000198404201904148007AC0F3C10054F8ED
:10743000200002903D48007A00F0200010B1029830
:10744000404202903948007AC0F3811054F820007D
:1074500003903648008900F4807010B103984042D0
:1074600003903349019880FB0101800F40EA8100BD
:1074700001902F49029880FB0110820042EA91702E
:1074800002902B49039880FB0110820042EA917020
:1074900003900198000E8DF800000198000C8DF803
:1074A00001000198000A8DF802000198C0B28DF821
:1074B00003006A4604214FF4747001F01BFE18B1FA
:1074C0004FF0FF3004B010BD0298000E8DF80000A0
:1074D0000298000C8DF801000298000A8DF8020055
:1074E0000298C0B28DF803006A4604214FF475700B
:1074F00001F000FE10B14FF0FF30E3E70398000EFB
:107500008DF800000398000C8DF801000398000A24
:107510008DF802000398C0B28DF803006A4604217A
:107520004FF4767001F0E6FDCCE7000094090020EE
:1075300009E3CA0210B586B0044647A0006803906C
:1075400046A00068029046A00068019045A000682F
:10755000009004F0030003A9085C8DF8140003A850
:10756000C4F3C101405C8DF8150003A8C4F3811178
:10757000405C8DF8160004F0030002A9085C8DF849
:10758000100002A8C4F3C101405C8DF8110002A8EC
:10759000C4F38111405C8DF8120005AA032140F26A
:1075A000264001F0A7FD18B14FF0FF3006B010BD26
:1075B00004AA032140F22A4001F09CFD10B14FF0D3
:1075C000FF30F3E7019805900098049004F0040060
:1075D00058B19DF8140040F001008DF814009DF89A
:1075E000100040F001008DF8100004F0200058B1A8
:1075F0009DF8150040F001008DF815009DF8110070
:1076000040F001008DF8110004F4807058B19DF82D
:10761000160040F001008DF816009DF8120040F0B1
:1076200001008DF8120005AA03214FF4886001F0D3
:1076300061FD10B14FF0FF30B8E704AA032140F21A
:10764000314001F057FD10B14FF0FF30AEE7064872
:1076500004810020AAE700004CCD6C000CC92C006E
:10766000365676002646660094090020F8B5054691
:107670000E464FF47A7095FBF0F000FB06F4200EF6
:107680008DF80000200C8DF80100200A8DF8020012
:10769000E0B28DF803006A4604214FF4AE7001F0A9
:1076A00029FDF8BD38B50446052094FBF0F084B2FE
:1076B00020128DF80000E0B28DF801006A46022128
:1076C0004FF4AD7001F016FD38BD38B50446052005
:1076D00094FBF0F084B220128DF80000E0B28DF837
:1076E00001006A4602214FF4AC7001F003FD38BD81
:1076F00038B504460020009004F0010020B19DF848
:10770000000040F03000009004F0020020B19DF82D
:10771000000040F00C00009004F0040020B19DF83F
:10772000000040F0030000906A4601214FF4A4706D
:1077300001F0E0FC38BD38B50446012C01DA012423
:1077400002E0042C00DD0424601EC0B200906A46F2
:10775000012140F24F1001F0CDFC38BDF0B52DED08
:10776000028B83B006460F4606F0070010B1B7F54E
:10777000C86F05DD4FF0FF3003B0BDEC028BF0BDEC
:1077800000EE107AB8EE400ADFED5B0A80EE208A48
:1077900001A800F0B5FD9DF80400022806D00428D9
:1077A00017D0082828D010284CD138E09FED530A74
:1077B00028EE000ABCEEC00A10EE100A84B29FED5B
:1077C000500A28EE000ABCEEC00A10EE100A85B27C
:1077D0003BE09FED4C0A28EE000ABCEEC00A10EE1A
:1077E000100A84B29FED480A28EE000ABCEEC00AD7
:1077F00010EE100A85B228E09FED440A28EE000A38
:10780000BCEEC00A10EE100A84B29FED410A28EEC9
:10781000000ABCEEC00A10EE100A85B215E09FED1A
:107820003D0A28EE000ABCEEC00A10EE100A84B22F
:107830009FED390A28EE000ABCEEC00A10EE100ACD
:1078400085B202E04FF0FF3096E700BF20128DF8BE
:107850000800E0B28DF8090028128DF80A00E8B29D
:107860008DF80B0006F00100A0B102AA02214FF42E
:10787000EA7001F03FFC10B14FF0FF307CE70DF1F2
:107880000A0202214FF4927001F034FC10B14FF063
:10789000FF3071E706F00200A0B102AA02214FF406
:1078A000EC7001F027FC10B14FF0FF3064E70DF1F0
:1078B0000A0202214FF4947001F01CFC10B14FF049
:1078C000FF3059E706F00400A0B102AA02214FF4EC
:1078D000EE7001F00FFC10B14FF0FF304CE70DF1EE
:1078E0000A0202214FF4967001F004FC10B14FF02F
:1078F000FF3041E700203FE700004843000080469A
:1079000000004046000000460000C04500008045E1
:1079100000004045000000450000C04438B5044662
:10792000052094FBF0F085B228128DF80000E8B233
:107930008DF801006A4602214FF4EF7001F0DAFB86
:1079400038BD38B50446052094FBF0F085B2281206
:107950008DF80000E8B28DF801006A4602214FF46C
:10796000ED7001F0C7FB38BD70B504460D46E1B2BD
:107970000548FEF7DEFA00BF80210348FEF70DFA46
:107980000028F9D0204670BD001401407CB50546A2
:107990002E494968087801AB04220D21FBF7FCF958
:1079A00008B107207CBD9DF80700C0F301109DF8C9
:1079B000041001F0E00140EAE1008DF800009DF8BC
:1079C0000700C0F381009DF8051001F0E00140EAD6
:1079D000E1008DF801009DF8070000F003009DF81C
:1079E000061001F0E00140EAE1008DF802000024F9
:1079F00027E01DF8040030B99FED150A05EB84005F
:107A000080ED000A1BE09FED130A05EB840080ED7A
:107A1000000A0BE005EB840090ED000ADFED0E0A92
:107A200020EE200A05EB840080ED000A1DF804001A
:107A3000401EC0B20DF804000028EBD100BF601C4E
:107A4000C4B2032CD5DB0020ACE70000A800002066
:107A5000000000007B14AE3E1D5A843F2DE9F04F1C
:107A600087B005460C46914601208DF81000002095
:107A70008DF81100FE4A1268917CFD4A5268107818
:107A800004AB0222FBF7C2F920B14FF0FF3007B080
:107A9000BDE8F08FC820FFF75BFA00208DF81000DA
:107AA000F34A1268D17BF24A5268107804AB012283
:107AB000FBF7ACF910B14FF0FF30E8E7EC4A126881
:107AC0005179EB4A5268107804AB0122FBF79EF91A
:107AD00010B14FF0FF30DAE7E54A1268917CE44AD2
:107AE0005268107804AB0122FBF790F910B14FF007
:107AF000FF30CCE7DE4A1268D17DDD4A526810784B
:107B000004AB0122FBF782F910B14FF0FF30BEE762
:107B1000D74A12681179D64A5268107804AB01220C
:107B2000FBF774F910B14FF0FF30B0E70C208DF87F
:107B30001000CF4A12681179CD4A5268107804AB10
:107B40000122FBF763F910B14FF0FF309FE70F20E0
:107B5000FFF7FEF9C648806A407A8DF81000C44AE3
:107B600012689178C24A5268107804AB0122FBF780
:107B70004DF910B14FF0FF3089E7BD48806A007AB7
:107B80008DF81000BA4A12685178B94A52681078D4
:107B900004AB0122FBF73AF910B14FF0FF3076E762
:107BA000B9F1000F07D0B248806A807A40F0E00057
:107BB0008DF8100004E0AE48806A807A8DF81000DD
:107BC000AB4A12689179AA4A5268107804AB012234
:107BD000FBF71CF910B14FF0FF3058E7B9F1000F77
:107BE00007D0A348806AC07A40F0E0008DF810000A
:107BF00003E0A048C07A8DF810009D4A1268D17940
:107C00009B4A5268107804AB0122FBF7FFF810B1D1
:107C10004FF0FF303BE7B9F1000F02D0C820FFF76B
:107C200097F940208DF81000914A12681179904A16
:107C30005268107804AB0122FBF7E8F810B14FF05E
:107C4000FF3024E778208DF81000894A12685179B6
:107C5000874A5268107804AB0122FBF7D7F810B1BD
:107C60004FF0FF3013E783498889FFF771F900204F
:107C70008DF810007E4A126851797D4A526810785A
:107C800004AB0122FBF7C2F810B14FF0FF30FEE663
:107C9000774A1268917A764A5268107804AB0222C9
:107CA000FBF77AF810B14FF0FF30F0E69DF81100C5
:107CB0009DF8101040EA012B0C209BFBF0F0C6B29F
:107CC0000020A86068602860A06060602060824634
:107CD00065E0674A1268D17A654A5268107804AB49
:107CE0000C22FBF759F810B14FF0FF30CFE69DF8AA
:107CF00011009DF8101040EA012000B2ADF8080014
:107D00009DF813009DF8121040EA012000B2ADF872
:107D10000A009DF815009DF8141040EA012000B2F9
:107D2000ADF80C00BDF90810206808442060BDF9CA
:107D30000A10606808446060BDF90C10A06808442F
:107D4000A0609DF817009DF8161040EA012000B2CF
:107D5000ADF800009DF819009DF8181040EA0120C8
:107D600000B2ADF802009DF81B009DF81A1040EA21
:107D7000012000B2ADF80400BDF9001028680844E5
:107D80002860BDF90210686808446860BDF90410F5
:107D9000A8680844A8600AF1010000F0FF0AB24593
:107DA00097DB3448D0F800C02868C117090441EABD
:107DB00010410704624600233846F8F701FA3246BC
:107DC0000023CDE90201F8F7FBF928602948D0F833
:107DD00000C06868C117090441EA104107046246FF
:107DE00000233846F8F7ECF932460023CDE90201CA
:107DF000F8F7E6F968601F48D0F800C0A868C11716
:107E0000090441EA10410704624600233846F8F7A6
:107E1000D7F932460023CDE90201F8F7D1F9A8607D
:107E20001448D0F804C02168C817000440EA11487B
:107E30000F046246002338464146F8F7C1F932463E
:107E40000023CDE90201F8F7BBF920600948D0F81A
:107E500004C06068C117090441EA10410704624682
:107E600000233846F8F7ACF93246002304E000005E
:107E7000A800002074930008CDE90201F8F7A0F9EA
:107E800060601148D0F804C0A068C117090441EA35
:107E900010410704624600233846F8F791F932464C
:107EA0000023CDE90201F8F78BF9A060A068002853
:107EB00004DDA068A0F58030A06003E0A06800F5B4
:107EC0008030A0600020E2E574930008F0B52DED4D
:107ED000048B81B006460F4600253F494968087863
:107EE0006B4603220D21FAF757FF20B1072001B09E
:107EF000BDEC048BF0BD9DF8000000F01F008DF874
:107F000000009DF8010000F01F008DF801009DF8B1
:107F1000020000F01F008DF80200002457E056F820
:107F2000241057F82420881A002801DB014600E0BD
:107F3000414200EE101AB8EEC00ADFED280A80EECA
:107F4000208A1DF8040070B3254890ED000AB8EEB1
:107F5000400ADFED240A80EE801AB0EE419A05E077
:107F60009FED210A29EE000AB0EE409A1DF80400A8
:107F7000401EC0B20DF804000028F1D188EE090AB5
:107F8000F7EE000A70EE608A00BFB0EEE80A14480F
:107F9000D0ED060AB4EEE00AF1EE10FA16DD01208B
:107FA000A040054312E0FFE70D4890ED040AB4EE4F
:107FB000C80AF1EE10FA06DC90ED050AB4EEC80A24
:107FC000F1EE10FA02D20120A0400543641C032CFC
:107FD000A5DB28468BE70000A800002000008047B2
:107FE0007493000800B04C4554E3853F10B5044637
:107FF000204600F00FF80346E01C00F00BF843EABF
:10800000C00083B2A01D00F005F843EA801083B2DF
:10801000184610BD014691F90020002A01DD00201C
:108020001EE091F90020002A01DA042018E091F9FD
:108030000120002A01DD012012E091F90120002A2F
:1080400001DA05200CE091F90220002A01DD02206E
:1080500006E091F90220002A01DA062000E007205C
:108060007047000086B000BF002400BF142227A183
:1080700001A8F8F7D6F8FCF76FFEFAF789FBFAF7D4
:108080000DFB01224FF4E1312548FBF7DBFA25A176
:108090002348FDF7BCFA01224FF47A312B48FBF755
:1080A000D1FA2BA12948FDF7B2FAFDF749FFFDF7F8
:1080B00071FFC5B2294630A0FEF76AF930A0FEF77D
:1080C00067F94FF400513548FAF73EF90DE04FF4E7
:1080D00000513248FAF738F931A0FEF759F942F267
:1080E0002830F9F799FF601CC4B200F0B9F808B164
:1080F0000A2CECDB0A2C04DA00BF2FA0FEF748F9AB
:1081000002E034A0FEF744F9FCF70EFF5732355178
:10811000313238E8AFBBE58699E6B58BE8AF95001C
:10812000001001405553415254312043686173732C
:1081300069737320666F72204D69636B526F626F53
:10814000742D5633202E2E2E2E2E0A0000140140A0
:1081500055534152543620436861737369737320D9
:10816000666F72204D69636B526F626F742D563368
:10817000202E2E2E2E2E0A0049443A25580D0A0094
:10818000537461727420496E6974204D50553630B5
:108190003530202E2E2E200A000000000014024050
:1081A0004D505536303530205265496E69742E2E4B
:1081B0002E200D0A000000004D505536303530207D
:1081C0005374617274205375636365737320202048
:1081D0000D0A00004D50553630353020496E697417
:1081E000204661696C65642020200D0A00000000B3
:1081F00070B50446002624F00104184890F82400C5
:1082000008B1002070BD1548807A10B94FF0FF30DA
:10821000F8E71248057C807A204010490874084627
:10822000007CA04202D04FF0FF3600E0002614B9D7
:108230000A48007D18B1012000F0EAFF02E00020AA
:1082400000F0E6FF3CB100F041FB20B103480574AB
:108250004FF0FF30D6E73046D4E70000A8000020FA
:1082600070B50024FAF7FAF800F02CF9002840D194
:10827000782000F0D7FEC4B20CB1012070BD782088
:10828000FFF7B6FFC4B20CB10220F7E7642000F09C
:108290007BFEC4B20CB10320F0E7FEF7D7FFC4B2F7
:1082A0000CB10420EAE71548FFF7A0FE0546FFF7EA
:1082B00041F9C4B20CB10520E0E740F27310FEF7BB
:1082C0006DFEC4B20CB10620D8E76420FFF762F857
:1082D000C4B20CB10720D1E700F04CFF04460CB14A
:1082E0000820CBE7012000F04BFDC4B21CB10920EF
:1082F000C4E70A20C2E70020C0E70000D400002045
:1083000001461148407A30B1012807D0022808D030
:1083100003280CD108E0022008700BE0042008704C
:1083200008E00820087005E01020087002E04FF017
:10833000FF30704700BF0448C07C18B10878400681
:10834000000E08700020F4E7A80000200146134842
:10835000407A30B1012808D002280AD0032810D171
:108360000BE04FF4804008800EE041F69C700880DE
:108370000AE04FF48050088006E04FF40060088067
:1083800002E04FF0FF30704700BF0448C07C10B1DE
:108390000888401008800020F5E70000A8000020B1
:1083A00001460248007C087000207047A8000020A9
:1083B00001460F48007A30B1012807D0022809D0C1
:1083C00003280FD10AE0FA2008800EE04FF4FA707B
:1083D00008800AE04FF47A70088006E04FF4FA60F3
:1083E000088002E00020088000BF00BF0020704726
:1083F000A800002001461248007A30B1012809D0B7
:1084000002280CD0032814D10EE09FED0E0A81ED56
:10841000000A11E09FED0C0A81ED000A0CE09FEDCF
:108420000B0A81ED000A07E09FED090A81ED000AC1
:1084300002E04FF0FF30704700BF0020FBE7000074
:10844000A8000020000003430000834233330342AE
:108450003333834101461248C07A082817D2DFE837
:1084600000F01704070A0D101318BC20088013E051
:108470006220088010E02A2008800DE01420088087
:108480000AE00A20088007E00520088004E000BF19
:1084900000BF0020088000BF00BF00207047000020
:1084A000A80000200146064890F8240010B14FF0C3
:1084B000FF3070470248C08908800020F9E70000BB
:1084C000A80000201CB580208DF80000654A1268C5
:1084D000917C644A526810786B460122FAF796FC48
:1084E00010B14FF0FF301CBD6420FEF731FD0020BD
:1084F0008DF800005B4A1268917C5A4A52681078E5
:108500006B460122FAF782FC10B14FF0FF30EAE728
:10851000544A1268917D534A526810786B4606227D
:10852000FAF73AFC10B14FF0FF30DCE79DF8050098
:10853000C007400F9DF8031001F0010140EA41001F
:108540009DF8011001F0010140EA010494B1012CF1
:1085500003D101214348C17431E0022C03D1002131
:108560004048C1742BE021463FA0FDF711FF4FF0BA
:10857000FF30B8E73B4A1268D1783A4A526810781F
:108580006B460122FAF708FC10B14FF0FF30AAE762
:108590009DF8000000F00F042CB93D48FDF7F8FEEF
:1085A0004FF0FF309FE7042C06D13AA0FDF7F0FE14
:1085B00001212C48C17402E000212A48C174FF2126
:1085C00028488172FF2027490872FF2125484172FF
:1085D000C1724FF6FF71C181FF21017481740121C5
:1085E000017380F82210002180F823104175017575
:1085F0001630016041608160163880F8241080F8E0
:108600002510C1844FF4FA6000F002FC10B14FF065
:10861000FF3068E7022000F0CBFA10B14FF0FF30D6
:1086200061E72A2000F06EFC10B14FF0FF305AE7EE
:10863000322000F0A9FC10B14FF0FF3053E70020CA
:10864000FFF7D6FD10B14FF0FF304CE7002000F0EF
:10865000F1FA10B14FF0FF3045E7002000F0E2FCE6
:10866000002040E7A8000020556E737570706F728F
:1086700074656420736F6674776172652070726FC1
:1086800064756374207265762025642E0A000000EC
:10869000E89F000848616C662073656E73697469B1
:1086A00076697479207061727420666F756E642EBD
:1086B0000A0000002DE9F04385B005460E469046BD
:1086C0009946294890F8250020B14FF0FF3005B0B9
:1086D000BDE8F08316B94FF0FF30F8E7002423E03F
:1086E000281B102801DD102000E0281B87B232195A
:1086F0003946204600F0FEFC10B14FF0FF30E6E7AF
:1087000001AA3946204600F0A1F810B14FF0FF3021
:10871000DDE730193A4601A9F7F7A7FD10B16FF070
:108720000100D4E7E01984B2AC42D9DB4FEA28203B
:108730008DF8000008F0FF008DF801000A4A126869
:10874000917E094A526810786B460222FAF75EFB66
:1087500010B14FF0FF30BAE70121034880F825102F
:10876000A0F826900020B2E7A800002038B5044603
:10877000282C02DD4FF0FF3038BDDCB9002000F0BE
:108780008BFB00208DF8000007208DF801002E4A99
:108790001268917C2C4A526810786B460222FAF7D4
:1087A00035FB10B14FF0FF30E6E700212648017598
:1087B0000020E1E7012000F06FFB20208DF8000091
:1087C000012C06D100208DF80100052000F09AFB55
:1087D00017E0052C06DC01208DF80100052000F0D3
:1087E00091FB0EE0142C06DC02208DF801000A201B
:1087F00000F088FB05E003208DF80100142000F054
:1088000081FB9DF80100072101EB8010C0B28DF8BB
:1088100001000D4A1268917C0B4A526810786B4631
:108820000222FAF7F3FA10B14FF0FF30A4E7082163
:108830000548817200210173012101750020FFF7B5
:10884000D7FC002098E70000A8000020F8B50446F7
:108850000D46164616B94FF0FF30F8BD1A48807A1B
:1088600010B94FF0FF30F8E720128DF80000E0B2A9
:108870008DF801009DF80100284413494968498991
:10888000884202DD4FF0FF30E7E70F4A1268117EA1
:108890000D4A526810786B460222FAF7B7FA10B107
:1088A0004FF0FF30D9E7EAB2074B1B68597D064B02
:1088B0005B6818783346FAF76FFA10B14FF0FF3063
:1088C000CBE70020C9E70000A800002008B57048E9
:1088D000807A10B94FF0FF3008BD002000906C4A3C
:1088E0001268D17B6A4A526810786B460122FAF707
:1088F0008DFA10B14FF0FF30EEE7654A12685179FA
:10890000634A526810786B460122FAF77FFA10B179
:108910004FF0FF30E0E75E4A126811795C4A526816
:1089200010786B460122FAF771FA10B14FF0FF3060
:10893000D2E7574890F82400002853D00C2000902C
:10894000534A12681179524A526810786B460122D4
:10895000FAF75CFA10B14FF0FF30BDE73220FEF7B6
:10896000F7FAC02000904A48807A00F0010020B158
:108970009DF8000040F020000090454A12681179EF
:10898000434A526810786B460122FAF73FFA10B159
:108990004FF0FF30A0E73E48407C10B1022000902D
:1089A00001E0002000903A4A1268D17B384A5268B0
:1089B00010786B460122FAF729FA10B14FF0FF3018
:1089C0008AE700200090324A12685179304A526892
:1089D00010786B460122FAF719FA002855D04FF0AB
:1089E000FF3079E704200090294A12681179284A5B
:1089F000526810786B460122FAF708FA10B14FF06E
:108A0000FF3069E72248807C20B92148807A00F055
:108A1000010010B94020009001E0602000901C4A45
:108A2000126811791A4A526810786B460122FAF7D7
:108A3000EDF910B14FF0FF304EE73220FEF788FA23
:108A40001348407C10B10120009001E0002000900C
:108A50000F4A1268D17B0E4A526810786B46012289
:108A6000FAF7D4F910B14FF0FF3035E7084A126831
:108A70005179074A52681078054B10330122FAF7F2
:108A8000C5F910B14FF0FF3026E7002024E70000C1
:108A9000A80000202DE9F04F8DB083460F4602203C
:108AA0000C90424890F8240020B1002000F068F9B2
:108AB000012600E0002603A8FFF77AFC05A8FFF7CF
:108AC0001FFC01A8FFF7C6FC02A8FFF7EBFC374824
:108AD00090F80AA004A8FFF763FC002407E0002236
:108AE00039465846FEF7BAFF00B902E0641C022C72
:108AF000F5DB00BF022C01D1002528E0002407E0AF
:108B0000012206A909A8FEF7A9FF00B902E0641C2A
:108B1000022CF5DB00BF022C01D1002517E006A9CD
:108B20003846FEF7B5F900F0FF0809A95846FFF7E7
:108B3000CDF900F0FF090025B9F1000F01D145F092
:108B40000105B8F1000F01D145F0020500BFFF207B
:108B500016490872FF2115484172C1724FF6FF7124
:108B6000C181FF218172017401210173BDF80C00E4
:108B700000F04EF99DF8140000F01AF8BDF804005A
:108B800000F0C0F9BDF8080000F0FEF9504600F012
:108B900049FA9DF81000FFF72BFB16B1012000F0F9
:108BA000EFF828460DB0BDE8F08F0000A8000020C7
:108BB00038B504461E48807A10B94FF0FF3038BDF2
:108BC000022C06D0042C07D0082C08D0102C0CD175
:108BD00008E0002000900BE00820009008E0102042
:108BE000009005E01820009002E04FF0FF30E6E72B
:108BF00000BF0F48407A9DF80010B0EBE10F01D1A3
:108C00000020DCE70A4A1268D179094A52681078D4
:108C10006B460122FAF7FAF810B14FF0FF30CEE7B9
:108C20009DF80000C110024841720020C7E7000013
:108C3000A800002038B504465048807CA04201D1ED
:108C4000002038BD002C46D04C4A126811794B4A9E
:108C5000526810786B460122FAF79EF810B14FF077
:108C6000FF30EEE79DF8000020F020000090434A1E
:108C700012681179414A526810786B460122FAF75E
:108C8000C5F810B14FF0FF30DBE70320FEF760F9C5
:108C900002200090394890F8220020B19DF8000091
:108CA00040F080000090354890F8230020B19DF8F6
:108CB000000040F030000090304A1268117D2F4AC9
:108CC000526810786B460122FAF7A0F8002851D0BC
:108CD0004FF0FF30B5E7294A12681179274A5268E8
:108CE00010786B460122FAF757F810B14FF0FF30B9
:108CF000A7E72248807A00F0010028B19DF8000023
:108D000040F02000009004E09DF8000020F02000DA
:108D100000901A4A12681179184A526810786B4606
:108D20000122FAF773F810B14FF0FF3089E7032002
:108D3000FEF70EF9114890F8220010B18020009043
:108D400001E0002000900D4890F8230020B19DF82C
:108D5000000040F030000090084A1268117D074A78
:108D6000526810786B460122FAF750F810B14FF0B4
:108D7000FF3066E701488474002062E7A800002005
:108D800038B50446214890F82400A04201D10020C3
:108D900038BD24B31D4890F8250010B94FF0FF30BE
:108DA000F6E7002000F034FA0020FFF743FF1749F0
:108DB000C88C00F0E9F80020009014494968087850
:108DC0006B4601222321FAF721F801210F4880F890
:108DD0002410012000F01CFAFFF778FD13E00020BA
:108DE00000F016FA0948007C0090084949680878A4
:108DF0006B4601222321FAF709F80021034880F885
:108E00002410FFF763FD0020C2E70000A800002047
:108E100038B504461F48807A10B94FF0FF3038BD8E
:108E2000FA2C09D0B4F5FA7F09D0B4F57A7F09D0CD
:108E3000B4F5FA6F0CD108E0002000900BE0082098
:108E4000009008E01020009005E01820009002E05B
:108E50004FF0FF30E3E700BF0E48007A9DF80010A6
:108E6000B0EBE10F01D10020D9E70A4A12689179ED
:108E7000084A526810786B460122F9F7C7FF10B113
:108E80004FF0FF30CBE79DF80000C0100149087299
:108E90000020C4E7A800002038B50446184890F820
:108EA0002300A04201D1002038BD14B13020009031
:108EB00001E0002000901248807C20B19DF8000065
:108EC00040F0020000900E4890F8220020B19DF87A
:108ED000000040F080000090094A1268117D084AA5
:108EE000526810786B460122F9F790FF10B14FF0ED
:108EF000FF30D9E7024880F823400020D4E7000083
:108F0000A800002038B504461E48807A10B94FF0FA
:108F1000FF3038BDBC2C02DB0120009015E0622C34
:108F200002DB0220009010E02A2C02DB03200090DC
:108F30000BE0142C02DB0420009006E00A2C02DB7C
:108F40000520009001E0062000900E48C07A9DF8B0
:108F50000010884201D10020DBE70A4A12689178AC
:108F6000084A526810786B460122F9F74FFF10B19A
:108F70004FF0FF30CDE79DF800100248C17200208D
:108F8000C7E70000A800002038B504462448807ACE
:108F900010B94FF0FF3038BD214890F8240010B1CF
:108FA0004FF0FF30F7E71E48007D50B134B1282C58
:108FB00004DCE0B2FFF7DAFB0020ECE70020FFF76B
:108FC000D5FB042C01DA042404E0B4F57A7F01DD3A
:108FD0004FF47A744FF47A7090FBF4F0401EC0B2F4
:108FE00000900F4A126851780D4A526810786B460B
:108FF0000122F9F70BFF10B14FF0FF30CBE79DF8DE
:109000000000401C4FF47A7191FBF0F081B20448EB
:10901000C1810146C9894810FFF774FF0020BAE7F3
:10902000A800002038B5044604F0700010B10120FB
:10903000009005E014B10020009001E04020009075
:109040002B4A1268917C2A4A526810786B4601229A
:10905000F9F7DCFE20B1002125488172481E38BD99
:109060009DF8000020F0400121480173002000908D
:1090700004F0400020B99DF8000040F0040000908A
:1090800004F0200020B99DF8000040F0020000909C
:1090900004F0100020B99DF8000040F0010000909D
:1090A00004F0080020B99DF8000040F0380000905E
:1090B0000F4A1268D17C0E4A526810786B46012222
:1090C000F9F7A4FE20B1002109488172481EC6E7C5
:1090D00024B1082C02D00020FFF7DEFE0448847281
:1090E000002101753220FDF733FF0020B7E70000B3
:1090F000A8000020F8B504460D46164616B94FF0F4
:10910000FF30F8BD1A48807A10B94FF0FF30F8E709
:1091100020128DF80000E0B28DF801009DF80100EA
:109120002844134949684989884202DD4FF0FF30DD
:10913000E7E70F4A1268117E0D4A526810786B46B5
:109140000222F9F763FE10B14FF0FF30D9E7EAB21F
:10915000074B1B68597D064B5B6818783346F9F757
:1091600055FE10B14FF0FF30CBE70020C9E70000FB
:10917000A800002010B588B002A905A8FFF78AFC56
:109180000446032C41D101A8FFF734F99DED050AEF
:10919000B8EEC00ADDED010A20EE200ABDEEC00ADD
:1091A0008DED050A9DED060AB8EEC00ADDED010A57
:1091B00020EE200ABDEEC00A8DED060A9DED070ADD
:1091C000B8EEC00ADDED010A20EE200ABDEEC00AAD
:1091D0008DED070A05A8FEF715F96846FFF7B6F802
:1091E000BDF80010029848430290BDF800100398A3
:1091F00048430390BDF8001004984843049002A827
:10920000FEF730F8002008B010BD0120FBE7000099
:1092100038B50446214890F82400C0B114B10220AA
:10922000009001E0002000901C4A1268D17B1B4A8C
:10923000526810786B460122F9F7E8FD10B14FF043
:10924000FF3038BD9DF800101448417423E01348E6
:10925000807A10B94FF0FF30F3E724B10F48407C1B
:1092600008B10020EDE714B10120009001E00020DA
:1092700000900A4A1268D17B084A526810786B46FF
:109280000122F9F7C3FD10B14FF0FF30D9E79DF887
:109290000010024841740020D3E70000A80000201D
:1092A00000B52DED048B83B041EC190BF7F704FBEF
:1092B00041EC180B18EE100A18EE901A8DED008B89
:1092C000002818BF0120084320F00040C0F17F6053
:1092D00000F1E040C00F14D019EE101A19EE900AF8
:1092E0008DED009B002918BF0121084320F00040AC
:1092F000C0F17F6000F1E040C00F04BF0120FDF726
:109300008FFB51EC180B03B0BDEC048B00BD10B506
:1093100000EE100A2DED028BB1EEC08A18EE100A95
:1093200020F00040C0F1FF40C00F0AD010EE100A3C
:1093300020F00040C0F1FF40C00F04BF0120FDF746
:109340006FFB18EE100ABDEC028B10BD75191A0CDC
:109350006A231B1C1F207274433B4138393A6B6CE3
:10936000376F06246D6E70006800000476005401AB
:10937000F7FD000183000000000800000001001854
:1093800032000500000020410000D242295C0F3E5F
:109390009A99993E3333733F295C0F3E0000700069
:1093A00000000024000000020003000000650054DB
:1093B000FFEF0000FA80000B12820001030C30C3A3
:1093C0000E8C8CE914D5400213710F8E3883F8830C
:1093D0003000F883258EF8833000F883FFFFFFFF0D
:1093E0000FFEA9D6240004001A8279A10000003CD7
:1093F000FFFF00000010000038836FA2003E033022
:109400004000000002CAE3093E8000002000000086
:10941000000000004000000060000000000C0000A0
:10942000000C186E000006920A16C0DFFFFF0256FD
:10943000FD8CD377FFE1C496E0C5BEAA0000000012
:10944000FFFF0B2B000016570000035940000000DF
:1094500000001DFA00026C1D000000003FFFDFEB62
:10946000003EB3B6000D227800002F3C0000000043
:10947000001942B5000039A20000B365D90E9FC99A
:109480001DCF4C3430000000500000003BB67AE89D
:109490000064000000C80000000000001000000090
:1094A0001000FA921000225E000D229F00010000C1
:1094B00000320000FF46000063D4000010000000EE
:1094C00004D6000004CC000004CC000000001072A0
:1094D0000000004000000000000000000006000244
:1094E000000500070000000000640000000000000C
:1094F00000000005000500640020000000000000DE
:1095000000000000000040000000030000000032E6
:10951000F8980000FF650000830F0000FF9BFC002F
:10952000000000000000000000000000000000003B
:10953000000000000000000000000000000000002B
:1095400000000000000000000000100040000000CB
:10955000000000060000B26A000200000001FB8368
:109560000068000000D9FC007CF1FF8300000000CF
:1095700000650000006403E8006400280000002586
:109580000000000016A00000000010000000100005
:10959000002F0000000001F400001000002800006F
:1095A000FFFF4581FFFFFA7200000000000000008D
:1095B000004400050005BAC6004778A2000000017B
:1095C0000000000000000600000000140000254D0F
:1095D000002F706D000005AE000C02D000000000EE
:1095E000000000000000000000000000001B000060
:1095F0000000000000000000000000000064000007
:109600000008000000000000000000000000000052
:10961000000000000000000000000000000000004A
:10962000000000000000000000000000000000003A
:10963000000000000000000000000000000000002A
:10964000000000000000000000000000000000001A
:10965000000000000000000000000000001B0000EF
:109660000000000000000000000E000E00000AC70D
:109670000004000000000032FFFFFF9C00000B2BE5
:10968000000000020000000100000064FFE500008F
:1096900000000000000000000000000000000001C9
:1096A0000000000000010000000000000001800038
:1096B0000001800000018000002426D3000000008B
:1096C00000000000000600100096003C00000000B2
:1096D0000000000000000000000000000C0A4E68BE
:1096E000CDCF770950166759C619CE820000000009
:1096F000000000000000000000000000000000006A
:109700000000000017D784000300000000000000E4
:1097100000000000C7938F9D1E1B1C190000000055
:109720000000000000000000000000000000000039
:109730000000000002031885000040000000000344
:1097400000000003000000000000000040000000D6
:109750000000000000000000000000000000000009
:1097600000000000000000000000000000000000F9
:1097700000000000000000000000000000000000E9
:10978000677DDF7E72902E554CF6E6880000000063
:10979000000000000000000000000000D8DCB4B8A9
:1097A000B0D8B9ABF3F8FAB3B7BB8E9EAEF132F5D1
:1097B0001BF1B4B8B08097F1A9DFDFDFAADFDFDFEC
:1097C000F2AAC5CDC7A90CC92C97F1A9892646666E
:1097D000B28999A92D557DB0B08AA896365676F1F2
:1097E000BAA3B4B280C0B8A89711B28398BAA3F054
:1097F000240844106418B2B9B49883F1A329557DA4
:10980000BAB5B1A38393F0002850F5B2B6AA8393FA
:1098100028547CF1B9A3829361BAA2DADEDFDB813E
:109820009AB9AEF5606870F1DABAA2DFD9BAA2FAD5
:10983000B9A38292DB31BAA2D9BAA2F8DF85A4D04B
:10984000C1BBAD83C2C5C7B8A2DFDFDFBAA0DFDF0F
:10985000DFD8D8F1B8AAB38DB4980D355DB2B6BAD9
:10986000AF8C96198F9FA70E161EB49AB8AA872C94
:10987000547CBAA4B08AB691325676B28494A4C805
:1098800008CDD8B8B4B0F19982A82D557D98A80E0E
:10989000161EA22C547C92A4F02C5078F184A89827
:1098A000C4CDFCD80DDBA8FC2DF3D9BAA6F8DABAE2
:1098B000A6DED8BAB2B68696A6D0F3C841DAA6C854
:1098C000F8D8B0B4B882A892F52C548898F135D95C
:1098D000F418D8F1A2D0F8F9A884D9C7DFF8F88332
:1098E000C5DADF69DF83C1D8F40114F1A8824EA87C
:1098F00084F311D182F5D992289788F109F41C1CC0
:10990000D884A8F3C0F9D1D99782F129F40DD8F3FE
:10991000F9F9D1D982F4C203D8DEDF1AD8F1A2FA5C
:10992000F9A88498D9C7DFF8F8F883C7DADF69DFC8
:10993000F883C3D8F40114F198A8822EA884F311F7
:10994000D182F5D992509788F109F41CD884A8F3F4
:10995000C0F8F9D1D99782F149F40DD8F3F9F9D1CA
:10996000D982F4C403D8DEDFD8F1AD8898CCA80939
:10997000F9D98292A8F57CF1883ACF944A6E98DBA7
:109980006931DAADF2DEF9D88795A8F221D1DAA5EE
:10999000F9F417D9F1AE8ED0C0C3AE82C684C3A885
:1099A0008595C8A588F2C0F1F4010EF18E9EA8C677
:1099B0003E56F554F18872F40115F19845856EF51F
:1099C0008E9E0488F142985A8E9E068869F4011C86
:1099D000F1981E1108D0F504F11E97020298362561
:1099E000DBF9D985A5F3C1DA85A5F3DFD88595A87C
:1099F000F309DAA5FAD88292A8F578F1881A849F3B
:109A000026889821DAF41DF3D8879F39D1AFD9DFA2
:109A1000DFFBF9F40CF3D8FAD0F8DAF9F9D0DFD992
:109A2000F9D8F40BD8F3879F39D1AFD9DFDFF41D14
:109A3000F3D8FAFCA869F9F9AFD0DADEFAD9F88FD1
:109A40009FA8F1CCF398DB45D9AFDFD0F8D8F18FE0
:109A50009FA8CAF38809DAAF8FCBF8D8F2AD978DFB
:109A60000CD9A5DFF9BAA6F3FAF412F2D8950DD104
:109A7000D9BAA6F3FADAA5F2C1BAA6F3DFD8F1BAD9
:109A8000B2B68696A6D0CAF349DAA6CBF8D8B0B457
:109A9000B8D8AD84F2C0DFF18FCBC3A8B2B686963A
:109AA000C8C1CBC3F3B0B48898A821DB718D9D7178
:109AB000859521D9ADF2FAD88597A828D9F408D888
:109AC000F28D29DAF405D9F285A4C2F2D8A88D94D2
:109AD00001D1D9F411F2D88721D8F40AD8F28498A8
:109AE000A8C801D1D9F411D8F3A4C8BBAFD0F2DE15
:109AF000F8F8F8F8F8F8F8F8D8F1B8F6B5B9B08A87
:109B000095A3DE3CA3D9F8D85CA3D9F8D87CA3D917
:109B1000F8D8F8F9D1A5D9DFDAFAD8B18530F7D974
:109B2000DED8F830ADDADED8F2B48C99A32D557DAD
:109B3000A083DFDFDFB591A0F629D9FBD8A0FC29EF
:109B4000D9FAD8A0D051D9F8D8FC51D9F9D879D9B7
:109B5000FBD8A0D0FC79D9FAD8A1F9F9F9F9F9A084
:109B6000DADFDFDFD8A1F8F8F8F8F8ACDEF8ADDE20
:109B70008393AC2C547CF1A8DFDFDFF69D2CDAA0B8
:109B8000DFD9FADB2DF8D8A850DAA0D0DED9D0F88A
:109B9000F8F8DB55F8D8A878DAA0D0DFD9D0FAF8F1
:109BA000F8F8F8DB7DF8D89CA88CF530DB38D9D0F4
:109BB000DEDFA0D0DEDFD8A848DB58D9DFD0DEA0BA
:109BC000DFD0DED8A868DB70D9DFDFA0DFDFD8F117
:109BD000A888902C547C98A8D05C38D1DAF2AE8C4E
:109BE000DFF9D8B087A8C1C1B188A8C6F9F9DA36BB
:109BF000D8A8F9DA36D8A8F9DA36D8A8F9DA36D8F2
:109C0000A8F9DA36D8F78D9DADF818DAF2AEDFD8BC
:109C1000F7ADFA30D9A4DEF9D8F2AEDEFAF983A7AF
:109C2000D9C3C5C7F1889BA77AADF7DEDFA4F88456
:109C30009408A797F300AEF29819A488C6A3948855
:109C4000F632DFF28393DB09D9F2AADFD8D8AEF877
:109C5000F9D1DAF3A4DEA7F1889B7AD8F38494AE25
:109C600019F9DAAAF1DFD8A881C0C3C5C7A39283C6
:109C7000F628ADDED9F8D8A350ADD9F8D8A378AD81
:109C8000D9F8D8F8F9D1A1DADEC3C5C7D8A1819433
:109C9000F818F2B089ACC3C5C7F1D8B8B4B097868C
:109CA000A8319B069907AB9728889BF00C2014409D
:109CB000B0B4B8F0A88A9A285078B79BA8295179EF
:109CC000247059446938644831F1BBAB88002C5486
:109CD0007CF0B38BB8A804285078F1B088B49726EC
:109CE000A85998BBABB38B02264666B0B8F08A9CE5
:109CF000A82951798B2951798A2470598B20587160
:109D00008A4469388B3940688A6448318B304960AD
:109D100088F1AC002C547CF08CA804285078F18891
:109D20009726A85998AC8C02264666F0899CA829EB
:109D30005179247059446938644831A988092059F7
:109D400070AB11384069A8193148608CA83C415C5F
:109D5000207C00F187981986A86E767EA999882DB7
:109D6000557DD8B1B5B9A3DFDFDFAED0DFAAD0DE35
:109D7000F2ABF8F9D9B087C4AAF1DFDFBBAFDFDF00
:109D8000B9D8B1F1A3978E60DFB084F2C8F8F9D9E1
:109D9000DED89385F14AB183A308B5839A0810B73A
:109DA0009F10D8F1B0BAAEB08AC2B2B68E9EF1FBA7
:109DB000D9F41DD8F9D90CF1D8F8F8AD61D9AEFBBA
:109DC000D8F40CF1D8F8F8AD19D9AEFBDFD8F416F9
:109DD000F1D8F8AD8D61D9F4F4ACF59C9C8DDF2BF6
:109DE000BAB6AEFAF8F40BD8F1AED0F8AD51DAAE9F
:109DF000FAF8F1D8B9B1B6A3839C08B9B1839AB582
:109E0000AAC0FD3083B79F10B58B93F20202D1AB8D
:109E1000DADED8F1B080BAABC0C3B284C1C3D8B166
:109E2000B9F38BA391B609B4D9ABDEB0879CB9A3C3
:109E3000DDF1B38B8B8B8B8BB087A3A3A3A3B28BEA
:109E4000B69BF2A3A3A3A3A3A3A3A3A3A3F1B08749
:109E5000B59AA3F39BA3A3DCBAACDFB9A3A3A3A3D6
:109E6000A3A3A3A3A3A3A3A3A3A3A3A3D8D8D8BB0B
:109E7000B3B7F1AAF9DAFFD9809AAA28B48098A7D3
:109E800020B79787A86688F07951F1902C870CA7A6
:109E900081976293F071716085940129517990A541
:109EA000F1284C6C870C95188578A38390284C6C0E
:109EB000886CD8F3A28200F210A8921980A2F2D97D
:109EC00026D8F188A84DD948D896A83980D93CD849
:109ED0009580A839A68698D92CDA87A72CD8A88986
:109EE0009519A980D938D8A88939A980DA3CD8A889
:109EF0002EA83990D90CD8A8953198D90CD8A80992
:109F0000D9FFD801DAFFD89539A9DA26FFD890A869
:109F10000D8999A810809821DA2ED88999A83180C6
:109F2000DA2ED8A886963180DA2ED8A8873180DA42
:109F30002ED8A88292F34180F1D92ED8A882F319A5
:109F400080F1D92ED882ACF3C0A28022F1A62EA730
:109F50002EA92298A829DAACDEFFD8A2F22AF1A90C
:109F60002E8292A8F23180A696F1D900AC8C9C0C7E
:109F700030ACDED0DEFFD88C9CACD010ACDE809252
:109F8000A2F24C82A8F1CAF235F19688A6D900D87F
:109F9000F1FF000000000000555555555555C53FCF
:109FA0007D6FEB0312D6D4BF5544880E55C1C93F0F
:109FB0003B8F68B52882A4BF88B20175E0EF493FA6
:109FC00009F7FD0DE13D023F4B2D8A1C273A03C0E6
:109FD000C88A599CE52A004059018D1B6C06E6BFD2
:109FE00082922EB1C5B8B33F50726F64756374200E
:109FF00049442072656164206173203020696E6479
:10A00000696361746573206465766963652069734B
:10A010002065697468657220696E636F6D70617424
:10A0200069626C65206F7220616E204D505533302F
:10A0300035302E0A0000000058A000080000002063
:10A04000E8000000F869000840A10008E8000020CE
:10A05000C0100000086A0008007A030A000000002F
:10A0600000000000010203040607080900000000C8
:10A0700001020304010203040607080900000000AE
:10A0800000000000000000000000000000000000D0
:10A0900000000000000000000000000000000000C0
:10A0A00000000000000000000000000000000000B0
:10A0B00000000000000000000000000000000000A0
:10A0C0000000000000000000000000000000000090
:10A0D0000000000000000000000000000000000080
:10A0E0000000000000000000000000000000000070
:10A0F0000000000017EF000000000000000000005A
:10A100004C93000868930008000000000000000065
:10A11000000000000000000000000000000000003F
:10A12000000000000000000074930008010000001F
:10A13000010000000100000000000000000000001D
:040000050800018965
:00000001FF
