Component: ARM Compiler 5.06 update 6 (build 750) Tool: armlink [4d35ed]

==============================================================================

Section Cross References

    startup_stm32f40xx.o(RESET) refers to startup_stm32f40xx.o(STACK) for __initial_sp
    startup_stm32f40xx.o(RESET) refers to startup_stm32f40xx.o(.text) for Reset_Handler
    startup_stm32f40xx.o(RESET) refers to stm32f4xx_it.o(i.NMI_Handler) for NMI_Handler
    startup_stm32f40xx.o(RESET) refers to stm32f4xx_it.o(i.HardFault_Handler) for HardFault_Handler
    startup_stm32f40xx.o(RESET) refers to stm32f4xx_it.o(i.MemManage_Handler) for MemManage_Handler
    startup_stm32f40xx.o(RESET) refers to stm32f4xx_it.o(i.BusFault_Handler) for BusFault_Handler
    startup_stm32f40xx.o(RESET) refers to stm32f4xx_it.o(i.UsageFault_Handler) for UsageFault_Handler
    startup_stm32f40xx.o(RESET) refers to stm32f4xx_it.o(i.SVC_Handler) for SVC_Handler
    startup_stm32f40xx.o(RESET) refers to stm32f4xx_it.o(i.DebugMon_Handler) for DebugMon_Handler
    startup_stm32f40xx.o(RESET) refers to stm32f4xx_it.o(i.PendSV_Handler) for PendSV_Handler
    startup_stm32f40xx.o(RESET) refers to stm32f4xx_it.o(i.SysTick_Handler) for SysTick_Handler
    startup_stm32f40xx.o(RESET) refers to stm32f4xx_it.o(i.EXTI0_IRQHandler) for EXTI0_IRQHandler
    startup_stm32f40xx.o(RESET) refers to stm32f4xx_it.o(i.DMA1_Stream5_IRQHandler) for DMA1_Stream5_IRQHandler
    startup_stm32f40xx.o(RESET) refers to stm32f4xx_it.o(i.CAN1_RX0_IRQHandler) for CAN1_RX0_IRQHandler
    startup_stm32f40xx.o(RESET) refers to stm32f4xx_it.o(i.TIM2_IRQHandler) for TIM2_IRQHandler
    startup_stm32f40xx.o(RESET) refers to stm32f4xx_it.o(i.USART1_IRQHandler) for USART1_IRQHandler
    startup_stm32f40xx.o(RESET) refers to stm32f4xx_it.o(i.USART2_IRQHandler) for USART2_IRQHandler
    startup_stm32f40xx.o(RESET) refers to stm32f4xx_it.o(i.USART3_IRQHandler) for USART3_IRQHandler
==============================================================================

Removing Unused input sections from the image.

    Removing startup_stm32f40xx.o(HEAP), (1536 bytes).
    Removing system_stm32f4xx.o(.rev16_text), (4 bytes).
    Removing system_stm32f4xx.o(.revsh_text), (4 bytes).
    Removing system_stm32f4xx.o(.rrx_text), (6 bytes).
    Removing system_stm32f4xx.o(i.SystemCoreClockUpdate), (192 bytes).
    Removing misc.o(.rev16_text), (4 bytes).
    Removing misc.o(.revsh_text), (4 bytes).
    Removing misc.o(.rrx_text), (6 bytes).
    Removing misc.o(i.NVIC_SetVectorTable), (20 bytes).
    Removing misc.o(i.NVIC_SystemLPConfig), (32 bytes).
    Removing misc.o(i.SysTick_CLKSourceConfig), (40 bytes).
    Removing stm32f4xx_adc.o(.rev16_text), (4 bytes).
    Removing stm32f4xx_adc.o(.revsh_text), (4 bytes).
    Removing stm32f4xx_adc.o(.rrx_text), (6 bytes).
    Removing stm32f4xx_adc.o(i.ADC_AnalogWatchdogCmd), (20 bytes).
    Removing stm32f4xx_adc.o(i.ADC_AnalogWatchdogSingleChannelConfig), (16 bytes).
    Removing stm32f4xx_adc.o(i.ADC_AnalogWatchdogThresholdsConfig), (6 bytes).
    Removing stm32f4xx_adc.o(i.ADC_AutoInjectedConvCmd), (22 bytes).
==============================================================================

Image Symbol Table

    Local Symbols

    Symbol Name                              Value     Ov Type        Size  Object(Section)

    ../clib/microlib/division.c              0x00000000   Number         0  uldiv.o ABSOLUTE
    ../clib/microlib/division.c              0x00000000   Number         0  ldiv.o ABSOLUTE
    ../clib/microlib/division.c              0x00000000   Number         0  uidiv.o ABSOLUTE
    ../clib/microlib/errno.c                 0x00000000   Number         0  errno.o ABSOLUTE
    ../clib/microlib/init/entry.s            0x00000000   Number         0  entry7a.o ABSOLUTE
    ../clib/microlib/init/entry.s            0x00000000   Number         0  entry7b.o ABSOLUTE
    ../clib/microlib/init/entry.s            0x00000000   Number         0  entry8b.o ABSOLUTE
    ../clib/microlib/init/entry.s            0x00000000   Number         0  entry8a.o ABSOLUTE
    ../clib/microlib/init/entry.s            0x00000000   Number         0  entry.o ABSOLUTE
    ../clib/microlib/init/entry.s            0x00000000   Number         0  entry9a.o ABSOLUTE
    ../clib/microlib/init/entry.s            0x00000000   Number         0  entry9b.o ABSOLUTE
    ../clib/microlib/init/entry.s            0x00000000   Number         0  entry10a.o ABSOLUTE
    ../clib/microlib/init/entry.s            0x00000000   Number         0  entry10b.o ABSOLUTE
    ../clib/microlib/init/entry.s            0x00000000   Number         0  entry11a.o ABSOLUTE
    ../clib/microlib/init/entry.s            0x00000000   Number         0  entry11b.o ABSOLUTE
    ../clib/microlib/init/entry.s            0x00000000   Number         0  entry5.o ABSOLUTE
    ../clib/microlib/init/entry.s            0x00000000   Number         0  entry2.o ABSOLUTE
    ../clib/microlib/longlong.c              0x00000000   Number         0  llshl.o ABSOLUTE
    ../clib/microlib/longlong.c              0x00000000   Number         0  llsshr.o ABSOLUTE
    ../clib/microlib/longlong.c              0x00000000   Number         0  llushr.o ABSOLUTE
    ../clib/microlib/malloc/malloc.c         0x00000000   Number         0  malloc.o ABSOLUTE
    ../clib/microlib/malloc/malloc.c         0x00000000   Number         0  mallocr.o ABSOLUTE
    ../clib/microlib/malloc/malloc.c         0x00000000   Number         0  mallocra.o ABSOLUTE
    ../clib/microlib/malloc/malloc.c         0x00000000   Number         0  malloca.o ABSOLUTE
    ../clib/microlib/malloc/mvars.c          0x00000000   Number         0  mvars.o ABSOLUTE
    ../clib/microlib/printf/printf.c         0x00000000   Number         0  printf3.o ABSOLUTE
    ../clib/microlib/printf/printf.c         0x00000000   Number         0  printf2.o ABSOLUTE
    ../clib/microlib/printf/printf.c         0x00000000   Number         0  printf1.o ABSOLUTE
    ../clib/microlib/printf/printf.c         0x00000000   Number         0  printf0.o ABSOLUTE
    ../clib/microlib/printf/printf.c         0x00000000   Number         0  printfb.o ABSOLUTE
    ../clib/microlib/printf/printf.c         0x00000000   Number         0  printf8.o ABSOLUTE
    ../clib/microlib/printf/printf.c         0x00000000   Number         0  printf7.o ABSOLUTE
    ../clib/microlib/printf/printf.c         0x00000000   Number         0  printf5.o ABSOLUTE
    ../clib/microlib/printf/printf.c         0x00000000   Number         0  printf6.o ABSOLUTE
    ../clib/microlib/printf/printf.c         0x00000000   Number         0  printfa.o ABSOLUTE
    ../clib/microlib/printf/printf.c         0x00000000   Number         0  printf4.o ABSOLUTE
    ../clib/microlib/printf/stubs.s          0x00000000   Number         0  stubs.o ABSOLUTE
    ../clib/microlib/stdio/streams.c         0x00000000   Number         0  stdout.o ABSOLUTE
    ../clib/microlib/string/memcmp.c         0x00000000   Number         0  memcmp.o ABSOLUTE
    ../clib/microlib/string/memcpy.c         0x00000000   Number         0  memcpya.o ABSOLUTE
    ../clib/microlib/string/memcpy.c         0x00000000   Number         0  memcpyb.o ABSOLUTE
    ../clib/microlib/string/memset.c         0x00000000   Number         0  memseta.o ABSOLUTE
    ../clib/microlib/string/strlen.c         0x00000000   Number         0  strlen.o ABSOLUTE
    ../clib/microlib/stubs.s                 0x00000000   Number         0  iusefp.o ABSOLUTE
    ../fplib/microlib/d2f.c                  0x00000000   Number         0  d2f.o ABSOLUTE
    ../fplib/microlib/f2d.c                  0x00000000   Number         0  f2d.o ABSOLUTE
    ../fplib/microlib/fpadd.c                0x00000000   Number         0  dadd.o ABSOLUTE
    ../fplib/microlib/fpdiv.c                0x00000000   Number         0  ddiv.o ABSOLUTE
    ../fplib/microlib/fpepilogue.c           0x00000000   Number         0  fepilogue.o ABSOLUTE
    ../fplib/microlib/fpepilogue.c           0x00000000   Number         0  depilogue.o ABSOLUTE
    ../fplib/microlib/fpfix.c                0x00000000   Number         0  dfixi.o ABSOLUTE
    ../fplib/microlib/fpfix.c                0x00000000   Number         0  dfixui.o ABSOLUTE
    ../fplib/microlib/fpfix.c                0x00000000   Number         0  dfixul.o ABSOLUTE
    ../fplib/microlib/fpflt.c                0x00000000   Number         0  dflti.o ABSOLUTE
    ../fplib/microlib/fpflt.c                0x00000000   Number         0  dfltui.o ABSOLUTE
    ../fplib/microlib/fpmul.c                0x00000000   Number         0  dmul.o ABSOLUTE
    ../fplib/microlib/fpneg.c                0x00000000   Number         0  dneg.o ABSOLUTE
    ../fplib/microlib/fpsqrt.c               0x00000000   Number         0  dsqrt.o ABSOLUTE
    ../mathlib/acos.c                        0x00000000   Number         0  acos_x.o ABSOLUTE
    ../mathlib/acos.c                        0x00000000   Number         0  acos.o ABSOLUTE
    ../mathlib/acosf.c                       0x00000000   Number         0  acosf.o ABSOLUTE
    ../mathlib/acosf.c                       0x00000000   Number         0  acosf_x.o ABSOLUTE
    ../mathlib/asin.c                        0x00000000   Number         0  asin_x.o ABSOLUTE
    ../mathlib/asin.c                        0x00000000   Number         0  asin.o ABSOLUTE
    ../mathlib/atan.c                        0x00000000   Number         0  atan_x.o ABSOLUTE
    ../mathlib/atan.c                        0x00000000   Number         0  atan.o ABSOLUTE
    ../mathlib/atan2.c                       0x00000000   Number         0  atan2.o ABSOLUTE
    ../mathlib/atan2.c                       0x00000000   Number         0  atan2_x.o ABSOLUTE
    ../mathlib/dunder.c                      0x00000000   Number         0  dunder.o ABSOLUTE
    ../mathlib/fabs.c                        0x00000000   Number         0  fabs.o ABSOLUTE
    ../mathlib/fpclassify.c                  0x00000000   Number         0  fpclassify.o ABSOLUTE
    ../mathlib/funder.c                      0x00000000   Number         0  funder.o ABSOLUTE
    ../mathlib/poly.c                        0x00000000   Number         0  poly.o ABSOLUTE
    ../mathlib/qnan.c                        0x00000000   Number         0  qnan.o ABSOLUTE
    ../mathlib/sqrt.c                        0x00000000   Number         0  sqrt.o ABSOLUTE
    ../mathlib/sqrt.c                        0x00000000   Number         0  sqrt_x.o ABSOLUTE
    ../mathlib/sqrtf.c                       0x00000000   Number         0  sqrtf_x.o ABSOLUTE
    ../mathlib/sqrtf.c                       0x00000000   Number         0  sqrtf.o ABSOLUTE
    ..\..\Bsp\bsp_adc\bsp_adc.c              0x00000000   Number         0  bsp_adc.o ABSOLUTE
    ..\..\Bsp\bsp_can\bsp_can.c              0x00000000   Number         0  bsp_can.o ABSOLUTE
    ..\..\Bsp\bsp_eth\stm32f4x7_eth.c        0x00000000   Number         0  stm32f4x7_eth.o ABSOLUTE
    ..\..\Bsp\bsp_eth\stm32f4x7_phy.c        0x00000000   Number         0  stm32f4x7_phy.o ABSOLUTE
    ..\..\Bsp\bsp_gpio\bsp_gpio.c            0x00000000   Number         0  bsp_gpio.o ABSOLUTE
    ..\..\Bsp\bsp_pwm\bsp_pwm.c              0x00000000   Number         0  bsp_pwm.o ABSOLUTE
    ..\..\Bsp\bsp_spi\bsp_spi.c              0x00000000   Number         0  bsp_spi.o ABSOLUTE
    ..\..\Bsp\bsp_systick\bsp_systick.c      0x00000000   Number         0  bsp_systick.o ABSOLUTE
    ..\..\Bsp\bsp_timer\bsp_timer.c          0x00000000   Number         0  bsp_timer.o ABSOLUTE
    ..\..\Bsp\bsp_uart\bsp_uart.c            0x00000000   Number         0  bsp_uart.o ABSOLUTE
    ..\..\Bsp\bsp_usart_dma\bsp_usart_dma.c  0x00000000   Number         0  bsp_usart_dma.o ABSOLUTE
    ..\..\Libraries\CMSIS\Device\ST\STM32F4xx\Source\Templates\arm\startup_stm32f40xx.s 0x00000000   Number         0  startup_stm32f40xx.o ABSOLUTE
    ..\..\Libraries\CMSIS\Device\ST\STM32F4xx\Source\Templates\system_stm32f4xx.c 0x00000000   Number         0  system_stm32f4xx.o ABSOLUTE
    ..\..\Libraries\STM32F4xx_StdPeriph_Driver\src\misc.c 0x00000000   Number         0  misc.o ABSOLUTE
    ..\..\Libraries\STM32F4xx_StdPeriph_Driver\src\stm32f4xx_adc.c 0x00000000   Number         0  stm32f4xx_adc.o ABSOLUTE
    ..\..\Libraries\STM32F4xx_StdPeriph_Driver\src\stm32f4xx_can.c 0x00000000   Number         0  stm32f4xx_can.o ABSOLUTE
    ..\..\Libraries\STM32F4xx_StdPeriph_Driver\src\stm32f4xx_cec.c 0x00000000   Number         0  stm32f4xx_cec.o ABSOLUTE
    ..\..\Libraries\STM32F4xx_StdPeriph_Driver\src\stm32f4xx_crc.c 0x00000000   Number         0  stm32f4xx_crc.o ABSOLUTE
    ..\..\Libraries\STM32F4xx_StdPeriph_Driver\src\stm32f4xx_cryp.c 0x00000000   Number         0  stm32f4xx_cryp.o ABSOLUTE
    ..\..\Libraries\STM32F4xx_StdPeriph_Driver\src\stm32f4xx_cryp_aes.c 0x00000000   Number         0  stm32f4xx_cryp_aes.o ABSOLUTE
    ..\..\Libraries\STM32F4xx_StdPeriph_Driver\src\stm32f4xx_cryp_des.c 0x00000000   Number         0  stm32f4xx_cryp_des.o ABSOLUTE
    ..\..\Libraries\STM32F4xx_StdPeriph_Driver\src\stm32f4xx_cryp_tdes.c 0x00000000   Number         0  stm32f4xx_cryp_tdes.o ABSOLUTE
    ..\..\Libraries\STM32F4xx_StdPeriph_Driver\src\stm32f4xx_dac.c 0x00000000   Number         0  stm32f4xx_dac.o ABSOLUTE
    ..\..\Libraries\STM32F4xx_StdPeriph_Driver\src\stm32f4xx_dbgmcu.c 0x00000000   Number         0  stm32f4xx_dbgmcu.o ABSOLUTE
    ..\..\Libraries\STM32F4xx_StdPeriph_Driver\src\stm32f4xx_dcmi.c 0x00000000   Number         0  stm32f4xx_dcmi.o ABSOLUTE
    ..\..\Libraries\STM32F4xx_StdPeriph_Driver\src\stm32f4xx_dfsdm.c 0x00000000   Number         0  stm32f4xx_dfsdm.o ABSOLUTE
    ..\..\Libraries\STM32F4xx_StdPeriph_Driver\src\stm32f4xx_dma.c 0x00000000   Number         0  stm32f4xx_dma.o ABSOLUTE
    ..\..\Libraries\STM32F4xx_StdPeriph_Driver\src\stm32f4xx_dsi.c 0x00000000   Number         0  stm32f4xx_dsi.o ABSOLUTE
    ..\..\Libraries\STM32F4xx_StdPeriph_Driver\src\stm32f4xx_exti.c 0x00000000   Number         0  stm32f4xx_exti.o ABSOLUTE
    ..\..\Libraries\STM32F4xx_StdPeriph_Driver\src\stm32f4xx_flash.c 0x00000000   Number         0  stm32f4xx_flash.o ABSOLUTE
    ..\..\Libraries\STM32F4xx_StdPeriph_Driver\src\stm32f4xx_flash_ramfunc.c 0x00000000   Number         0  stm32f4xx_flash_ramfunc.o ABSOLUTE
    ..\..\Libraries\STM32F4xx_StdPeriph_Driver\src\stm32f4xx_fmpi2c.c 0x00000000   Number         0  stm32f4xx_fmpi2c.o ABSOLUTE
    ..\..\Libraries\STM32F4xx_StdPeriph_Driver\src\stm32f4xx_fsmc.c 0x00000000   Number         0  stm32f4xx_fsmc.o ABSOLUTE
    ..\..\Libraries\STM32F4xx_StdPeriph_Driver\src\stm32f4xx_gpio.c 0x00000000   Number         0  stm32f4xx_gpio.o ABSOLUTE
    ..\..\Libraries\STM32F4xx_StdPeriph_Driver\src\stm32f4xx_hash.c 0x00000000   Number         0  stm32f4xx_hash.o ABSOLUTE
    ..\..\Libraries\STM32F4xx_StdPeriph_Driver\src\stm32f4xx_hash_md5.c 0x00000000   Number         0  stm32f4xx_hash_md5.o ABSOLUTE
    ..\..\Libraries\STM32F4xx_StdPeriph_Driver\src\stm32f4xx_hash_sha1.c 0x00000000   Number         0  stm32f4xx_hash_sha1.o ABSOLUTE
    ..\..\Libraries\STM32F4xx_StdPeriph_Driver\src\stm32f4xx_i2c.c 0x00000000   Number         0  stm32f4xx_i2c.o ABSOLUTE
    ..\..\Libraries\STM32F4xx_StdPeriph_Driver\src\stm32f4xx_iwdg.c 0x00000000   Number         0  stm32f4xx_iwdg.o ABSOLUTE
    ..\..\Libraries\STM32F4xx_StdPeriph_Driver\src\stm32f4xx_lptim.c 0x00000000   Number         0  stm32f4xx_lptim.o ABSOLUTE
    ..\..\Libraries\STM32F4xx_StdPeriph_Driver\src\stm32f4xx_pwr.c 0x00000000   Number         0  stm32f4xx_pwr.o ABSOLUTE
    ..\..\Libraries\STM32F4xx_StdPeriph_Driver\src\stm32f4xx_qspi.c 0x00000000   Number         0  stm32f4xx_qspi.o ABSOLUTE
    ..\..\Libraries\STM32F4xx_StdPeriph_Driver\src\stm32f4xx_rcc.c 0x00000000   Number         0  stm32f4xx_rcc.o ABSOLUTE
    ..\..\Libraries\STM32F4xx_StdPeriph_Driver\src\stm32f4xx_rng.c 0x00000000   Number         0  stm32f4xx_rng.o ABSOLUTE
    ..\..\Libraries\STM32F4xx_StdPeriph_Driver\src\stm32f4xx_rtc.c 0x00000000   Number         0  stm32f4xx_rtc.o ABSOLUTE
    ..\..\Libraries\STM32F4xx_StdPeriph_Driver\src\stm32f4xx_sai.c 0x00000000   Number         0  stm32f4xx_sai.o ABSOLUTE
    ..\..\Libraries\STM32F4xx_StdPeriph_Driver\src\stm32f4xx_sdio.c 0x00000000   Number         0  stm32f4xx_sdio.o ABSOLUTE
    ..\..\Libraries\STM32F4xx_StdPeriph_Driver\src\stm32f4xx_spdifrx.c 0x00000000   Number         0  stm32f4xx_spdifrx.o ABSOLUTE
    ..\..\Libraries\STM32F4xx_StdPeriph_Driver\src\stm32f4xx_spi.c 0x00000000   Number         0  stm32f4xx_spi.o ABSOLUTE
    ..\..\Libraries\STM32F4xx_StdPeriph_Driver\src\stm32f4xx_syscfg.c 0x00000000   Number         0  stm32f4xx_syscfg.o ABSOLUTE
    ..\..\Libraries\STM32F4xx_StdPeriph_Driver\src\stm32f4xx_tim.c 0x00000000   Number         0  stm32f4xx_tim.o ABSOLUTE
    ..\..\Libraries\STM32F4xx_StdPeriph_Driver\src\stm32f4xx_usart.c 0x00000000   Number         0  stm32f4xx_usart.o ABSOLUTE
    ..\..\Libraries\STM32F4xx_StdPeriph_Driver\src\stm32f4xx_wwdg.c 0x00000000   Number         0  stm32f4xx_wwdg.o ABSOLUTE
    ..\..\User\App\netconf.c                 0x00000000   Number         0  netconf.o ABSOLUTE
    ..\..\User\App\tcp_echoclient.c          0x00000000   Number         0  tcp_echoclient.o ABSOLUTE
    ..\..\User\Battery\Battery.c             0x00000000   Number         0  battery.o ABSOLUTE
    ..\..\User\DBUS\DBUS.c                   0x00000000   Number         0  dbus.o ABSOLUTE
    ..\..\User\DMP\inv_mpu.c                 0x00000000   Number         0  inv_mpu.o ABSOLUTE
    ..\..\User\DMP\inv_mpu_dmp_motion_driver.c 0x00000000   Number         0  inv_mpu_dmp_motion_driver.o ABSOLUTE
    ..\..\User\FLASH\w25q128.c               0x00000000   Number         0  w25q128.o ABSOLUTE
    ..\..\User\IMU\IMU.c                     0x00000000   Number         0  imu.o ABSOLUTE
    ..\..\User\IO_IIC\IO_IIC.c               0x00000000   Number         0  io_iic.o ABSOLUTE
    ..\..\User\MOTOR_APSL2DB\MOTOR_APSL2DB.c 0x00000000   Number         0  motor_apsl2db.o ABSOLUTE
    ..\..\User\MOTOR_Control\MOTOR_Control.c 0x00000000   Number         0  motor_control.o ABSOLUTE
    ..\..\User\MOTOR_EULER\MOTOR_EULER.c     0x00000000   Number         0  motor_euler.o ABSOLUTE
    ..\..\User\MOTOR_RMD\MOTOR_RMD.c         0x00000000   Number         0  motor_rmd.o ABSOLUTE
    ..\..\User\MPU6050\MPU6050.c             0x00000000   Number         0  mpu6050.o ABSOLUTE
    ..\..\User\Mick_IO\Mick_IO.c             0x00000000   Number         0  mick_io.o ABSOLUTE
    ..\..\User\Scope_API\Scope_API.c         0x00000000   Number         0  scope_api.o ABSOLUTE
    ..\..\User\key\key.c                     0x00000000   Number         0  key.o ABSOLUTE
    ..\..\User\lwip-1.4.1\port\Standalone\ethernetif.c 0x00000000   Number         0  ethernetif.o ABSOLUTE
    ..\..\User\lwip-1.4.1\src\api\api_lib.c  0x00000000   Number         0  api_lib.o ABSOLUTE
    ..\..\User\lwip-1.4.1\src\api\api_msg.c  0x00000000   Number         0  api_msg.o ABSOLUTE
    ..\..\User\lwip-1.4.1\src\api\err.c      0x00000000   Number         0  err.o ABSOLUTE
    ..\..\User\lwip-1.4.1\src\api\netbuf.c   0x00000000   Number         0  netbuf.o ABSOLUTE
    ..\..\User\lwip-1.4.1\src\api\netdb.c    0x00000000   Number         0  netdb.o ABSOLUTE
    ..\..\User\lwip-1.4.1\src\api\netifapi.c 0x00000000   Number         0  netifapi.o ABSOLUTE
    ..\..\User\lwip-1.4.1\src\api\sockets.c  0x00000000   Number         0  sockets.o ABSOLUTE
    ..\..\User\lwip-1.4.1\src\api\tcpip.c    0x00000000   Number         0  tcpip.o ABSOLUTE
    ..\..\User\lwip-1.4.1\src\core\def.c     0x00000000   Number         0  def.o ABSOLUTE
    ..\..\User\lwip-1.4.1\src\core\dhcp.c    0x00000000   Number         0  dhcp.o ABSOLUTE
    ..\..\User\lwip-1.4.1\src\core\dns.c     0x00000000   Number         0  dns.o ABSOLUTE
    ..\..\User\lwip-1.4.1\src\core\init.c    0x00000000   Number         0  init.o ABSOLUTE
    ..\..\User\lwip-1.4.1\src\core\ipv4\autoip.c 0x00000000   Number         0  autoip.o ABSOLUTE
    ..\..\User\lwip-1.4.1\src\core\ipv4\icmp.c 0x00000000   Number         0  icmp.o ABSOLUTE
    ..\..\User\lwip-1.4.1\src\core\ipv4\igmp.c 0x00000000   Number         0  igmp.o ABSOLUTE
    ..\..\User\lwip-1.4.1\src\core\ipv4\inet.c 0x00000000   Number         0  inet.o ABSOLUTE
    ..\..\User\lwip-1.4.1\src\core\ipv4\inet_chksum.c 0x00000000   Number         0  inet_chksum.o ABSOLUTE
    ..\..\User\lwip-1.4.1\src\core\ipv4\ip.c 0x00000000   Number         0  ip.o ABSOLUTE
    ..\..\User\lwip-1.4.1\src\core\ipv4\ip_addr.c 0x00000000   Number         0  ip_addr.o ABSOLUTE
    ..\..\User\lwip-1.4.1\src\core\ipv4\ip_frag.c 0x00000000   Number         0  ip_frag.o ABSOLUTE
    ..\..\User\lwip-1.4.1\src\core\mem.c     0x00000000   Number         0  mem.o ABSOLUTE
    ..\..\User\lwip-1.4.1\src\core\memp.c    0x00000000   Number         0  memp.o ABSOLUTE
    ..\..\User\lwip-1.4.1\src\core\netif.c   0x00000000   Number         0  netif.o ABSOLUTE
    ..\..\User\lwip-1.4.1\src\core\pbuf.c    0x00000000   Number         0  pbuf.o ABSOLUTE
    ..\..\User\lwip-1.4.1\src\core\raw.c     0x00000000   Number         0  raw.o ABSOLUTE
    ..\..\User\lwip-1.4.1\src\core\stats.c   0x00000000   Number         0  stats.o ABSOLUTE
    ..\..\User\lwip-1.4.1\src\core\sys.c     0x00000000   Number         0  sys.o ABSOLUTE
    ..\..\User\lwip-1.4.1\src\core\tcp.c     0x00000000   Number         0  tcp.o ABSOLUTE
    ..\..\User\lwip-1.4.1\src\core\tcp_in.c  0x00000000   Number         0  tcp_in.o ABSOLUTE
    ..\..\User\lwip-1.4.1\src\core\tcp_out.c 0x00000000   Number         0  tcp_out.o ABSOLUTE
    ..\..\User\lwip-1.4.1\src\core\timers.c  0x00000000   Number         0  timers.o ABSOLUTE
    ..\..\User\lwip-1.4.1\src\core\udp.c     0x00000000   Number         0  udp.o ABSOLUTE
    ..\..\User\lwip-1.4.1\src\netif\etharp.c 0x00000000   Number         0  etharp.o ABSOLUTE
    ..\..\User\main.c                        0x00000000   Number         0  main.o ABSOLUTE
    ..\..\User\stm32f4xx_it.c                0x00000000   Number         0  stm32f4xx_it.o ABSOLUTE
    ..\\..\\Bsp\\bsp_adc\\bsp_adc.c          0x00000000   Number         0  bsp_adc.o ABSOLUTE
    ..\\..\\Bsp\\bsp_can\\bsp_can.c          0x00000000   Number         0  bsp_can.o ABSOLUTE
    ..\\..\\Bsp\\bsp_eth\\stm32f4x7_eth.c    0x00000000   Number         0  stm32f4x7_eth.o ABSOLUTE
    ..\\..\\Bsp\\bsp_eth\\stm32f4x7_phy.c    0x00000000   Number         0  stm32f4x7_phy.o ABSOLUTE
    ..\\..\\Bsp\\bsp_gpio\\bsp_gpio.c        0x00000000   Number         0  bsp_gpio.o ABSOLUTE
    ..\\..\\Bsp\\bsp_pwm\\bsp_pwm.c          0x00000000   Number         0  bsp_pwm.o ABSOLUTE
    ..\\..\\Bsp\\bsp_spi\\bsp_spi.c          0x00000000   Number         0  bsp_spi.o ABSOLUTE
    ..\\..\\Bsp\\bsp_systick\\bsp_systick.c  0x00000000   Number         0  bsp_systick.o ABSOLUTE
    ..\\..\\Bsp\\bsp_timer\\bsp_timer.c      0x00000000   Number         0  bsp_timer.o ABSOLUTE
    ..\\..\\Bsp\\bsp_uart\\bsp_uart.c        0x00000000   Number         0  bsp_uart.o ABSOLUTE
    ..\\..\\Bsp\\bsp_usart_dma\\bsp_usart_dma.c 0x00000000   Number         0  bsp_usart_dma.o ABSOLUTE
    ..\\..\\Libraries\\CMSIS\\Device\\ST\\STM32F4xx\\Source\\Templates\\system_stm32f4xx.c 0x00000000   Number         0  system_stm32f4xx.o ABSOLUTE
    ..\\..\\Libraries\\STM32F4xx_StdPeriph_Driver\\src\\misc.c 0x00000000   Number         0  misc.o ABSOLUTE
    ..\\..\\Libraries\\STM32F4xx_StdPeriph_Driver\\src\\stm32f4xx_adc.c 0x00000000   Number         0  stm32f4xx_adc.o ABSOLUTE
    ..\\..\\Libraries\\STM32F4xx_StdPeriph_Driver\\src\\stm32f4xx_can.c 0x00000000   Number         0  stm32f4xx_can.o ABSOLUTE
    ..\\..\\Libraries\\STM32F4xx_StdPeriph_Driver\\src\\stm32f4xx_cec.c 0x00000000   Number         0  stm32f4xx_cec.o ABSOLUTE
    ..\\..\\Libraries\\STM32F4xx_StdPeriph_Driver\\src\\stm32f4xx_crc.c 0x00000000   Number         0  stm32f4xx_crc.o ABSOLUTE
    ..\\..\\Libraries\\STM32F4xx_StdPeriph_Driver\\src\\stm32f4xx_cryp.c 0x00000000   Number         0  stm32f4xx_cryp.o ABSOLUTE
    ..\\..\\Libraries\\STM32F4xx_StdPeriph_Driver\\src\\stm32f4xx_cryp_aes.c 0x00000000   Number         0  stm32f4xx_cryp_aes.o ABSOLUTE
    ..\\..\\Libraries\\STM32F4xx_StdPeriph_Driver\\src\\stm32f4xx_cryp_des.c 0x00000000   Number         0  stm32f4xx_cryp_des.o ABSOLUTE
    ..\\..\\Libraries\\STM32F4xx_StdPeriph_Driver\\src\\stm32f4xx_cryp_tdes.c 0x00000000   Number         0  stm32f4xx_cryp_tdes.o ABSOLUTE
    ..\\..\\Libraries\\STM32F4xx_StdPeriph_Driver\\src\\stm32f4xx_dac.c 0x00000000   Number         0  stm32f4xx_dac.o ABSOLUTE
    ..\\..\\Libraries\\STM32F4xx_StdPeriph_Driver\\src\\stm32f4xx_dbgmcu.c 0x00000000   Number         0  stm32f4xx_dbgmcu.o ABSOLUTE
    ..\\..\\Libraries\\STM32F4xx_StdPeriph_Driver\\src\\stm32f4xx_dcmi.c 0x00000000   Number         0  stm32f4xx_dcmi.o ABSOLUTE
    ..\\..\\Libraries\\STM32F4xx_StdPeriph_Driver\\src\\stm32f4xx_dfsdm.c 0x00000000   Number         0  stm32f4xx_dfsdm.o ABSOLUTE
    ..\\..\\Libraries\\STM32F4xx_StdPeriph_Driver\\src\\stm32f4xx_dma.c 0x00000000   Number         0  stm32f4xx_dma.o ABSOLUTE
    ..\\..\\Libraries\\STM32F4xx_StdPeriph_Driver\\src\\stm32f4xx_dsi.c 0x00000000   Number         0  stm32f4xx_dsi.o ABSOLUTE
    ..\\..\\Libraries\\STM32F4xx_StdPeriph_Driver\\src\\stm32f4xx_exti.c 0x00000000   Number         0  stm32f4xx_exti.o ABSOLUTE
    ..\\..\\Libraries\\STM32F4xx_StdPeriph_Driver\\src\\stm32f4xx_flash.c 0x00000000   Number         0  stm32f4xx_flash.o ABSOLUTE
    ..\\..\\Libraries\\STM32F4xx_StdPeriph_Driver\\src\\stm32f4xx_flash_ramfunc.c 0x00000000   Number         0  stm32f4xx_flash_ramfunc.o ABSOLUTE
    ..\\..\\Libraries\\STM32F4xx_StdPeriph_Driver\\src\\stm32f4xx_fmpi2c.c 0x00000000   Number         0  stm32f4xx_fmpi2c.o ABSOLUTE
    ..\\..\\Libraries\\STM32F4xx_StdPeriph_Driver\\src\\stm32f4xx_fsmc.c 0x00000000   Number         0  stm32f4xx_fsmc.o ABSOLUTE
    ..\\..\\Libraries\\STM32F4xx_StdPeriph_Driver\\src\\stm32f4xx_gpio.c 0x00000000   Number         0  stm32f4xx_gpio.o ABSOLUTE
    ..\\..\\Libraries\\STM32F4xx_StdPeriph_Driver\\src\\stm32f4xx_hash.c 0x00000000   Number         0  stm32f4xx_hash.o ABSOLUTE
    ..\\..\\Libraries\\STM32F4xx_StdPeriph_Driver\\src\\stm32f4xx_hash_md5.c 0x00000000   Number         0  stm32f4xx_hash_md5.o ABSOLUTE
    ..\\..\\Libraries\\STM32F4xx_StdPeriph_Driver\\src\\stm32f4xx_hash_sha1.c 0x00000000   Number         0  stm32f4xx_hash_sha1.o ABSOLUTE
    ..\\..\\Libraries\\STM32F4xx_StdPeriph_Driver\\src\\stm32f4xx_i2c.c 0x00000000   Number         0  stm32f4xx_i2c.o ABSOLUTE
    ..\\..\\Libraries\\STM32F4xx_StdPeriph_Driver\\src\\stm32f4xx_iwdg.c 0x00000000   Number         0  stm32f4xx_iwdg.o ABSOLUTE
    ..\\..\\Libraries\\STM32F4xx_StdPeriph_Driver\\src\\stm32f4xx_lptim.c 0x00000000   Number         0  stm32f4xx_lptim.o ABSOLUTE
    ..\\..\\Libraries\\STM32F4xx_StdPeriph_Driver\\src\\stm32f4xx_pwr.c 0x00000000   Number         0  stm32f4xx_pwr.o ABSOLUTE
    ..\\..\\Libraries\\STM32F4xx_StdPeriph_Driver\\src\\stm32f4xx_qspi.c 0x00000000   Number         0  stm32f4xx_qspi.o ABSOLUTE
    ..\\..\\Libraries\\STM32F4xx_StdPeriph_Driver\\src\\stm32f4xx_rcc.c 0x00000000   Number         0  stm32f4xx_rcc.o ABSOLUTE
    ..\\..\\Libraries\\STM32F4xx_StdPeriph_Driver\\src\\stm32f4xx_rng.c 0x00000000   Number         0  stm32f4xx_rng.o ABSOLUTE
    ..\\..\\Libraries\\STM32F4xx_StdPeriph_Driver\\src\\stm32f4xx_rtc.c 0x00000000   Number         0  stm32f4xx_rtc.o ABSOLUTE
    ..\\..\\Libraries\\STM32F4xx_StdPeriph_Driver\\src\\stm32f4xx_sai.c 0x00000000   Number         0  stm32f4xx_sai.o ABSOLUTE
    ..\\..\\Libraries\\STM32F4xx_StdPeriph_Driver\\src\\stm32f4xx_sdio.c 0x00000000   Number         0  stm32f4xx_sdio.o ABSOLUTE
    ..\\..\\Libraries\\STM32F4xx_StdPeriph_Driver\\src\\stm32f4xx_spdifrx.c 0x00000000   Number         0  stm32f4xx_spdifrx.o ABSOLUTE
    ..\\..\\Libraries\\STM32F4xx_StdPeriph_Driver\\src\\stm32f4xx_spi.c 0x00000000   Number         0  stm32f4xx_spi.o ABSOLUTE
    ..\\..\\Libraries\\STM32F4xx_StdPeriph_Driver\\src\\stm32f4xx_syscfg.c 0x00000000   Number         0  stm32f4xx_syscfg.o ABSOLUTE
    ..\\..\\Libraries\\STM32F4xx_StdPeriph_Driver\\src\\stm32f4xx_tim.c 0x00000000   Number         0  stm32f4xx_tim.o ABSOLUTE
    ..\\..\\Libraries\\STM32F4xx_StdPeriph_Driver\\src\\stm32f4xx_usart.c 0x00000000   Number         0  stm32f4xx_usart.o ABSOLUTE
    ..\\..\\Libraries\\STM32F4xx_StdPeriph_Driver\\src\\stm32f4xx_wwdg.c 0x00000000   Number         0  stm32f4xx_wwdg.o ABSOLUTE
    ..\\..\\User\\App\\netconf.c             0x00000000   Number         0  netconf.o ABSOLUTE
    ..\\..\\User\\App\\tcp_echoclient.c      0x00000000   Number         0  tcp_echoclient.o ABSOLUTE
    ..\\..\\User\\Battery\\Battery.c         0x00000000   Number         0  battery.o ABSOLUTE
    ..\\..\\User\\DBUS\\DBUS.c               0x00000000   Number         0  dbus.o ABSOLUTE
    ..\\..\\User\\DMP\\inv_mpu.c             0x00000000   Number         0  inv_mpu.o ABSOLUTE
    ..\\..\\User\\DMP\\inv_mpu_dmp_motion_driver.c 0x00000000   Number         0  inv_mpu_dmp_motion_driver.o ABSOLUTE
    ..\\..\\User\\FLASH\\w25q128.c           0x00000000   Number         0  w25q128.o ABSOLUTE
    ..\\..\\User\\IMU\\IMU.c                 0x00000000   Number         0  imu.o ABSOLUTE
    ..\\..\\User\\IO_IIC\\IO_IIC.c           0x00000000   Number         0  io_iic.o ABSOLUTE
    ..\\..\\User\\MOTOR_APSL2DB\\MOTOR_APSL2DB.c 0x00000000   Number         0  motor_apsl2db.o ABSOLUTE
    ..\\..\\User\\MOTOR_Control\\MOTOR_Control.c 0x00000000   Number         0  motor_control.o ABSOLUTE
    ..\\..\\User\\MOTOR_EULER\\MOTOR_EULER.c 0x00000000   Number         0  motor_euler.o ABSOLUTE
    ..\\..\\User\\MOTOR_RMD\\MOTOR_RMD.c     0x00000000   Number         0  motor_rmd.o ABSOLUTE
    ..\\..\\User\\MPU6050\\MPU6050.c         0x00000000   Number         0  mpu6050.o ABSOLUTE
    ..\\..\\User\\Mick_IO\\Mick_IO.c         0x00000000   Number         0  mick_io.o ABSOLUTE
    ..\\..\\User\\Scope_API\\Scope_API.c     0x00000000   Number         0  scope_api.o ABSOLUTE
    ..\\..\\User\\key\\key.c                 0x00000000   Number         0  key.o ABSOLUTE
    ..\\..\\User\\lwip-1.4.1\\port\\Standalone\\ethernetif.c 0x00000000   Number         0  ethernetif.o ABSOLUTE
    ..\\..\\User\\main.c                     0x00000000   Number         0  main.o ABSOLUTE
    ..\\..\\User\\stm32f4xx_it.c             0x00000000   Number         0  stm32f4xx_it.o ABSOLUTE
    cdcmple.s                                0x00000000   Number         0  cdcmple.o ABSOLUTE
    cdrcmple.s                               0x00000000   Number         0  cdrcmple.o ABSOLUTE
    dc.s                                     0x00000000   Number         0  dc.o ABSOLUTE
    handlers.s                               0x00000000   Number         0  handlers.o ABSOLUTE
    init.s                                   0x00000000   Number         0  init.o ABSOLUTE
    RESET                                    0x08000000   Section      392  startup_stm32f40xx.o(RESET)
    .ARM.Collect$$$$00000000                 0x08000188   Section        0  entry.o(.ARM.Collect$$$$00000000)
    .ARM.Collect$$$$00000001                 0x08000188   Section        4  entry2.o(.ARM.Collect$$$$00000001)
    .ARM.Collect$$$$00000004                 0x0800018c   Section        4  entry5.o(.ARM.Collect$$$$00000004)
    .ARM.Collect$$$$00000008                 0x08000190   Section        0  entry7b.o(.ARM.Collect$$$$00000008)
    .ARM.Collect$$$$0000000A                 0x08000190   Section        0  entry8b.o(.ARM.Collect$$$$0000000A)
    .ARM.Collect$$$$0000000B                 0x08000190   Section        8  entry9a.o(.ARM.Collect$$$$0000000B)
    .ARM.Collect$$$$0000000D                 0x08000198   Section        0  entry10a.o(.ARM.Collect$$$$0000000D)
    .ARM.Collect$$$$0000000F                 0x08000198   Section        0  entry11a.o(.ARM.Collect$$$$0000000F)
    .ARM.Collect$$$$00002712                 0x08000198   Section        4  entry2.o(.ARM.Collect$$$$00002712)
    __lit__00000000                          0x08000198   Data           4  entry2.o(.ARM.Collect$$$$00002712)
    .text                                    0x0800019c   Section       36  startup_stm32f40xx.o(.text)
    $v0                                      0x0800019c   Number         0  startup_stm32f40xx.o(.text)
    .text                                    0x080001c0   Section        0  ldiv.o(.text)
    .text                                    0x08000222   Section        0  memcpya.o(.text)
    .text                                    0x08000246   Section        0  memseta.o(.text)
    .text                                    0x0800026a   Section        0  memcmp.o(.text)
    .text                                    0x08000284   Section        0  dadd.o(.text)
    .text                                    0x080003d2   Section        0  dmul.o(.text)
    .text                                    0x080004b6   Section        0  ddiv.o(.text)
    .text                                    0x08000594   Section        0  dflti.o(.text)
    .text                                    0x080005b6   Section        0  dfltui.o(.text)
    .text                                    0x080005d0   Section        0  dfixi.o(.text)
    .text                                    0x0800060e   Section        0  dfixui.o(.text)
    .text                                    0x08000640   Section        0  f2d.o(.text)
    .text                                    0x08000668   Section       48  cdcmple.o(.text)
    .text                                    0x08000698   Section       48  cdrcmple.o(.text)
    .text                                    0x080006c8   Section        0  d2f.o(.text)
    .text                                    0x08000700   Section        0  uidiv.o(.text)
    .text                                    0x0800072c   Section        0  uldiv.o(.text)
    .text                                    0x0800078e   Section        0  llshl.o(.text)
    .text                                    0x080007ac   Section        0  llushr.o(.text)
    .text                                    0x080007cc   Section        0  llsshr.o(.text)
    .text                                    0x080007f0   Section        0  iusefp.o(.text)
    .text                                    0x080007f0   Section        0  fepilogue.o(.text)
    .text                                    0x0800085e   Section        0  depilogue.o(.text)
    .text                                    0x08000918   Section        0  dsqrt.o(.text)
    .text                                    0x080009ba   Section        0  dfixul.o(.text)
    .text                                    0x080009ec   Section       36  init.o(.text)
    i.ADC_Cmd                                0x08000a10   Section        0  stm32f4xx_adc.o(i.ADC_Cmd)
    i.ADC_CommonInit                         0x08000a28   Section        0  stm32f4xx_adc.o(i.ADC_CommonInit)
    i.ADC_DMACmd                             0x08000a58   Section        0  stm32f4xx_adc.o(i.ADC_DMACmd)
    i.ADC_DMARequestAfterLastTransferCmd     0x08000a6e   Section        0  stm32f4xx_adc.o(i.ADC_DMARequestAfterLastTransferCmd)
    i.ADC_Init                               0x08000a84   Section        0  stm32f4xx_adc.o(i.ADC_Init)
    i.ADC_RegularChannelConfig               0x08000ad8   Section        0  stm32f4xx_adc.o(i.ADC_RegularChannelConfig)
    i.ADC_SoftwareStartConv                  0x08000b90   Section        0  stm32f4xx_adc.o(i.ADC_SoftwareStartConv)
    i.ADC_TempSensorVrefintCmd               0x08000b9c   Section        0  stm32f4xx_adc.o(i.ADC_TempSensorVrefintCmd)
    i.AKM2_Wheel_Speed_Model                 0x08000bc8   Section        0  motor_control.o(i.AKM2_Wheel_Speed_Model)
    i.APS_L2DB_Read_Temp                     0x080017f0   Section        0  motor_apsl2db.o(i.APS_L2DB_Read_Temp)
    i.BusFault_Handler                       0x08001802   Section        0  stm32f4xx_it.o(i.BusFault_Handler)
    i.CAN1_RX0_IRQHandler                    0x08001808   Section        0  stm32f4xx_it.o(i.CAN1_RX0_IRQHandler)
    i.CAN2_RX0_IRQHandler                    0x08001838   Section        0  stm32f4xx_it.o(i.CAN2_RX0_IRQHandler)
    i.CAN_Config                             0x08001868   Section        0  bsp_can.o(i.CAN_Config)
    i.CAN_DeInit                             0x08001888   Section        0  stm32f4xx_can.o(i.CAN_DeInit)
    i.CAN_FilterInit                         0x080018c0   Section        0  stm32f4xx_can.o(i.CAN_FilterInit)
    i.CAN_Filter_Config                      0x080019c8   Section        0  bsp_can.o(i.CAN_Filter_Config)
    CAN_Filter_Config                        0x080019c9   Thumb Code    88  bsp_can.o(i.CAN_Filter_Config)
    i.CAN_GPIO_Config                        0x08001a24   Section        0  bsp_can.o(i.CAN_GPIO_Config)
    CAN_GPIO_Config                          0x08001a25   Thumb Code   192  bsp_can.o(i.CAN_GPIO_Config)
    i.CAN_GetITStatus                        0x08001af0   Section        0  stm32f4xx_can.o(i.CAN_GetITStatus)
    i.CAN_ITConfig                           0x08001c10   Section        0  stm32f4xx_can.o(i.CAN_ITConfig)
    i.CAN_Init                               0x08001c22   Section        0  stm32f4xx_can.o(i.CAN_Init)
    i.CAN_Mode_Config                        0x08001d38   Section        0  bsp_can.o(i.CAN_Mode_Config)
    CAN_Mode_Config                          0x08001d39   Thumb Code   110  bsp_can.o(i.CAN_Mode_Config)
    i.CAN_NVIC_Config                        0x08001dac   Section        0  bsp_can.o(i.CAN_NVIC_Config)
    CAN_NVIC_Config                          0x08001dad   Thumb Code    78  bsp_can.o(i.CAN_NVIC_Config)
    i.CAN_Receive                            0x08001e00   Section        0  stm32f4xx_can.o(i.CAN_Receive)
    i.CAN_StructInit                         0x08001ef0   Section        0  stm32f4xx_can.o(i.CAN_StructInit)
    i.CAN_Transmit                           0x08001f10   Section        0  stm32f4xx_can.o(i.CAN_Transmit)
    i.Calculate_DiffX4_Odom                  0x08002038   Section        0  motor_control.o(i.Calculate_DiffX4_Odom)
    i.ChasissDiffX4_Control_Routing          0x080021fc   Section        0  motor_control.o(i.ChasissDiffX4_Control_Routing)
    i.Chasiss_Control_Routing                0x080022d4   Section        0  motor_control.o(i.Chasiss_Control_Routing)
    i.Chassis_Odom_Upload_Message            0x08002328   Section        0  motor_control.o(i.Chassis_Odom_Upload_Message)
    i.CheckITStatus                          0x08002464   Section        0  stm32f4xx_can.o(i.CheckITStatus)
    CheckITStatus                            0x08002465   Thumb Code    18  stm32f4xx_can.o(i.CheckITStatus)
    i.DMA1_Stream5_IRQHandler                0x08002478   Section        0  stm32f4xx_it.o(i.DMA1_Stream5_IRQHandler)
    i.DMA2_Stream2_IRQHandler                0x080024cc   Section        0  bsp_usart_dma.o(i.DMA2_Stream2_IRQHandler)
    i.DMA2_Stream7_IRQHandler                0x0800251c   Section        0  bsp_usart_dma.o(i.DMA2_Stream7_IRQHandler)
    i.DMA_ClearFlag                          0x08002550   Section        0  stm32f4xx_dma.o(i.DMA_ClearFlag)
    i.DMA_ClearITPendingBit                  0x08002584   Section        0  stm32f4xx_dma.o(i.DMA_ClearITPendingBit)
    i.DMA_Cmd                                0x080025b8   Section        0  stm32f4xx_dma.o(i.DMA_Cmd)
    i.DMA_DeInit                             0x080025d0   Section        0  stm32f4xx_dma.o(i.DMA_DeInit)
    i.DMA_GetCmdStatus                       0x08002728   Section        0  stm32f4xx_dma.o(i.DMA_GetCmdStatus)
    i.DMA_GetITStatus                        0x0800273c   Section        0  stm32f4xx_dma.o(i.DMA_GetITStatus)
    i.DMA_ITConfig                           0x080027a0   Section        0  stm32f4xx_dma.o(i.DMA_ITConfig)
    i.DMA_Init                               0x080027dc   Section        0  stm32f4xx_dma.o(i.DMA_Init)
    i.DebugMon_Handler                       0x08002834   Section        0  stm32f4xx_it.o(i.DebugMon_Handler)
    i.Delay_10us                             0x08002838   Section        0  bsp_systick.o(i.Delay_10us)
    i.DiffX4_Wheel_Speed_Model               0x0800285c   Section        0  motor_control.o(i.DiffX4_Wheel_Speed_Model)
    i.EXTI0_IRQHandler                       0x08002b1c   Section        0  stm32f4xx_it.o(i.EXTI0_IRQHandler)
    i.EXTI15_10_IRQHandler                   0x08002b2e   Section        0  stm32f4xx_it.o(i.EXTI15_10_IRQHandler)
    i.EXTI_ClearITPendingBit                 0x08002b44   Section        0  stm32f4xx_exti.o(i.EXTI_ClearITPendingBit)
    i.EXTI_GetITStatus                       0x08002b50   Section        0  stm32f4xx_exti.o(i.EXTI_GetITStatus)
    i.Flip_Isolated_Output                   0x08002b68   Section        0  mick_io.o(i.Flip_Isolated_Output)
    i.GPIO_Flip_level                        0x08002ba8   Section        0  bsp_gpio.o(i.GPIO_Flip_level)
    i.GPIO_Init                              0x08002bb0   Section        0  stm32f4xx_gpio.o(i.GPIO_Init)
    i.GPIO_PinAFConfig                       0x08002c40   Section        0  stm32f4xx_gpio.o(i.GPIO_PinAFConfig)
    i.GPIO_ReadInputDataBit                  0x08002c86   Section        0  stm32f4xx_gpio.o(i.GPIO_ReadInputDataBit)
    i.GPIO_ResetBits                         0x08002c98   Section        0  stm32f4xx_gpio.o(i.GPIO_ResetBits)
    i.GPIO_SetBits                           0x08002c9c   Section        0  stm32f4xx_gpio.o(i.GPIO_SetBits)
    i.GPIO_ToggleBits                        0x08002ca0   Section        0  stm32f4xx_gpio.o(i.GPIO_ToggleBits)
    i.HardFault_Handler                      0x08002ca8   Section        0  stm32f4xx_it.o(i.HardFault_Handler)
    i.IMU_Routing                            0x08002cac   Section        0  imu.o(i.IMU_Routing)
    i.IO_IIC_Delay                           0x08002d10   Section        0  io_iic.o(i.IO_IIC_Delay)
    i.IO_IIC_GPIO_Init                       0x08002d20   Section        0  io_iic.o(i.IO_IIC_GPIO_Init)
    i.IO_IIC_ack                             0x08002d64   Section        0  io_iic.o(i.IO_IIC_ack)
    i.IO_IIC_no_ack                          0x08002dac   Section        0  io_iic.o(i.IO_IIC_no_ack)
    i.IO_IIC_read_byte                       0x08002df4   Section        0  io_iic.o(i.IO_IIC_read_byte)
    i.IO_IIC_start                           0x08002e60   Section        0  io_iic.o(i.IO_IIC_start)
    i.IO_IIC_stop                            0x08002ea8   Section        0  io_iic.o(i.IO_IIC_stop)
    i.IO_IIC_write_byte                      0x08002ef0   Section        0  io_iic.o(i.IO_IIC_write_byte)
    i.Init_Mick_GPIO                         0x08002f60   Section        0  mick_io.o(i.Init_Mick_GPIO)
    i.Initial_micros                         0x08003054   Section        0  bsp_systick.o(i.Initial_micros)
    i.Isolated_IO_Upload_Message             0x080030c0   Section        0  mick_io.o(i.Isolated_IO_Upload_Message)
    i.MOTOR_APSL2DB_Enable                   0x08003184   Section        0  motor_apsl2db.o(i.MOTOR_APSL2DB_Enable)
    i.MOTOR_APSL2DB_Enable_PDO               0x080031e4   Section        0  motor_apsl2db.o(i.MOTOR_APSL2DB_Enable_PDO)
    i.MOTOR_APSL2DB_Infor_Get                0x08003240   Section        0  motor_apsl2db.o(i.MOTOR_APSL2DB_Infor_Get)
    i.MOTOR_APSL2DB_Init                     0x08003350   Section        0  motor_apsl2db.o(i.MOTOR_APSL2DB_Init)
    i.MOTOR_APSL2DB_Measurements_Analy       0x08003638   Section        0  motor_apsl2db.o(i.MOTOR_APSL2DB_Measurements_Analy)
    i.MOTOR_APSL2DB_Measurements_Debug       0x08003980   Section        0  motor_apsl2db.o(i.MOTOR_APSL2DB_Measurements_Debug)
    i.MOTOR_APSL2DB_Read_Cmd                 0x08004298   Section        0  motor_apsl2db.o(i.MOTOR_APSL2DB_Read_Cmd)
    i.MOTOR_APSL2DB_Set_CurrentLimt          0x080042f0   Section        0  motor_apsl2db.o(i.MOTOR_APSL2DB_Set_CurrentLimt)
    i.MOTOR_APSL2DB_Set_Model                0x0800439c   Section        0  motor_apsl2db.o(i.MOTOR_APSL2DB_Set_Model)
    i.MOTOR_APSL2DB_Set_RPM                  0x080043fc   Section        0  motor_apsl2db.o(i.MOTOR_APSL2DB_Set_RPM)
    i.MOTOR_APSL2DB_Set_Trap_Accel           0x080044a8   Section        0  motor_apsl2db.o(i.MOTOR_APSL2DB_Set_Trap_Accel)
    i.MOTOR_APSL2DB_Set_Trap_Decel           0x08004554   Section        0  motor_apsl2db.o(i.MOTOR_APSL2DB_Set_Trap_Decel)
    i.MOTOR_Delay                            0x08004600   Section        0  motor_apsl2db.o(i.MOTOR_Delay)
    i.MOTOR_RMD_State_Analysis               0x0800461c   Section        0  motor_rmd.o(i.MOTOR_RMD_State_Analysis)
    i.MPU6050_DMP_Routing                    0x08004768   Section        0  imu.o(i.MPU6050_DMP_Routing)
    i.MPU6050_IIC_Wait_Ack                   0x080049b0   Section        0  mpu6050.o(i.MPU6050_IIC_Wait_Ack)
    i.MPU6050_Read_Len                       0x08004a0c   Section        0  mpu6050.o(i.MPU6050_Read_Len)
    i.MPU6050_Write_Len                      0x08004a80   Section        0  mpu6050.o(i.MPU6050_Write_Len)
    i.MY_ADC_DMA_Init                        0x08004ae0   Section        0  bsp_adc.o(i.MY_ADC_DMA_Init)
    i.MemManage_Handler                      0x08004d18   Section        0  stm32f4xx_it.o(i.MemManage_Handler)
    i.Motor_WriteData_In_Buff                0x08004d1c   Section        0  motor_control.o(i.Motor_WriteData_In_Buff)
    i.My_Config_USART_Init                   0x0800529c   Section        0  bsp_uart.o(i.My_Config_USART_Init)
    i.My_GPIO_Init                           0x08005324   Section        0  bsp_gpio.o(i.My_GPIO_Init)
    i.My_USART1_DMA_RX_Init                  0x08005414   Section        0  bsp_usart_dma.o(i.My_USART1_DMA_RX_Init)
    i.My_USART1_DMA_TX_Init                  0x08005490   Section        0  bsp_usart_dma.o(i.My_USART1_DMA_TX_Init)
    i.My_USART2_DMA_RX_Init                  0x08005504   Section        0  bsp_usart_dma.o(i.My_USART2_DMA_RX_Init)
    i.My_USART2_DMA_TX_Init                  0x08005580   Section        0  bsp_usart_dma.o(i.My_USART2_DMA_TX_Init)
    i.My_USART3_DMA_RX_Init                  0x080055fc   Section        0  bsp_usart_dma.o(i.My_USART3_DMA_RX_Init)
    i.My_USART3_DMA_TX_Init                  0x08005678   Section        0  bsp_usart_dma.o(i.My_USART3_DMA_TX_Init)
    i.My_USART6_DMA_RX_Init                  0x080056f4   Section        0  bsp_usart_dma.o(i.My_USART6_DMA_RX_Init)
    i.My_USART6_DMA_TX_Init                  0x08005770   Section        0  bsp_usart_dma.o(i.My_USART6_DMA_TX_Init)
    i.My_USART_DMA_config                    0x080057ec   Section        0  bsp_usart_dma.o(i.My_USART_DMA_config)
    i.NMI_Handler                            0x08005a04   Section        0  stm32f4xx_it.o(i.NMI_Handler)
    i.NVIC_Init                              0x08005a08   Section        0  misc.o(i.NVIC_Init)
    i.NVIC_PriorityGroupConfig               0x08005a80   Section        0  misc.o(i.NVIC_PriorityGroupConfig)
    i.NVIC_SystemReset                       0x08005a94   Section        0  dbus.o(i.NVIC_SystemReset)
    NVIC_SystemReset                         0x08005a95   Thumb Code    56  dbus.o(i.NVIC_SystemReset)
    i.PendSV_Handler                         0x08005ad4   Section        0  stm32f4xx_it.o(i.PendSV_Handler)
    i.RCC_AHB1PeriphClockCmd                 0x08005ad8   Section        0  stm32f4xx_rcc.o(i.RCC_AHB1PeriphClockCmd)
    i.RCC_APB1PeriphClockCmd                 0x08005af8   Section        0  stm32f4xx_rcc.o(i.RCC_APB1PeriphClockCmd)
    i.RCC_APB1PeriphResetCmd                 0x08005b18   Section        0  stm32f4xx_rcc.o(i.RCC_APB1PeriphResetCmd)
    i.RCC_APB2PeriphClockCmd                 0x08005b38   Section        0  stm32f4xx_rcc.o(i.RCC_APB2PeriphClockCmd)
    i.RCC_APB2PeriphResetCmd                 0x08005b58   Section        0  stm32f4xx_rcc.o(i.RCC_APB2PeriphResetCmd)
    i.RCC_GetClocksFreq                      0x08005b78   Section        0  stm32f4xx_rcc.o(i.RCC_GetClocksFreq)
    i.RC_Callback_Handler                    0x08005c60   Section        0  dbus.o(i.RC_Callback_Handler)
    i.RC_Debug_Message                       0x080062ec   Section        0  dbus.o(i.RC_Debug_Message)
    i.RC_Offset_Init                         0x08006580   Section        0  dbus.o(i.RC_Offset_Init)
    i.RC_Remote_Init                         0x08006868   Section        0  dbus.o(i.RC_Remote_Init)
    i.RC_Routing                             0x080068e8   Section        0  dbus.o(i.RC_Routing)
    i.Read_Isolated_Input                    0x08006bd4   Section        0  mick_io.o(i.Read_Isolated_Input)
    i.SPI1_Init                              0x08006c38   Section        0  bsp_spi.o(i.SPI1_Init)
    i.SPI1_ReadWriteByte                     0x08006cf4   Section        0  bsp_spi.o(i.SPI1_ReadWriteByte)
    i.SPI1_SetSpeed                          0x08006d2c   Section        0  bsp_spi.o(i.SPI1_SetSpeed)
    i.SPI_Cmd                                0x08006d54   Section        0  stm32f4xx_spi.o(i.SPI_Cmd)
    i.SPI_I2S_GetFlagStatus                  0x08006d6c   Section        0  stm32f4xx_spi.o(i.SPI_I2S_GetFlagStatus)
    i.SPI_I2S_ReceiveData                    0x08006d7e   Section        0  stm32f4xx_spi.o(i.SPI_I2S_ReceiveData)
    i.SPI_I2S_SendData                       0x08006d84   Section        0  stm32f4xx_spi.o(i.SPI_I2S_SendData)
    i.SPI_Init                               0x08006d88   Section        0  stm32f4xx_spi.o(i.SPI_Init)
    i.SVC_Handler                            0x08006dc4   Section        0  stm32f4xx_it.o(i.SVC_Handler)
    i.SetSysClock                            0x08006dc8   Section        0  system_stm32f4xx.o(i.SetSysClock)
    SetSysClock                              0x08006dc9   Thumb Code   220  system_stm32f4xx.o(i.SetSysClock)
    i.Set_Isolated_Output                    0x08006eb4   Section        0  mick_io.o(i.Set_Isolated_Output)
    i.SysTick_Handler                        0x08006f8c   Section        0  stm32f4xx_it.o(i.SysTick_Handler)
    i.SysTick_Init                           0x08006fa4   Section        0  bsp_systick.o(i.SysTick_Init)
    i.SystemInit                             0x0800701c   Section        0  system_stm32f4xx.o(i.SystemInit)
    i.TIM2_IRQHandler                        0x08007084   Section        0  stm32f4xx_it.o(i.TIM2_IRQHandler)
    i.TIM6_DAC_IRQHandler                    0x0800709c   Section        0  stm32f4xx_it.o(i.TIM6_DAC_IRQHandler)
    i.TIM7_IRQHandler                        0x080070e8   Section        0  stm32f4xx_it.o(i.TIM7_IRQHandler)
    i.TIM_ClearFlag                          0x0800715c   Section        0  stm32f4xx_tim.o(i.TIM_ClearFlag)
    i.TIM_ClearITPendingBit                  0x08007162   Section        0  stm32f4xx_tim.o(i.TIM_ClearITPendingBit)
    i.TIM_Cmd                                0x08007168   Section        0  stm32f4xx_tim.o(i.TIM_Cmd)
    i.TIM_GetITStatus                        0x08007180   Section        0  stm32f4xx_tim.o(i.TIM_GetITStatus)
    i.TIM_ITConfig                           0x080071a2   Section        0  stm32f4xx_tim.o(i.TIM_ITConfig)
    i.TIM_TimeBaseInit                       0x080071b4   Section        0  stm32f4xx_tim.o(i.TIM_TimeBaseInit)
    i.Timer_2to7_Init                        0x08007238   Section        0  bsp_timer.o(i.Timer_2to7_Init)
    i.Timer_start                            0x080074d0   Section        0  bsp_timer.o(i.Timer_start)
    i.UART4_Config                           0x080074e0   Section        0  bsp_uart.o(i.UART4_Config)
    i.UART4_IRQHandler                       0x0800758c   Section        0  stm32f4xx_it.o(i.UART4_IRQHandler)
    i.UART4_NVIC_Configuration               0x0800760c   Section        0  bsp_uart.o(i.UART4_NVIC_Configuration)
    i.UART5_Config                           0x08007638   Section        0  bsp_uart.o(i.UART5_Config)
    i.UART5_IRQHandler                       0x080076f8   Section        0  stm32f4xx_it.o(i.UART5_IRQHandler)
    i.UART5_NVIC_Configuration               0x08007778   Section        0  bsp_uart.o(i.UART5_NVIC_Configuration)
    i.UART_send_buffer                       0x080077a0   Section        0  bsp_uart.o(i.UART_send_buffer)
    i.UART_send_char                         0x080077d2   Section        0  bsp_uart.o(i.UART_send_char)
    i.UART_send_data                         0x080077f0   Section        0  bsp_uart.o(i.UART_send_data)
    i.UART_send_string                       0x0800784c   Section        0  bsp_uart.o(i.UART_send_string)
    i.USART1_Config                          0x08007874   Section        0  bsp_uart.o(i.USART1_Config)
    i.USART1_IRQHandler                      0x08007930   Section        0  stm32f4xx_it.o(i.USART1_IRQHandler)
    i.USART1_NVIC_Configuration              0x08007b14   Section        0  bsp_uart.o(i.USART1_NVIC_Configuration)
    i.USART2_Config                          0x08007b3c   Section        0  bsp_uart.o(i.USART2_Config)
    i.USART2_IRQHandler                      0x08007be4   Section        0  stm32f4xx_it.o(i.USART2_IRQHandler)
    i.USART2_NVIC_Configuration              0x08007c58   Section        0  bsp_uart.o(i.USART2_NVIC_Configuration)
    i.USART3_Config                          0x08007c80   Section        0  bsp_uart.o(i.USART3_Config)
    i.USART3_IRQHandler                      0x08007d2c   Section        0  stm32f4xx_it.o(i.USART3_IRQHandler)
    i.USART3_NVIC_Configuration              0x08007e84   Section        0  bsp_uart.o(i.USART3_NVIC_Configuration)
    i.USART6_Config                          0x08007eac   Section        0  bsp_uart.o(i.USART6_Config)
    i.USART6_IRQHandler                      0x08007f54   Section        0  stm32f4xx_it.o(i.USART6_IRQHandler)
    i.USART6_NVIC_Configuration              0x08007fc8   Section        0  bsp_uart.o(i.USART6_NVIC_Configuration)
    i.USART_ClearFlag                        0x08007ff0   Section        0  stm32f4xx_usart.o(i.USART_ClearFlag)
    i.USART_ClearITPendingBit                0x08008002   Section        0  stm32f4xx_usart.o(i.USART_ClearITPendingBit)
    i.USART_Cmd                              0x08008020   Section        0  stm32f4xx_usart.o(i.USART_Cmd)
    i.USART_DMACmd                           0x08008038   Section        0  stm32f4xx_usart.o(i.USART_DMACmd)
    i.USART_GetFlagStatus                    0x0800804a   Section        0  stm32f4xx_usart.o(i.USART_GetFlagStatus)
    i.USART_GetITStatus                      0x08008064   Section        0  stm32f4xx_usart.o(i.USART_GetITStatus)
    i.USART_ITConfig                         0x080080b8   Section        0  stm32f4xx_usart.o(i.USART_ITConfig)
    i.USART_Init                             0x08008104   Section        0  stm32f4xx_usart.o(i.USART_Init)
    i.USART_ReceiveData                      0x080081d8   Section        0  stm32f4xx_usart.o(i.USART_ReceiveData)
    i.USART_SendData                         0x080081e2   Section        0  stm32f4xx_usart.o(i.USART_SendData)
    i.UsageFault_Handler                     0x080081ea   Section        0  stm32f4xx_it.o(i.UsageFault_Handler)
    i.W25QXX_Init                            0x080081f0   Section        0  w25q128.o(i.W25QXX_Init)
    i.W25QXX_ReadID                          0x08008244   Section        0  w25q128.o(i.W25QXX_ReadID)
    i.WSWD_Wheel_Speed_Model                 0x0800828c   Section        0  motor_control.o(i.WSWD_Wheel_Speed_Model)
    i.__0printf                              0x08008640   Section        0  printfa.o(i.__0printf)
    i.__ARM_fpclassify                       0x08008660   Section        0  fpclassify.o(i.__ARM_fpclassify)
    i.__hardfp_acos                          0x08008690   Section        0  acos.o(i.__hardfp_acos)
    i.__hardfp_acosf                         0x080089e8   Section        0  acosf.o(i.__hardfp_acosf)
    i.__hardfp_asin                          0x08008b00   Section        0  asin.o(i.__hardfp_asin)
    i.__hardfp_atan                          0x08008e60   Section        0  atan.o(i.__hardfp_atan)
    i.__hardfp_atan2                         0x08009138   Section        0  atan2.o(i.__hardfp_atan2)
    i.__hardfp_fabs                          0x08009328   Section        0  fabs.o(i.__hardfp_fabs)
    i.__hardfp_sqrt                          0x0800933c   Section        0  sqrt.o(i.__hardfp_sqrt)
    i.__kernel_poly                          0x080093b6   Section        0  poly.o(i.__kernel_poly)
    i.__mathlib_dbl_infnan                   0x080094ae   Section        0  dunder.o(i.__mathlib_dbl_infnan)
    i.__mathlib_dbl_infnan2                  0x080094c2   Section        0  dunder.o(i.__mathlib_dbl_infnan2)
    i.__mathlib_dbl_invalid                  0x080094d8   Section        0  dunder.o(i.__mathlib_dbl_invalid)
    i.__mathlib_dbl_underflow                0x080094f8   Section        0  dunder.o(i.__mathlib_dbl_underflow)
    i.__mathlib_flt_infnan                   0x08009518   Section        0  funder.o(i.__mathlib_flt_infnan)
    i.__mathlib_flt_invalid                  0x08009520   Section        0  funder.o(i.__mathlib_flt_invalid)
    i.__scatterload_copy                     0x08009530   Section       14  handlers.o(i.__scatterload_copy)
    i.__scatterload_null                     0x0800953e   Section        2  handlers.o(i.__scatterload_null)
    i.__scatterload_zeroinit                 0x08009540   Section       14  handlers.o(i.__scatterload_zeroinit)
    i.__set_FAULTMASK                        0x0800954e   Section        0  dbus.o(i.__set_FAULTMASK)
    __set_FAULTMASK                          0x0800954f   Thumb Code    10  dbus.o(i.__set_FAULTMASK)
    i.__set_errno                            0x08009558   Section        0  errno.o(i.__set_errno)
    i._fp_digits                             0x08009564   Section        0  printfa.o(i._fp_digits)
    _fp_digits                               0x08009565   Thumb Code   366  printfa.o(i._fp_digits)
    i._printf_core                           0x080096e8   Section        0  printfa.o(i._printf_core)
    _printf_core                             0x080096e9   Thumb Code  1744  printfa.o(i._printf_core)
    i._printf_post_padding                   0x08009dc4   Section        0  printfa.o(i._printf_post_padding)
    _printf_post_padding                     0x08009dc5   Thumb Code    36  printfa.o(i._printf_post_padding)
    i._printf_pre_padding                    0x08009de8   Section        0  printfa.o(i._printf_pre_padding)
    _printf_pre_padding                      0x08009de9   Thumb Code    46  printfa.o(i._printf_pre_padding)
    i.accel_self_test                        0x08009e18   Section        0  inv_mpu.o(i.accel_self_test)
    accel_self_test                          0x08009e19   Thumb Code   184  inv_mpu.o(i.accel_self_test)
    i.atan                                   0x08009ed8   Section        0  atan.o(i.atan)
    i.decode_gesture                         0x08009ee8   Section        0  inv_mpu_dmp_motion_driver.o(i.decode_gesture)
    decode_gesture                           0x08009ee9   Thumb Code    94  inv_mpu_dmp_motion_driver.o(i.decode_gesture)
    i.delay_ms                               0x08009f4c   Section        0  bsp_systick.o(i.delay_ms)
    i.dmp_enable_6x_lp_quat                  0x08009f5c   Section        0  inv_mpu_dmp_motion_driver.o(i.dmp_enable_6x_lp_quat)
    i.dmp_enable_feature                     0x08009f98   Section        0  inv_mpu_dmp_motion_driver.o(i.dmp_enable_feature)
    i.dmp_enable_gyro_cal                    0x0800a1b4   Section        0  inv_mpu_dmp_motion_driver.o(i.dmp_enable_gyro_cal)
    i.dmp_enable_lp_quat                     0x0800a20c   Section        0  inv_mpu_dmp_motion_driver.o(i.dmp_enable_lp_quat)
    i.dmp_load_motion_driver_firmware        0x0800a248   Section        0  inv_mpu_dmp_motion_driver.o(i.dmp_load_motion_driver_firmware)
    i.dmp_read_fifo                          0x0800a260   Section        0  inv_mpu_dmp_motion_driver.o(i.dmp_read_fifo)
    i.dmp_set_accel_bias                     0x0800a42c   Section        0  inv_mpu_dmp_motion_driver.o(i.dmp_set_accel_bias)
    i.dmp_set_fifo_rate                      0x0800a55c   Section        0  inv_mpu_dmp_motion_driver.o(i.dmp_set_fifo_rate)
    i.dmp_set_gyro_bias                      0x0800a5cc   Section        0  inv_mpu_dmp_motion_driver.o(i.dmp_set_gyro_bias)
    i.dmp_set_orientation                    0x0800a6fc   Section        0  inv_mpu_dmp_motion_driver.o(i.dmp_set_orientation)
    i.dmp_set_shake_reject_thresh            0x0800a834   Section        0  inv_mpu_dmp_motion_driver.o(i.dmp_set_shake_reject_thresh)
    i.dmp_set_shake_reject_time              0x0800a86c   Section        0  inv_mpu_dmp_motion_driver.o(i.dmp_set_shake_reject_time)
    i.dmp_set_shake_reject_timeout           0x0800a892   Section        0  inv_mpu_dmp_motion_driver.o(i.dmp_set_shake_reject_timeout)
    i.dmp_set_tap_axes                       0x0800a8b8   Section        0  inv_mpu_dmp_motion_driver.o(i.dmp_set_tap_axes)
    i.dmp_set_tap_count                      0x0800a8fe   Section        0  inv_mpu_dmp_motion_driver.o(i.dmp_set_tap_count)
    i.dmp_set_tap_thresh                     0x0800a924   Section        0  inv_mpu_dmp_motion_driver.o(i.dmp_set_tap_thresh)
    i.dmp_set_tap_time                       0x0800aae4   Section        0  inv_mpu_dmp_motion_driver.o(i.dmp_set_tap_time)
    i.dmp_set_tap_time_multi                 0x0800ab0a   Section        0  inv_mpu_dmp_motion_driver.o(i.dmp_set_tap_time_multi)
    i.fabs                                   0x0800ab30   Section        0  fabs.o(i.fabs)
    i.fputc                                  0x0800ab48   Section        0  bsp_uart.o(i.fputc)
    i.get_accel_prod_shift                   0x0800ab6c   Section        0  inv_mpu.o(i.get_accel_prod_shift)
    get_accel_prod_shift                     0x0800ab6d   Thumb Code   190  inv_mpu.o(i.get_accel_prod_shift)
    i.get_st_biases                          0x0800ac3c   Section        0  inv_mpu.o(i.get_st_biases)
    get_st_biases                            0x0800ac3d   Thumb Code  1132  inv_mpu.o(i.get_st_biases)
    i.gyro_self_test                         0x0800b0ac   Section        0  inv_mpu.o(i.gyro_self_test)
    gyro_self_test                           0x0800b0ad   Thumb Code   266  inv_mpu.o(i.gyro_self_test)
    i.inv_orientation_matrix_to_scalar       0x0800b1cc   Section        0  inv_mpu.o(i.inv_orientation_matrix_to_scalar)
    i.inv_row_2_scale                        0x0800b1f4   Section        0  inv_mpu.o(i.inv_row_2_scale)
    i.main                                   0x0800b244   Section        0  main.o(i.main)
    i.mget_ms                                0x0800b854   Section        0  inv_mpu.o(i.mget_ms)
    i.micros                                 0x0800b858   Section        0  bsp_systick.o(i.micros)
    i.mpu_configure_fifo                     0x0800b870   Section        0  inv_mpu.o(i.mpu_configure_fifo)
    i.mpu_dmp_init                           0x0800b8e0   Section        0  inv_mpu.o(i.mpu_dmp_init)
    i.mpu_get_accel_fsr                      0x0800b980   Section        0  inv_mpu.o(i.mpu_get_accel_fsr)
    i.mpu_get_accel_sens                     0x0800b9cc   Section        0  inv_mpu.o(i.mpu_get_accel_sens)
    i.mpu_get_fifo_config                    0x0800ba20   Section        0  inv_mpu.o(i.mpu_get_fifo_config)
    i.mpu_get_gyro_fsr                       0x0800ba30   Section        0  inv_mpu.o(i.mpu_get_gyro_fsr)
    i.mpu_get_gyro_sens                      0x0800ba74   Section        0  inv_mpu.o(i.mpu_get_gyro_sens)
    i.mpu_get_lpf                            0x0800bad4   Section        0  inv_mpu.o(i.mpu_get_lpf)
    i.mpu_get_sample_rate                    0x0800bb24   Section        0  inv_mpu.o(i.mpu_get_sample_rate)
    i.mpu_init                               0x0800bb44   Section        0  inv_mpu.o(i.mpu_init)
    i.mpu_load_firmware                      0x0800bd34   Section        0  inv_mpu.o(i.mpu_load_firmware)
    i.mpu_lp_accel_mode                      0x0800bdec   Section        0  inv_mpu.o(i.mpu_lp_accel_mode)
    i.mpu_read_fifo_stream                   0x0800becc   Section        0  inv_mpu.o(i.mpu_read_fifo_stream)
    i.mpu_read_mem                           0x0800bf8c   Section        0  inv_mpu.o(i.mpu_read_mem)
    i.mpu_reset_fifo                         0x0800c00c   Section        0  inv_mpu.o(i.mpu_reset_fifo)
    i.mpu_run_self_test                      0x0800c1d4   Section        0  inv_mpu.o(i.mpu_run_self_test)
    i.mpu_set_accel_fsr                      0x0800c2f0   Section        0  inv_mpu.o(i.mpu_set_accel_fsr)
    i.mpu_set_bypass                         0x0800c374   Section        0  inv_mpu.o(i.mpu_set_bypass)
    i.mpu_set_dmp_state                      0x0800c4c0   Section        0  inv_mpu.o(i.mpu_set_dmp_state)
    i.mpu_set_gyro_fsr                       0x0800c550   Section        0  inv_mpu.o(i.mpu_set_gyro_fsr)
    i.mpu_set_int_latched                    0x0800c5d8   Section        0  inv_mpu.o(i.mpu_set_int_latched)
    i.mpu_set_lpf                            0x0800c644   Section        0  inv_mpu.o(i.mpu_set_lpf)
    i.mpu_set_sample_rate                    0x0800c6c8   Section        0  inv_mpu.o(i.mpu_set_sample_rate)
    i.mpu_set_sensors                        0x0800c764   Section        0  inv_mpu.o(i.mpu_set_sensors)
    i.mpu_write_mem                          0x0800c834   Section        0  inv_mpu.o(i.mpu_write_mem)
    i.run_self_test                          0x0800c8b4   Section        0  inv_mpu.o(i.run_self_test)
    i.set_int_enable                         0x0800c950   Section        0  inv_mpu.o(i.set_int_enable)
    set_int_enable                           0x0800c951   Thumb Code   138  inv_mpu.o(i.set_int_enable)
    i.sqrt                                   0x0800c9e0   Section        0  sqrt.o(i.sqrt)
    i.sqrtf                                  0x0800ca4e   Section        0  sqrtf.o(i.sqrtf)
    .constdata                               0x0800ca8c   Section       12  motor_apsl2db.o(.constdata)
    .constdata                               0x0800ca98   Section       80  inv_mpu.o(.constdata)
    .constdata                               0x0800cae8   Section     3062  inv_mpu_dmp_motion_driver.o(.constdata)
    dmp_memory                               0x0800cae8   Data        3062  inv_mpu_dmp_motion_driver.o(.constdata)
    .constdata                               0x0800d6e0   Section       80  acos.o(.constdata)
    pS                                       0x0800d6e0   Data          48  acos.o(.constdata)
    qS                                       0x0800d710   Data          32  acos.o(.constdata)
    .constdata                               0x0800d730   Section       80  asin.o(.constdata)
    pS                                       0x0800d730   Data          48  asin.o(.constdata)
    qS                                       0x0800d760   Data          32  asin.o(.constdata)
    .constdata                               0x0800d780   Section      152  atan.o(.constdata)
    atanhi                                   0x0800d780   Data          32  atan.o(.constdata)
    atanlo                                   0x0800d7a0   Data          32  atan.o(.constdata)
    aTodd                                    0x0800d7c0   Data          40  atan.o(.constdata)
    aTeven                                   0x0800d7e8   Data          48  atan.o(.constdata)
    .constdata                               0x0800d818   Section        8  qnan.o(.constdata)
    .conststring                             0x0800d820   Section       72  main.o(.conststring)
    .conststring                             0x0800d868   Section       75  motor_apsl2db.o(.conststring)
    .conststring                             0x0800d8b4   Section       77  inv_mpu.o(.conststring)
    .data                                    0x20000000   Section       20  system_stm32f4xx.o(.data)
    .data                                    0x20000014   Section       16  stm32f4xx_rcc.o(.data)
    APBAHBPrescTable                         0x20000014   Data          16  stm32f4xx_rcc.o(.data)
    .data                                    0x20000024   Section       44  main.o(.data)
    .data                                    0x20000050   Section       13  stm32f4xx_it.o(.data)
    .data                                    0x2000005d   Section        1  mick_io.o(.data)
    .data                                    0x20000060   Section       23  dbus.o(.data)
    .data                                    0x20000078   Section       32  motor_control.o(.data)
    last_yaw                                 0x20000094   Data           4  motor_control.o(.data)
    .data                                    0x20000098   Section        6  motor_apsl2db.o(.data)
    .data                                    0x2000009e   Section        2  motor_rmd.o(.data)
    .data                                    0x200000a0   Section        2  w25q128.o(.data)
    .data                                    0x200000a4   Section        4  bsp_systick.o(.data)
    .data                                    0x200000a8   Section        2  bsp_adc.o(.data)
    .data                                    0x200000ac   Section       53  inv_mpu.o(.data)
    st                                       0x200000ac   Data          44  inv_mpu.o(.data)
    gyro_orientation                         0x200000d8   Data           9  inv_mpu.o(.data)
    .data                                    0x200000e4   Section        4  stdout.o(.data)
    .data                                    0x200000e8   Section        4  errno.o(.data)
    _errno                                   0x200000e8   Data           4  errno.o(.data)
    .bss                                     0x200000ec   Section      140  main.o(.bss)
    .bss                                     0x20000178   Section       56  dbus.o(.bss)
    .bss                                     0x200001b0   Section      196  battery.o(.bss)
    .bss                                     0x20000274   Section      168  motor_control.o(.bss)
    .bss                                     0x2000031c   Section      224  motor_apsl2db.o(.bss)
    .bss                                     0x200003fc   Section      224  motor_rmd.o(.bss)
    .bss                                     0x200004dc   Section      120  imu.o(.bss)
    .bss                                     0x20000554   Section     1089  bsp_usart_dma.o(.bss)
    .bss                                     0x20000998   Section       16  inv_mpu_dmp_motion_driver.o(.bss)
    dmp                                      0x20000998   Data          16  inv_mpu_dmp_motion_driver.o(.bss)
    STACK                                    0x200009a8   Section     2048  startup_stm32f40xx.o(STACK)

    Global Symbols

    Symbol Name                              Value     Ov Type        Size  Object(Section)

    BuildAttributes$$THM_ISAv4$E$P$D$K$B$S$7EM$VFPi3$EXTD16$VFPS$VFMA$PE$A:L22UL41UL21$X:L11$S22US41US21$IEEE1$IW$USESV6$~STKCKD$USESV7$~SHL$OTIME$ROPI$IEEEX$EBA8$MICROLIB$REQ8$PRES8$EABIv2 0x00000000   Number         0  anon$$obj.o ABSOLUTE
    __ARM_use_no_argv                        0x00000000   Number         0  main.o ABSOLUTE
    _printf_a                                0x00000000   Number         0  stubs.o ABSOLUTE
    _printf_c                                0x00000000   Number         0  stubs.o ABSOLUTE
    _printf_charcount                        0x00000000   Number         0  stubs.o ABSOLUTE
    _printf_d                                0x00000000   Number         0  stubs.o ABSOLUTE
    _printf_e                                0x00000000   Number         0  stubs.o ABSOLUTE
    _printf_f                                0x00000000   Number         0  stubs.o ABSOLUTE
    _printf_flags                            0x00000000   Number         0  stubs.o ABSOLUTE
    _printf_fp_dec                           0x00000000   Number         0  stubs.o ABSOLUTE
    _printf_fp_hex                           0x00000000   Number         0  stubs.o ABSOLUTE
    _printf_g                                0x00000000   Number         0  stubs.o ABSOLUTE
    _printf_i                                0x00000000   Number         0  stubs.o ABSOLUTE
    _printf_int_dec                          0x00000000   Number         0  stubs.o ABSOLUTE
    _printf_l                                0x00000000   Number         0  stubs.o ABSOLUTE
    _printf_lc                               0x00000000   Number         0  stubs.o ABSOLUTE
    _printf_ll                               0x00000000   Number         0  stubs.o ABSOLUTE
    _printf_lld                              0x00000000   Number         0  stubs.o ABSOLUTE
    _printf_lli                              0x00000000   Number         0  stubs.o ABSOLUTE
    _printf_llo                              0x00000000   Number         0  stubs.o ABSOLUTE
    _printf_llu                              0x00000000   Number         0  stubs.o ABSOLUTE
    _printf_llx                              0x00000000   Number         0  stubs.o ABSOLUTE
    _printf_longlong_dec                     0x00000000   Number         0  stubs.o ABSOLUTE
    _printf_longlong_hex                     0x00000000   Number         0  stubs.o ABSOLUTE
    _printf_longlong_oct                     0x00000000   Number         0  stubs.o ABSOLUTE
    _printf_ls                               0x00000000   Number         0  stubs.o ABSOLUTE
    _printf_mbtowc                           0x00000000   Number         0  stubs.o ABSOLUTE
    _printf_n                                0x00000000   Number         0  stubs.o ABSOLUTE
    _printf_o                                0x00000000   Number         0  stubs.o ABSOLUTE
    _printf_p                                0x00000000   Number         0  stubs.o ABSOLUTE
    _printf_percent                          0x00000000   Number         0  stubs.o ABSOLUTE
    _printf_pre_padding                      0x00000000   Number         0  stubs.o ABSOLUTE
    _printf_return_value                     0x00000000   Number         0  stubs.o ABSOLUTE
    _printf_s                                0x00000000   Number         0  stubs.o ABSOLUTE
    _printf_sizespec                         0x00000000   Number         0  stubs.o ABSOLUTE
    _printf_str                              0x00000000   Number         0  stubs.o ABSOLUTE
    _printf_truncate_signed                  0x00000000   Number         0  stubs.o ABSOLUTE
    _printf_truncate_unsigned                0x00000000   Number         0  stubs.o ABSOLUTE
    _printf_u                                0x00000000   Number         0  stubs.o ABSOLUTE
    _printf_wc                               0x00000000   Number         0  stubs.o ABSOLUTE
    _printf_wctomb                           0x00000000   Number         0  stubs.o ABSOLUTE
    _printf_widthprec                        0x00000000   Number         0  stubs.o ABSOLUTE
    _printf_x                                0x00000000   Number         0  stubs.o ABSOLUTE
    __cpp_initialize__aeabi_                  - Undefined Weak Reference
    __cxa_finalize                            - Undefined Weak Reference
    __decompress                              - Undefined Weak Reference
    _clock_init                               - Undefined Weak Reference
    _microlib_exit                            - Undefined Weak Reference
    __Vectors_Size                           0x00000188   Number         0  startup_stm32f40xx.o ABSOLUTE
    __Vectors                                0x08000000   Data           4  startup_stm32f40xx.o(RESET)
    __Vectors_End                            0x08000188   Data           0  startup_stm32f40xx.o(RESET)
    __main                                   0x08000189   Thumb Code     0  entry.o(.ARM.Collect$$$$00000000)
    _main_stk                                0x08000189   Thumb Code     0  entry2.o(.ARM.Collect$$$$00000001)
    _main_scatterload                        0x0800018d   Thumb Code     0  entry5.o(.ARM.Collect$$$$00000004)
    __main_after_scatterload                 0x08000191   Thumb Code     0  entry5.o(.ARM.Collect$$$$00000004)
    _main_clock                              0x08000191   Thumb Code     0  entry7b.o(.ARM.Collect$$$$00000008)
    _main_cpp_init                           0x08000191   Thumb Code     0  entry8b.o(.ARM.Collect$$$$0000000A)
    _main_init                               0x08000191   Thumb Code     0  entry9a.o(.ARM.Collect$$$$0000000B)
    __rt_final_cpp                           0x08000199   Thumb Code     0  entry10a.o(.ARM.Collect$$$$0000000D)
    __rt_final_exit                          0x08000199   Thumb Code     0  entry11a.o(.ARM.Collect$$$$0000000F)
    Reset_Handler                            0x0800019d   Thumb Code     8  startup_stm32f40xx.o(.text)
    ADC_IRQHandler                           0x080001b7   Thumb Code     0  startup_stm32f40xx.o(.text)
    CAN1_RX1_IRQHandler                      0x080001b7   Thumb Code     0  startup_stm32f40xx.o(.text)
    CAN1_SCE_IRQHandler                      0x080001b7   Thumb Code     0  startup_stm32f40xx.o(.text)
    CAN1_TX_IRQHandler                       0x080001b7   Thumb Code     0  startup_stm32f40xx.o(.text)
    CAN2_RX1_IRQHandler                      0x080001b7   Thumb Code     0  startup_stm32f40xx.o(.text)
    CAN2_SCE_IRQHandler                      0x080001b7   Thumb Code     0  startup_stm32f40xx.o(.text)
    CAN2_TX_IRQHandler                       0x080001b7   Thumb Code     0  startup_stm32f40xx.o(.text)
    CRYP_IRQHandler                          0x080001b7   Thumb Code     0  startup_stm32f40xx.o(.text)
    DCMI_IRQHandler                          0x080001b7   Thumb Code     0  startup_stm32f40xx.o(.text)
    DMA1_Stream0_IRQHandler                  0x080001b7   Thumb Code     0  startup_stm32f40xx.o(.text)
    DMA1_Stream1_IRQHandler                  0x080001b7   Thumb Code     0  startup_stm32f40xx.o(.text)
    DMA1_Stream2_IRQHandler                  0x080001b7   Thumb Code     0  startup_stm32f40xx.o(.text)
    DMA1_Stream3_IRQHandler                  0x080001b7   Thumb Code     0  startup_stm32f40xx.o(.text)
    DMA1_Stream4_IRQHandler                  0x080001b7   Thumb Code     0  startup_stm32f40xx.o(.text)
    DMA1_Stream6_IRQHandler                  0x080001b7   Thumb Code     0  startup_stm32f40xx.o(.text)
    DMA1_Stream7_IRQHandler                  0x080001b7   Thumb Code     0  startup_stm32f40xx.o(.text)
    DMA2_Stream0_IRQHandler                  0x080001b7   Thumb Code     0  startup_stm32f40xx.o(.text)
    DMA2_Stream1_IRQHandler                  0x080001b7   Thumb Code     0  startup_stm32f40xx.o(.text)
    DMA2_Stream3_IRQHandler                  0x080001b7   Thumb Code     0  startup_stm32f40xx.o(.text)
    DMA2_Stream4_IRQHandler                  0x080001b7   Thumb Code     0  startup_stm32f40xx.o(.text)
    DMA2_Stream5_IRQHandler                  0x080001b7   Thumb Code     0  startup_stm32f40xx.o(.text)
    DMA2_Stream6_IRQHandler                  0x080001b7   Thumb Code     0  startup_stm32f40xx.o(.text)
    ETH_IRQHandler                           0x080001b7   Thumb Code     0  startup_stm32f40xx.o(.text)
    ETH_WKUP_IRQHandler                      0x080001b7   Thumb Code     0  startup_stm32f40xx.o(.text)
    EXTI1_IRQHandler                         0x080001b7   Thumb Code     0  startup_stm32f40xx.o(.text)
    EXTI2_IRQHandler                         0x080001b7   Thumb Code     0  startup_stm32f40xx.o(.text)
    EXTI3_IRQHandler                         0x080001b7   Thumb Code     0  startup_stm32f40xx.o(.text)
    EXTI4_IRQHandler                         0x080001b7   Thumb Code     0  startup_stm32f40xx.o(.text)
    EXTI9_5_IRQHandler                       0x080001b7   Thumb Code     0  startup_stm32f40xx.o(.text)
    FLASH_IRQHandler                         0x080001b7   Thumb Code     0  startup_stm32f40xx.o(.text)
    FPU_IRQHandler                           0x080001b7   Thumb Code     0  startup_stm32f40xx.o(.text)
    FSMC_IRQHandler                          0x080001b7   Thumb Code     0  startup_stm32f40xx.o(.text)
    HASH_RNG_IRQHandler                      0x080001b7   Thumb Code     0  startup_stm32f40xx.o(.text)
    I2C1_ER_IRQHandler                       0x080001b7   Thumb Code     0  startup_stm32f40xx.o(.text)
    I2C1_EV_IRQHandler                       0x080001b7   Thumb Code     0  startup_stm32f40xx.o(.text)
    I2C2_ER_IRQHandler                       0x080001b7   Thumb Code     0  startup_stm32f40xx.o(.text)
    I2C2_EV_IRQHandler                       0x080001b7   Thumb Code     0  startup_stm32f40xx.o(.text)
    I2C3_ER_IRQHandler                       0x080001b7   Thumb Code     0  startup_stm32f40xx.o(.text)
    I2C3_EV_IRQHandler                       0x080001b7   Thumb Code     0  startup_stm32f40xx.o(.text)
    OTG_FS_IRQHandler                        0x080001b7   Thumb Code     0  startup_stm32f40xx.o(.text)
    OTG_FS_WKUP_IRQHandler                   0x080001b7   Thumb Code     0  startup_stm32f40xx.o(.text)
    OTG_HS_EP1_IN_IRQHandler                 0x080001b7   Thumb Code     0  startup_stm32f40xx.o(.text)
    OTG_HS_EP1_OUT_IRQHandler                0x080001b7   Thumb Code     0  startup_stm32f40xx.o(.text)
    OTG_HS_IRQHandler                        0x080001b7   Thumb Code     0  startup_stm32f40xx.o(.text)
    OTG_HS_WKUP_IRQHandler                   0x080001b7   Thumb Code     0  startup_stm32f40xx.o(.text)
    PVD_IRQHandler                           0x080001b7   Thumb Code     0  startup_stm32f40xx.o(.text)
    RCC_IRQHandler                           0x080001b7   Thumb Code     0  startup_stm32f40xx.o(.text)
    RTC_Alarm_IRQHandler                     0x080001b7   Thumb Code     0  startup_stm32f40xx.o(.text)
    RTC_WKUP_IRQHandler                      0x080001b7   Thumb Code     0  startup_stm32f40xx.o(.text)
    SDIO_IRQHandler                          0x080001b7   Thumb Code     0  startup_stm32f40xx.o(.text)
    SPI1_IRQHandler                          0x080001b7   Thumb Code     0  startup_stm32f40xx.o(.text)
    SPI2_IRQHandler                          0x080001b7   Thumb Code     0  startup_stm32f40xx.o(.text)
    SPI3_IRQHandler                          0x080001b7   Thumb Code     0  startup_stm32f40xx.o(.text)
    TAMP_STAMP_IRQHandler                    0x080001b7   Thumb Code     0  startup_stm32f40xx.o(.text)
    TIM1_BRK_TIM9_IRQHandler                 0x080001b7   Thumb Code     0  startup_stm32f40xx.o(.text)
    TIM1_CC_IRQHandler                       0x080001b7   Thumb Code     0  startup_stm32f40xx.o(.text)
    TIM1_TRG_COM_TIM11_IRQHandler            0x080001b7   Thumb Code     0  startup_stm32f40xx.o(.text)
    TIM1_UP_TIM10_IRQHandler                 0x080001b7   Thumb Code     0  startup_stm32f40xx.o(.text)
    TIM3_IRQHandler                          0x080001b7   Thumb Code     0  startup_stm32f40xx.o(.text)
    TIM4_IRQHandler                          0x080001b7   Thumb Code     0  startup_stm32f40xx.o(.text)
    TIM5_IRQHandler                          0x080001b7   Thumb Code     0  startup_stm32f40xx.o(.text)
    TIM8_BRK_TIM12_IRQHandler                0x080001b7   Thumb Code     0  startup_stm32f40xx.o(.text)
    TIM8_CC_IRQHandler                       0x080001b7   Thumb Code     0  startup_stm32f40xx.o(.text)
    TIM8_TRG_COM_TIM14_IRQHandler            0x080001b7   Thumb Code     0  startup_stm32f40xx.o(.text)
    TIM8_UP_TIM13_IRQHandler                 0x080001b7   Thumb Code     0  startup_stm32f40xx.o(.text)
    WWDG_IRQHandler                          0x080001b7   Thumb Code     0  startup_stm32f40xx.o(.text)
    __aeabi_ldivmod                          0x080001c1   Thumb Code    98  ldiv.o(.text)
    __aeabi_memcpy                           0x08000223   Thumb Code    36  memcpya.o(.text)
    __aeabi_memcpy4                          0x08000223   Thumb Code     0  memcpya.o(.text)
    __aeabi_memcpy8                          0x08000223   Thumb Code     0  memcpya.o(.text)
    __aeabi_memset                           0x08000247   Thumb Code    14  memseta.o(.text)
    __aeabi_memset4                          0x08000247   Thumb Code     0  memseta.o(.text)
    __aeabi_memset8                          0x08000247   Thumb Code     0  memseta.o(.text)
    __aeabi_memclr                           0x08000255   Thumb Code     4  memseta.o(.text)
    __aeabi_memclr4                          0x08000255   Thumb Code     0  memseta.o(.text)
    __aeabi_memclr8                          0x08000255   Thumb Code     0  memseta.o(.text)
    _memset$wrapper                          0x08000259   Thumb Code    18  memseta.o(.text)
    memcmp                                   0x0800026b   Thumb Code    26  memcmp.o(.text)
    __aeabi_dadd                             0x08000285   Thumb Code   322  dadd.o(.text)
    __aeabi_dsub                             0x080003c7   Thumb Code     6  dadd.o(.text)
    __aeabi_drsub                            0x080003cd   Thumb Code     6  dadd.o(.text)
    __aeabi_dmul                             0x080003d3   Thumb Code   228  dmul.o(.text)
    __aeabi_ddiv                             0x080004b7   Thumb Code   222  ddiv.o(.text)
    __aeabi_i2d                              0x08000595   Thumb Code    34  dflti.o(.text)
    __aeabi_ui2d                             0x080005b7   Thumb Code    26  dfltui.o(.text)
    __aeabi_d2iz                             0x080005d1   Thumb Code    62  dfixi.o(.text)
    __aeabi_d2uiz                            0x0800060f   Thumb Code    50  dfixui.o(.text)
    __aeabi_f2d                              0x08000641   Thumb Code    38  f2d.o(.text)
    __aeabi_cdcmpeq                          0x08000669   Thumb Code     0  cdcmple.o(.text)
    __aeabi_cdcmple                          0x08000669   Thumb Code    48  cdcmple.o(.text)
    __aeabi_cdrcmple                         0x08000699   Thumb Code    48  cdrcmple.o(.text)
    __aeabi_d2f                              0x080006c9   Thumb Code    56  d2f.o(.text)
    __aeabi_uidiv                            0x08000701   Thumb Code     0  uidiv.o(.text)
    __aeabi_uidivmod                         0x08000701   Thumb Code    44  uidiv.o(.text)
    __aeabi_uldivmod                         0x0800072d   Thumb Code    98  uldiv.o(.text)
    __aeabi_llsl                             0x0800078f   Thumb Code    30  llshl.o(.text)
    _ll_shift_l                              0x0800078f   Thumb Code     0  llshl.o(.text)
    __aeabi_llsr                             0x080007ad   Thumb Code    32  llushr.o(.text)
    _ll_ushift_r                             0x080007ad   Thumb Code     0  llushr.o(.text)
    __aeabi_lasr                             0x080007cd   Thumb Code    36  llsshr.o(.text)
    _ll_sshift_r                             0x080007cd   Thumb Code     0  llsshr.o(.text)
    __I$use$fp                               0x080007f1   Thumb Code     0  iusefp.o(.text)
    _float_round                             0x080007f1   Thumb Code    18  fepilogue.o(.text)
    _float_epilogue                          0x08000803   Thumb Code    92  fepilogue.o(.text)
    _double_round                            0x0800085f   Thumb Code    30  depilogue.o(.text)
    _double_epilogue                         0x0800087d   Thumb Code   156  depilogue.o(.text)
    _dsqrt                                   0x08000919   Thumb Code   162  dsqrt.o(.text)
    __aeabi_d2ulz                            0x080009bb   Thumb Code    48  dfixul.o(.text)
    __scatterload                            0x080009ed   Thumb Code    28  init.o(.text)
    __scatterload_rt2                        0x080009ed   Thumb Code     0  init.o(.text)
    ADC_Cmd                                  0x08000a11   Thumb Code    22  stm32f4xx_adc.o(i.ADC_Cmd)
    ADC_CommonInit                           0x08000a29   Thumb Code    34  stm32f4xx_adc.o(i.ADC_CommonInit)
    ADC_DMACmd                               0x08000a59   Thumb Code    22  stm32f4xx_adc.o(i.ADC_DMACmd)
    ADC_DMARequestAfterLastTransferCmd       0x08000a6f   Thumb Code    22  stm32f4xx_adc.o(i.ADC_DMARequestAfterLastTransferCmd)
    ADC_Init                                 0x08000a85   Thumb Code    74  stm32f4xx_adc.o(i.ADC_Init)
    ADC_RegularChannelConfig                 0x08000ad9   Thumb Code   184  stm32f4xx_adc.o(i.ADC_RegularChannelConfig)
    ADC_SoftwareStartConv                    0x08000b91   Thumb Code    10  stm32f4xx_adc.o(i.ADC_SoftwareStartConv)
    ADC_TempSensorVrefintCmd                 0x08000b9d   Thumb Code    34  stm32f4xx_adc.o(i.ADC_TempSensorVrefintCmd)
    AKM2_Wheel_Speed_Model                   0x08000bc9   Thumb Code  3066  motor_control.o(i.AKM2_Wheel_Speed_Model)
    APS_L2DB_Read_Temp                       0x080017f1   Thumb Code    18  motor_apsl2db.o(i.APS_L2DB_Read_Temp)
    BusFault_Handler                         0x08001803   Thumb Code     4  stm32f4xx_it.o(i.BusFault_Handler)
    CAN1_RX0_IRQHandler                      0x08001809   Thumb Code    36  stm32f4xx_it.o(i.CAN1_RX0_IRQHandler)
    CAN2_RX0_IRQHandler                      0x08001839   Thumb Code    36  stm32f4xx_it.o(i.CAN2_RX0_IRQHandler)
    CAN_Config                               0x08001869   Thumb Code    30  bsp_can.o(i.CAN_Config)
    CAN_DeInit                               0x08001889   Thumb Code    50  stm32f4xx_can.o(i.CAN_DeInit)
    CAN_FilterInit                           0x080018c1   Thumb Code   258  stm32f4xx_can.o(i.CAN_FilterInit)
    CAN_GetITStatus                          0x08001af1   Thumb Code   284  stm32f4xx_can.o(i.CAN_GetITStatus)
    CAN_ITConfig                             0x08001c11   Thumb Code    18  stm32f4xx_can.o(i.CAN_ITConfig)
    CAN_Init                                 0x08001c23   Thumb Code   276  stm32f4xx_can.o(i.CAN_Init)
    CAN_Receive                              0x08001e01   Thumb Code   240  stm32f4xx_can.o(i.CAN_Receive)
    CAN_StructInit                           0x08001ef1   Thumb Code    32  stm32f4xx_can.o(i.CAN_StructInit)
    CAN_Transmit                             0x08001f11   Thumb Code   294  stm32f4xx_can.o(i.CAN_Transmit)
    Calculate_DiffX4_Odom                    0x08002039   Thumb Code   390  motor_control.o(i.Calculate_DiffX4_Odom)
    ChasissDiffX4_Control_Routing            0x080021fd   Thumb Code   210  motor_control.o(i.ChasissDiffX4_Control_Routing)
    Chasiss_Control_Routing                  0x080022d5   Thumb Code    68  motor_control.o(i.Chasiss_Control_Routing)
    Chassis_Odom_Upload_Message              0x08002329   Thumb Code   296  motor_control.o(i.Chassis_Odom_Upload_Message)
    DMA1_Stream5_IRQHandler                  0x08002479   Thumb Code    62  stm32f4xx_it.o(i.DMA1_Stream5_IRQHandler)
    DMA2_Stream2_IRQHandler                  0x080024cd   Thumb Code    62  bsp_usart_dma.o(i.DMA2_Stream2_IRQHandler)
    DMA2_Stream7_IRQHandler                  0x0800251d   Thumb Code    38  bsp_usart_dma.o(i.DMA2_Stream7_IRQHandler)
    DMA_ClearFlag                            0x08002551   Thumb Code    38  stm32f4xx_dma.o(i.DMA_ClearFlag)
    DMA_ClearITPendingBit                    0x08002585   Thumb Code    38  stm32f4xx_dma.o(i.DMA_ClearITPendingBit)
    DMA_Cmd                                  0x080025b9   Thumb Code    22  stm32f4xx_dma.o(i.DMA_Cmd)
    DMA_DeInit                               0x080025d1   Thumb Code   324  stm32f4xx_dma.o(i.DMA_DeInit)
    DMA_GetCmdStatus                         0x08002729   Thumb Code    20  stm32f4xx_dma.o(i.DMA_GetCmdStatus)
    DMA_GetITStatus                          0x0800273d   Thumb Code    82  stm32f4xx_dma.o(i.DMA_GetITStatus)
    DMA_ITConfig                             0x080027a1   Thumb Code    58  stm32f4xx_dma.o(i.DMA_ITConfig)
    DMA_Init                                 0x080027dd   Thumb Code    82  stm32f4xx_dma.o(i.DMA_Init)
    DebugMon_Handler                         0x08002835   Thumb Code     2  stm32f4xx_it.o(i.DebugMon_Handler)
    Delay_10us                               0x08002839   Thumb Code    32  bsp_systick.o(i.Delay_10us)
    DiffX4_Wheel_Speed_Model                 0x0800285d   Thumb Code   630  motor_control.o(i.DiffX4_Wheel_Speed_Model)
    EXTI0_IRQHandler                         0x08002b1d   Thumb Code    18  stm32f4xx_it.o(i.EXTI0_IRQHandler)
    EXTI15_10_IRQHandler                     0x08002b2f   Thumb Code    22  stm32f4xx_it.o(i.EXTI15_10_IRQHandler)
    EXTI_ClearITPendingBit                   0x08002b45   Thumb Code     6  stm32f4xx_exti.o(i.EXTI_ClearITPendingBit)
    EXTI_GetITStatus                         0x08002b51   Thumb Code    20  stm32f4xx_exti.o(i.EXTI_GetITStatus)
    Flip_Isolated_Output                     0x08002b69   Thumb Code    60  mick_io.o(i.Flip_Isolated_Output)
    GPIO_Flip_level                          0x08002ba9   Thumb Code     8  bsp_gpio.o(i.GPIO_Flip_level)
    GPIO_Init                                0x08002bb1   Thumb Code   144  stm32f4xx_gpio.o(i.GPIO_Init)
    GPIO_PinAFConfig                         0x08002c41   Thumb Code    70  stm32f4xx_gpio.o(i.GPIO_PinAFConfig)
    GPIO_ReadInputDataBit                    0x08002c87   Thumb Code    18  stm32f4xx_gpio.o(i.GPIO_ReadInputDataBit)
    GPIO_ResetBits                           0x08002c99   Thumb Code     4  stm32f4xx_gpio.o(i.GPIO_ResetBits)
    GPIO_SetBits                             0x08002c9d   Thumb Code     4  stm32f4xx_gpio.o(i.GPIO_SetBits)
    GPIO_ToggleBits                          0x08002ca1   Thumb Code     8  stm32f4xx_gpio.o(i.GPIO_ToggleBits)
    HardFault_Handler                        0x08002ca9   Thumb Code     4  stm32f4xx_it.o(i.HardFault_Handler)
    IMU_Routing                              0x08002cad   Thumb Code    78  imu.o(i.IMU_Routing)
    IO_IIC_Delay                             0x08002d11   Thumb Code    16  io_iic.o(i.IO_IIC_Delay)
    IO_IIC_GPIO_Init                         0x08002d21   Thumb Code    64  io_iic.o(i.IO_IIC_GPIO_Init)
    IO_IIC_ack                               0x08002d65   Thumb Code    66  io_iic.o(i.IO_IIC_ack)
    IO_IIC_no_ack                            0x08002dad   Thumb Code    66  io_iic.o(i.IO_IIC_no_ack)
    IO_IIC_read_byte                         0x08002df5   Thumb Code   102  io_iic.o(i.IO_IIC_read_byte)
    IO_IIC_start                             0x08002e61   Thumb Code    66  io_iic.o(i.IO_IIC_start)
    IO_IIC_stop                              0x08002ea9   Thumb Code    66  io_iic.o(i.IO_IIC_stop)
    IO_IIC_write_byte                        0x08002ef1   Thumb Code   106  io_iic.o(i.IO_IIC_write_byte)
    Init_Mick_GPIO                           0x08002f61   Thumb Code   232  mick_io.o(i.Init_Mick_GPIO)
    Initial_micros                           0x08003055   Thumb Code   104  bsp_systick.o(i.Initial_micros)
    Isolated_IO_Upload_Message               0x080030c1   Thumb Code   186  mick_io.o(i.Isolated_IO_Upload_Message)
    MOTOR_APSL2DB_Enable                     0x08003185   Thumb Code    90  motor_apsl2db.o(i.MOTOR_APSL2DB_Enable)
    MOTOR_APSL2DB_Enable_PDO                 0x080031e5   Thumb Code    88  motor_apsl2db.o(i.MOTOR_APSL2DB_Enable_PDO)
    MOTOR_APSL2DB_Infor_Get                  0x08003241   Thumb Code   170  motor_apsl2db.o(i.MOTOR_APSL2DB_Infor_Get)
    MOTOR_APSL2DB_Init                       0x08003351   Thumb Code   450  motor_apsl2db.o(i.MOTOR_APSL2DB_Init)
    MOTOR_APSL2DB_Measurements_Analy         0x08003639   Thumb Code   806  motor_apsl2db.o(i.MOTOR_APSL2DB_Measurements_Analy)
    MOTOR_APSL2DB_Measurements_Debug         0x08003981   Thumb Code  2034  motor_apsl2db.o(i.MOTOR_APSL2DB_Measurements_Debug)
    MOTOR_APSL2DB_Read_Cmd                   0x08004299   Thumb Code    84  motor_apsl2db.o(i.MOTOR_APSL2DB_Read_Cmd)
    MOTOR_APSL2DB_Set_CurrentLimt            0x080042f1   Thumb Code   150  motor_apsl2db.o(i.MOTOR_APSL2DB_Set_CurrentLimt)
    MOTOR_APSL2DB_Set_Model                  0x0800439d   Thumb Code    90  motor_apsl2db.o(i.MOTOR_APSL2DB_Set_Model)
    MOTOR_APSL2DB_Set_RPM                    0x080043fd   Thumb Code   150  motor_apsl2db.o(i.MOTOR_APSL2DB_Set_RPM)
    MOTOR_APSL2DB_Set_Trap_Accel             0x080044a9   Thumb Code   152  motor_apsl2db.o(i.MOTOR_APSL2DB_Set_Trap_Accel)
    MOTOR_APSL2DB_Set_Trap_Decel             0x08004555   Thumb Code   152  motor_apsl2db.o(i.MOTOR_APSL2DB_Set_Trap_Decel)
    MOTOR_Delay                              0x08004601   Thumb Code    26  motor_apsl2db.o(i.MOTOR_Delay)
    MOTOR_RMD_State_Analysis                 0x0800461d   Thumb Code   318  motor_rmd.o(i.MOTOR_RMD_State_Analysis)
    MPU6050_DMP_Routing                      0x08004769   Thumb Code   562  imu.o(i.MPU6050_DMP_Routing)
    MPU6050_IIC_Wait_Ack                     0x080049b1   Thumb Code    88  mpu6050.o(i.MPU6050_IIC_Wait_Ack)
    MPU6050_Read_Len                         0x08004a0d   Thumb Code   116  mpu6050.o(i.MPU6050_Read_Len)
    MPU6050_Write_Len                        0x08004a81   Thumb Code    96  mpu6050.o(i.MPU6050_Write_Len)
    MY_ADC_DMA_Init                          0x08004ae1   Thumb Code   550  bsp_adc.o(i.MY_ADC_DMA_Init)
    MemManage_Handler                        0x08004d19   Thumb Code     4  stm32f4xx_it.o(i.MemManage_Handler)
    Motor_WriteData_In_Buff                  0x08004d1d   Thumb Code  1342  motor_control.o(i.Motor_WriteData_In_Buff)
    My_Config_USART_Init                     0x0800529d   Thumb Code   110  bsp_uart.o(i.My_Config_USART_Init)
    My_GPIO_Init                             0x08005325   Thumb Code   194  bsp_gpio.o(i.My_GPIO_Init)
    My_USART1_DMA_RX_Init                    0x08005415   Thumb Code   112  bsp_usart_dma.o(i.My_USART1_DMA_RX_Init)
    My_USART1_DMA_TX_Init                    0x08005491   Thumb Code   102  bsp_usart_dma.o(i.My_USART1_DMA_TX_Init)
    My_USART2_DMA_RX_Init                    0x08005505   Thumb Code   110  bsp_usart_dma.o(i.My_USART2_DMA_RX_Init)
    My_USART2_DMA_TX_Init                    0x08005581   Thumb Code   110  bsp_usart_dma.o(i.My_USART2_DMA_TX_Init)
    My_USART3_DMA_RX_Init                    0x080055fd   Thumb Code   110  bsp_usart_dma.o(i.My_USART3_DMA_RX_Init)
    My_USART3_DMA_TX_Init                    0x08005679   Thumb Code   110  bsp_usart_dma.o(i.My_USART3_DMA_TX_Init)
    My_USART6_DMA_RX_Init                    0x080056f5   Thumb Code   110  bsp_usart_dma.o(i.My_USART6_DMA_RX_Init)
    My_USART6_DMA_TX_Init                    0x08005771   Thumb Code   110  bsp_usart_dma.o(i.My_USART6_DMA_TX_Init)
    My_USART_DMA_config                      0x080057ed   Thumb Code   510  bsp_usart_dma.o(i.My_USART_DMA_config)
    NMI_Handler                              0x08005a05   Thumb Code     2  stm32f4xx_it.o(i.NMI_Handler)
    NVIC_Init                                0x08005a09   Thumb Code   106  misc.o(i.NVIC_Init)
    NVIC_PriorityGroupConfig                 0x08005a81   Thumb Code    10  misc.o(i.NVIC_PriorityGroupConfig)
    PendSV_Handler                           0x08005ad5   Thumb Code     2  stm32f4xx_it.o(i.PendSV_Handler)
    RCC_AHB1PeriphClockCmd                   0x08005ad9   Thumb Code    26  stm32f4xx_rcc.o(i.RCC_AHB1PeriphClockCmd)
    RCC_APB1PeriphClockCmd                   0x08005af9   Thumb Code    26  stm32f4xx_rcc.o(i.RCC_APB1PeriphClockCmd)
    RCC_APB1PeriphResetCmd                   0x08005b19   Thumb Code    26  stm32f4xx_rcc.o(i.RCC_APB1PeriphResetCmd)
    RCC_APB2PeriphClockCmd                   0x08005b39   Thumb Code    26  stm32f4xx_rcc.o(i.RCC_APB2PeriphClockCmd)
    RCC_APB2PeriphResetCmd                   0x08005b59   Thumb Code    26  stm32f4xx_rcc.o(i.RCC_APB2PeriphResetCmd)
    RCC_GetClocksFreq                        0x08005b79   Thumb Code   214  stm32f4xx_rcc.o(i.RCC_GetClocksFreq)
    RC_Callback_Handler                      0x08005c61   Thumb Code  1578  dbus.o(i.RC_Callback_Handler)
    RC_Debug_Message                         0x080062ed   Thumb Code   538  dbus.o(i.RC_Debug_Message)
    RC_Offset_Init                           0x08006581   Thumb Code   530  dbus.o(i.RC_Offset_Init)
    RC_Remote_Init                           0x08006869   Thumb Code    84  dbus.o(i.RC_Remote_Init)
    RC_Routing                               0x080068e9   Thumb Code   728  dbus.o(i.RC_Routing)
    Read_Isolated_Input                      0x08006bd5   Thumb Code    96  mick_io.o(i.Read_Isolated_Input)
    SPI1_Init                                0x08006c39   Thumb Code   178  bsp_spi.o(i.SPI1_Init)
    SPI1_ReadWriteByte                       0x08006cf5   Thumb Code    50  bsp_spi.o(i.SPI1_ReadWriteByte)
    SPI1_SetSpeed                            0x08006d2d   Thumb Code    36  bsp_spi.o(i.SPI1_SetSpeed)
    SPI_Cmd                                  0x08006d55   Thumb Code    24  stm32f4xx_spi.o(i.SPI_Cmd)
    SPI_I2S_GetFlagStatus                    0x08006d6d   Thumb Code    18  stm32f4xx_spi.o(i.SPI_I2S_GetFlagStatus)
    SPI_I2S_ReceiveData                      0x08006d7f   Thumb Code     6  stm32f4xx_spi.o(i.SPI_I2S_ReceiveData)
    SPI_I2S_SendData                         0x08006d85   Thumb Code     4  stm32f4xx_spi.o(i.SPI_I2S_SendData)
    SPI_Init                                 0x08006d89   Thumb Code    60  stm32f4xx_spi.o(i.SPI_Init)
    SVC_Handler                              0x08006dc5   Thumb Code     2  stm32f4xx_it.o(i.SVC_Handler)
    Set_Isolated_Output                      0x08006eb5   Thumb Code   206  mick_io.o(i.Set_Isolated_Output)
    SysTick_Handler                          0x08006f8d   Thumb Code    18  stm32f4xx_it.o(i.SysTick_Handler)
    SysTick_Init                             0x08006fa5   Thumb Code   104  bsp_systick.o(i.SysTick_Init)
    SystemInit                               0x0800701d   Thumb Code    88  system_stm32f4xx.o(i.SystemInit)
    TIM2_IRQHandler                          0x08007085   Thumb Code    22  stm32f4xx_it.o(i.TIM2_IRQHandler)
    TIM6_DAC_IRQHandler                      0x0800709d   Thumb Code    64  stm32f4xx_it.o(i.TIM6_DAC_IRQHandler)
    TIM7_IRQHandler                          0x080070e9   Thumb Code    86  stm32f4xx_it.o(i.TIM7_IRQHandler)
    TIM_ClearFlag                            0x0800715d   Thumb Code     6  stm32f4xx_tim.o(i.TIM_ClearFlag)
    TIM_ClearITPendingBit                    0x08007163   Thumb Code     6  stm32f4xx_tim.o(i.TIM_ClearITPendingBit)
    TIM_Cmd                                  0x08007169   Thumb Code    24  stm32f4xx_tim.o(i.TIM_Cmd)
    TIM_GetITStatus                          0x08007181   Thumb Code    34  stm32f4xx_tim.o(i.TIM_GetITStatus)
    TIM_ITConfig                             0x080071a3   Thumb Code    18  stm32f4xx_tim.o(i.TIM_ITConfig)
    TIM_TimeBaseInit                         0x080071b5   Thumb Code   104  stm32f4xx_tim.o(i.TIM_TimeBaseInit)
    Timer_2to7_Init                          0x08007239   Thumb Code   642  bsp_timer.o(i.Timer_2to7_Init)
    Timer_start                              0x080074d1   Thumb Code    14  bsp_timer.o(i.Timer_start)
    UART4_Config                             0x080074e1   Thumb Code   162  bsp_uart.o(i.UART4_Config)
    UART4_IRQHandler                         0x0800758d   Thumb Code   122  stm32f4xx_it.o(i.UART4_IRQHandler)
    UART4_NVIC_Configuration                 0x0800760d   Thumb Code    42  bsp_uart.o(i.UART4_NVIC_Configuration)
    UART5_Config                             0x08007639   Thumb Code   178  bsp_uart.o(i.UART5_Config)
    UART5_IRQHandler                         0x080076f9   Thumb Code   122  stm32f4xx_it.o(i.UART5_IRQHandler)
    UART5_NVIC_Configuration                 0x08007779   Thumb Code    40  bsp_uart.o(i.UART5_NVIC_Configuration)
    UART_send_buffer                         0x080077a1   Thumb Code    50  bsp_uart.o(i.UART_send_buffer)
    UART_send_char                           0x080077d3   Thumb Code    30  bsp_uart.o(i.UART_send_char)
    UART_send_data                           0x080077f1   Thumb Code    92  bsp_uart.o(i.UART_send_data)
    UART_send_string                         0x0800784d   Thumb Code    40  bsp_uart.o(i.UART_send_string)
    USART1_Config                            0x08007875   Thumb Code   180  bsp_uart.o(i.USART1_Config)
    USART1_IRQHandler                        0x08007931   Thumb Code   440  stm32f4xx_it.o(i.USART1_IRQHandler)
    USART1_NVIC_Configuration                0x08007b15   Thumb Code    38  bsp_uart.o(i.USART1_NVIC_Configuration)
    USART2_Config                            0x08007b3d   Thumb Code   160  bsp_uart.o(i.USART2_Config)
    USART2_IRQHandler                        0x08007be5   Thumb Code   112  stm32f4xx_it.o(i.USART2_IRQHandler)
    USART2_NVIC_Configuration                0x08007c59   Thumb Code    40  bsp_uart.o(i.USART2_NVIC_Configuration)
    USART3_Config                            0x08007c81   Thumb Code   162  bsp_uart.o(i.USART3_Config)
    USART3_IRQHandler                        0x08007d2d   Thumb Code   320  stm32f4xx_it.o(i.USART3_IRQHandler)
    USART3_NVIC_Configuration                0x08007e85   Thumb Code    40  bsp_uart.o(i.USART3_NVIC_Configuration)
    USART6_Config                            0x08007ead   Thumb Code   160  bsp_uart.o(i.USART6_Config)
    USART6_IRQHandler                        0x08007f55   Thumb Code   112  stm32f4xx_it.o(i.USART6_IRQHandler)
    USART6_NVIC_Configuration                0x08007fc9   Thumb Code    40  bsp_uart.o(i.USART6_NVIC_Configuration)
    USART_ClearFlag                          0x08007ff1   Thumb Code    18  stm32f4xx_usart.o(i.USART_ClearFlag)
    USART_ClearITPendingBit                  0x08008003   Thumb Code    30  stm32f4xx_usart.o(i.USART_ClearITPendingBit)
    USART_Cmd                                0x08008021   Thumb Code    24  stm32f4xx_usart.o(i.USART_Cmd)
    USART_DMACmd                             0x08008039   Thumb Code    18  stm32f4xx_usart.o(i.USART_DMACmd)
    USART_GetFlagStatus                      0x0800804b   Thumb Code    26  stm32f4xx_usart.o(i.USART_GetFlagStatus)
    USART_GetITStatus                        0x08008065   Thumb Code    84  stm32f4xx_usart.o(i.USART_GetITStatus)
    USART_ITConfig                           0x080080b9   Thumb Code    74  stm32f4xx_usart.o(i.USART_ITConfig)
    USART_Init                               0x08008105   Thumb Code   204  stm32f4xx_usart.o(i.USART_Init)
    USART_ReceiveData                        0x080081d9   Thumb Code    10  stm32f4xx_usart.o(i.USART_ReceiveData)
    USART_SendData                           0x080081e3   Thumb Code     8  stm32f4xx_usart.o(i.USART_SendData)
    UsageFault_Handler                       0x080081eb   Thumb Code     4  stm32f4xx_it.o(i.UsageFault_Handler)
    W25QXX_Init                              0x080081f1   Thumb Code    72  w25q128.o(i.W25QXX_Init)
    W25QXX_ReadID                            0x08008245   Thumb Code    64  w25q128.o(i.W25QXX_ReadID)
    WSWD_Wheel_Speed_Model                   0x0800828d   Thumb Code   874  motor_control.o(i.WSWD_Wheel_Speed_Model)
    __0printf                                0x08008641   Thumb Code    22  printfa.o(i.__0printf)
    __1printf                                0x08008641   Thumb Code     0  printfa.o(i.__0printf)
    __2printf                                0x08008641   Thumb Code     0  printfa.o(i.__0printf)
    __c89printf                              0x08008641   Thumb Code     0  printfa.o(i.__0printf)
    printf                                   0x08008641   Thumb Code     0  printfa.o(i.__0printf)
    __ARM_fpclassify                         0x08008661   Thumb Code    48  fpclassify.o(i.__ARM_fpclassify)
    __hardfp_acos                            0x08008691   Thumb Code   738  acos.o(i.__hardfp_acos)
    __hardfp_acosf                           0x080089e9   Thumb Code   234  acosf.o(i.__hardfp_acosf)
    __hardfp_asin                            0x08008b01   Thumb Code   770  asin.o(i.__hardfp_asin)
    __hardfp_atan                            0x08008e61   Thumb Code   622  atan.o(i.__hardfp_atan)
    __hardfp_atan2                           0x08009139   Thumb Code   432  atan2.o(i.__hardfp_atan2)
    __hardfp_fabs                            0x08009329   Thumb Code    20  fabs.o(i.__hardfp_fabs)
    __hardfp_sqrt                            0x0800933d   Thumb Code   122  sqrt.o(i.__hardfp_sqrt)
    __kernel_poly                            0x080093b7   Thumb Code   248  poly.o(i.__kernel_poly)
    __mathlib_dbl_infnan                     0x080094af   Thumb Code    20  dunder.o(i.__mathlib_dbl_infnan)
    __mathlib_dbl_infnan2                    0x080094c3   Thumb Code    20  dunder.o(i.__mathlib_dbl_infnan2)
    __mathlib_dbl_invalid                    0x080094d9   Thumb Code    24  dunder.o(i.__mathlib_dbl_invalid)
    __mathlib_dbl_underflow                  0x080094f9   Thumb Code    24  dunder.o(i.__mathlib_dbl_underflow)
    __mathlib_flt_infnan                     0x08009519   Thumb Code     6  funder.o(i.__mathlib_flt_infnan)
    __mathlib_flt_invalid                    0x08009521   Thumb Code    10  funder.o(i.__mathlib_flt_invalid)
    __scatterload_copy                       0x08009531   Thumb Code    14  handlers.o(i.__scatterload_copy)
    __scatterload_null                       0x0800953f   Thumb Code     2  handlers.o(i.__scatterload_null)
    __scatterload_zeroinit                   0x08009541   Thumb Code    14  handlers.o(i.__scatterload_zeroinit)
    __set_errno                              0x08009559   Thumb Code     6  errno.o(i.__set_errno)
    atan                                     0x08009ed9   Thumb Code    16  atan.o(i.atan)
    delay_ms                                 0x08009f4d   Thumb Code    16  bsp_systick.o(i.delay_ms)
    dmp_enable_6x_lp_quat                    0x08009f5d   Thumb Code    60  inv_mpu_dmp_motion_driver.o(i.dmp_enable_6x_lp_quat)
    dmp_enable_feature                       0x08009f99   Thumb Code   530  inv_mpu_dmp_motion_driver.o(i.dmp_enable_feature)
    dmp_enable_gyro_cal                      0x0800a1b5   Thumb Code    62  inv_mpu_dmp_motion_driver.o(i.dmp_enable_gyro_cal)
    dmp_enable_lp_quat                       0x0800a20d   Thumb Code    60  inv_mpu_dmp_motion_driver.o(i.dmp_enable_lp_quat)
    dmp_load_motion_driver_firmware          0x0800a249   Thumb Code    20  inv_mpu_dmp_motion_driver.o(i.dmp_load_motion_driver_firmware)
    dmp_read_fifo                            0x0800a261   Thumb Code   456  inv_mpu_dmp_motion_driver.o(i.dmp_read_fifo)
    dmp_set_accel_bias                       0x0800a42d   Thumb Code   300  inv_mpu_dmp_motion_driver.o(i.dmp_set_accel_bias)
    dmp_set_fifo_rate                        0x0800a55d   Thumb Code    96  inv_mpu_dmp_motion_driver.o(i.dmp_set_fifo_rate)
    dmp_set_gyro_bias                        0x0800a5cd   Thumb Code   294  inv_mpu_dmp_motion_driver.o(i.dmp_set_gyro_bias)
    dmp_set_orientation                      0x0800a6fd   Thumb Code   290  inv_mpu_dmp_motion_driver.o(i.dmp_set_orientation)
    dmp_set_shake_reject_thresh              0x0800a835   Thumb Code    56  inv_mpu_dmp_motion_driver.o(i.dmp_set_shake_reject_thresh)
    dmp_set_shake_reject_time                0x0800a86d   Thumb Code    38  inv_mpu_dmp_motion_driver.o(i.dmp_set_shake_reject_time)
    dmp_set_shake_reject_timeout             0x0800a893   Thumb Code    38  inv_mpu_dmp_motion_driver.o(i.dmp_set_shake_reject_timeout)
    dmp_set_tap_axes                         0x0800a8b9   Thumb Code    70  inv_mpu_dmp_motion_driver.o(i.dmp_set_tap_axes)
    dmp_set_tap_count                        0x0800a8ff   Thumb Code    38  inv_mpu_dmp_motion_driver.o(i.dmp_set_tap_count)
    dmp_set_tap_thresh                       0x0800a925   Thumb Code   412  inv_mpu_dmp_motion_driver.o(i.dmp_set_tap_thresh)
    dmp_set_tap_time                         0x0800aae5   Thumb Code    38  inv_mpu_dmp_motion_driver.o(i.dmp_set_tap_time)
    dmp_set_tap_time_multi                   0x0800ab0b   Thumb Code    38  inv_mpu_dmp_motion_driver.o(i.dmp_set_tap_time_multi)
    fabs                                     0x0800ab31   Thumb Code    24  fabs.o(i.fabs)
    fputc                                    0x0800ab49   Thumb Code    32  bsp_uart.o(i.fputc)
    inv_orientation_matrix_to_scalar         0x0800b1cd   Thumb Code    40  inv_mpu.o(i.inv_orientation_matrix_to_scalar)
    inv_row_2_scale                          0x0800b1f5   Thumb Code    78  inv_mpu.o(i.inv_row_2_scale)
    main                                     0x0800b245   Thumb Code  1498  main.o(i.main)
    mget_ms                                  0x0800b855   Thumb Code     2  inv_mpu.o(i.mget_ms)
    micros                                   0x0800b859   Thumb Code    18  bsp_systick.o(i.micros)
    mpu_configure_fifo                       0x0800b871   Thumb Code   106  inv_mpu.o(i.mpu_configure_fifo)
    mpu_dmp_init                             0x0800b8e1   Thumb Code   154  inv_mpu.o(i.mpu_dmp_init)
    mpu_get_accel_fsr                        0x0800b981   Thumb Code    72  inv_mpu.o(i.mpu_get_accel_fsr)
    mpu_get_accel_sens                       0x0800b9cd   Thumb Code    78  inv_mpu.o(i.mpu_get_accel_sens)
    mpu_get_fifo_config                      0x0800ba21   Thumb Code    12  inv_mpu.o(i.mpu_get_fifo_config)
    mpu_get_gyro_fsr                         0x0800ba31   Thumb Code    64  inv_mpu.o(i.mpu_get_gyro_fsr)
    mpu_get_gyro_sens                        0x0800ba75   Thumb Code    74  inv_mpu.o(i.mpu_get_gyro_sens)
    mpu_get_lpf                              0x0800bad5   Thumb Code    74  inv_mpu.o(i.mpu_get_lpf)
    mpu_get_sample_rate                      0x0800bb25   Thumb Code    26  inv_mpu.o(i.mpu_get_sample_rate)
    mpu_init                                 0x0800bb45   Thumb Code   416  inv_mpu.o(i.mpu_init)
    mpu_load_firmware                        0x0800bd35   Thumb Code   180  inv_mpu.o(i.mpu_load_firmware)
    mpu_lp_accel_mode                        0x0800bded   Thumb Code   218  inv_mpu.o(i.mpu_lp_accel_mode)
    mpu_read_fifo_stream                     0x0800becd   Thumb Code   186  inv_mpu.o(i.mpu_read_fifo_stream)
    mpu_read_mem                             0x0800bf8d   Thumb Code   122  inv_mpu.o(i.mpu_read_mem)
    mpu_reset_fifo                           0x0800c00d   Thumb Code   450  inv_mpu.o(i.mpu_reset_fifo)
    mpu_run_self_test                        0x0800c1d5   Thumb Code   278  inv_mpu.o(i.mpu_run_self_test)
    mpu_set_accel_fsr                        0x0800c2f1   Thumb Code   126  inv_mpu.o(i.mpu_set_accel_fsr)
    mpu_set_bypass                           0x0800c375   Thumb Code   328  inv_mpu.o(i.mpu_set_bypass)
    mpu_set_dmp_state                        0x0800c4c1   Thumb Code   138  inv_mpu.o(i.mpu_set_dmp_state)
    mpu_set_gyro_fsr                         0x0800c551   Thumb Code   132  inv_mpu.o(i.mpu_set_gyro_fsr)
    mpu_set_int_latched                      0x0800c5d9   Thumb Code   102  inv_mpu.o(i.mpu_set_int_latched)
    mpu_set_lpf                              0x0800c645   Thumb Code   126  inv_mpu.o(i.mpu_set_lpf)
    mpu_set_sample_rate                      0x0800c6c9   Thumb Code   152  inv_mpu.o(i.mpu_set_sample_rate)
    mpu_set_sensors                          0x0800c765   Thumb Code   202  inv_mpu.o(i.mpu_set_sensors)
    mpu_write_mem                            0x0800c835   Thumb Code   122  inv_mpu.o(i.mpu_write_mem)
    run_self_test                            0x0800c8b5   Thumb Code   154  inv_mpu.o(i.run_self_test)
    sqrt                                     0x0800c9e1   Thumb Code   110  sqrt.o(i.sqrt)
    sqrtf                                    0x0800ca4f   Thumb Code    62  sqrtf.o(i.sqrtf)
    reg                                      0x0800ca98   Data          27  inv_mpu.o(.constdata)
    hw                                       0x0800cab4   Data          12  inv_mpu.o(.constdata)
    test                                     0x0800cac0   Data          40  inv_mpu.o(.constdata)
    __mathlib_zero                           0x0800d818   Data           8  qnan.o(.constdata)
    Region$$Table$$Base                      0x0800d904   Number         0  anon$$obj.o(Region$$Table)
    Region$$Table$$Limit                     0x0800d924   Number         0  anon$$obj.o(Region$$Table)
    SystemCoreClock                          0x20000000   Data           4  system_stm32f4xx.o(.data)
    AHBPrescTable                            0x20000004   Data          16  system_stm32f4xx.o(.data)
    Timer7_Counter1                          0x20000024   Data           4  main.o(.data)
    Timer7_Counter2                          0x20000028   Data           4  main.o(.data)
    Timer7_Counter3                          0x2000002c   Data           4  main.o(.data)
    Timer7_Counter4                          0x20000030   Data           4  main.o(.data)
    Timer7_Counter5                          0x20000034   Data           4  main.o(.data)
    Timer7_Counter6                          0x20000038   Data           4  main.o(.data)
    Timer6_Counter6                          0x2000003c   Data           4  main.o(.data)
    UART1_Flag                               0x20000040   Data           1  main.o(.data)
    UART2_DMA_Flag                           0x20000041   Data           1  main.o(.data)
    UART2_DMA_Flag2                          0x20000042   Data           1  main.o(.data)
    UART3_Flag                               0x20000043   Data           1  main.o(.data)
    flag_can1                                0x20000044   Data           1  main.o(.data)
    flag_can1_2                              0x20000045   Data           1  main.o(.data)
    flag_can2                                0x20000046   Data           1  main.o(.data)
    motor_errors_cnt                         0x20000047   Data           1  main.o(.data)
    motor_detect_cnt                         0x20000048   Data           1  main.o(.data)
    LocalTime                                0x2000004c   Data           4  main.o(.data)
    Timer6_Counter1                          0x20000050   Data           4  stm32f4xx_it.o(.data)
    UART6_last_dat                           0x20000054   Data           1  stm32f4xx_it.o(.data)
    UART6_Re_cnt                             0x20000055   Data           1  stm32f4xx_it.o(.data)
    UART3_Rec_status                         0x20000056   Data           1  stm32f4xx_it.o(.data)
    ReCont_2                                 0x20000058   Data           2  stm32f4xx_it.o(.data)
    Reflag_2                                 0x2000005a   Data           1  stm32f4xx_it.o(.data)
    U1dat_value                              0x2000005b   Data           1  stm32f4xx_it.o(.data)
    U1dat_value_last                         0x2000005c   Data           1  stm32f4xx_it.o(.data)
    Isolated_Output_Value                    0x2000005d   Data           1  mick_io.o(.data)
    DBUS_flag                                0x20000060   Data           1  dbus.o(.data)
    ch1_offset_sum                           0x20000064   Data           4  dbus.o(.data)
    ch2_offset_sum                           0x20000068   Data           4  dbus.o(.data)
    ch3_offset_sum                           0x2000006c   Data           4  dbus.o(.data)
    ch4_offset_sum                           0x20000070   Data           4  dbus.o(.data)
    rc_counter                               0x20000074   Data           1  dbus.o(.data)
    Code_Switch_Value                        0x20000075   Data           1  dbus.o(.data)
    faild_times                              0x20000076   Data           1  dbus.o(.data)
    run_cnt                                  0x20000078   Data           2  motor_control.o(.data)
    odom_vx                                  0x2000007c   Data           4  motor_control.o(.data)
    odom_vy                                  0x20000080   Data           4  motor_control.o(.data)
    odom_w                                   0x20000084   Data           4  motor_control.o(.data)
    last_time                                0x20000088   Data           4  motor_control.o(.data)
    curr_time                                0x2000008c   Data           4  motor_control.o(.data)
    UART1_ReCont                             0x20000090   Data           2  motor_control.o(.data)
    UART1_Reflag                             0x20000092   Data           1  motor_control.o(.data)
    tem_int32                                0x20000098   Data           4  motor_apsl2db.o(.data)
    tem_int16                                0x2000009c   Data           2  motor_apsl2db.o(.data)
    rmd_motor_tem_int16                      0x2000009e   Data           2  motor_rmd.o(.data)
    W25QXX_TYPE                              0x200000a0   Data           2  w25q128.o(.data)
    TimingDelay                              0x200000a4   Data           4  bsp_systick.o(.data)
    ADC_ConvertedValue                       0x200000a8   Data           2  bsp_adc.o(.data)
    __stdout                                 0x200000e4   Data           4  stdout.o(.data)
    USART3_RX_BUF                            0x200000ec   Data         100  main.o(.bss)
    CAN1_RxMessage                           0x20000150   Data          20  main.o(.bss)
    CAN2_RxMessage                           0x20000164   Data          20  main.o(.bss)
    rc                                       0x20000178   Data          56  dbus.o(.bss)
    battery                                  0x200001b0   Data          96  battery.o(.bss)
    RS485_Recv_Data                          0x20000210   Data         100  battery.o(.bss)
    UART1_ReBuff                             0x20000274   Data         100  motor_control.o(.bss)
    recived_cmd                              0x200002d8   Data          68  motor_control.o(.bss)
    moto_chassis                             0x2000031c   Data         224  motor_apsl2db.o(.bss)
    moto_rmd_chassis                         0x200003fc   Data         224  motor_rmd.o(.bss)
    IMU_Data                                 0x200004dc   Data          80  imu.o(.bss)
    imu_tem                                  0x2000052c   Data          12  imu.o(.bss)
    imu_Groy_tem                             0x20000538   Data          12  imu.o(.bss)
    q                                        0x20000544   Data          16  imu.o(.bss)
    SendBuff                                 0x20000554   Data        1024  bsp_usart_dma.o(.bss)
    rx1_buff                                 0x20000954   Data          40  bsp_usart_dma.o(.bss)
    USART2_RX_DMA_BUF                        0x2000097c   Data          25  bsp_usart_dma.o(.bss)
    __initial_sp                             0x200011a8   Data           0  startup_stm32f40xx.o(STACK)



==============================================================================

Memory Map of the image

  Image Entry point : 0x08000189

  Load Region LR_IROM1 (Base: 0x08000000, Size: 0x0000da10, Max: 0x00100000, ABSOLUTE)

    Execution Region ER_IROM1 (Exec base: 0x08000000, Load base: 0x08000000, Size: 0x0000d924, Max: 0x00100000, ABSOLUTE)

    Exec Addr    Load Addr    Size         Type   Attr      Idx    E Section Name        Object

    0x08000000   0x08000000   0x00000188   Data   RO            3    RESET               startup_stm32f40xx.o
    0x08000188   0x08000188   0x00000000   Code   RO         9818  * .ARM.Collect$$$$00000000  mc_w.l(entry.o)
    0x08000188   0x08000188   0x00000004   Code   RO        10205    .ARM.Collect$$$$00000001  mc_w.l(entry2.o)
    0x0800018c   0x0800018c   0x00000004   Code   RO        10208    .ARM.Collect$$$$00000004  mc_w.l(entry5.o)
    0x08000190   0x08000190   0x00000000   Code   RO        10210    .ARM.Collect$$$$00000008  mc_w.l(entry7b.o)
    0x08000190   0x08000190   0x00000000   Code   RO        10212    .ARM.Collect$$$$0000000A  mc_w.l(entry8b.o)
    0x08000190   0x08000190   0x00000008   Code   RO        10213    .ARM.Collect$$$$0000000B  mc_w.l(entry9a.o)
    0x08000198   0x08000198   0x00000000   Code   RO        10215    .ARM.Collect$$$$0000000D  mc_w.l(entry10a.o)
    0x08000198   0x08000198   0x00000000   Code   RO        10217    .ARM.Collect$$$$0000000F  mc_w.l(entry11a.o)
    0x08000198   0x08000198   0x00000004   Code   RO        10206    .ARM.Collect$$$$00002712  mc_w.l(entry2.o)
    0x0800019c   0x0800019c   0x00000024   Code   RO            4    .text               startup_stm32f40xx.o
    0x080001c0   0x080001c0   0x00000062   Code   RO         9821    .text               mc_w.l(ldiv.o)
    0x08000222   0x08000222   0x00000024   Code   RO         9823    .text               mc_w.l(memcpya.o)
    0x08000246   0x08000246   0x00000024   Code   RO         9825    .text               mc_w.l(memseta.o)
    0x0800026a   0x0800026a   0x0000001a   Code   RO         9829    .text               mc_w.l(memcmp.o)
    0x08000284   0x08000284   0x0000014e   Code   RO        10122    .text               mf_w.l(dadd.o)
    0x080003d2   0x080003d2   0x000000e4   Code   RO        10124    .text               mf_w.l(dmul.o)
    0x080004b6   0x080004b6   0x000000de   Code   RO        10126    .text               mf_w.l(ddiv.o)
    0x08000594   0x08000594   0x00000022   Code   RO        10130    .text               mf_w.l(dflti.o)
    0x080005b6   0x080005b6   0x0000001a   Code   RO        10132    .text               mf_w.l(dfltui.o)
    0x080005d0   0x080005d0   0x0000003e   Code   RO        10134    .text               mf_w.l(dfixi.o)
    0x0800060e   0x0800060e   0x00000032   Code   RO        10136    .text               mf_w.l(dfixui.o)
    0x08000640   0x08000640   0x00000026   Code   RO        10138    .text               mf_w.l(f2d.o)
    0x08000666   0x08000666   0x00000002   PAD
    0x08000668   0x08000668   0x00000030   Code   RO        10140    .text               mf_w.l(cdcmple.o)
    0x08000698   0x08000698   0x00000030   Code   RO        10142    .text               mf_w.l(cdrcmple.o)
    0x080006c8   0x080006c8   0x00000038   Code   RO        10144    .text               mf_w.l(d2f.o)
    0x08000700   0x08000700   0x0000002c   Code   RO        10220    .text               mc_w.l(uidiv.o)
    0x0800072c   0x0800072c   0x00000062   Code   RO        10222    .text               mc_w.l(uldiv.o)
    0x0800078e   0x0800078e   0x0000001e   Code   RO        10224    .text               mc_w.l(llshl.o)
    0x080007ac   0x080007ac   0x00000020   Code   RO        10226    .text               mc_w.l(llushr.o)
    0x080007cc   0x080007cc   0x00000024   Code   RO        10228    .text               mc_w.l(llsshr.o)
    0x080007f0   0x080007f0   0x00000000   Code   RO        10239    .text               mc_w.l(iusefp.o)
    0x080007f0   0x080007f0   0x0000006e   Code   RO        10240    .text               mf_w.l(fepilogue.o)
    0x0800085e   0x0800085e   0x000000ba   Code   RO        10242    .text               mf_w.l(depilogue.o)
    0x08000918   0x08000918   0x000000a2   Code   RO        10244    .text               mf_w.l(dsqrt.o)
    0x080009ba   0x080009ba   0x00000030   Code   RO        10246    .text               mf_w.l(dfixul.o)
    0x080009ea   0x080009ea   0x00000002   PAD
    0x080009ec   0x080009ec   0x00000024   Code   RO        10248    .text               mc_w.l(init.o)
    0x08000a10   0x08000a10   0x00000016   Code   RO          213    i.ADC_Cmd           stm32f4xx_adc.o
    0x08000a26   0x08000a26   0x00000002   PAD
    0x08000a28   0x08000a28   0x00000030   Code   RO          214    i.ADC_CommonInit    stm32f4xx_adc.o
    0x08000a58   0x08000a58   0x00000016   Code   RO          217    i.ADC_DMACmd        stm32f4xx_adc.o
    0x08000a6e   0x08000a6e   0x00000016   Code   RO          218    i.ADC_DMARequestAfterLastTransferCmd  stm32f4xx_adc.o
    0x08000a84   0x08000a84   0x00000054   Code   RO          233    i.ADC_Init          stm32f4xx_adc.o
    0x08000ad8   0x08000ad8   0x000000b8   Code   RO          238    i.ADC_RegularChannelConfig  stm32f4xx_adc.o
    0x08000b90   0x08000b90   0x0000000a   Code   RO          240    i.ADC_SoftwareStartConv  stm32f4xx_adc.o
    0x08000b9a   0x08000b9a   0x00000002   PAD
    0x08000b9c   0x08000b9c   0x0000002c   Code   RO          243    i.ADC_TempSensorVrefintCmd  stm32f4xx_adc.o
    0x08000bc8   0x08000bc8   0x00000c28   Code   RO         5630    i.AKM2_Wheel_Speed_Model  motor_control.o
    0x080017f0   0x080017f0   0x00000012   Code   RO         5739    i.APS_L2DB_Read_Temp  motor_apsl2db.o
    0x08001802   0x08001802   0x00000004   Code   RO         5012    i.BusFault_Handler  stm32f4xx_it.o
    0x08001806   0x08001806   0x00000002   PAD
    0x08001808   0x08001808   0x00000030   Code   RO         5013    i.CAN1_RX0_IRQHandler  stm32f4xx_it.o
    0x08001838   0x08001838   0x00000030   Code   RO         5014    i.CAN2_RX0_IRQHandler  stm32f4xx_it.o
    0x08001868   0x08001868   0x0000001e   Code   RO         6949    i.CAN_Config        bsp_can.o
    0x08001886   0x08001886   0x00000002   PAD
    0x08001888   0x08001888   0x00000038   Code   RO          457    i.CAN_DeInit        stm32f4xx_can.o
    0x080018c0   0x080018c0   0x00000108   Code   RO          459    i.CAN_FilterInit    stm32f4xx_can.o
    0x080019c8   0x080019c8   0x0000005c   Code   RO         6950    i.CAN_Filter_Config  bsp_can.o
    0x08001a24   0x08001a24   0x000000cc   Code   RO         6951    i.CAN_GPIO_Config   bsp_can.o
    0x08001af0   0x08001af0   0x00000120   Code   RO          461    i.CAN_GetITStatus   stm32f4xx_can.o
    0x08001c10   0x08001c10   0x00000012   Code   RO          465    i.CAN_ITConfig      stm32f4xx_can.o
    0x08001c22   0x08001c22   0x00000114   Code   RO          466    i.CAN_Init          stm32f4xx_can.o
    0x08001d36   0x08001d36   0x00000002   PAD
    0x08001d38   0x08001d38   0x00000074   Code   RO         6952    i.CAN_Mode_Config   bsp_can.o
    0x08001dac   0x08001dac   0x00000054   Code   RO         6953    i.CAN_NVIC_Config   bsp_can.o
    0x08001e00   0x08001e00   0x000000f0   Code   RO          469    i.CAN_Receive       stm32f4xx_can.o
    0x08001ef0   0x08001ef0   0x00000020   Code   RO          472    i.CAN_StructInit    stm32f4xx_can.o
    0x08001f10   0x08001f10   0x00000126   Code   RO          474    i.CAN_Transmit      stm32f4xx_can.o
    0x08002036   0x08002036   0x00000002   PAD
    0x08002038   0x08002038   0x000001c4   Code   RO         5632    i.Calculate_DiffX4_Odom  motor_control.o
    0x080021fc   0x080021fc   0x000000d8   Code   RO         5634    i.ChasissDiffX4_Control_Routing  motor_control.o
    0x080022d4   0x080022d4   0x00000054   Code   RO         5635    i.Chasiss_Control_Routing  motor_control.o
    0x08002328   0x08002328   0x0000013c   Code   RO         5638    i.Chassis_Odom_Upload_Message  motor_control.o
    0x08002464   0x08002464   0x00000012   Code   RO          477    i.CheckITStatus     stm32f4xx_can.o
    0x08002476   0x08002476   0x00000002   PAD
    0x08002478   0x08002478   0x00000054   Code   RO         5015    i.DMA1_Stream5_IRQHandler  stm32f4xx_it.o
    0x080024cc   0x080024cc   0x00000050   Code   RO         6793    i.DMA2_Stream2_IRQHandler  bsp_usart_dma.o
    0x0800251c   0x0800251c   0x00000034   Code   RO         6794    i.DMA2_Stream7_IRQHandler  bsp_usart_dma.o
    0x08002550   0x08002550   0x00000034   Code   RO         1232    i.DMA_ClearFlag     stm32f4xx_dma.o
    0x08002584   0x08002584   0x00000034   Code   RO         1233    i.DMA_ClearITPendingBit  stm32f4xx_dma.o
    0x080025b8   0x080025b8   0x00000016   Code   RO         1234    i.DMA_Cmd           stm32f4xx_dma.o
    0x080025ce   0x080025ce   0x00000002   PAD
    0x080025d0   0x080025d0   0x00000158   Code   RO         1235    i.DMA_DeInit        stm32f4xx_dma.o
    0x08002728   0x08002728   0x00000014   Code   RO         1239    i.DMA_GetCmdStatus  stm32f4xx_dma.o
    0x0800273c   0x0800273c   0x00000064   Code   RO         1244    i.DMA_GetITStatus   stm32f4xx_dma.o
    0x080027a0   0x080027a0   0x0000003a   Code   RO         1245    i.DMA_ITConfig      stm32f4xx_dma.o
    0x080027da   0x080027da   0x00000002   PAD
    0x080027dc   0x080027dc   0x00000058   Code   RO         1246    i.DMA_Init          stm32f4xx_dma.o
    0x08002834   0x08002834   0x00000002   Code   RO         5016    i.DebugMon_Handler  stm32f4xx_it.o
    0x08002836   0x08002836   0x00000002   PAD
    0x08002838   0x08002838   0x00000024   Code   RO         6458    i.Delay_10us        bsp_systick.o
    0x0800285c   0x0800285c   0x000002c0   Code   RO         5639    i.DiffX4_Wheel_Speed_Model  motor_control.o
    0x08002b1c   0x08002b1c   0x00000012   Code   RO         5017    i.EXTI0_IRQHandler  stm32f4xx_it.o
    0x08002b2e   0x08002b2e   0x00000016   Code   RO         5018    i.EXTI15_10_IRQHandler  stm32f4xx_it.o
    0x08002b44   0x08002b44   0x0000000c   Code   RO         1386    i.EXTI_ClearITPendingBit  stm32f4xx_exti.o
    0x08002b50   0x08002b50   0x00000018   Code   RO         1390    i.EXTI_GetITStatus  stm32f4xx_exti.o
    0x08002b68   0x08002b68   0x00000040   Code   RO         5216    i.Flip_Isolated_Output  mick_io.o
    0x08002ba8   0x08002ba8   0x00000008   Code   RO         6558    i.GPIO_Flip_level   bsp_gpio.o
    0x08002bb0   0x08002bb0   0x00000090   Code   RO         1899    i.GPIO_Init         stm32f4xx_gpio.o
    0x08002c40   0x08002c40   0x00000046   Code   RO         1900    i.GPIO_PinAFConfig  stm32f4xx_gpio.o
    0x08002c86   0x08002c86   0x00000012   Code   RO         1903    i.GPIO_ReadInputDataBit  stm32f4xx_gpio.o
    0x08002c98   0x08002c98   0x00000004   Code   RO         1906    i.GPIO_ResetBits    stm32f4xx_gpio.o
    0x08002c9c   0x08002c9c   0x00000004   Code   RO         1907    i.GPIO_SetBits      stm32f4xx_gpio.o
    0x08002ca0   0x08002ca0   0x00000008   Code   RO         1909    i.GPIO_ToggleBits   stm32f4xx_gpio.o
    0x08002ca8   0x08002ca8   0x00000004   Code   RO         5019    i.HardFault_Handler  stm32f4xx_it.o
    0x08002cac   0x08002cac   0x00000064   Code   RO         6215    i.IMU_Routing       imu.o
    0x08002d10   0x08002d10   0x00000010   Code   RO         6041    i.IO_IIC_Delay      io_iic.o
    0x08002d20   0x08002d20   0x00000044   Code   RO         6042    i.IO_IIC_GPIO_Init  io_iic.o
    0x08002d64   0x08002d64   0x00000048   Code   RO         6043    i.IO_IIC_ack        io_iic.o
    0x08002dac   0x08002dac   0x00000048   Code   RO         6044    i.IO_IIC_no_ack     io_iic.o
    0x08002df4   0x08002df4   0x0000006c   Code   RO         6046    i.IO_IIC_read_byte  io_iic.o
    0x08002e60   0x08002e60   0x00000048   Code   RO         6047    i.IO_IIC_start      io_iic.o
    0x08002ea8   0x08002ea8   0x00000048   Code   RO         6048    i.IO_IIC_stop       io_iic.o
    0x08002ef0   0x08002ef0   0x00000070   Code   RO         6050    i.IO_IIC_write_byte  io_iic.o
    0x08002f60   0x08002f60   0x000000f4   Code   RO         5217    i.Init_Mick_GPIO    mick_io.o
    0x08003054   0x08003054   0x0000006c   Code   RO         6459    i.Initial_micros    bsp_systick.o
    0x080030c0   0x080030c0   0x000000c4   Code   RO         5218    i.Isolated_IO_Upload_Message  mick_io.o
    0x08003184   0x08003184   0x00000060   Code   RO         5741    i.MOTOR_APSL2DB_Enable  motor_apsl2db.o
    0x080031e4   0x080031e4   0x0000005c   Code   RO         5744    i.MOTOR_APSL2DB_Enable_PDO  motor_apsl2db.o
    0x08003240   0x08003240   0x00000110   Code   RO         5745    i.MOTOR_APSL2DB_Infor_Get  motor_apsl2db.o
    0x08003350   0x08003350   0x000002e8   Code   RO         5746    i.MOTOR_APSL2DB_Init  motor_apsl2db.o
    0x08003638   0x08003638   0x00000348   Code   RO         5747    i.MOTOR_APSL2DB_Measurements_Analy  motor_apsl2db.o
    0x08003980   0x08003980   0x00000918   Code   RO         5748    i.MOTOR_APSL2DB_Measurements_Debug  motor_apsl2db.o
    0x08004298   0x08004298   0x00000058   Code   RO         5750    i.MOTOR_APSL2DB_Read_Cmd  motor_apsl2db.o
    0x080042f0   0x080042f0   0x000000ac   Code   RO         5752    i.MOTOR_APSL2DB_Set_CurrentLimt  motor_apsl2db.o
    0x0800439c   0x0800439c   0x00000060   Code   RO         5753    i.MOTOR_APSL2DB_Set_Model  motor_apsl2db.o
    0x080043fc   0x080043fc   0x000000ac   Code   RO         5756    i.MOTOR_APSL2DB_Set_RPM  motor_apsl2db.o
    0x080044a8   0x080044a8   0x000000ac   Code   RO         5757    i.MOTOR_APSL2DB_Set_Trap_Accel  motor_apsl2db.o
    0x08004554   0x08004554   0x000000ac   Code   RO         5758    i.MOTOR_APSL2DB_Set_Trap_Decel  motor_apsl2db.o
    0x08004600   0x08004600   0x0000001a   Code   RO         5759    i.MOTOR_Delay       motor_apsl2db.o
    0x0800461a   0x0800461a   0x00000002   PAD
    0x0800461c   0x0800461c   0x0000014c   Code   RO         5918    i.MOTOR_RMD_State_Analysis  motor_rmd.o
    0x08004768   0x08004768   0x00000248   Code   RO         6218    i.MPU6050_DMP_Routing  imu.o
    0x080049b0   0x080049b0   0x0000005c   Code   RO         6126    i.MPU6050_IIC_Wait_Ack  mpu6050.o
    0x08004a0c   0x08004a0c   0x00000074   Code   RO         6128    i.MPU6050_Read_Len  mpu6050.o
    0x08004a80   0x08004a80   0x00000060   Code   RO         6129    i.MPU6050_Write_Len  mpu6050.o
    0x08004ae0   0x08004ae0   0x00000238   Code   RO         6912    i.MY_ADC_DMA_Init   bsp_adc.o
    0x08004d18   0x08004d18   0x00000004   Code   RO         5020    i.MemManage_Handler  stm32f4xx_it.o
    0x08004d1c   0x08004d1c   0x00000580   Code   RO         5640    i.Motor_WriteData_In_Buff  motor_control.o
    0x0800529c   0x0800529c   0x00000088   Code   RO         6630    i.My_Config_USART_Init  bsp_uart.o
    0x08005324   0x08005324   0x000000f0   Code   RO         6560    i.My_GPIO_Init      bsp_gpio.o
    0x08005414   0x08005414   0x0000007c   Code   RO         6795    i.My_USART1_DMA_RX_Init  bsp_usart_dma.o
    0x08005490   0x08005490   0x00000074   Code   RO         6796    i.My_USART1_DMA_TX_Init  bsp_usart_dma.o
    0x08005504   0x08005504   0x0000007c   Code   RO         6797    i.My_USART2_DMA_RX_Init  bsp_usart_dma.o
    0x08005580   0x08005580   0x0000007c   Code   RO         6798    i.My_USART2_DMA_TX_Init  bsp_usart_dma.o
    0x080055fc   0x080055fc   0x0000007c   Code   RO         6799    i.My_USART3_DMA_RX_Init  bsp_usart_dma.o
    0x08005678   0x08005678   0x0000007c   Code   RO         6800    i.My_USART3_DMA_TX_Init  bsp_usart_dma.o
    0x080056f4   0x080056f4   0x0000007c   Code   RO         6801    i.My_USART6_DMA_RX_Init  bsp_usart_dma.o
    0x08005770   0x08005770   0x0000007c   Code   RO         6802    i.My_USART6_DMA_TX_Init  bsp_usart_dma.o
    0x080057ec   0x080057ec   0x00000218   Code   RO         6803    i.My_USART_DMA_config  bsp_usart_dma.o
    0x08005a04   0x08005a04   0x00000002   Code   RO         5021    i.NMI_Handler       stm32f4xx_it.o
    0x08005a06   0x08005a06   0x00000002   PAD
    0x08005a08   0x08005a08   0x00000078   Code   RO          155    i.NVIC_Init         misc.o
    0x08005a80   0x08005a80   0x00000014   Code   RO          156    i.NVIC_PriorityGroupConfig  misc.o
    0x08005a94   0x08005a94   0x00000040   Code   RO         5476    i.NVIC_SystemReset  dbus.o
    0x08005ad4   0x08005ad4   0x00000002   Code   RO         5022    i.PendSV_Handler    stm32f4xx_it.o
    0x08005ad6   0x08005ad6   0x00000002   PAD
    0x08005ad8   0x08005ad8   0x00000020   Code   RO         2624    i.RCC_AHB1PeriphClockCmd  stm32f4xx_rcc.o
    0x08005af8   0x08005af8   0x00000020   Code   RO         2633    i.RCC_APB1PeriphClockCmd  stm32f4xx_rcc.o
    0x08005b18   0x08005b18   0x00000020   Code   RO         2635    i.RCC_APB1PeriphResetCmd  stm32f4xx_rcc.o
    0x08005b38   0x08005b38   0x00000020   Code   RO         2636    i.RCC_APB2PeriphClockCmd  stm32f4xx_rcc.o
    0x08005b58   0x08005b58   0x00000020   Code   RO         2638    i.RCC_APB2PeriphResetCmd  stm32f4xx_rcc.o
    0x08005b78   0x08005b78   0x000000e8   Code   RO         2645    i.RCC_GetClocksFreq  stm32f4xx_rcc.o
    0x08005c60   0x08005c60   0x0000068c   Code   RO         5477    i.RC_Callback_Handler  dbus.o
    0x080062ec   0x080062ec   0x00000294   Code   RO         5478    i.RC_Debug_Message  dbus.o
    0x08006580   0x08006580   0x000002e8   Code   RO         5479    i.RC_Offset_Init    dbus.o
    0x08006868   0x08006868   0x00000080   Code   RO         5480    i.RC_Remote_Init    dbus.o
    0x080068e8   0x080068e8   0x000002ec   Code   RO         5481    i.RC_Routing        dbus.o
    0x08006bd4   0x08006bd4   0x00000064   Code   RO         5220    i.Read_Isolated_Input  mick_io.o
    0x08006c38   0x08006c38   0x000000bc   Code   RO         6518    i.SPI1_Init         bsp_spi.o
    0x08006cf4   0x08006cf4   0x00000038   Code   RO         6519    i.SPI1_ReadWriteByte  bsp_spi.o
    0x08006d2c   0x08006d2c   0x00000028   Code   RO         6520    i.SPI1_SetSpeed     bsp_spi.o
    0x08006d54   0x08006d54   0x00000018   Code   RO         3782    i.SPI_Cmd           stm32f4xx_spi.o
    0x08006d6c   0x08006d6c   0x00000012   Code   RO         3790    i.SPI_I2S_GetFlagStatus  stm32f4xx_spi.o
    0x08006d7e   0x08006d7e   0x00000006   Code   RO         3793    i.SPI_I2S_ReceiveData  stm32f4xx_spi.o
    0x08006d84   0x08006d84   0x00000004   Code   RO         3794    i.SPI_I2S_SendData  stm32f4xx_spi.o
    0x08006d88   0x08006d88   0x0000003c   Code   RO         3795    i.SPI_Init          stm32f4xx_spi.o
    0x08006dc4   0x08006dc4   0x00000002   Code   RO         5023    i.SVC_Handler       stm32f4xx_it.o
    0x08006dc6   0x08006dc6   0x00000002   PAD
    0x08006dc8   0x08006dc8   0x000000ec   Code   RO           13    i.SetSysClock       system_stm32f4xx.o
    0x08006eb4   0x08006eb4   0x000000d8   Code   RO         5222    i.Set_Isolated_Output  mick_io.o
    0x08006f8c   0x08006f8c   0x00000018   Code   RO         5024    i.SysTick_Handler   stm32f4xx_it.o
    0x08006fa4   0x08006fa4   0x00000078   Code   RO         6460    i.SysTick_Init      bsp_systick.o
    0x0800701c   0x0800701c   0x00000068   Code   RO           15    i.SystemInit        system_stm32f4xx.o
    0x08007084   0x08007084   0x00000016   Code   RO         5025    i.TIM2_IRQHandler   stm32f4xx_it.o
    0x0800709a   0x0800709a   0x00000002   PAD
    0x0800709c   0x0800709c   0x0000004c   Code   RO         5026    i.TIM6_DAC_IRQHandler  stm32f4xx_it.o
    0x080070e8   0x080070e8   0x00000074   Code   RO         5027    i.TIM7_IRQHandler   stm32f4xx_it.o
    0x0800715c   0x0800715c   0x00000006   Code   RO         4014    i.TIM_ClearFlag     stm32f4xx_tim.o
    0x08007162   0x08007162   0x00000006   Code   RO         4015    i.TIM_ClearITPendingBit  stm32f4xx_tim.o
    0x08007168   0x08007168   0x00000018   Code   RO         4020    i.TIM_Cmd           stm32f4xx_tim.o
    0x08007180   0x08007180   0x00000022   Code   RO         4041    i.TIM_GetITStatus   stm32f4xx_tim.o
    0x080071a2   0x080071a2   0x00000012   Code   RO         4045    i.TIM_ITConfig      stm32f4xx_tim.o
    0x080071b4   0x080071b4   0x00000084   Code   RO         4092    i.TIM_TimeBaseInit  stm32f4xx_tim.o
    0x08007238   0x08007238   0x00000298   Code   RO         6594    i.Timer_2to7_Init   bsp_timer.o
    0x080074d0   0x080074d0   0x0000000e   Code   RO         6595    i.Timer_start       bsp_timer.o
    0x080074de   0x080074de   0x00000002   PAD
    0x080074e0   0x080074e0   0x000000ac   Code   RO         6631    i.UART4_Config      bsp_uart.o
    0x0800758c   0x0800758c   0x00000080   Code   RO         5028    i.UART4_IRQHandler  stm32f4xx_it.o
    0x0800760c   0x0800760c   0x0000002a   Code   RO         6632    i.UART4_NVIC_Configuration  bsp_uart.o
    0x08007636   0x08007636   0x00000002   PAD
    0x08007638   0x08007638   0x000000c0   Code   RO         6633    i.UART5_Config      bsp_uart.o
    0x080076f8   0x080076f8   0x00000080   Code   RO         5029    i.UART5_IRQHandler  stm32f4xx_it.o
    0x08007778   0x08007778   0x00000028   Code   RO         6634    i.UART5_NVIC_Configuration  bsp_uart.o
    0x080077a0   0x080077a0   0x00000032   Code   RO         6635    i.UART_send_buffer  bsp_uart.o
    0x080077d2   0x080077d2   0x0000001e   Code   RO         6636    i.UART_send_char    bsp_uart.o
    0x080077f0   0x080077f0   0x0000005c   Code   RO         6637    i.UART_send_data    bsp_uart.o
    0x0800784c   0x0800784c   0x00000028   Code   RO         6640    i.UART_send_string  bsp_uart.o
    0x08007874   0x08007874   0x000000bc   Code   RO         6641    i.USART1_Config     bsp_uart.o
    0x08007930   0x08007930   0x000001e4   Code   RO         5030    i.USART1_IRQHandler  stm32f4xx_it.o
    0x08007b14   0x08007b14   0x00000026   Code   RO         6643    i.USART1_NVIC_Configuration  bsp_uart.o
    0x08007b3a   0x08007b3a   0x00000002   PAD
    0x08007b3c   0x08007b3c   0x000000a8   Code   RO         6644    i.USART2_Config     bsp_uart.o
    0x08007be4   0x08007be4   0x00000074   Code   RO         5031    i.USART2_IRQHandler  stm32f4xx_it.o
    0x08007c58   0x08007c58   0x00000028   Code   RO         6645    i.USART2_NVIC_Configuration  bsp_uart.o
    0x08007c80   0x08007c80   0x000000ac   Code   RO         6646    i.USART3_Config     bsp_uart.o
    0x08007d2c   0x08007d2c   0x00000158   Code   RO         5032    i.USART3_IRQHandler  stm32f4xx_it.o
    0x08007e84   0x08007e84   0x00000028   Code   RO         6647    i.USART3_NVIC_Configuration  bsp_uart.o
    0x08007eac   0x08007eac   0x000000a8   Code   RO         6648    i.USART6_Config     bsp_uart.o
    0x08007f54   0x08007f54   0x00000074   Code   RO         5033    i.USART6_IRQHandler  stm32f4xx_it.o
    0x08007fc8   0x08007fc8   0x00000028   Code   RO         6649    i.USART6_NVIC_Configuration  bsp_uart.o
    0x08007ff0   0x08007ff0   0x00000012   Code   RO         4570    i.USART_ClearFlag   stm32f4xx_usart.o
    0x08008002   0x08008002   0x0000001e   Code   RO         4571    i.USART_ClearITPendingBit  stm32f4xx_usart.o
    0x08008020   0x08008020   0x00000018   Code   RO         4574    i.USART_Cmd         stm32f4xx_usart.o
    0x08008038   0x08008038   0x00000012   Code   RO         4575    i.USART_DMACmd      stm32f4xx_usart.o
    0x0800804a   0x0800804a   0x0000001a   Code   RO         4577    i.USART_GetFlagStatus  stm32f4xx_usart.o
    0x08008064   0x08008064   0x00000054   Code   RO         4578    i.USART_GetITStatus  stm32f4xx_usart.o
    0x080080b8   0x080080b8   0x0000004a   Code   RO         4580    i.USART_ITConfig    stm32f4xx_usart.o
    0x08008102   0x08008102   0x00000002   PAD
    0x08008104   0x08008104   0x000000d4   Code   RO         4581    i.USART_Init        stm32f4xx_usart.o
    0x080081d8   0x080081d8   0x0000000a   Code   RO         4588    i.USART_ReceiveData  stm32f4xx_usart.o
    0x080081e2   0x080081e2   0x00000008   Code   RO         4591    i.USART_SendData    stm32f4xx_usart.o
    0x080081ea   0x080081ea   0x00000004   Code   RO         5034    i.UsageFault_Handler  stm32f4xx_it.o
    0x080081ee   0x080081ee   0x00000002   PAD
    0x080081f0   0x080081f0   0x00000054   Code   RO         6292    i.W25QXX_Init       w25q128.o
    0x08008244   0x08008244   0x00000048   Code   RO         6295    i.W25QXX_ReadID     w25q128.o
    0x0800828c   0x0800828c   0x000003b4   Code   RO         5641    i.WSWD_Wheel_Speed_Model  motor_control.o
    0x08008640   0x08008640   0x00000020   Code   RO        10066    i.__0printf         mc_w.l(printfa.o)
    0x08008660   0x08008660   0x00000030   Code   RO        10174    i.__ARM_fpclassify  m_wm.l(fpclassify.o)
    0x08008690   0x08008690   0x00000358   Code   RO         9748    i.__hardfp_acos     m_wm.l(acos.o)
    0x080089e8   0x080089e8   0x00000118   Code   RO         9762    i.__hardfp_acosf    m_wm.l(acosf.o)
    0x08008b00   0x08008b00   0x00000360   Code   RO         9774    i.__hardfp_asin     m_wm.l(asin.o)
    0x08008e60   0x08008e60   0x000002d8   Code   RO        10146    i.__hardfp_atan     m_wm.l(atan.o)
    0x08009138   0x08009138   0x000001f0   Code   RO         9788    i.__hardfp_atan2    m_wm.l(atan2.o)
    0x08009328   0x08009328   0x00000014   Code   RO         9800    i.__hardfp_fabs     m_wm.l(fabs.o)
    0x0800933c   0x0800933c   0x0000007a   Code   RO         9806    i.__hardfp_sqrt     m_wm.l(sqrt.o)
    0x080093b6   0x080093b6   0x000000f8   Code   RO        10190    i.__kernel_poly     m_wm.l(poly.o)
    0x080094ae   0x080094ae   0x00000014   Code   RO        10161    i.__mathlib_dbl_infnan  m_wm.l(dunder.o)
    0x080094c2   0x080094c2   0x00000014   Code   RO        10162    i.__mathlib_dbl_infnan2  m_wm.l(dunder.o)
    0x080094d6   0x080094d6   0x00000002   PAD
    0x080094d8   0x080094d8   0x00000020   Code   RO        10163    i.__mathlib_dbl_invalid  m_wm.l(dunder.o)
    0x080094f8   0x080094f8   0x00000020   Code   RO        10166    i.__mathlib_dbl_underflow  m_wm.l(dunder.o)
    0x08009518   0x08009518   0x00000006   Code   RO        10177    i.__mathlib_flt_infnan  m_wm.l(funder.o)
    0x0800951e   0x0800951e   0x00000002   PAD
    0x08009520   0x08009520   0x00000010   Code   RO        10179    i.__mathlib_flt_invalid  m_wm.l(funder.o)
    0x08009530   0x08009530   0x0000000e   Code   RO        10252    i.__scatterload_copy  mc_w.l(handlers.o)
    0x0800953e   0x0800953e   0x00000002   Code   RO        10253    i.__scatterload_null  mc_w.l(handlers.o)
    0x08009540   0x08009540   0x0000000e   Code   RO        10254    i.__scatterload_zeroinit  mc_w.l(handlers.o)
    0x0800954e   0x0800954e   0x0000000a   Code   RO         5483    i.__set_FAULTMASK   dbus.o
    0x08009558   0x08009558   0x0000000c   Code   RO        10234    i.__set_errno       mc_w.l(errno.o)
    0x08009564   0x08009564   0x00000184   Code   RO        10073    i._fp_digits        mc_w.l(printfa.o)
    0x080096e8   0x080096e8   0x000006dc   Code   RO        10074    i._printf_core      mc_w.l(printfa.o)
    0x08009dc4   0x08009dc4   0x00000024   Code   RO        10075    i._printf_post_padding  mc_w.l(printfa.o)
    0x08009de8   0x08009de8   0x0000002e   Code   RO        10076    i._printf_pre_padding  mc_w.l(printfa.o)
    0x08009e16   0x08009e16   0x00000002   PAD
    0x08009e18   0x08009e18   0x000000c0   Code   RO         7609    i.accel_self_test   inv_mpu.o
    0x08009ed8   0x08009ed8   0x00000010   Code   RO        10148    i.atan              m_wm.l(atan.o)
    0x08009ee8   0x08009ee8   0x00000064   Code   RO         7950    i.decode_gesture    inv_mpu_dmp_motion_driver.o
    0x08009f4c   0x08009f4c   0x00000010   Code   RO         6461    i.delay_ms          bsp_systick.o
    0x08009f5c   0x08009f5c   0x0000003c   Code   RO         7951    i.dmp_enable_6x_lp_quat  inv_mpu_dmp_motion_driver.o
    0x08009f98   0x08009f98   0x0000021c   Code   RO         7952    i.dmp_enable_feature  inv_mpu_dmp_motion_driver.o
    0x0800a1b4   0x0800a1b4   0x00000058   Code   RO         7953    i.dmp_enable_gyro_cal  inv_mpu_dmp_motion_driver.o
    0x0800a20c   0x0800a20c   0x0000003c   Code   RO         7954    i.dmp_enable_lp_quat  inv_mpu_dmp_motion_driver.o
    0x0800a248   0x0800a248   0x00000018   Code   RO         7959    i.dmp_load_motion_driver_firmware  inv_mpu_dmp_motion_driver.o
    0x0800a260   0x0800a260   0x000001cc   Code   RO         7960    i.dmp_read_fifo     inv_mpu_dmp_motion_driver.o
    0x0800a42c   0x0800a42c   0x00000130   Code   RO         7963    i.dmp_set_accel_bias  inv_mpu_dmp_motion_driver.o
    0x0800a55c   0x0800a55c   0x00000070   Code   RO         7964    i.dmp_set_fifo_rate  inv_mpu_dmp_motion_driver.o
    0x0800a5cc   0x0800a5cc   0x00000130   Code   RO         7965    i.dmp_set_gyro_bias  inv_mpu_dmp_motion_driver.o
    0x0800a6fc   0x0800a6fc   0x00000138   Code   RO         7967    i.dmp_set_orientation  inv_mpu_dmp_motion_driver.o
    0x0800a834   0x0800a834   0x00000038   Code   RO         7970    i.dmp_set_shake_reject_thresh  inv_mpu_dmp_motion_driver.o
    0x0800a86c   0x0800a86c   0x00000026   Code   RO         7971    i.dmp_set_shake_reject_time  inv_mpu_dmp_motion_driver.o
    0x0800a892   0x0800a892   0x00000026   Code   RO         7972    i.dmp_set_shake_reject_timeout  inv_mpu_dmp_motion_driver.o
    0x0800a8b8   0x0800a8b8   0x00000046   Code   RO         7973    i.dmp_set_tap_axes  inv_mpu_dmp_motion_driver.o
    0x0800a8fe   0x0800a8fe   0x00000026   Code   RO         7974    i.dmp_set_tap_count  inv_mpu_dmp_motion_driver.o
    0x0800a924   0x0800a924   0x000001c0   Code   RO         7975    i.dmp_set_tap_thresh  inv_mpu_dmp_motion_driver.o
    0x0800aae4   0x0800aae4   0x00000026   Code   RO         7976    i.dmp_set_tap_time  inv_mpu_dmp_motion_driver.o
    0x0800ab0a   0x0800ab0a   0x00000026   Code   RO         7977    i.dmp_set_tap_time_multi  inv_mpu_dmp_motion_driver.o
    0x0800ab30   0x0800ab30   0x00000018   Code   RO         9802    i.fabs              m_wm.l(fabs.o)
    0x0800ab48   0x0800ab48   0x00000024   Code   RO         6652    i.fputc             bsp_uart.o
    0x0800ab6c   0x0800ab6c   0x000000d0   Code   RO         7610    i.get_accel_prod_shift  inv_mpu.o
    0x0800ac3c   0x0800ac3c   0x00000470   Code   RO         7611    i.get_st_biases     inv_mpu.o
    0x0800b0ac   0x0800b0ac   0x00000120   Code   RO         7612    i.gyro_self_test    inv_mpu.o
    0x0800b1cc   0x0800b1cc   0x00000028   Code   RO         7613    i.inv_orientation_matrix_to_scalar  inv_mpu.o
    0x0800b1f4   0x0800b1f4   0x0000004e   Code   RO         7614    i.inv_row_2_scale   inv_mpu.o
    0x0800b242   0x0800b242   0x00000002   PAD
    0x0800b244   0x0800b244   0x00000610   Code   RO         4830    i.main              main.o
    0x0800b854   0x0800b854   0x00000002   Code   RO         7615    i.mget_ms           inv_mpu.o
    0x0800b856   0x0800b856   0x00000002   PAD
    0x0800b858   0x0800b858   0x00000018   Code   RO         6462    i.micros            bsp_systick.o
    0x0800b870   0x0800b870   0x00000070   Code   RO         7616    i.mpu_configure_fifo  inv_mpu.o
    0x0800b8e0   0x0800b8e0   0x000000a0   Code   RO         7618    i.mpu_dmp_init      inv_mpu.o
    0x0800b980   0x0800b980   0x0000004c   Code   RO         7619    i.mpu_get_accel_fsr  inv_mpu.o
    0x0800b9cc   0x0800b9cc   0x00000054   Code   RO         7621    i.mpu_get_accel_sens  inv_mpu.o
    0x0800ba20   0x0800ba20   0x00000010   Code   RO         7626    i.mpu_get_fifo_config  inv_mpu.o
    0x0800ba30   0x0800ba30   0x00000044   Code   RO         7627    i.mpu_get_gyro_fsr  inv_mpu.o
    0x0800ba74   0x0800ba74   0x00000060   Code   RO         7629    i.mpu_get_gyro_sens  inv_mpu.o
    0x0800bad4   0x0800bad4   0x00000050   Code   RO         7631    i.mpu_get_lpf       inv_mpu.o
    0x0800bb24   0x0800bb24   0x00000020   Code   RO         7633    i.mpu_get_sample_rate  inv_mpu.o
    0x0800bb44   0x0800bb44   0x000001f0   Code   RO         7635    i.mpu_init          inv_mpu.o
    0x0800bd34   0x0800bd34   0x000000b8   Code   RO         7636    i.mpu_load_firmware  inv_mpu.o
    0x0800bdec   0x0800bdec   0x000000e0   Code   RO         7637    i.mpu_lp_accel_mode  inv_mpu.o
    0x0800becc   0x0800becc   0x000000c0   Code   RO         7640    i.mpu_read_fifo_stream  inv_mpu.o
    0x0800bf8c   0x0800bf8c   0x00000080   Code   RO         7641    i.mpu_read_mem      inv_mpu.o
    0x0800c00c   0x0800c00c   0x000001c8   Code   RO         7644    i.mpu_reset_fifo    inv_mpu.o
    0x0800c1d4   0x0800c1d4   0x0000011c   Code   RO         7645    i.mpu_run_self_test  inv_mpu.o
    0x0800c2f0   0x0800c2f0   0x00000084   Code   RO         7647    i.mpu_set_accel_fsr  inv_mpu.o
    0x0800c374   0x0800c374   0x0000014c   Code   RO         7648    i.mpu_set_bypass    inv_mpu.o
    0x0800c4c0   0x0800c4c0   0x00000090   Code   RO         7650    i.mpu_set_dmp_state  inv_mpu.o
    0x0800c550   0x0800c550   0x00000088   Code   RO         7651    i.mpu_set_gyro_fsr  inv_mpu.o
    0x0800c5d8   0x0800c5d8   0x0000006c   Code   RO         7652    i.mpu_set_int_latched  inv_mpu.o
    0x0800c644   0x0800c644   0x00000084   Code   RO         7654    i.mpu_set_lpf       inv_mpu.o
    0x0800c6c8   0x0800c6c8   0x0000009c   Code   RO         7655    i.mpu_set_sample_rate  inv_mpu.o
    0x0800c764   0x0800c764   0x000000d0   Code   RO         7656    i.mpu_set_sensors   inv_mpu.o
    0x0800c834   0x0800c834   0x00000080   Code   RO         7657    i.mpu_write_mem     inv_mpu.o
    0x0800c8b4   0x0800c8b4   0x0000009a   Code   RO         7658    i.run_self_test     inv_mpu.o
    0x0800c94e   0x0800c94e   0x00000002   PAD
    0x0800c950   0x0800c950   0x00000090   Code   RO         7659    i.set_int_enable    inv_mpu.o
    0x0800c9e0   0x0800c9e0   0x0000006e   Code   RO         9808    i.sqrt              m_wm.l(sqrt.o)
    0x0800ca4e   0x0800ca4e   0x0000003e   Code   RO        10195    i.sqrtf             m_wm.l(sqrtf.o)
    0x0800ca8c   0x0800ca8c   0x0000000c   Data   RO         5761    .constdata          motor_apsl2db.o
    0x0800ca98   0x0800ca98   0x00000050   Data   RO         7661    .constdata          inv_mpu.o
    0x0800cae8   0x0800cae8   0x00000bf6   Data   RO         7979    .constdata          inv_mpu_dmp_motion_driver.o
    0x0800d6de   0x0800d6de   0x00000002   PAD
    0x0800d6e0   0x0800d6e0   0x00000050   Data   RO         9751    .constdata          m_wm.l(acos.o)
    0x0800d730   0x0800d730   0x00000050   Data   RO         9777    .constdata          m_wm.l(asin.o)
    0x0800d780   0x0800d780   0x00000098   Data   RO        10149    .constdata          m_wm.l(atan.o)
    0x0800d818   0x0800d818   0x00000008   Data   RO        10192    .constdata          m_wm.l(qnan.o)
    0x0800d820   0x0800d820   0x00000048   Data   RO         4833    .conststring        main.o
    0x0800d868   0x0800d868   0x0000004b   Data   RO         5762    .conststring        motor_apsl2db.o
    0x0800d8b3   0x0800d8b3   0x00000001   PAD
    0x0800d8b4   0x0800d8b4   0x0000004d   Data   RO         7662    .conststring        inv_mpu.o
    0x0800d901   0x0800d901   0x00000003   PAD
    0x0800d904   0x0800d904   0x00000020   Data   RO        10250    Region$$Table       anon$$obj.o


    Execution Region RW_IRAM1 (Exec base: 0x20000000, Load base: 0x0800d924, Size: 0x000011a8, Max: 0x00020000, ABSOLUTE)

    Exec Addr    Load Addr    Size         Type   Attr      Idx    E Section Name        Object

    0x20000000   0x0800d924   0x00000014   Data   RW           16    .data               system_stm32f4xx.o
    0x20000014   0x0800d938   0x00000010   Data   RW         2677    .data               stm32f4xx_rcc.o
    0x20000024   0x0800d948   0x0000002c   Data   RW         4834    .data               main.o
    0x20000050   0x0800d974   0x0000000d   Data   RW         5036    .data               stm32f4xx_it.o
    0x2000005d   0x0800d981   0x00000001   Data   RW         5223    .data               mick_io.o
    0x2000005e   0x0800d982   0x00000002   PAD
    0x20000060   0x0800d984   0x00000017   Data   RW         5485    .data               dbus.o
    0x20000077   0x0800d99b   0x00000001   PAD
    0x20000078   0x0800d99c   0x00000020   Data   RW         5643    .data               motor_control.o
    0x20000098   0x0800d9bc   0x00000006   Data   RW         5763    .data               motor_apsl2db.o
    0x2000009e   0x0800d9c2   0x00000002   Data   RW         5920    .data               motor_rmd.o
    0x200000a0   0x0800d9c4   0x00000002   Data   RW         6306    .data               w25q128.o
    0x200000a2   0x0800d9c6   0x00000002   PAD
    0x200000a4   0x0800d9c8   0x00000004   Data   RW         6463    .data               bsp_systick.o
    0x200000a8   0x0800d9cc   0x00000002   Data   RW         6914    .data               bsp_adc.o
    0x200000aa   0x0800d9ce   0x00000002   PAD
    0x200000ac   0x0800d9d0   0x00000035   Data   RW         7663    .data               inv_mpu.o
    0x200000e1   0x0800da05   0x00000003   PAD
    0x200000e4   0x0800da08   0x00000004   Data   RW        10219    .data               mc_w.l(stdout.o)
    0x200000e8   0x0800da0c   0x00000004   Data   RW        10235    .data               mc_w.l(errno.o)
    0x200000ec        -       0x0000008c   Zero   RW         4831    .bss                main.o
    0x20000178        -       0x00000038   Zero   RW         5484    .bss                dbus.o
    0x200001b0        -       0x000000c4   Zero   RW         5568    .bss                battery.o
    0x20000274        -       0x000000a8   Zero   RW         5642    .bss                motor_control.o
    0x2000031c        -       0x000000e0   Zero   RW         5760    .bss                motor_apsl2db.o
    0x200003fc        -       0x000000e0   Zero   RW         5919    .bss                motor_rmd.o
    0x200004dc        -       0x00000078   Zero   RW         6222    .bss                imu.o
    0x20000554        -       0x00000441   Zero   RW         6805    .bss                bsp_usart_dma.o
    0x20000995   0x0800da10   0x00000003   PAD
    0x20000998        -       0x00000010   Zero   RW         7978    .bss                inv_mpu_dmp_motion_driver.o
    0x200009a8        -       0x00000800   Zero   RW            1    STACK               startup_stm32f40xx.o


==============================================================================

Image component sizes


      Code (inc. data)   RO Data    RW Data    ZI Data      Debug   Object Name

         0          0          0          0        196       1087   battery.o
       568         18          0          2          0       2063   bsp_adc.o
       526         28          0          0          0       3744   bsp_can.o
       248         46          0          0          0       1905   bsp_gpio.o
       284         20          0          0          0       1865   bsp_spi.o
       304         30          0          4          0      29854   bsp_systick.o
       678         22          0          0          0       2060   bsp_timer.o
      1684         88          0          0          0      14287   bsp_uart.o
      1652        168          0          0       1089       8668   bsp_usart_dma.o
      4030        630          0         23         56       8140   dbus.o
       684         44          0          0        120       3314   imu.o
      6406        302        157         53          0      35884   inv_mpu.o
      3128        138       3062          0         16      21342   inv_mpu_dmp_motion_driver.o
       592         40          0          0          0       4595   io_iic.o
      1552        680         72         44        140       8730   main.o
       820         40          0          1          0       4369   mick_io.o
       140         24          0          0          0       1907   misc.o
      5288       1474         87          6        224      13633   motor_apsl2db.o
      7240        434          0         32        168      36162   motor_control.o
       332         14          0          2        224       1829   motor_rmd.o
       304          4          0          0          0       3134   mpu6050.o
        36          8        392          0       2048        976   startup_stm32f40xx.o
       436         34          0          0          0       6842   stm32f4xx_adc.o
      1486         16          0          0          0       7756   stm32f4xx_can.o
       736         72          0          0          0       7182   stm32f4xx_dma.o
        36         10          0          0          0       1280   stm32f4xx_exti.o
       248          0          0          0          0       4737   stm32f4xx_gpio.o
      1798        182          0         13          0      14772   stm32f4xx_it.o
       392         48          0         16          0       6529   stm32f4xx_rcc.o
       112          0          0          0          0       4074   stm32f4xx_spi.o
       220         28          0          0          0       4878   stm32f4xx_tim.o
       504          8          0          0          0       8256   stm32f4xx_usart.o
       340         32          0         20          0     337333   system_stm32f4xx.o
       156         20          0          2          0       1930   w25q128.o

    ----------------------------------------------------------------------
     43006       4702       3808        228       4284     615117   Object Totals
         0          0         32          0          0          0   (incl. Generated)
        46          0          6         10          3          0   (incl. Padding)

    ----------------------------------------------------------------------

      Code (inc. data)   RO Data    RW Data    ZI Data      Debug   Library Member Name

       856        118         80          0          0        288   acos.o
       280         46          0          0          0        176   acosf.o
       864         94         80          0          0        280   asin.o
       744        106        152          0          0        352   atan.o
       496         64          0          0          0        192   atan2.o
       104         16          0          0          0        496   dunder.o
        44          0          0          0          0        248   fabs.o
        48          0          0          0          0        124   fpclassify.o
        22          6          0          0          0        232   funder.o
       248          0          0          0          0        152   poly.o
         0          0          8          0          0          0   qnan.o
       232          0          0          0          0        296   sqrt.o
        62          0          0          0          0        136   sqrtf.o
         0          0          0          0          0          0   entry.o
         0          0          0          0          0          0   entry10a.o
         0          0          0          0          0          0   entry11a.o
         8          4          0          0          0          0   entry2.o
         4          0          0          0          0          0   entry5.o
         0          0          0          0          0          0   entry7b.o
         0          0          0          0          0          0   entry8b.o
         8          4          0          0          0          0   entry9a.o
        12          6          0          4          0         68   errno.o
        30          0          0          0          0          0   handlers.o
        36          8          0          0          0         68   init.o
         0          0          0          0          0          0   iusefp.o
        98          0          0          0          0         84   ldiv.o
        30          0          0          0          0         68   llshl.o
        36          0          0          0          0         68   llsshr.o
        32          0          0          0          0         68   llushr.o
        26          0          0          0          0         80   memcmp.o
        36          0          0          0          0         68   memcpya.o
        36          0          0          0          0        108   memseta.o
      2258         90          0          0          0        452   printfa.o
         0          0          0          4          0          0   stdout.o
        44          0          0          0          0         80   uidiv.o
        98          0          0          0          0         92   uldiv.o
        48          0          0          0          0         68   cdcmple.o
        48          0          0          0          0         68   cdrcmple.o
        56          0          0          0          0         88   d2f.o
       334          0          0          0          0        148   dadd.o
       222          0          0          0          0        100   ddiv.o
       186          0          0          0          0        176   depilogue.o
        62          0          0          0          0         80   dfixi.o
        50          0          0          0          0         76   dfixui.o
        48          0          0          0          0         68   dfixul.o
        34          0          0          0          0         76   dflti.o
        26          0          0          0          0         76   dfltui.o
       228          0          0          0          0         96   dmul.o
       162          0          0          0          0        100   dsqrt.o
        38          0          0          0          0         68   f2d.o
       110          0          0          0          0        168   fepilogue.o

    ----------------------------------------------------------------------
      8454        562        320          8          0       5732   Library Totals
        10          0          0          0          0          0   (incl. Padding)

    ----------------------------------------------------------------------

      Code (inc. data)   RO Data    RW Data    ZI Data      Debug   Library Name

      4000        450        320          0          0       2972   m_wm.l
      2792        112          0          8          0       1304   mc_w.l
      1652          0          0          0          0       1456   mf_w.l

    ----------------------------------------------------------------------
      8454        562        320          8          0       5732   Library Totals

    ----------------------------------------------------------------------

==============================================================================


      Code (inc. data)   RO Data    RW Data    ZI Data      Debug   

     51460       5264       4128        236       4284     594597   Grand Totals
     51460       5264       4128        236       4284     594597   ELF Image Totals
     51460       5264       4128        236          0          0   ROM Totals

==============================================================================

    Total RO  Size (Code + RO Data)                55588 (  54.29kB)
    Total RW  Size (RW Data + ZI Data)              4520 (   4.41kB)
    Total ROM Size (Code + RO Data + RW Data)      55824 (  54.52kB)

==============================================================================

